:100000000C94E7030C940F040C940F040C940F044D
:100010000C940F040C940F040C940F040C941A0904
:100020000C940F040C940F040C941E190C94A51935
:100030000C940F040C940F040C940F040C940F04F4
:100040000C940F040C940F040C940F040C940F04E4
:100050000C940F040C940F040C940F040C94411096
:100060000C940F040C9435130C947C130C940F0413
:100070000C940F040C940F040C940F040C940F04B4
:100080000C949D160C9444040C940F040C940F04CF
:100090000C94900E0C940F040C9457040C940F04C1
:1000A0000C940F040C940F040C940F040000000037
:1000B000007CDAF2DA7C7CD6F2D67C387C3E7C3866
:1000C000183C7E3C1838EABEEA38387AFE7A3800A6
:1000D000183C1800FFE7C3E7FF0018241800FFE7EB
:1000E000DBE7FF0C125C607064949E946402FEA0D7
:1000F000A0E002FEA0A4FC5A3CE73C5AFE7C383843
:10010000101038387CFE2844FE4428FAFA00FAFA27
:100110006090FE80FE006691A95606060606062936
:1001200045FF452910207E201008047E0408101089
:1001300054381010385410107808080808307830F7
:1001400078300C1C7C1C0C60707C7060000000001F
:10015000000000FA000000E000E00028FE28FE2871
:100160002454FE5448C4C81026466C926A040A00FF
:1001700010E0C00000384482000082443800543847
:10018000FE385410107C101000010E0C00101010DE
:100190001010000006060004081020407C8A92A27D
:1001A0007C0042FE02004E92929262848292B2CC15
:1001B000182848FE08E4A2A2A29C3C5292928C828B
:1001C000848890E06C9292926C6292929478000093
:1001D00028000000022C0000001028448228282853
:1001E0002828008244281040809A90607C82BA9A25
:1001F000723E4888483EFE9292926C7C8282824493
:10020000FE8282827CFE92929282FE909090807C0E
:1002100082828ACEFE101010FE0082FE820004024E
:1002200082FC80FE10284482FE02020202FE403858
:1002300040FEFE201008FE7C8282827CFE90909020
:10024000607C828A847AFE90989462649292924C46
:10025000C080FE80C0FC020202FCF8040204F8FC2C
:10026000021C02FCC6281028C6C0201E20C0869A88
:1002700092B2C200FE828282402010080400828274
:1002800082FE2040804020020202020200C0E010F4
:1002900000042A2A1E02FE1422221C1C22222214DE
:1002A0001C222214FE1C2A2A2A1800107E904018B4
:1002B0002525391EFE1020201E0022BE0200040249
:1002C00002BC00FE081422000082FE02003E201E36
:1002D000201E3E1020201E1C2222221C3F182424F7
:1002E00018182424183F3E10202010122A2A2A24ED
:1002F0002020FC22243C0202043E38040204383C44
:10030000020C023C2214081422320909093E22265A
:100310002A322200106C82000000EE000000826C85
:10032000100040804020403C64C4643C7885858651
:10033000485C0202045E1C2A2AAA9A84AAAA9E8207
:10034000842A2A1E8284AA2A1E02042AAA9E023015
:10035000784A4E489CAAAAAA9A9C2A2A2A9A9CAA17
:100360002A2A1A0000A23E820040A2BE420080A2B9
:100370003E020F9424940F0F14A4140F3E2AAAA235
:1003800000042A2A3E2A3E5090FE924C9292924CB1
:100390004C1212124C4C5212120C5C8282845E5C23
:1003A0004202041E00B90505BE9C2222229CBC020A
:1003B0000202BC3C24FF2424127E92C266D4F43F85
:1003C000F4D4FF90946F0403117E90C0042A2A9EF7
:1003D00082000022BE820C1212524C1C0202445EA9
:1003E000005E50504EBEB0988CBE649494F4146479
:1003F000949494640C12B202041C1010101010108B
:1004000010101CF40813355DF408142C5F0000DE96
:100410000000102854284444285428105500AA00ED
:100420005555AA55AA55AA55AA55AA000000FF007D
:10043000080808FF00282828FF000808FF00FF0818
:10044000080F080F2828283F002828EF00FF000089
:10045000FF00FF28282F203F2828E808F80808F880
:1004600008F8282828F8000808080F00000000F8FD
:1004700008080808F8080808080F08000000FF0826
:100480000808080808080808FF08000000FF2800FE
:1004900000FF00FF0000F808E800003F202F282898
:1004A000E808E828282F202F0000FF00EF28282840
:1004B00028282828EF00EF282828E8280808F80826
:1004C000F82828282F2808080F080F0000F808F837
:1004D000000000F8280000003F2800000F080F0867
:1004E00008FF08FF282828FF28080808F80000004F
:1004F000000F08FFFFFFFFFF0F0F0F0F0FFFFFFFA2
:100500000000000000FFFFF0F0F0F0F01C22221CC1
:10051000223E54547C287E40406060407E407E40B5
:10052000C6AA9282C61C22223C20027E0478046065
:10053000407E404099A5E7A5993854925438324EF0
:10054000804E320C52B2B20C0C121E120C3D465AA6
:1005500062BC7C929292007E8080807E545454547F
:10056000542222FA2222028A5222020222528A02B1
:100570000000FF80C00701FF00001010D6D6106CED
:10058000486C246C60F090F06000001818000000C7
:100590000808000C02FF808000F88080780098B87E
:1005A000E848003C3C3C3C00000000240027002AB6
:1005B000002D00300000000000250028002B002E38
:1005C000003100000000002300260029002C002F2D
:1005D00000040404040403040502020202040302EA
:1005E00002020206060606060604040202020404CB
:1005F0000802011040804010204080408008020422
:1006000001804020100201108010204040000000B6
:100610000200080E0000030401000B0000000000AF
:1006200000000000000000000000000706050401B3
:1006300000080A0B0C0D09080B0002020201000958
:10064000040000010202000005240010010524013D
:100650000101042402060524060001070581031098
:10066000004009040100020A0000000705020240E0
:10067000000007058302400000040309044172647E
:1006800075696E6F204C656F6E6172646F004172A8
:100690006475696E6F204C4C43001201000200002B
:1006A00000404123368000010102000112010002D6
:1006B000020000404123368000010102000100C118
:1006C0008081C105010902A1010901A1008501057F
:1006D000091901290315002501950375018102956A
:1006E0000175058103050109300931093815812596
:1006F0007F750895038106C0C005010906A1018523
:1007000002050719E029E715002501750195088103
:100710000295017508810395067508150025650584
:1007200007190029658100C00904020001030000C7
:100730000009210101000122650007058403400032
:100740000100000000000000002A2B28000000002B
:100750000000000000000000000000000000000099
:10076000002C9EB4A0A1A2A434A6A7A5AE362D3716
:1007700038271E1F20212223242526B333B62EB767
:10078000B89F8485868788898A8B8C8D8E8F90917F
:1007900092939495969798999A9B9C9D2F3130A30C
:1007A000AD350405060708090A0B0C0D0E0F1011D4
:1007B00012131415161718191A1B1C1DAFB1B0B55A
:1007C0000000C10C070D6812B9145A182E1B112411
:1007D0001FBECFEFDAE0DEBFCDBF15E0A0E0B1E095
:1007E000ECE2FDE302C005900D92A039B107D9F704
:1007F00018E0A0E9B5E001C01D92A23DB107E1F704
:1008000017E0CEECD7E004C02297FE010E94901EB4
:10081000C23CD107C9F70E940F150C94941E0C948A
:100820000000FB01DC0102C001900D9241505040DC
:10083000D8F708956817790768F4FB01DC01E40F25
:10084000F51FA40FB51F02C002900E9241505040F8
:10085000D8F708950C94110421E030E00CC000009A
:10086000000000000000000000009F5F9A35B9F70B
:100870002150304011F090E0F2CF3C9A8093BB00C1
:1008800084E88093BC0008951F920F920FB60F92D8
:1008900011248F938BB180588BB9109295001092D0
:1008A00094008F910F900FBE0F901F9018951F927C
:1008B0000F920FB60F921124EF92FF920F931F9396
:1008C0002F933F934F935F936F937F938F939F9358
:1008D000AF93BF93CF93DF93EF93FF931092BF003B
:1008E0001092BE00109292061092930620919506E7
:1008F000309196068091970690E02817390728F4E2
:1009000080919306816080939306209195063091A3
:1009100096068091980690E02817390728F4809170
:1009200093068260809393062091950630919606F7
:100930008091990690E02817390728F48091930652
:100940008460809393068091950690919606019617
:1009500090939606809395068091950690919606C1
:100960008436910521F41092960610929506809196
:100970009A06882371F480919306877F809393066B
:1009800040E050E0F8E0FF2E0FEF1FEFE7E0EE2E23
:1009900004C0809193068860F1CFFA01EE0FFF1F2B
:1009A000EE0FFF1F9F012556394FE901888199817C
:1009B000AA81BB81EA01CC0FDD1F0297A105B10519
:1009C00008F443C0BE016955794FFB0180819181D4
:1009D000892BA1F5DA01A355B94F8C91FA01E055A5
:1009E000F94F9081890F8C93F90180819181A281C7
:1009F000B3810197A109B10980839183A283B38355
:100A0000FA01ED54F94F2081CA01A3E0880F991F24
:100A1000AA95E1F7C80FD91FC20FD11DCA54D94FEB
:100A2000888190E0DB0111969C938E9380818F5F8B
:100A3000808380818A30E8F010821BC0EB018881BE
:100A4000998101979983888314C0D9011D921D92C1
:100A50001D921C921397EC52F94F10821182128250
:100A60001382FA01E355F94FF082C955D94F198322
:100A70000883FA01E355F94F8081883014F0108221
:100A800003C0808187FDE082FA01EE0FFF1FEE0FA9
:100A9000FF1FEC52F94F80819181A281B3810097B1
:100AA000A105B10521F4FA01E355F94FF0824F5F3A
:100AB0005F4F4330510509F070CF90919206E0915D
:100AC000AE06FF27E7FDF095E052F94F8081982BA5
:100AD0009093920690919206E091AF06FF27E7FD72
:100AE000F095E751F94F8081982B90939206909161
:100AF0009306E091AD06FF27E7FDF095E751F94F2A
:100B00008081982B909393065D98809193068EBD7B
:100B10000DB407FEFDCF8EB5809192068EBD0DB44B
:100B200007FEFDCF8EB55D9AFF91EF91DF91CF91DA
:100B3000BF91AF919F918F917F916F915F914F91F5
:100B40003F912F911F910F91FF90EF900F900FBE4B
:100B50000F901F901895CF93DF93962F50E0BA0116
:100B60007695762F66277795679585E02802900120
:100B70001124892F6B5C7E4FE9012596F901E4551C
:100B8000FF4FE491DB01A80FB11DEC938F5F2F5F46
:100B90003F4F2C173D0791F7292F2B5F342F330F31
:100BA000330F330F692F665F4F5F5F4F440F440F62
:100BB000440F80918E06281710F420938E068091A2
:100BC0008F06861710F460938F0680919006381771
:100BD00010F43093900680919106841710F440939E
:100BE0009106DF91CF9108950F931F93062F142F35
:100BF0003C9A84EA8093BC0020E030E08091BC0005
:100C000087FD38C02A353105A9F12F5F3F4FF6CF58
:100C10008091BC0087FD35C02A35310591F12F5FE9
:100C20003F4FF6CF8091BC0087FD31C02A3531059A
:100C300071F12F5F3F4FF6CF8091BC0087FD33C02D
:100C40002A35310581F12F5F3F4FF6CF8091BC00EF
:100C500087FD32C02A35310579F12F5F3F4FF6CF3E
:100C60008091BC0087FD2DC02A35310551F12F5FE1
:100C70003F4FF6CF812F880F0E942C0420E030E0F8
:100C8000C7CF802F0E942C0420E030E0CBCF3C9ACD
:100C900084EA8093BC00110F812F81600E942C0494
:100CA00020E030E0C9CF8091BC008F70806C8093D1
:100CB000BC0020E030E0CACF9091BB0020E030E0E3
:100CC000CFCF84E98093BC008091BC008B7F809360
:100CD000BC008091BC0084608093BC00892F1F9170
:100CE0000F9108950F931F93162F042F3C9A84EAB7
:100CF0008093BC0040E050E08091BC0087FD24C0A0
:100D00004A35510509F14F5F5F4FF6CF8091BC0026
:100D100087FD21C02A353105F1F02F5F3F4FF6CF17
:100D20008091BC0087FD1DC02A353105D1F02F5FB1
:100D30003F4FF6CF8091BC0087FD19C02A353105A1
:100D4000B1F02F5F3F4FF6CF822F880F0E942C0407
:100D500020E030E0DBCF812F0E942C0420E030E047
:100D6000DFCF802F0E942C0420E030E0E3CF84E925
:100D70008093BC001F910F910895CF93DF93EC01F6
:100D80006DE04DE10E94F4058A3219F02FEF3FEF3C
:100D900037C0CE016AE24DE10E94F405482F4E7F34
:100DA000CE016AE22DE10E947206CE016EE040E0C3
:100DB0002DE10E947206CE016AE24DE10E94F40527
:100DC000482F477CCE016AE22DE10E947206CE01D7
:100DD0006AE24DE10E94F405482FCE016AE22DE15E
:100DE0000E947206CE016AE24DE10E94F405482F8E
:100DF0004160CE016AE22DE10E94720621E030E0FE
:100E0000C901DF91CF9108951F93162FF8945D9A31
:100E100081E160E00E94FA111EBD0DB407FEFDCF16
:100E200081E161E00E94FA1178941F910895FF9288
:100E30000F931F938C01F62E84E061E00E94FA115B
:100E4000C8016F2D0E9404071F910F91FF90089514
:100E5000FF920F931F938C01F62E84E060E00E94B6
:100E6000FA11C8016F2D0E9404071F910F91FF9086
:100E700008958F929F92AF92BF92CF92DF92EF929E
:100E8000FF920F931F93CF93DF93EC0170E4872EB3
:100E900075E0972E20E030E0AA24BB2468E0C62E3F
:100EA000D12CC20ED31E8091900690E08C159D052A
:100EB000D4F58091910690E0821793070CF440C01E
:100EC000F4016081606BCE010E94280710918E06AC
:100ED00000918F06612F6F5F6F70CE010E9428070F
:100EE000612F70E06F5F7F4F54E0759567955A955D
:100EF000E1F76F706061CE010E942807CE0160EEBD
:100F00000E94280745E3E42E41E0F42EEA0CFB1C86
:100F100008C0F701E10FF11DCE0160810E941707A3
:100F20001F5F0117B0F70894811C911C80E890E0C6
:100F3000A80EB91E90E4C916D10411F09601AECFE7
:100F40008FE780938E0610928F068FE38093900632
:100F500010929106DF91CF911F910F91FF90EF902A
:100F6000DF90CF90BF90AF909F908F900895EF92B9
:100F7000FF921F937C01162F61E80E9428071F73C0
:100F8000C701612F0E9428071F91FF90EF900895DD
:100F9000CF93DF93EC0184E061E00E946D118CE05F
:100FA00061E00E946D1181E161E00E946D1181E1BB
:100FB00060E00E94FA1188EE93E020E931E0F90147
:100FC0003197F1F70197D9F78CE060E00E94FA11B0
:100FD00088EE93E020E931E0F9013197F1F70197CC
:100FE000D9F78CE061E00E94FA11CE0163EA0E9419
:100FF0002807CE0161EA0E942807CE0160EC0E941A
:101000002807CE0160E60E942807CE016CE20E940C
:10101000280784EF91E020E931E0F9013197F1F7F9
:101020000197D9F7CE016EE20E94280784EF91E084
:1010300020E931E0F9013197F1F70197D9F7CE01B5
:101040006FE20E94280780E49CE90197F1F7CE0146
:1010500066E20E94280780918E06882311F0109284
:101060008E0680918F068F3718F48FE780938F0656
:1010700080919006882311F010929006809191063D
:101080008F3318F48FE380939106DF91CF91089509
:101090008FE061E00E946D1180E161E00E946D11BE
:1010A00081E161E00E946D118FE060E00E94FA1121
:1010B00080E160E00E94FA1181E161E00E94FA1192
:1010C0008CB580618CBD8CB580648CBD8CB58C7FFB
:1010D0008CBD8DB581608DBD08950F931F938C01DC
:1010E0000E944808C8010E94C807C8016FEA0E9410
:1010F0002807C80164EA0E942807C80160E00E942E
:10110000B7071F910F91089585E391E065EB71E0BA
:1011100040E853E00E941A0480E8E5EBF4E0DF01C8
:101120001D928A95E9F780918E06882311F010921E
:101130008E0680918F068F3718F48FE780938F0685
:1011400080919006882311F010929006809191066C
:101150008F3318F48FE3809391060895CF92DF9236
:10116000EF92FF920F931F93CF93DF938C016B014C
:101170007A01C0E0D0E034C0F601EC0FFD1F208101
:101180002A3041F480918D068F5F80938D061092F6
:101190008C0619C02D30B9F0C80160918C064091C1
:1011A0008D060E94AB0580918C068A5F80938C0629
:1011B00090E08A3791053CF010928C0680918D0664
:1011C0008F5F80938D0680918D06883040F0C80136
:1011D0000E94840880918D06815080938D0621960F
:1011E000CE15DF0548F2DF91CF911F910F91FF904F
:1011F000EF90DF90CF9008950F931F93142F052F3A
:101200000E94AE08812F902F1F910F910895DF93B8
:10121000CF930F92CDB7DEB76983BE016F5F7F4F6B
:1012200041E050E00E94AE0881E090E00F90CF9145
:10123000DF9108951F920F920FB60F921124EF9233
:10124000FF920F931F932F933F934F935F936F934F
:101250007F938F939F93AF93BF93EF93FF9380916F
:101260006106813009F469C00E9489109B01AC01BC
:101270008CB1682F70E060747070809194059091CB
:101280009505A0919605B091970579018A01E81A14
:10129000F90A0A0B1B0BE0929005F092910500935E
:1012A0009205109393058091900590919105A091DE
:1012B0009205B091930580529E44A040B040D4F175
:1012C000672B19F4109260062CC0E0916006F0E0E4
:1012D0008091900590919105A0919205B091930510
:1012E000EE0FFF1FEE0FFF1FE856FA4F918380832A
:1012F00018C0E0916006F0E0809190059091910512
:10130000A0919205B0919305EE0FFF1FEE0FFF1F06
:10131000E856FA4F93838283809160068F5F8093B3
:10132000600620939405309395054093960550935D
:10133000970503C0672BE9F2C8CFFF91EF91BF91EA
:10134000AF919F918F917F916F915F914F913F915D
:101350002F911F910F91FF90EF900F900FBE0F9064
:101360001F9018955F926F927F928F929F92AF928B
:10137000BF92CF92DF92EF92FF920F931F93CF9382
:10138000DF935B01542ED52EE9019E2C8F2C702EFD
:10139000612E85EC97E060E071E00E94721685ECAA
:1013A00097E0B5014AE050E00E94401685EC97E0D6
:1013B00067E071E00E94721685EC97E0652D7D2D47
:1013C0004AE050E00E94401685EC97E066E171E04B
:1013D0000E94721685EC97E04E2D5F2D602F712FC5
:1013E0002AE030E00E942C16F501EE50F94FC08340
:1013F0002097C1F48FB7F894F501EE0FFF1FEE0FA1
:10140000FF1FDF01A556B94F1D921D921D921C9220
:101410001397EC52F94F10821182128213828FBF00
:101420007894B7C084EF91E0BE010E94451E6B0125
:10143000BE01882777FD8095982F0E94371D9B015C
:10144000AC0160E070E08AEF93E40E949C1C7B0199
:101450008C01B601882777FD8095982F0E94371D53
:101460009B01AC01C801B7010E94371C20E030E0AD
:1014700040E251E40E94C31D0E94041D8B0160E004
:101480004AE050E0401B510B7C2D7F5F9501220FFD
:10149000331FC501F3E0880F991FFA95E1F7280F74
:1014A000391F06C0E20FF31FEA54F94F70836F5FD4
:1014B000E62FF0E0E417F507ACF38AE0801BE501C6
:1014C000CC0FDD1FD50173E0AA0FBB1F7A95E1F7A2
:1014D0009E012A0F3B1F07C0F901E80FF11DEA54D6
:1014E000F94FC0828F5F8A30B8F34FB7F894F50197
:1014F000ED54F94F1082AC0FBD1FAA54B94F8C9117
:1015000090E0FE01EB50F94F9183808380819181BF
:10151000C955D94F99838883892D982DA72DB62D2C
:101520009501220F331F220F331FF901E556F94FA2
:1015300080839183A283B38380EB96E0A80EB91ECB
:10154000F50150822C52394F81E090E0A0E0B0E0EC
:10155000F90180839183A283B3834FBF789485EC94
:1015600097E060E271E00E94721685EC97E0B601A8
:101570004AE050E00E94401685EC97E067E271E097
:101580000E94721685EC97E0B8014AE050E00E9494
:10159000531661E070E080E090E00E940511DF9159
:1015A000CF911F910F91FF90EF90DF90CF90BF9060
:1015B000AF909F908F907F906F905F900895EF9283
:1015C000FF920F931F9341E050E020E030E0EE24C3
:1015D000FF2487010E94B2091F910F91FF90EF90A5
:1015E000089562E070E00E94DF0A0895EF92FF9292
:1015F0000F931F932091350562E070E041E050E0C9
:1016000030E0EE24EA94FE2C87010E94B2091F917B
:101610000F91FF90EF900895EF92FF920F931F9319
:101620002091350562E070E04FEF5FEF30E0EE248F
:10163000EA94FE2C87010E94B2091F910F91FF903E
:10164000EF900895EF92FF920F931F93162F042FA0
:1016500082E4E82E87E0F82EC7016EE170E00E9478
:10166000CD0CC701612F0E944F0DC701602F0E9452
:101670004F0DC7010E94920D1F910F91FF90EF90A7
:101680000895CF93DF9382E497E06EE170E00E94CB
:10169000CD0C82E497E063E00E944F0D82E497E076
:1016A0000E94920D82E497E06EE170E00E94CD0C02
:1016B00082E497E06EE170E046E050E00E94A30D06
:1016C00082E497E00E94D70C069771F4C0E0D0E066
:1016D00082E497E00E94E00CFE01EE59F94F80830E
:1016E0002196C630D105A1F782E497E00E94920DC1
:1016F000DF91CF9108950F931F938C0163E070E009
:1017000046E050E00E94410B409162062091630642
:10171000742F60E030E0622B732B882777FD809573
:10172000982F0E94371D2FE135E84BE65FE30E94BA
:10173000C31DF80164837583868397834091640693
:1017400020916506742F60E030E0622B732B8827B0
:1017500077FD8095982F0E94371D2FE135E84BE6E5
:101760005FE30E94C31DF8016087718782879387BA
:101770004091660620916706742F60E030E0622B8E
:10178000732B882777FD8095982F0E94371D2FE1B6
:1017900035E84BE65FE30E94C31DF8016487758757
:1017A000868797871F910F910895CF93DF93EC0160
:1017B00085EC97E060E875E20E942D1283E198E0E5
:1017C00040E855E260E070E00E94AC138DE061E01B
:1017D0000E946D118DE060E00E94FA118BE061E0E3
:1017E0000E946D118BE060E00E94FA1184E160E0DC
:1017F0000E946D1185E161E00E946D1186E161E05A
:101800000E946D1187E161E00E946D1186E061E048
:101810000E946D118AE061E00E946D1185E060E038
:101820000E946D1189E061E00E946D118BEF96E0DE
:1018300060E070E00E94C60C8BEF96E060E070E024
:101840000E94C60C8E8F0E94B80D84E00E94A70DE6
:10185000559A5D98809193068EBD0DB407FEFDCF1D
:101860008EB5809192068EBD0DB407FEFDCF8EB56C
:101870005D9A10929A0680E18093E90680E3809356
:10188000EA0680E28093EB0680E68093EC0680E433
:101890008093ED0680EC8093EE0680E88093EF065F
:1018A00080E98093F0061092F10681E08093E006D3
:1018B00083E08093E10682E08093E20686E08093F5
:1018C000E30684E08093E4068CE08093E50688E0FC
:1018D0008093E60689E08093E7061092E806CE0141
:1018E0000E946D08CE010E943907809135058093D2
:1018F000F4068093F3068093F206F8941092C000E9
:101900001092C1001092BF001092BE0080E380933D
:10191000CF0086E08093C100809172008064809344
:1019200072007894F89487E060E00E946D118091D5
:101930006A008F7C806180936A00EE9A7894CE0171
:101940000E94BD06CE0161E070E040E250E00E94DE
:10195000220BCE0162E070E040E050E00E94220BDA
:10196000CE010E947B0BDF91CF910895FC01138281
:1019700012828CE495E091838083CF010E94D50B85
:10198000089588E696E00E94B60C0895F999FECF76
:1019900072BD61BDF89A80B5089581E080934107DA
:1019A00060931E0710923F07109240070895209100
:1019B0001D0730E080911C07281B3109C9010895DB
:1019C00040911C0780911D07481718F02FEF3FEF3B
:1019D0000AC0E42FF0E0E450F94F8081282F30E076
:1019E0004F5F40931C07C9010895E0911C07809147
:1019F0001D07E81718F0EFEFFFEF06C0F0E0E45026
:101A0000F94F8081E82FF0E0CF01089508951092FA
:101A100045071092440788EE93E0A0E0B0E0809381
:101A2000460790934707A0934807B093490784E57A
:101A300095E090934307809342070895CF92DF92F9
:101A4000EF92FF920F931F93CF93DF937C016B0173
:101A50008A01809141078823A1F0C0E0D0E00DC049
:101A6000D701ED91FC91D601AC0FBD1F0190F08123
:101A7000E02DC7016C9109952196C017D10780F31D
:101A800004C0CB01642F0E94750EC801DF91CF9175
:101A90001F910F91FF90EF90DF90CF900895DF930B
:101AA000CF930F92CDB7DEB7FC01698380914107D8
:101AB0008823C9F080914007803238F081E090E0BF
:101AC0009383828320E030E015C080913F07E82FA8
:101AD000F0E0E15EF84F998190838F5F80933F073C
:101AE0008093400705C0CE01019661E00E94750E0B
:101AF00021E030E0C9010F90CF91DF9108950F935D
:101B0000062F80911E076FE177E04091400721E0AA
:101B10000E94200E10923F0710924007109241073A
:101B20000F91089561E00E947F0D0895413208F001
:101B300040E2862F6CEF76E00E94D70D10921C07D2
:101B400080931D07089521E00E94960D08952CB5FD
:101B5000382F33702C7F322B3CBD2DB590E09595FE
:101B600087959595879581702E7F822B8DBD0895E1
:101B70008FE061E00E946D1180E161E00E946D11D3
:101B800081E161E00E946D118FE060E00E94FA1136
:101B900080E160E00E94FA1181E161E00E94FA11A7
:101BA0008CB580618CBD8CB580648CBD0895382F58
:101BB000413210F040E042C080914E078823E1F7A7
:101BC00091E090934E07209350078FEF8093BB07CF
:101BD000109276074150409377074F5F90934F07DD
:101BE00080914F07330F832B80934F0780915107CC
:101BF000813041F41092510780914F078093BB00D0
:101C000085EC01C085EE8093BC0080914E07813049
:101C1000E1F380917607841710F44091760720E075
:101C200030E00AC0FB01E20FF31FD901AA5AB84FF6
:101C30008C9180832F5F3F4F2417A0F3842F08954A
:101C40000F931F93582F122F413210F081E04AC09A
:101C500080914E078823E1F782E080934E0700933E
:101C600050078FEF8093BB0710927607409377075A
:101C7000A6E5B7E0FB0102C081918D938E2F861BF4
:101C80008417D0F310924F0780914F07550F852B83
:101C900080934F0780915107813041F41092510792
:101CA00080914F078093BB0085EC01C085EE809347
:101CB000BC00112321F080914E078230E1F3809126
:101CC000BB078F3F11F480E00DC08091BB078032CD
:101CD00011F482E007C08091BB07803311F084E0EB
:101CE00001C083E01F910F910895482F613210F0D9
:101CF00081E0089580914E07843011F082E00895CC
:101D000060939907A8E7B7E0842F9C01F90102C00E
:101D100081918D938E2F841B8617D0F380E00895D8
:101D20001F920F920FB60F9211242F933F934F9350
:101D30005F936F937F938F939F93AF93BF93EF9333
:101D4000FF938091B90090E0887F90708036910574
:101D500009F4F2C081369105CCF58832910509F479
:101D60007BC089329105B4F48031910509F46FC0CC
:101D7000813191053CF4009709F447C1089709F0B7
:101D80004FC165C08831910509F466C0809709F09C
:101D900047C182C08034910509F4A4C08134910503
:101DA00044F48033910509F482C0C89709F038C122
:101DB00089C08035910509F489C08835910509F4F9
:101DC00096C08834910509F02BC1AEC088399105C1
:101DD00009F413C189399105ECF48837910509F4A8
:101DE000ABC0893791054CF48836910509F4A4C03D
:101DF0008037910509F014C19FC08838910509F416
:101E0000FCC08039910509F49DC08038910509F026
:101E100007C198C0803B910509F4C6C0813B91057C
:101E20004CF4803A910509F49FC0883A910509F075
:101E3000F7C0BAC0803C910509F4E3C0883C910525
:101E400009F4DFC0883B910509F0EAC0C2C0809167
:101E50004F078093BB00CFC09091760780917707A2
:101E6000981768F490917607E92FF0E0EA5AF84F56
:101E700080818093BB009F5F90937607BCC0809168
:101E80005007882309F44BC085ED8093BC008091F6
:101E9000BC0084FDFCCFC2C080E28093BB0785ED0F
:101EA0008093BC008091BC0084FDFCCFB7C080E370
:101EB0008093BB0785ED8093BC008091BC0084FDBE
:101EC000FCCFACC088E38093BB079BC080917607B2
:101ED0009091BB00E82FF0E0EA5AF84F90838F5FB3
:101EE00080937607909176078091770782C08091E2
:101EF00076079091BB00E82FF0E0EA5AF84F908304
:101F00008F5F8093760780915007882341F085ED9D
:101F10008093BC008091BC0084FDFCCF7FC081E039
:101F20008093510784EA6EC085ED8093BC00809158
:101F3000BC0084FDFCCF72C083E080934E071092FA
:101F4000BA0759C08091BA07803208F056C0809114
:101F5000BA079091BB00E82FF0E0E656F84F908367
:101F60008F5F8093BA0747C08091BA07803230F400
:101F7000E091BA07F0E0E656F84F108285ED8093C5
:101F8000BC008091BC0084FDFCCF10924E07609194
:101F9000BA07E0915407F09155078AE997E070E09D
:101FA00009951092BA072DC084E080934E071092D5
:101FB000980710929907E0915207F09153070995FD
:101FC00080919907882329F481E0809399071092E2
:101FD000780790919807E92FF0E0E858F84F808152
:101FE0008093BB009F5F9093980790919807809192
:101FF0009907981710F485EC01C085E88093BC0020
:102000000FC085EC8093BC0009C01092BB0785ED22
:102010008093BC008091BC0084FDFCCF10924E07E1
:10202000FF91EF91BF91AF919F918F917F916F91B0
:102030005F914F913F912F910F900FBE0F901F9086
:102040001895089588E696E00E940C0B68EE73E000
:1020500080E090E00E94051188E696E00E94F60A72
:1020600068EE73E080E090E00E94051188E696E05B
:102070000E94F10A68EE73E080E090E00E94051192
:10208000E1CF1F920F920FB60F9211242F933F931F
:102090008F939F93AF93BF938091C0079091C10797
:1020A000A091C207B091C3073091C4070196A11D4A
:1020B000B11D232F2D5F2D3720F02D570196A11D27
:1020C000B11D2093C4078093C0079093C107A093CC
:1020D000C207B093C3078091BC079091BD07A09140
:1020E000BE07B091BF070196A11DB11D8093BC072B
:1020F0009093BD07A093BE07B093BF07BF91AF9168
:102100009F918F913F912F910F900FBE0F901F9035
:1021100018959FB7F8942091BC073091BD07409166
:10212000BE075091BF0786B5A89B06C08F3F21F020
:102130002F5F3F4F4F4F5F4F9FBF542F432F322F83
:102140002227280F311D411D511D82E0220F331F10
:10215000441F551F8A95D1F7B901CA010895789493
:1021600084B5826084BD84B5816084BD85B582609C
:1021700085BD85B5816085BDEEE6F0E0808181603A
:102180008083E1E8F0E0108280818260808380813A
:1021900081608083E0E8F0E0808181608083E1E914
:1021A000F0E0808182608083808181608083E0E9CB
:1021B000F0E0808181608083E1ECF0E080818460E8
:1021C0008083808182608083808181608083E3EC72
:1021D000F0E0808181608083E0ECF0E080818260CB
:1021E0008083E2ECF0E0808181608083EAE7F0E0C8
:1021F000808184608083808182608083808181602F
:1022000080838081806880830895EF92FF920F938E
:102210001F93CF93DF937B018C013FB7F89480919C
:10222000BC079091BD07A091BE07B091BF0726B52E
:10223000A89B05C02F3F19F00196A11DB11D3FBFFE
:10224000BA2FA92F982F8827820F911DA11DB11D8C
:1022500052E0880F991FAA1FBB1F5A95D1F7EC01B6
:1022600030C00E94F31A3FB7F8948091BC07909158
:10227000BD07A091BE07B091BF0726B5A89B05C0BA
:102280002F3F19F00196A11DB11D3FBFBA2FA92FF5
:10229000982F8827820F911DA11DB11D32E0880F54
:1022A000991FAA1FBB1F3A95D1F78C1B9D0B885E07
:1022B0009340B8F20894E108F10801091109C851E6
:1022C000DC4FE114F1040105110559F6DF91CF91BE
:1022D0001F910F91FF90EF900895CF93DF93482FB8
:1022E00050E0CA0181519A4FFC0134914F525A4F2C
:1022F000FA018491882369F190E0880F991FFC010D
:10230000E955FA4FA591B491FC01EB54FA4FC591F0
:10231000D491662351F42FB7F8948C91932F909514
:1023200089238C93888189230BC0623061F42FB795
:10233000F8948C91932F909589238C938881832B8B
:1023400088832FBF06C09FB7F8948C91832B8C9302
:102350009FBFDF91CF910895883071F1893068F483
:10236000823031F1833020F4813009F042C01DC049
:10237000833089F08430E9F512C08B3059F18C300C
:1023800028F48930E9F08A30A1F51EC08C3031F193
:102390008E3079F529C0809180008F7703C08091BD
:1023A00080008F7D80938000089584B58F7702C070
:1023B00084B58F7D84BD0895809190008F7707C08C
:1023C000809190008F7D03C080919000877F8093E3
:1023D000900008958091C0008F7703C08091C00065
:1023E0008F7D8093C00008958091C200877F809385
:1023F000C2000895FF920F931F93F62E482F50E0CE
:10240000CA01835F994FFC012491CA0181519A4FFF
:10241000FC0114914F525A4FFA0104910023C9F064
:10242000222319F0822F0E94AC11E02FF0E0EE0F72
:10243000FF1FEB54FA4FA591B4919FB7F894FF207A
:1024400021F48C911095812302C08C91812B8C9367
:102450009FBF1F910F91FF9008950895FC0124855F
:10246000858530E0205C3F4F281B31092F73307089
:10247000C9010895FC0194858585981719F42FEFFB
:102480003FEF06C08585E80FF11D8685282F30E0D7
:10249000C9010895DC011C969C911C971D968C9196
:1024A0001D97981719F42FEF3FEF10C01D968C91D0
:1024B0001D97FD01E80FF11D96851D968C911D97C6
:1024C0008F5F8F731D968C93292F30E0C90108957B
:1024D0001092C8071092C70788EE93E0A0E0B0E022
:1024E0008093C9079093CA07A093CB07B093CC07FA
:1024F00084E695E09093C6078093C50708950F93EF
:102500001F93DF93CF930F92CDB7DEB78C01698312
:1025100080913D05882369F083E0BE016F5F7F4FA6
:1025200041E050E00E9479181816190614F49C0135
:1025300007C081E090E0F8019383828320E030E0DF
:10254000C9010F90CF91DF911F910F91089583E002
:102550000E94501808950F931F93CF93DF938C011F
:10256000FC010FC082E00E9436179C01FFEF8F3FF5
:102570009F0799F0F8018485E80FF11D2687F8017F
:10258000C4878485C82FD0E02196CF73D070F8011E
:10259000858590E0C817D90729F7DF91CF911F9162
:1025A0000F910895FC0180818E5F808380E867E34E
:1025B00076E042E450E00E944F170895FC018181CB
:1025C0009081913A59F4813209F04CC080E066E381
:1025D00075E047E050E00E944F1742C0913209F089
:1025E00041C0803239F486E395E067E070E00E94F4
:1025F000381836C0823209F035C0828180933D059B
:102600008091360590913705A0913805B091390534
:10261000805B9440A040B04019F580913D0580FD5D
:1026200012C087E797E790930108809300082BE09A
:1026300088E190E00FB6F894A895809360000FBEF3
:10264000209360000DC088E10FB6F894809360007D
:10265000109260000FBEA895109201081092000819
:1026600081E0089580E0089508951F920F920FB6BB
:102670000F9211242F933F934F938F939F93EF9338
:10268000FF938091C80082FD19C04091CE008091D7
:102690003108282F30E02F5F3F4F2F73307080912B
:1026A000320890E02817390759F0E0913108F0E03E
:1026B000ED5EF74F42A32093310802C08091CE0017
:1026C000FF91EF919F918F914F913F912F910F909B
:1026D0000FBE0F901F9018958091310820913208FD
:1026E00090E0805C9F4F821B91098F739070892BC3
:1026F00011F00E94341308951F920F920FB60F929B
:1027000011242F938F939F93EF93FF93909133080E
:1027100080913408981731F48091C9008F7D80939F
:10272000C90010C0E0913408F0E0EB58F74F208169
:102730008091340890E001968F73907080933408F4
:102740002093CE00FF91EF919F918F912F910F9049
:102750000FBE0F901F901895AF92BF92DF92EF922D
:10276000FF920F931F93CF93DF93EC017A018B01BC
:10277000DD24403081EE580780E0680780E078076C
:1027800011F0DD24D39491E0A92EB12CE889F989C8
:10279000DD2069F0C5010C8C02C0880F991F0A94D6
:1027A000E2F7808360E079E08DE390E005C010827D
:1027B00060E874E88EE190E0A80197010E94581E3D
:1027C00021503040404050405695479537952795C9
:1027D00080E12030380720F0DD2011F0DD24D6CF55
:1027E000EC85FD853083EE85FF8520831D8EEA898B
:1027F000FB89408121E030E0C901088C02C0880FCC
:10280000991F0A94E2F7482B4083EA89FB894081AB
:10281000C901098C02C0880F991F0A94E2F7482B5E
:102820004083EA89FB894081C9010A8C02C0880F74
:10283000991F0A94E2F7482B4083EA89FB8980813B
:102840000B8C02C0220F331F0A94E2F72095282335
:102850002083DF91CF911F910F91FF90EF90DF9038
:10286000BF90AF900895FC01268D878D30E0205CED
:102870003F4F281B31092F733070C9010895FC01A7
:10288000968D878D981719F42FEF3FEF06C0878D2F
:10289000E80FF11D82A1282F30E0C9010895DC0165
:1028A0005E969C915E975F968C915F97981719F44E
:1028B0002FEF3FEF10C05F968C915F97FD01E80FFF
:1028C000F11D92A15F968C915F978F5F8F735F96DA
:1028D0008C93292F30E0C9010895DC015D968C911D
:1028E0005D97882339F05096ED91FC915197808146
:1028F00086FFF9CF5D961C920895DC0190968C912D
:102900009097282F30E02F5F3F4F2F7330709196B4
:102910008C91919790E028173907C9F390968C9184
:102920009097FD01E80FF11DEE59FF4F60839096DF
:102930002C9390975296ED91FC915397208181E0D2
:1029400090E05B960C905B9702C0880F991F0A94E9
:10295000E2F7282B208381E05D968C935D9750965B
:10296000ED91FC91519780818064808381E090E0BB
:102970000895109216081092150888EE93E0A0E0D2
:10298000B0E08093170890931808A0931908B093AB
:102990001A0886E795E09093140880931308109224
:1029A0003408809134088093330810923208809163
:1029B0003208809331088DEC90E09093200880934A
:1029C0001F088CEC90E0909322088093210888ECFB
:1029D00090E0909324088093230889EC90E09093F2
:1029E0002608809325088AEC90E09093280880932D
:1029F00027088EEC90E090932A088093290884E0C1
:102A000080932B0883E080932C0887E080932D0827
:102A100085E080932E0881E080932F080895CF935E
:102A2000DF930E94AF1084EC98E00E945B180E9434
:102A30002210CCE6D3E10E9421102097E1F30E94FE
:102A40006C13F9CFCF92DF92EF92FF920F931F9307
:102A5000CF93DF937C016B018A01C0E0D0E00FC00F
:102A6000D6016D916D01D701ED91FC910190F0813E
:102A7000E02DC7010995C80FD91F0150104001155D
:102A8000110571F7CE01DF91CF911F910F91FF904A
:102A9000EF90DF90CF900895EF92FF920F931F93E6
:102AA0008C01DC01ED91FC910190F081E02D6DE055
:102AB00009957C01D801ED91FC910190F081E02D08
:102AC000C8016AE009959C012E0D3F1DC9011F91A7
:102AD0000F91FF90EF900895CF93DF93EC01611574
:102AE000710519F420E030E00FC0DB010D900020EB
:102AF000E9F71197A61BB70BE881F9810280F381F2
:102B0000E02DAD0109959C01C901DF91CF91089598
:102B10004F925F927F928F929F92AF92BF92CF928D
:102B2000DF92EF92FF920F931F93DF93CF93CDB776
:102B3000DEB7A1970FB6F894DEBF0FBECDBF2C0154
:102B4000742ECB01223008F42AE019A231E2C32E00
:102B5000D12CCC0EDD1E822E9924AA24BB24672DF5
:102B6000752FA50194010E94581E79018A01C801A0
:102B7000B701A50194010E94261E472D461B08940B
:102B8000C108D1084A3014F4405D01C0495CF60127
:102B90004083E114F1040105110521F07E2C5F2D25
:102BA000C801DDCFC201B6010E946C15A1960FB617
:102BB000F894DEBF0FBECDBFCF91DF911F910F9173
:102BC000FF90EF90DF90CF90BF90AF909F908F904D
:102BD0007F905F904F900895CF92DF92EF92FF9297
:102BE0000F931F93CF93DF93EC016A017B012115B3
:102BF000310541F4E881F9810190F081E02D642FE5
:102C000009951FC02A303105D1F477FF17C0E8813C
:102C1000F9810190F081E02D6DE209958C01442746
:102C20005527BA014C195D096E097F09CE012AE0CA
:102C30000E9488159801280F391F04C02AE00E94BD
:102C400088159C01C901DF91CF911F910F91FF90D1
:102C5000EF90DF90CF900895EF92FF920F931F9324
:102C60007C010E94EC158C01C7010E944C159C014F
:102C7000200F311FC9011F910F91FF90EF90089510
:102C8000EF92FF920F931F937B019A010027F7FCAD
:102C90000095102FB801A7010E94EC151F910F910C
:102CA000FF90EF900895CF92DF92EF92FF920F93F3
:102CB0001F936C017B019A010027F7FC0095102FF0
:102CC000B801A7010E94EC158C01C6010E944C15A9
:102CD000080F191FC8011F910F91FF90EF90DF900F
:102CE000CF9008950E946C1508958230B9F083301A
:102CF00028F4882351F08130F9F40AC08430B9F007
:102D0000843090F08530C1F415C010926E000895A3
:102D100080916F008D7F80936F0008958091700087
:102D20008D7F809370000895109271000895109225
:102D3000720008951092730008951F920F920FB6BB
:102D40000F9211242F933F934F935F936F937F9331
:102D50008F939F93AF93BF93EF93FF938091B508A9
:102D60009091B608A091B708B091B8080097A10556
:102D7000B10551F1E091B908F091BA0880819091C4
:102D8000BB08892780838091B5089091B608A091EF
:102D9000B708B091B808181619061A061B060CF5E4
:102DA0008091B5089091B608A091B708B091B80885
:102DB0000197A109B1098093B5089093B608A09333
:102DC000B708B093B8080DC083E00E947516E09173
:102DD000B908F091BA0890818091BB088095892349
:102DE0008083FF91EF91BF91AF919F918F917F91E0
:102DF0006F915F914F913F912F910F900FBE0F9068
:102E00001F901895282F8091BE088823C1F057FF86
:102E10001AC015C028989093BD088091F100819345
:102E2000E217F307B9F74115510539F08091F20027
:102E3000882319F48BE68093E800AFBF02C04FEF00
:102E40005FEFCA010895AFB7F89427702093E900A7
:102E50008091F200282F30E0241735070CF4A901E7
:102E6000FB019B01240F311D94E6DACFDF93CF9352
:102E70000F92CDB7DEB7BE016F5F7F4F41E050E0EC
:102E80000E940217019719F02FEF3FEF03C08981CD
:102E9000282F30E0C9010F90CF91DF910895FF9264
:102EA0000F931F93F82E142F052F4091C1085091B6
:102EB000C208212F302FC901DC01FB016EEF29C0B0
:102EC000F7FE02C0949101C090812091BF0830911B
:102ED000C00824173507ACF48091E8008570E1F351
:102EE0008091E80082FF03C02FEF3FEF17C090935F
:102EF000F100C90101968F739070892B11F46093D2
:102F0000E8002F5F3F4F3093C0082093BF08119710
:102F100031961097A9F6812F902F9C01C9011F911E
:102F20000F91FF9008951F93782FE92F162F20916E
:102F3000BF083091C008A091C108B091C2082A17FB
:102F40003B07C4F48091E8008570E1F38091E800CC
:102F500082FD16C0812F90E00196880F991F809303
:102F6000F100C90101968F739070892B19F48EEFCF
:102F70008093E8002F5F3F4F3093C0082093BF0835
:102F80002091BF083091C0082A173B07A4F4809114
:102F9000E8008570E1F38091E80082FD12C083E0D3
:102FA0008093F100C90101968F739070892B19F4F9
:102FB0008EEF8093E8002F5F3F4F3093C00820933F
:102FC000BF084091BF085091C008872F9E2FFC0179
:102FD00070E06EEF43C094914A175B07A4F48091B0
:102FE000E8008570E1F38091E80082FF02C020E0F4
:102FF0000DC09093F100CA0101968F739070892BD8
:1030000011F46093E8004F5F5F4F21E04A175B07C0
:10301000A4F48091E8008570E1F38091E80082FFDC
:1030200002C080E00DC01092F100CA0101968F73BA
:103030009070892B11F46093E8004F5F5F4F81E03F
:10304000319690E030E082239323892B31F4509322
:10305000C0084093BF0880E009C07F5F711708F483
:10306000BACF5093C0084093BF0881E01F910895E4
:103070009C018091E80082FFFCCFF901260F311DF1
:1030800003C08091F1008193E217F307D1F72898EC
:1030900084E68093BD088BEF8093E800CB01089510
:1030A0008093E9008091F200882319F08AE38093ED
:1030B000E800089508951092BE0881E08093D7003B
:1030C00080EA8093D80082E189BD09B400FEFDCF7B
:1030D00061E070E080E090E00E94051180E980935B
:1030E000D8008CE08093E2001092E000559A209A7C
:1030F00008955F926F927F928F929F92AF92BF924C
:10310000CF92DF92EF92FF920F931F93CF93DF93B3
:10311000E82E842E752E8091BE08882371F18B01D4
:10312000242F352FC901EC01AAEFFA2EF7E09F2ECC
:103130009E20E0E45E2E8E2D90E070E2A72EB12C52
:10314000A822B9226AE3662E50E4C52ED12CC822EB
:10315000D92258C09FB7F8949092E9008091E80076
:1031600085FD02C020E004C08091F200252D281BBF
:103170009FBF222361F4FA9419F42FEF3FEF4DC063
:1031800061E070E080E090E00E9405113BC0822F7A
:1031900090E0C817D9070CF42C2FC21BD1094FB7E8
:1031A000F8949092E900A114B10421F406C01092A1
:1031B000F10021502223D9F719C0E7FC03C0F80120
:1031C000922F10C0C801322F06C0FC010196E49175
:1031D000E093F10031503323C1F706C08191809311
:1031E000F10091509923D1F7020F111D8091E80051
:1031F00085FF05C0209729F4C114D10411F0609215
:10320000E8004FBF209709F0A5CF5D9884E6809332
:10321000BC08282D372DC9019C01C901DF91CF9130
:103220001F910F91FF90EF90DF90CF90BF90AF90E4
:103230009F908F907F906F905F9008951F920F9254
:103240000FB60F9211242F933F934F935F936F9379
:103250007F938F939F93AF93BF93EF93FF9380914F
:10326000E1001092E100982F83FF0FC01092E90057
:1032700081E08093EB001092EC0082E38093ED00FC
:103280001092BE0888E08093F00092FF34C083E083
:103290008093E9008091F200882319F08AE38093FB
:1032A000E8008FB7F89492E09093E9009091F200D3
:1032B0008FBF992321F085EC97E00E94AB1280919B
:1032C000BC08882351F08091BC0881508093BC08D1
:1032D0008091BC08882309F45D9A8091BD088823F9
:1032E00051F08091BD0881508093BD088091BD0848
:1032F000882309F4289AFF91EF91BF91AF919F9194
:103300008F917F916F915F914F913F912F910F908E
:103310000FBE0F901F9018950F931F93DF93CF93BD
:103320000F92CDB7DEB719828E010F5F1F4FC80114
:103330000E94D212C8010E942B1C898190E00F903C
:10334000CF91DF911F910F9108951F920F920FB6A9
:103350000F921124EF92FF921F932F933F934F935D
:103360005F936F937F938F939F93AF93BF93EF93ED
:10337000FF93DF93CF93CDB7DEB76197DEBFCDBFAD
:103380001092E9008091E80083FF14C1FE0131969C
:103390009E01275F3F4F03C08091F1008193E217A8
:1033A000F307D1F7289884E68093BD0882EF8093D5
:1033B000E800998197FF05C08091E80080FFFCCF6D
:1033C00003C08EEF8093E800292F30E0C90180769A
:1033D0009070892B09F0C7C08A81882329F4109244
:1033E000F1001092F100DBC0813009F4D8C08330C5
:1033F00009F4D5C0853049F48091E80080FFFCCF06
:103400008B8180688093E300CAC0863009F081C058
:103410001C81EF80F8841230C1F51092E9001092FF
:10342000C0081092BF081092C2081092C1080E94F2
:103430008C1999E0FE013996DF01292F1D922A95FA
:10344000E9F799871A8791E09E8790E8988B9AEF21
:10345000998B2091BF083091C008275F3F4F3C8770
:103460002B878D871092E9001092C0081092BF0838
:10347000F092C208E092C10880E0BF0149E050E04C
:103480000E944F170E948C198AC01092E900109276
:10349000C0081092BF08F092C208E092C108123230
:1034A00041F482E290E00E94231C892B09F47BC046
:1034B00076C0113079F488E0E816F10419F481E05F
:1034C0008093C3088091C308882309F070C0EAE99B
:1034D000F6E018C0133009F066C08B81882319F418
:1034E000E9E7F6E00FC0823021F48DE796E060E175
:1034F00006C0813009F057C08EE896E06BE00E946C
:1035000093174BC0449180E8BF0150E00E944F17D1
:1035100046C0873009F447C0883021F481E08093A9
:10352000F1003DC08930D9F523703070232BD9F5D7
:10353000EFEBF6E091E031E026E39093E900309381
:10354000EB0084918093EC002093ED009F5F319617
:10355000953099F78EE78093EA001092EA008B810C
:103560008093BE081CC08F8198851092E90010924C
:10357000C0081092BF089093C2088093C1088D8143
:10358000882329F4CE0101960E94DE1206C0823003
:1035900051F4CE0101960E94F41A882321F08EEF97
:1035A0008093E80007C081E28093EB0003C0ECEA5F
:1035B000F6E0A8CF6196DEBFCDBFCF91DF91FF913E
:1035C000EF91BF91AF919F918F917F916F915F919B
:1035D0004F913F912F911F91FF90EF900F900FBE51
:1035E0000F901F9018950895FC0191818081813A78
:1035F00031F4913089F080E0933089F40DC081324C
:1036000069F49B3021F4828180933E0505C09A3095
:1036100029F4828180933F0581E0089580E0089538
:10362000EF92FF920F931F938C01E62EDC01ED9138
:10363000FC910480F581E02D0995F82ED801ED91DB
:10364000FC910680F781E02DC8016E2D09958F2D24
:1036500090E01F910F91FF90EF9008951092C50890
:103660001092C9081092C80886E895E09093C708A0
:103670008093C6080895EF92FF920F931F93DF93F4
:10368000CF930F92CDB7DEB789838B017A0184E0A7
:10369000BE016F5F7F4F41E050E00E94791884E4E3
:1036A000B801A7010E9479180F90CF91DF911F9167
:1036B0000F91FF90EF90089582E048E050E00E9463
:1036C0003B1B0895FC011682178210861186128614
:1036D000138614823496BF010E945C1B0895DC019E
:1036E000683810F0685829C0E62FF0E067FF13C073
:1036F000E058F04081E090E002C0880F991FEA9501
:10370000E2F7809514962C911497282314962C9305
:10371000149760E012C0EF5BF84F6491662319F4D0
:1037200020E030E01DC067FF08C014968C9114970C
:103730008D7F14968C9314976F77FD0190E066232C
:1037400021F08681861709F416829F5F31969630A4
:10375000B1F7CD011496BD010E945C1B21E030E061
:10376000C9010895CF93DF93DC01683810F06858E1
:1037700025C0E62FF0E067FF12C0E058F04081E07E
:1037800090E002C0880F991FEA95E2F714962C91F9
:103790001497282B14962C93149760E00FC0EF5BBE
:1037A000F84F64916623D9F167FF08C014968C9195
:1037B0001497826014968C9314976F7716968C9159
:1037C00016978617A9F117968C911797861781F18E
:1037D00018968C911897861759F119968C9119970C
:1037E000861731F11A968C911A97861709F11B9654
:1037F0008C911B978617E1F0ED01E0E0F0E09E2F41
:103800008E81882321F4EA0FFB1F668306C09F5F29
:1038100031962196E630F10591F7963049F481E032
:1038200090E013969C938E93129720E030E007C0AF
:10383000CD011496BD010E945C1B21E030E0C9015E
:10384000DF91CF91089580E863EC76E045E650E0A3
:103850000E944F170895FC0180818F5F808380E86C
:1038600068E277E049E150E00E944F170895505810
:10387000BB27AA270ED04DC13ED130F043D120F056
:1038800031F49F3F11F41EF433C10EF4E095E7FBD1
:1038900029C1E92F4FD180F3BA1762077307840754
:1038A000950718F071F49EF567C10EF4E0950B2EA4
:1038B000BA2FA02D0B01B90190010C01CA01A00182
:1038C0001124FF27591B99F0593F50F4503E68F1DD
:1038D0001A16F040A22F232F342F4427585FF3CF1E
:1038E000469537952795A795F0405395C9F77EF4EF
:1038F0001F16BA0B620B730B840BBAF09150A1F038
:10390000FF0FBB1F661F771F881FC2F70EC0BA0FBD
:10391000621F731F841F48F4879577956795B79545
:10392000F7959E3F08F0B3CF9395880F08F099273D
:10393000EE0F9795879508950CD0EBC0E3D040F03B
:10394000DAD030F021F45F3F19F0CCC0511115C12D
:10395000CFC0F0D098F39923C9F35523B1F3951B49
:10396000550BBB27AA2762177307840738F09F5FA0
:103970005F4F220F331F441FAA1FA9F333D00E2E0F
:103980003AF0E0E830D091505040E695001CCAF77C
:1039900029D0FE2F27D0660F771F881FBB1F261741
:1039A00037074807AB07B0E809F0BB0B802DBF0114
:1039B000FF2793585F4F2AF09E3F510568F092C051
:1039C000DCC05F3FECF3983EDCF386957795679516
:1039D000B795F7959F5FC9F7880F911D96958795C5
:1039E00097F90895E1E0660F771F881FBB1F6217E4
:1039F00073078407BA0720F0621B730B840BBA0BA2
:103A0000EE1F88F7E095089504D06894B111B5C011
:103A1000089598D088F09F5790F0B92F9927B75103
:103A2000A0F0D1F0660F771F881F991F1AF0BA9582
:103A3000C9F712C0B13081F09FD0B1E008959CC0A9
:103A4000672F782F8827B85F39F0B93FCCF3869578
:103A500077956795B395D9F73EF4909580957095D5
:103A600061957F4F8F4F9F4F0895E89409C097FB52
:103A70003EF490958095709561957F4F8F4F9F4F45
:103A80009923A9F0F92F96E9BB279395F695879589
:103A900077956795B795F111F8CFFAF4BB0F11F44C
:103AA00060FF1BC06F5F7F4F8F4F9F4F16C08823F3
:103AB00011F096E911C0772321F09EE8872F762F29
:103AC00005C0662371F096E8862F70E060E02AF06A
:103AD0009A95660F771F881FDAF7880F9695879556
:103AE00097F9089597F99F6780E870E060E008957E
:103AF0009FEF80EC089500240A9416161706180606
:103B00000906089500240A941216130614060506E1
:103B10000895092E0394000C11F4882352F0BB0F72
:103B200040F4BF2B11F460FF04C06F5F7F4F8F4FD5
:103B30009F4F089557FD9058440F551F59F05F3F10
:103B400071F04795880F97FB991F61F09F3F79F0BF
:103B500087950895121613061406551FF2CF469541
:103B6000F1DF08C0161617061806991FF1CF8695C3
:103B70007105610508940895E894BB2766277727A7
:103B8000CB0197F908950BD0C4CFB5DF28F0BADF89
:103B900018F0952309F0A6CFABCF1124EECFCADFE2
:103BA000A0F3959FD1F3950F50E0551F629FF00150
:103BB000729FBB27F00DB11D639FAA27F00DB11DA9
:103BC000AA1F649F6627B00DA11D661F829F222732
:103BD000B00DA11D621F739FB00DA11D621F839FB9
:103BE000A00D611D221F749F3327A00D611D231F8F
:103BF000849F600D211D822F762F6A2F11249F57DD
:103C000050408AF0E1F088234AF0EE0FFF1FBB1FFF
:103C1000661F771F881F91505040A9F79E3F51059E
:103C200070F060CFAACF5F3FECF3983EDCF386954F
:103C300077956795B795F795E7959F5FC1F7FE2B49
:103C4000880F911D9695879597F90895629FD001E9
:103C5000739FF001829FE00DF11D649FE00DF11D47
:103C6000929FF00D839FF00D749FF00D659FF00DF6
:103C70009927729FB00DE11DF91F639FB00DE11DE3
:103C8000F91FBD01CF011124089597FB092E0726C6
:103C90000AD077FD04D02ED006D000201AF47095FB
:103CA00061957F4F0895F6F7909581959F4F089500
:103CB000A1E21A2EAA1BBB1BFD010DC0AA1FBB1F30
:103CC000EE1FFF1FA217B307E407F50720F0A21BA2
:103CD000B30BE40BF50B661F771F881F991F1A940F
:103CE00069F760957095809590959B01AC01BD0139
:103CF000CF010895AA1BBB1B51E107C0AA1FBB1F20
:103D0000A617B70710F0A61BB70B881F991F5A9567
:103D1000A9F780959095BC01CD010895EE0FFF1F86
:0C3D20000590F491E02D0994F894FFCF79
:103D2C004D6F746F72200020726F746174652C205B
:103D3C006469723D20002C2073746570733D200003
:103D4C00626173653A20002C2072656D61696E6446
:103D5C0065723A2000000000000000000000000026
:103D6C000000000000000000000000000000000047
:103D7C000000000000000000000000000000000037
:103D8C000000000000000000000000000000000027
:103D9C000000000000000000000000000000000017
:103DAC000000000000000000000000000000000007
:103DBC0000000000000000000000000000000000F7
:103DCC0000000000000000000000000000000000E7
:103DDC0000000000000000000000000000010101D4
:103DEC00030307070F0F0F0F0F0F0703010000004E
:103DFC0000000000000000000000000000000000B7
:103E0C0000000000000000000000000000000000A6
:103E1C000000000000000000000000000000000096
:103E2C000000000000000000000000000000000086
:103E3C000000000000000000000000000000000076
:103E4C0000000000000000010F070000000000004F
:103E5C00000000000003070F3F7F7FFFFFFFFFFF05
:103E6C00FFFFFFFFFFFFFFFEFEFCFCFCFC780000E9
:103E7C000000000000000000000000000000000036
:103E8C000000000000000000000000000000000026
:103E9C000000000000000000000000000000000016
:103EAC0000000000000000000000000000003FFFC8
:103EBC00FFFFFFFFFFFF3800000000000183E1F36C
:103ECC007B7F3F3F1F1F3FFFFFFF1F3F7F7FFFE7B2
:103EDC00C78702020280E0F0F8F8F8FCFEFEFFFF54
:103EEC00FFFFFFFFFFFF1F0F070703030100000089
:103EFC00000000060F1F1F1F1F3F3F3F3F3F3F3F6C
:103F0C003F1F1F0F0F070300003F3F3F3F3F3F3F47
:103F1C003F3F3F3F3F3F1F1F0F07000000003F3F49
:103F2C003F3F3F1F0F1F1F1F1F1E1F1F1F0EFFFF97
:103F3C00FFFFFFFFFFFF030307070F1F1F1F0E04E9
:103F4C008080808087CFCFDFDFDFDFE0E0E0E0E064
:103F5C00F070703000000000000000000000000055
:103F6C00008080C0C1E1E1F1F3FFFFFFFFFFFFFF25
:103F7C007F3F0F00FFFFFFFFFFFF1F0307070F0F20
:103F8C000FBFFFFFFFFEF8F0070F1F1F1F3F3F3C47
:103F9C003C383838FFFFFFFFFFFFFF000000FFFF3A
:103FAC00FFFFFFFFFF800000000000000000C0FFCB
:103FBC00FFFFFFFFFFFFFFFFDF8F8F0F07030100E6
:103FCC000000003FFFFFFFFFFFF8C00000000000F3
:103FDC0000000000000000000F7FFFFFFFFFFFFF4D
:103FEC00FFFFFFFFFFFFFFFEFEFEFCFCF8F8F0F00A
:103FFC00E0C08000C0FFFFFFFFFFFFFFF7F0F0E025
:10400C00C0C080800000000080E0E0E0F0F0F0F044
:10401C00F0F0F0F0F0F0F0F0F0F0F0000000F0F064
:10402C00F0F0F0F0F000000000000000000000F0E4
:10403C00F0F0F0F0F0C0008080C0E0E0E0E0E000E4
:10404C000000F0F0F0F0F0F0800000000000000044
:10405C000000000000000000808080808080808054
:10406C008080000000000000000000000000000044
:10407C00000000000000E0FCFCFCFCFCF8F8300048
:10408C000000000000000000000000000000000024
:10409C000000000000000000000000000000000014
:1040AC000000000000000000000000000000000004
:1040BC0000000000000000000000000000000000F4
:1040CC0000000000000000000000000000000000E4
:1040DC0000000000000000000000000000000000D4
:1040EC0000000000000000000000000000000000C4
:1040FC0000000000000000000000000000000000B4
:10410C0000000000000000000000000000000000A3
:10411C000000000000000000000000000000000093
:10412C000000000000000000000000000000000083
:10413C000000000000000000000000000000000073
:10414C000000000000000000000000000000000063
:10415C0000000000006400E100000000000001010C
:10416C000302010007060504000000000709FC0813
:10417C00000000004F0D1E0DD70CE00CF50C060DC9
:10418C00000000007F1222152E124A123A12A712BA
:10419C00AB12000000007D14221533144F143F1491
:1041AC006D1400000000101B2215B21B6F1B621B4C
:00000001FF
