:100000000C94E7030C940F040C940F040C940F044D
:100010000C940F040C940F040C940F040C94930A8A
:100020000C940F040C940F040C94FB190C94821A7A
:100030000C940F040C940F040C940F040C940F04F4
:100040000C940F040C940F040C940F040C940F04E4
:100050000C940F040C940F040C940F040C948E1049
:100060000C940F040C9482130C94C9130C940F0479
:100070000C940F040C940F040C940F040C940F04B4
:100080000C947A170C9444040C940F040C940F04F1
:100090000C94990E0C940F040C9457040C940F04B8
:1000A0000C940F040C940F040C940F040000000037
:1000B000007CDAF2DA7C7CD6F2D67C387C3E7C3866
:1000C000183C7E3C1838EABEEA38387AFE7A3800A6
:1000D000183C1800FFE7C3E7FF0018241800FFE7EB
:1000E000DBE7FF0C125C607064949E946402FEA0D7
:1000F000A0E002FEA0A4FC5A3CE73C5AFE7C383843
:10010000101038387CFE2844FE4428FAFA00FAFA27
:100110006090FE80FE006691A95606060606062936
:1001200045FF452910207E201008047E0408101089
:1001300054381010385410107808080808307830F7
:1001400078300C1C7C1C0C60707C7060000000001F
:10015000000000FA000000E000E00028FE28FE2871
:100160002454FE5448C4C81026466C926A040A00FF
:1001700010E0C00000384482000082443800543847
:10018000FE385410107C101000010E0C00101010DE
:100190001010000006060004081020407C8A92A27D
:1001A0007C0042FE02004E92929262848292B2CC15
:1001B000182848FE08E4A2A2A29C3C5292928C828B
:1001C000848890E06C9292926C6292929478000093
:1001D00028000000022C0000001028448228282853
:1001E0002828008244281040809A90607C82BA9A25
:1001F000723E4888483EFE9292926C7C8282824493
:10020000FE8282827CFE92929282FE909090807C0E
:1002100082828ACEFE101010FE0082FE820004024E
:1002200082FC80FE10284482FE02020202FE403858
:1002300040FEFE201008FE7C8282827CFE90909020
:10024000607C828A847AFE90989462649292924C46
:10025000C080FE80C0FC020202FCF8040204F8FC2C
:10026000021C02FCC6281028C6C0201E20C0869A88
:1002700092B2C200FE828282402010080400828274
:1002800082FE2040804020020202020200C0E010F4
:1002900000042A2A1E02FE1422221C1C22222214DE
:1002A0001C222214FE1C2A2A2A1800107E904018B4
:1002B0002525391EFE1020201E0022BE0200040249
:1002C00002BC00FE081422000082FE02003E201E36
:1002D000201E3E1020201E1C2222221C3F182424F7
:1002E00018182424183F3E10202010122A2A2A24ED
:1002F0002020FC22243C0202043E38040204383C44
:10030000020C023C2214081422320909093E22265A
:100310002A322200106C82000000EE000000826C85
:10032000100040804020403C64C4643C7885858651
:10033000485C0202045E1C2A2AAA9A84AAAA9E8207
:10034000842A2A1E8284AA2A1E02042AAA9E023015
:10035000784A4E489CAAAAAA9A9C2A2A2A9A9CAA17
:100360002A2A1A0000A23E820040A2BE420080A2B9
:100370003E020F9424940F0F14A4140F3E2AAAA235
:1003800000042A2A3E2A3E5090FE924C9292924CB1
:100390004C1212124C4C5212120C5C8282845E5C23
:1003A0004202041E00B90505BE9C2222229CBC020A
:1003B0000202BC3C24FF2424127E92C266D4F43F85
:1003C000F4D4FF90946F0403117E90C0042A2A9EF7
:1003D00082000022BE820C1212524C1C0202445EA9
:1003E000005E50504EBEB0988CBE649494F4146479
:1003F000949494640C12B202041C1010101010108B
:1004000010101CF40813355DF408142C5F0000DE96
:100410000000102854284444285428105500AA00ED
:100420005555AA55AA55AA55AA55AA000000FF007D
:10043000080808FF00282828FF000808FF00FF0818
:10044000080F080F2828283F002828EF00FF000089
:10045000FF00FF28282F203F2828E808F80808F880
:1004600008F8282828F8000808080F00000000F8FD
:1004700008080808F8080808080F08000000FF0826
:100480000808080808080808FF08000000FF2800FE
:1004900000FF00FF0000F808E800003F202F282898
:1004A000E808E828282F202F0000FF00EF28282840
:1004B00028282828EF00EF282828E8280808F80826
:1004C000F82828282F2808080F080F0000F808F837
:1004D000000000F8280000003F2800000F080F0867
:1004E00008FF08FF282828FF28080808F80000004F
:1004F000000F08FFFFFFFFFF0F0F0F0F0FFFFFFFA2
:100500000000000000FFFFF0F0F0F0F01C22221CC1
:10051000223E54547C287E40406060407E407E40B5
:10052000C6AA9282C61C22223C20027E0478046065
:10053000407E404099A5E7A5993854925438324EF0
:10054000804E320C52B2B20C0C121E120C3D465AA6
:1005500062BC7C929292007E8080807E545454547F
:10056000542222FA2222028A5222020222528A02B1
:100570000000FF80C00701FF00001010D6D6106CED
:10058000486C246C60F090F06000001818000000C7
:100590000808000C02FF808000F88080780098B87E
:1005A000E848003C3C3C3C00000000240027002AB6
:1005B000002D00300000000000250028002B002E38
:1005C000003100000000002300260029002C002F2D
:1005D00000040404040403040502020202040302EA
:1005E00002020206060606060604040202020404CB
:1005F0000802011040804010204080408008020422
:1006000001804020100201108010204040000000B6
:100610000200080E0000030401000B0000000000AF
:1006200000000000000000000000000706050401B3
:1006300000080A0B0C0D09080B0002020201000958
:10064000040000010202000005240010010524013D
:100650000101042402060524060001070581031098
:10066000004009040100020A0000000705020240E0
:10067000000007058302400000040309044172647E
:1006800075696E6F204C656F6E6172646F004172A8
:100690006475696E6F204C4C43001201000200002B
:1006A00000404123368000010102000112010002D6
:1006B000020000404123368000010102000100C118
:1006C0008081C105010902A1010901A1008501057F
:1006D000091901290315002501950375018102956A
:1006E0000175058103050109300931093815812596
:1006F0007F750895038106C0C005010906A1018523
:1007000002050719E029E715002501750195088103
:100710000295017508810395067508150025650584
:1007200007190029658100C00904020001030000C7
:100730000009210101000122650007058403400032
:100740000100000000000000002A2B28000000002B
:100750000000000000000000000000000000000099
:10076000002C9EB4A0A1A2A434A6A7A5AE362D3716
:1007700038271E1F20212223242526B333B62EB767
:10078000B89F8485868788898A8B8C8D8E8F90917F
:1007900092939495969798999A9B9C9D2F3130A30C
:1007A000AD350405060708090A0B0C0D0E0F1011D4
:1007B00012131415161718191A1B1C1DAFB1B0B55A
:1007C0000000CA0C100DB512061537190B1C1124A8
:1007D0001FBECFEFDAE0DEBFCDBF15E0A0E0B1E095
:1007E000E8EFFEE302C005900D92AA37B107D9F7F2
:1007F00018E0AAE7B5E001C01D92A63BB107E1F7FA
:1008000017E0CEECD7E004C02297FE010E94761FCD
:10081000C23CD107C9F70E945C150C947A1F0C9456
:100820000000FB01DC0102C001900D9241505040DC
:10083000D8F708956817790768F4FB01DC01E40F25
:10084000F51FA40FB51F02C002900E9241505040F8
:10085000D8F708950C94110421E030E00CC000009A
:10086000000000000000000000009F5F9A35B9F70B
:100870002150304011F090E0F2CF3C9A8093BB00C1
:1008800084E88093BC0008951F920F920FB60F92D8
:1008900011248F938BB180588BB9109295001092D0
:1008A00094008F910F900FBE0F901F9018951F927C
:1008B0000F920FB60F921124EF92FF920F931F9396
:1008C0002F933F934F935F936F937F938F939F9358
:1008D000AF93BF93CF93DF93EF93FF931092BF003B
:1008E0001092BE0010927C0610927D0620917F0629
:1008F000309180068091810690E02817390728F40E
:1009000080917D06816080937D0620917F063091E5
:1009100080068091820690E02817390728F480919C
:100920007D06826080937D0620917F06309180064F
:100930008091830690E02817390728F480917D067E
:10094000846080937D0680917F0690918006019659
:100950009093800680937F0680917F069091800619
:100960008436910521F41092800610927F068091C2
:100970008406882371F480917D06877F80937D06AD
:1009800040E050E0F8E0FF2E0FEF1FEFE7E0EE2E23
:1009900004C080917D068860F1CFFA01EE0FFF1F41
:1009A000EE0FFF1F9F012B57394FE9018881998175
:1009B000AA81BB81EA01CC0FDD1F0297A105B10519
:1009C00008F443C0BE016F56794FFB0180819181CD
:1009D000892BA1F5DA01A956B94F8C91FA01E65697
:1009E000F94F9081890F8C93F90180819181A281C7
:1009F000B3810197A109B10980839183A283B38355
:100A0000FA01E356F94F2081CA01A3E0880F991F2C
:100A1000AA95E1F7C80FD91FC20FD11DC056D94FF3
:100A2000888190E0DB0111969C938E9380818F5F8B
:100A3000808380818A30E8F010821BC0EB018881BE
:100A4000998101979983888314C0D9011D921D92C1
:100A50001D921C921397E254F94F10821182128258
:100A60001382FA01E956F94FF082CF56D94F198314
:100A70000883FA01E956F94F8081883014F010821A
:100A800003C0808187FDE082FA01EE0FFF1FEE0FA9
:100A9000FF1FE254F94F80819181A281B3810097B9
:100AA000A105B10521F4FA01E956F94FF0824F5F33
:100AB0005F4F4330510509F070CF90917C06E09173
:100AC0009806FF27E7FDF095E653F94F8081982BB4
:100AD00090937C0690917C06E0919906FF27E7FDB4
:100AE000F095ED52F94F8081982B90937C06909170
:100AF0007D06E0919706FF27E7FDF095ED52F94F4F
:100B00008081982B90937D065D9880917D068EBDA7
:100B10000DB407FEFDCF8EB580917C068EBD0DB461
:100B200007FEFDCF8EB55D9AFF91EF91DF91CF91DA
:100B3000BF91AF919F918F917F916F915F914F91F5
:100B40003F912F911F910F91FF90EF900F900FBE4B
:100B50000F901F901895CF93DF93962F50E0BA0116
:100B60007695762F66277795679585E02802900120
:100B70001124892F615E7E4FE9012596F901E45524
:100B8000FF4FE491DB01A80FB11DEC938F5F2F5F46
:100B90003F4F2C173D0791F7292F2B5F342F330F31
:100BA000330F330F692F665F4F5F5F4F440F440F62
:100BB000440F80917806281710F4209378068091CE
:100BC0007906861710F46093790680917A063817B3
:100BD00010F430937A0680917B06841710F44093CA
:100BE0007B06DF91CF910895EF92FF920F931F93B1
:100BF000CF93DF93162F7A01E9013C9A84EA809320
:100C0000BC0020E030E08091BC0087FD49C02A355F
:100C1000310509F445C02F5F3F4FF5CF8091BC00EF
:100C200087FD45C02A35310509F441C02F5F3F4F8C
:100C3000F5CF8091BC0087FD40C02A353105E9F130
:100C40002F5F3F4FF6CF8091BC0087FD18C02A353B
:100C50003105A9F02F5F3F4FF6CF8091BC008F7018
:100C6000806C8093BC0020E030E08091BC0087FD68
:100C700030C02A35310569F12F5F3F4FF6CF40E094
:100C800050E04E155F054CF320E030E08091BC0051
:100C900087FD28C02A35310529F12F5F3F4FF6CF58
:100CA000802F880F0E942C0420E030E0B7CF812FE6
:100CB0000E942C0420E030E0BCCF3C9A84EA809370
:100CC000BC00000F802F81600E942C0420E030E0E7
:100CD000BACF8091BB00FE01E40FF51F80834F5F08
:100CE0005F4FCFCF84E98093BC008091BC008B7FA5
:100CF0008093BC008091BC0084608093BC00DF9135
:100D0000CF911F910F91FF90EF900895CF92DF92B6
:100D1000EF92FF920F93DF93CF93CDB7DEB72C976F
:100D20000FB6F894DEBF0FBECDBF7C0137E0C32EF7
:100D3000D12CCC0EDD1E61E046E050E096010DE1C5
:100D40000E94F405D601BE016F5F7F4FAE01435F85
:100D50005F4FEA2FEC19E695F0E03C9120E0119608
:100D60008C91119790E0822B932B24E09595879599
:100D70002A95E1F7EE0FFF1FE60FF71F918380839F
:100D80001296A417B50729F769817A81882777FD1C
:100D90008095982F0E94181E20E030E040E85AE32A
:100DA0000E94CC1EF701628B738B848B958B6B81B9
:100DB0007C81882777FD8095982F0E94181E20E05F
:100DC00030E040E85AE30E94CC1EF701628F738F37
:100DD000848F958F6D817E81882777FD8095982FF0
:100DE0000E94181E20E030E040E85AE30E94CC1E2A
:100DF000F701668B778B808F918F2C960FB6F894C6
:100E0000DEBF0FBECDBFCF91DF910F91FF90EF906E
:100E1000DF90CF9008950F931F938C010E94860658
:100E2000F80166897789808D918D2DEC3CEC4CE141
:100E300051EC0E94CC1E1F910F9108950F931F93A8
:100E40008C010E948606F801628D738D848D958DCC
:100E50002DEC3CEC4CE151EC0E94CC1E1F910F910B
:100E600008950F931F938C010E948606F8016289F2
:100E70007389848995892DEC3CEC4CE151EC0E94FE
:100E8000CC1E1F910F9108950F931F93062F142FBF
:100E90003C9A84EA8093BC0020E030E08091BC0062
:100EA00087FD38C02A353105A9F12F5F3F4FF6CFB6
:100EB0008091BC0087FD35C02A35310591F12F5F47
:100EC0003F4FF6CF8091BC0087FD31C02A353105F8
:100ED00071F12F5F3F4FF6CF8091BC0087FD33C08B
:100EE0002A35310581F12F5F3F4FF6CF8091BC004D
:100EF00087FD32C02A35310579F12F5F3F4FF6CF9C
:100F00008091BC0087FD2DC02A35310551F12F5F3E
:100F10003F4FF6CF812F880F0E942C0420E030E055
:100F2000C7CF802F0E942C0420E030E0CBCF3C9A2A
:100F300084EA8093BC00110F812F81600E942C04F1
:100F400020E030E0C9CF8091BC008F70806C80932E
:100F5000BC0020E030E0CACF9091BB0020E030E040
:100F6000CFCF84E98093BC008091BC008B7F8093BD
:100F7000BC008091BC0084608093BC00892F1F91CD
:100F80000F9108950F931F93162F042F3C9A84EA14
:100F90008093BC0040E050E08091BC0087FD24C0FD
:100FA0004A35510509F14F5F5F4FF6CF8091BC0084
:100FB00087FD21C02A353105F1F02F5F3F4FF6CF75
:100FC0008091BC0087FD1DC02A353105D1F02F5F0F
:100FD0003F4FF6CF8091BC0087FD19C02A353105FF
:100FE000B1F02F5F3F4FF6CF822F880F0E942C0465
:100FF00020E030E0DBCF812F0E942C0420E030E0A5
:10100000DFCF802F0E942C0420E030E0E3CF84E982
:101010008093BC001F910F910895CF93DF93EC0153
:101020006DE04DE10E9444078A3219F02FEF3FEF47
:1010300037C0CE016AE24DE10E944407482F4E7F3F
:10104000CE016AE22DE10E94C207CE016EE040E0CF
:101050002DE10E94C207CE016AE24DE10E944407E1
:10106000482F477CCE016AE22DE10E94C207CE01E3
:101070006AE24DE10E944407482FCE016AE22DE169
:101080000E94C207CE016AE24DE10E944407482F48
:101090004160CE016AE22DE10E94C20721E030E00A
:1010A000C901DF91CF9108951092760610927706CC
:1010B00080E094E0EFE1F1E0DF019C011D9221501E
:1010C0003040E1F780917806882311F0109278067D
:1010D000809179068F3718F48FE780937906809195
:1010E0007A06882311F010927A0680917B068F335E
:1010F00018F48FE380937B0608951F93162FF894BE
:101100005D9A81E160E00E9447121EBD0DB407FEAA
:10111000FDCF81E161E00E94471278941F9108950C
:10112000FF920F931F938C01F62E84E061E00E94E2
:101130004712C8016F2D0E947D081F910F91FF90EB
:101140000895FF920F931F938C01F62E84E060E0C8
:101150000E944712C8016F2D0E947D081F910F91B8
:10116000FF9008958F929F92AF92BF92CF92DF929D
:10117000EF92FF920F931F93CF93DF93EC017AE2EC
:10118000872E75E0972E20E030E0AA24BB2468E08B
:10119000C62ED12CC20ED31E80917A0690E08C15FB
:1011A0009D05D4F580917B0690E0821793070CF49F
:1011B00040C0F4016081606BCE010E94A1081091D3
:1011C000780600917906612F6F5F6F70CE010E94E3
:1011D000A108612F70E06F5F7F4F54E075956795B0
:1011E0005A95E1F76F706061CE010E94A108CE01AF
:1011F00060EE0E94A1084FE1E42E41E0F42EEA0CDB
:10120000FB1C08C0F701E10FF11DCE0160810E94B7
:1012100090081F5F0117B0F70894811C911C80E8AB
:1012200090E0A80EB91E90E4C916D10411F0960101
:10123000AECF8FE780937806109279068FE3809384
:101240007A0610927B06DF91CF911F910F91FF904C
:10125000EF90DF90CF90BF90AF909F908F900895C8
:10126000EF92FF921F937C01162F61E80E94A10864
:101270001F73C701612F0E94A1081F91FF90EF907B
:101280000895CF93DF93EC0184E061E00E94BA11EE
:101290008CE061E00E94BA1181E161E00E94BA1124
:1012A00081E160E00E94471288EE93E020E931E09E
:1012B000F9013197F1F70197D9F78CE060E00E94CE
:1012C000471288EE93E020E931E0F9013197F1F718
:1012D0000197D9F78CE061E00E944712CE0163EAE2
:1012E0000E94A108CE0161EA0E94A108CE0160EC33
:1012F0000E94A108CE0160E60E94A108CE016CE226
:101300000E94A10884EF91E020E931E0F9013197D2
:10131000F1F70197D9F7CE016EE20E94A10884EFA0
:1013200091E020E931E0F9013197F1F70197D9F720
:10133000CE016FE20E94A10880E49CE90197F1F7D9
:10134000CE0166E20E94A10880917806882311F000
:1013500010927806809179068F3718F48FE7809382
:10136000790680917A06882311F010927A0680918E
:101370007B068F3318F48FE380937B06DF91CF9148
:1013800008958FE061E00E94BA1180E161E00E945F
:10139000BA1181E161E00E94BA118FE060E00E9421
:1013A000471280E160E00E94471281E161E00E9403
:1013B00047128CB580618CBD8CB580648CBD8CB5BA
:1013C0008C7F8CBD8DB581608DBD08950F931F936B
:1013D0008C010E94C109C8010E944109C8016FEA3D
:1013E0000E94A108C80164EA0E94A108C80160E047
:1013F0000E9430091F910F9108958FE191E06FE9EC
:1014000071E040E853E00E941A0480E8EFE9F4E05C
:10141000DF011D928A95E9F780917806882311F003
:1014200010927806809179068F3718F48FE78093B1
:10143000790680917A06882311F010927A068091BD
:101440007B068F3318F48FE380937B060895CF9249
:10145000DF92EF92FF920F931F93CF93DF938C0154
:101460006B017A01C0E0D0E034C0F601EC0FFD1F43
:1014700020812A3041F4809177068F5F8093770630
:101480001092760619C02D30B9F0C8016091760629
:10149000409177060E94AB05809176068A5F809323
:1014A000760690E08A3791053CF01092760680919E
:1014B00077068F5F8093770680917706883040F0BB
:1014C000C8010E94FD0980917706815080937706BC
:1014D0002196CE15DF0548F2DF91CF911F910F9134
:1014E000FF90EF90DF90CF9008950F931F93142FEC
:1014F000052F0E94270A812F902F1F910F91089589
:10150000DF93CF930F92CDB7DEB76983BE016F5FD4
:101510007F4F41E050E00E94270A81E090E00F9069
:10152000CF91DF9108951F920F920FB60F92112461
:10153000EF92FF920F931F932F933F934F935F93DD
:101540006F937F938F939F93AF93BF93EF93FF938B
:1015500080914B06813009F469C00E94D6109B012E
:10156000AC018CB1682F70E06074707080917E0562
:1015700090917F05A0918005B091810579018A0144
:10158000E81AF90A0A0B1B0BE0927A05F0927B0528
:1015900000937C0510937D0580917A0590917B05E1
:1015A000A0917C05B0917D0580529E44A040B04042
:1015B000D4F1672B19F410924A062CC0E0914A0628
:1015C000F0E080917A0590917B05A0917C05B09127
:1015D0007D05EE0FFF1FEE0FFF1FEE57FA4F9183B1
:1015E000808318C0E0914A06F0E080917A059091DE
:1015F0007B05A0917C05B0917D05EE0FFF1FEE0FDE
:10160000FF1FEE57FA4F9383828380914A068F5FC4
:1016100080934A0620937E0530937F054093800592
:101620005093810503C0672BE9F2C8CFFF91EF917A
:10163000BF91AF919F918F917F916F915F914F91EA
:101640003F912F911F910F91FF90EF900F900FBE40
:101650000F901F901895EF92FF920F931F93162FE4
:10166000042F86E2E82E87E0F82EC7016EE170E0D5
:101670000E94D60CC701612F0E94580DC701602F30
:101680000E94580DC7010E949B0D1F910F91FF9062
:10169000EF900895CF93DF9386E297E06EE170E0DC
:1016A0000E94D60C86E297E063E00E94580D86E225
:1016B00097E00E949B0D86E297E06EE170E00E9449
:1016C000D60C86E297E06EE170E046E050E00E94C2
:1016D000AC0D86E297E00E94E00C069771F4C0E042
:1016E000D0E086E297E00E94E90CFE01E45BF94F4E
:1016F00080832196C630D105A1F786E297E00E944B
:101700009B0DDF91CF9108950F931F938C0163E0A0
:1017100070E046E050E00E944A0B40914C06209158
:101720004D06742F60E030E0622B732B882777FD25
:101730008095982F0E94181E2FE135E84BE65FE355
:101740000E94CC1EF8016483758386839783409141
:101750004E0620914F06742F60E030E0622B732B11
:10176000882777FD8095982F0E94181E2FE135E875
:101770004BE65FE30E94CC1EF80160877187828789
:1017800093874091500620915106742F60E030E01D
:10179000622B732B882777FD8095982F0E94181E47
:1017A0002FE135E84BE65FE30E94CC1EF801648729
:1017B0007587868797871F910F910895CF93DF9341
:1017C000EC0189EA97E060E875E20E947A1287EFFF
:1017D00097E040E855E260E070E00E94F9138DE088
:1017E00061E00E94BA118DE060E00E9447128BE038
:1017F00061E00E94BA118BE060E00E94471284E130
:1018000060E00E94BA1185E161E00E94BA1186E1B0
:1018100061E00E94BA1187E161E00E94BA1186E09E
:1018200061E00E94BA118AE061E00E94BA1185E08D
:1018300060E00E94BA1189E061E00E94BA118FED68
:1018400096E060E070E00E94CF0C8FED96E060E0E3
:1018500070E00E94CF0C8E8F0E94C10D84E00E9428
:10186000B00D559A5D9880917D068EBD0DB407FE32
:10187000FDCF8EB580917C068EBD0DB407FEFDCFE9
:101880008EB55D9A1092840680E18093D30680E342
:101890008093D40680E28093D50680E68093D606B6
:1018A00080E48093D70680EC8093D80680E880930C
:1018B000D90680E98093DA061092DB0681E08093F6
:1018C000CA0683E08093CB0682E08093CC0686E054
:1018D0008093CD0684E08093CE068CE08093CF0683
:1018E00088E08093D00689E08093D1061092D206DA
:1018F000CE010E94E609CE010E94B20880911F0528
:101900008093DE068093DD068093DC06F8941092C7
:10191000C0001092C1001092BF001092BE0080E380
:101920008093CF0086E08093C10080917200806434
:10193000809372007894F89487E060E00E94BA1176
:1019400080916A008F7C806180936A00EE9A78941F
:10195000CE010E940D08CE0161E070E040E250E04F
:101960000E942B0BCE0162E070E040E050E00E944C
:101970002B0BCE010E94840BDF91CF910895FC01C7
:101980001382128286E395E091838083CF010E94C7
:10199000DE0B089582E596E00E94BF0C0895F99948
:1019A000FECF72BD61BDF89A80B5089581E0809345
:1019B00025076093020710922307109224070895C9
:1019C0002091010730E080910007281B3109C901EF
:1019D00008954091000780910107481718F02FEFF4
:1019E0003FEF0AC0E42FF0E0E052F94F8081282F4A
:1019F00030E04F5F40930007C9010895E091000770
:101A000080910107E81718F0EFEFFFEF06C0F0E054
:101A1000E052F94F8081E82FF0E0CF01089508955A
:101A2000109229071092280788EE93E0A0E0B0E01A
:101A300080932A0790932B07A0932C07B0932D0730
:101A40008EE395E090932707809326070895CF9221
:101A5000DF92EF92FF920F931F93CF93DF937C015E
:101A60006B018A01809125078823A1F0C0E0D0E0B6
:101A70000DC0D701ED91FC91D601AC0FBD1F0190B7
:101A8000F081E02DC7016C9109952196C017D1070F
:101A900080F304C0CB01642F0E947E0EC801DF9149
:101AA000CF911F910F91FF90EF90DF90CF9008950D
:101AB000DF93CF930F92CDB7DEB7FC01698380919E
:101AC00025078823C9F080912407803238F081E00F
:101AD00090E09383828320E030E015C0809123075B
:101AE000E82FF0E0ED5FF84F998190838F5F80934E
:101AF00023078093240705C0CE01019661E00E9470
:101B00007E0E21E030E0C9010F90CF91DF91089562
:101B10000F93062F8091020763E077E0409124073E
:101B200021E00E94290E10922307109224071092A0
:101B300025070F91089561E00E94880D08954132B4
:101B400008F040E2862F60EE76E00E94E00D1092F1
:101B5000000780930107089521E00E949F0D0895DA
:101B60002CB5382F33702C7F322B3CBD2DB590E037
:101B7000959587959595879581702E7F822B8DBD44
:101B800008958FE061E00E94BA1180E161E00E9457
:101B9000BA1181E161E00E94BA118FE060E00E9419
:101BA000471280E160E00E94471281E161E00E94FB
:101BB00047128CB580618CBD8CB580648CBD089556
:101BC000382F413210F040E042C080913207882324
:101BD000E1F791E090933207209334078FEF8093E1
:101BE0009F0710925A07415040935B074F5F9093B5
:101BF000330780913307330F832B80933307809112
:101C00003507813041F41092350780913307809376
:101C1000BB0085EC01C085EE8093BC00809132074B
:101C20008130E1F380915A07841710F440915A07EC
:101C300020E030E00AC0FB01E20FF31FD901A65CEF
:101C4000B84F8C9180832F5F3F4F2417A0F3842FD0
:101C500008950F931F93582F122F413210F081E0F7
:101C60004AC0809132078823E1F782E080933207EF
:101C7000009334078FEF80939F0710925A07409389
:101C80005B07AAE3B7E0FB0102C081918D938E2F21
:101C9000861B8417D0F31092330780913307550FBA
:101CA000852B8093330780913507813041F4109262
:101CB0003507809133078093BB0085EC01C085EE2A
:101CC0008093BC00112321F0809132078230E1F330
:101CD00080919F078F3F11F480E00DC080919F0796
:101CE000803211F482E007C080919F07803311F0A9
:101CF00084E001C083E01F910F910895482F613265
:101D000010F081E0089580913207843011F082E074
:101D1000089560937D07ACE5B7E0842F9C01F9013D
:101D200002C081918D938E2F841B8617D0F380E0A3
:101D300008951F920F920FB60F9211242F933F9385
:101D40004F935F936F937F938F939F93AF93BF93C3
:101D5000EF93FF938091B90090E0887F9070803678
:101D6000910509F4F2C081369105CCF588329105D0
:101D700009F47BC089329105B4F48031910509F4EE
:101D80006FC0813191053CF4009709F447C1089771
:101D900009F04FC165C08831910509F466C080978C
:101DA00009F047C182C08034910509F4A4C0813490
:101DB000910544F48033910509F482C0C89709F075
:101DC00038C189C08035910509F489C088359105ED
:101DD00009F496C08834910509F02BC1AEC088394A
:101DE000910509F413C189399105ECF488379105FF
:101DF00009F4ABC0893791054CF48836910509F494
:101E0000A4C08037910509F014C19FC0883891059E
:101E100009F4FCC08039910509F49DC08038910512
:101E200009F007C198C0803B910509F4C6C0813B09
:101E300091054CF4803A910509F49FC0883A9105C8
:101E400009F0F7C0BAC0803C910509F4E3C0883CB2
:101E5000910509F4DFC0883B910509F0EAC0C2C0D2
:101E6000809133078093BB00CFC090915A07809137
:101E70005B07981768F490915A07E92FF0E0E65C49
:101E8000F84F80818093BB009F5F90935A07BCC03E
:101E900080913407882309F44BC085ED8093BC0002
:101EA0008091BC0084FDFCCFC2C080E280939F077C
:101EB00085ED8093BC008091BC0084FDFCCFB7C051
:101EC00080E380939F0785ED8093BC008091BC00E8
:101ED00084FDFCCFACC088E380939F079BC08091BA
:101EE0005A079091BB00E82FF0E0E65CF84F908332
:101EF0008F5F80935A0790915A0780915B0782C049
:101F000080915A079091BB00E82FF0E0E65CF84F13
:101F100090838F5F80935A0780913407882341F024
:101F200085ED8093BC008091BC0084FDFCCF7FC018
:101F300081E08093350784EA6EC085ED8093BC0014
:101F40008091BC0084FDFCCF72C083E08093320797
:101F500010929E0759C080919E07803208F056C0AB
:101F600080919E079091BB00E82FF0E0E258F84F77
:101F700090838F5F80939E0747C080919E07803239
:101F800030F4E0919E07F0E0E258F84F108285EDC2
:101F90008093BC008091BC0084FDFCCF109232077E
:101FA00060919E07E0913807F09139078EE797E03E
:101FB00070E0099510929E072DC084E0809332074F
:101FC00010927C0710927D07E0913607F091370759
:101FD000099580917D07882329F481E080937D070E
:101FE00010925C0790917C07E92FF0E0E45AF84FDB
:101FF00080818093BB009F5F90937C0790917C07CA
:1020000080917D07981710F485EC01C085E88093D6
:10201000BC000FC085EC8093BC0009C010929F07E4
:1020200085ED8093BC008091BC0084FDFCCF1092B4
:102030003207FF91EF91BF91AF919F918F917F9167
:102040006F915F914F913F912F910F900FBE0F9025
:102050001F90189508956F927F928F929F92AF92E2
:10206000BF92CF92DF92EF92FF920F931F9382E580
:1020700096E00E94310782E596E00E941E0782E505
:1020800096E00E940B0782E596E00E9431077B01F3
:102090008C0182E596E00E941E075B016C0182E5DF
:1020A00096E00E940B073B014C0182E596E00E94FE
:1020B000540882E596E060E071E00E94681682E5CF
:1020C00096E0B801A70122E030E00E944F1782E5B8
:1020D00096E065E071E00E94681682E596E0B60140
:1020E000A50122E030E00E944F1782E596E06BE008
:1020F00071E00E94681682E596E0B401A30122E037
:1021000030E00E944F1782E596E00E94B20864E634
:1021100070E080E090E00E945211B5CF1F920F92C4
:102120000FB60F9211242F933F938F939F93AF93EA
:10213000BF938091A4079091A507A091A607B091A5
:10214000A7073091A8070196A11DB11D232F2D5F70
:102150002D3720F02D570196A11DB11D2093A80702
:102160008093A4079093A507A093A607B093A70711
:102170008091A0079091A107A091A207B091A30719
:102180000196A11DB11D8093A0079093A107A09374
:10219000A207B093A307BF91AF919F918F913F91F9
:1021A0002F910F900FBE0F901F9018959FB7F89426
:1021B0002091A0073091A1074091A2075091A30759
:1021C00086B5A89B06C08F3F21F02F5F3F4F4F4F32
:1021D0005F4F9FBF542F432F322F2227280F311DCF
:1021E000411D511D82E0220F331F441F551F8A9548
:1021F000D1F7B901CA010895789484B5826084BD8D
:1022000084B5816084BD85B5826085BD85B58160FA
:1022100085BDEEE6F0E0808181608083E1E8F0E05A
:102220001082808182608083808181608083E0E889
:10223000F0E0808181608083E1E9F0E0808182606C
:102240008083808181608083E0E9F0E0808181602B
:102250008083E1ECF0E08081846080838081826013
:102260008083808181608083E3ECF0E08081816005
:102270008083E0ECF0E0808182608083E2ECF0E03B
:10228000808181608083EAE7F0E0808184608083E0
:10229000808182608083808181608083808180688A
:1022A00080830895EF92FF920F931F93CF93DF9354
:1022B0007B018C013FB7F8948091A0079091A10712
:1022C000A091A207B091A30726B5A89B05C02F3FF8
:1022D00019F00196A11DB11D3FBFBA2FA92F982F4C
:1022E0008827820F911DA11DB11D52E0880F991FF3
:1022F000AA1FBB1F5A95D1F7EC0130C00E94D01B1A
:102300003FB7F8948091A0079091A107A091A207F0
:10231000B091A30726B5A89B05C02F3F19F00196E1
:10232000A11DB11D3FBFBA2FA92F982F8827820F5B
:10233000911DA11DB11D32E0880F991FAA1FBB1F5F
:102340003A95D1F78C1B9D0B885E9340B8F20894A8
:10235000E108F10801091109C851DC4FE114F10449
:102360000105110559F6DF91CF911F910F91FF9053
:10237000EF900895CF93DF93482F50E0CA01815129
:102380009A4FFC0134914F525A4FFA01849188239D
:1023900069F190E0880F991FFC01E955FA4FA5916A
:1023A000B491FC01EB54FA4FC591D491662351F4DA
:1023B0002FB7F8948C91932F909589238C938881D3
:1023C00089230BC0623061F42FB7F8948C91932F5E
:1023D000909589238C938881832B88832FBF06C097
:1023E0009FB7F8948C91832B8C939FBFDF91CF91F3
:1023F0000895883071F1893068F4823031F183308A
:1024000020F4813009F042C01DC0833089F084304F
:10241000E9F512C08B3059F18C3028F48930E9F09D
:102420008A30A1F51EC08C3031F18E3079F529C08B
:10243000809180008F7703C0809180008F7D809392
:102440008000089584B58F7702C084B58F7D84BDE8
:102450000895809190008F7707C0809190008F7DC4
:1024600003C080919000877F8093900008958091B1
:10247000C0008F7703C08091C0008F7D8093C00023
:1024800008958091C200877F8093C2000895FF92D3
:102490000F931F93F62E482F50E0CA01835F994F88
:1024A000FC012491CA0181519A4FFC0114914F52B1
:1024B0005A4FFA0104910023C9F0222319F0822F08
:1024C0000E94F911E02FF0E0EE0FFF1FEB54FA4FDE
:1024D000A591B4919FB7F894FF2021F48C911095A9
:1024E000812302C08C91812B8C939FBF1F910F91F0
:1024F000FF9008950895FC012485858530E0205CD7
:102500003F4F281B31092F733070C9010895FC011A
:1025100094858585981719F42FEF3FEF06C08585C0
:10252000E80FF11D8685282F30E0C9010895DC01F0
:102530001C969C911C971D968C911D97981719F4C9
:102540002FEF3FEF10C01D968C911D97FD01E80FF6
:10255000F11D96851D968C911D978F5F8F731D962B
:102560008C93292F30E0C90108951092AC07109286
:10257000AB0788EE93E0A0E0B0E08093AD079093C6
:10258000AE07A093AF07B093B0078EE495E09093A9
:10259000AA078093A90708950F931F93DF93CF9302
:1025A0000F92CDB7DEB78C01698380912705882310
:1025B00069F083E0BE016F5F7F4F41E050E00E9411
:1025C00056191816190614F49C0107C081E090E012
:1025D000F8019383828320E030E0C9010F90CF910E
:1025E000DF911F910F91089583E00E942D190895A6
:1025F0000F931F93CF93DF938C01FC010FC082E0F8
:102600000E9413189C01FFEF8F3F9F0799F0F8017C
:102610008485E80FF11D2687F801C4878485C82FBB
:10262000D0E02196CF73D070F801858590E0C8176F
:10263000D90729F7DF91CF911F910F910895FC01E0
:1026400080818E5F808380E867E376E042E450E03B
:102650000E942C180895FC0181819081913A59F4CF
:10266000813209F04CC080E060E275E047E050E064
:102670000E942C1842C0913209F041C0803239F4D6
:1026800080E295E067E070E00E94151936C0823262
:1026900009F035C0828180932705809120059091B3
:1026A0002105A0912205B0912305805B9440A040B4
:1026B000B04019F58091270580FD12C087E797E7A4
:1026C00090930108809300082BE088E190E00FB61A
:1026D000F894A895809360000FBE209360000DC011
:1026E00088E10FB6F89480936000109260000FBEEE
:1026F000A895109201081092000881E0089580E0EA
:10270000089508951F920F920FB60F9211242F93E0
:102710003F934F938F939F93EF93FF938091C800C4
:1027200082FD19C04091CE0080911508282F30E01D
:102730002F5F3F4F2F7330708091160890E028175D
:10274000390759F0E0911508F0E0E950F84F42A33D
:102750002093150802C08091CE00FF91EF919F91C8
:102760008F914F913F912F910F900FBE0F901F901F
:102770001895809115082091160890E0805C9F4F75
:10278000821B91098F739070892B11F00E94811325
:1027900008951F920F920FB60F9211242F938F93CB
:1027A0009F93EF93FF9390911708809118089817C3
:1027B00031F48091C9008F7D8093C90010C0E091F1
:1027C0001808F0E0E75AF74F20818091180890E050
:1027D00001968F739070809318082093CE00FF911C
:1027E000EF919F918F912F910F900FBE0F901F909F
:1027F0001895AF92BF92DF92EF92FF920F931F93C3
:10280000CF93DF93EC017A018B01DD24403081EE20
:10281000580780E0680780E0780711F0DD24D39442
:1028200091E0A92EB12CE889F989DD2069F0C50174
:102830000C8C02C0880F991F0A94E2F7808360E035
:1028400079E08DE390E005C0108260E874E88EE1E5
:1028500090E0A80197010E94521F21503040404053
:102860005040569547953795279580E12030380799
:1028700020F0DD2011F0DD24D6CFEC85FD853083FE
:10288000EE85FF8520831D8EEA89FB89408121E04A
:1028900030E0C901088C02C0880F991F0A94E2F742
:1028A000482B4083EA89FB894081C901098C02C019
:1028B000880F991F0A94E2F7482B4083EA89FB8925
:1028C0004081C9010A8C02C0880F991F0A94E2F75F
:1028D000482B4083EA89FB8980810B8C02C0220F40
:1028E000331F0A94E2F7209528232083DF91CF91AC
:1028F0001F910F91FF90EF90DF90BF90AF900895E0
:10290000FC01268D878D30E0205C3F4F281B31096C
:102910002F733070C9010895FC01968D878D98172B
:1029200019F42FEF3FEF06C0878DE80FF11D82A14C
:10293000282F30E0C9010895DC015E969C915E97D6
:102940005F968C915F97981719F42FEF3FEF10C0A7
:102950005F968C915F97FD01E80FF11D92A15F9644
:102960008C915F978F5F8F735F968C93292F30E0E8
:10297000C9010895DC015D968C915D97882339F03B
:102980005096ED91FC915197808186FFF9CF5D962D
:102990001C920895DC0190968C919097282F30E03E
:1029A0002F5F3F4F2F73307091968C91919790E0ED
:1029B00028173907C9F390968C919097FD01E80F7D
:1029C000F11DEE59FF4F608390962C93909752968D
:1029D000ED91FC915397208181E090E05B960C9003
:1029E0005B9702C0880F991F0A94E2F7282B208377
:1029F00081E05D968C935D975096ED91FC91519797
:102A000080818064808381E090E008951092FA07CD
:102A10001092F90788EE93E0A0E0B0E08093FB0706
:102A20009093FC07A093FD07B093FE0780E695E026
:102A30009093F8078093F707109218088091180870
:102A40008093170810921608809116088093150835
:102A50008DEC90E090930408809303088CEC90E058
:102A6000909306088093050888EC90E090930808FE
:102A70008093070889EC90E090930A0880930908F6
:102A80008AEC90E090930C0880930B088EEC90E019
:102A900090930E0880930D0884E080930F0883E0E4
:102AA0008093100887E08093110885E080931208D6
:102AB00081E0809313080895CF93DF930E94FC1068
:102AC00088EA98E00E9438190E942B10C9EBD3E1E4
:102AD0000E942A102097E1F30E94B913F9CFCF92F8
:102AE000DF92EF92FF920F931F93CF93DF937C01BE
:102AF0006B018A01C0E0D0E00FC0D6016D916D017D
:102B0000D701ED91FC910190F081E02DC70109956D
:102B1000C80FD91F015010400115110571F7CE01E2
:102B2000DF91CF911F910F91FF90EF90DF90CF90A9
:102B30000895CF93DF93EC016115710519F420E03E
:102B400030E00FC0DB010D900020E9F71197A61BC4
:102B5000B70BE881F9810280F381E02DAD01099581
:102B60009C01C901DF91CF9108954F925F927F92AE
:102B70008F929F92AF92BF92CF92DF92EF92FF928D
:102B80000F931F93DF93CF93CDB7DEB7A1970FB607
:102B9000F894DEBF0FBECDBF2C01742ECB012230C6
:102BA00008F42AE019A231E2C32ED12CCC0EDD1E8E
:102BB000822E9924AA24BB24672D752FA501940188
:102BC0000E94521F79018A01C801B701A501940131
:102BD0000E94331F472D461B0894C108D1084A3074
:102BE00014F4405D01C0495CF6014083E114F10436
:102BF0000105110521F07E2C5F2DC801DDCFC2013A
:102C0000B6010E949915A1960FB6F894DEBF0FBECB
:102C1000CDBFCF91DF911F910F91FF90EF90DF908B
:102C2000CF90BF90AF909F908F907F905F904F908C
:102C30000895DC012115310541F4ED91FC910190DD
:102C4000F081E02D642F099508950E94B51508952F
:102C5000CF92DF92EF92FF920F931F93CF93DF9368
:102C6000EC016A017B012115310541F4E881F9810C
:102C70000190F081E02D642F09951FC02A303105A5
:102C8000D1F477FF17C0E881F9810190F081E02D40
:102C90006DE209958C0144275527BA014C195D094D
:102CA0006E097F09CE012AE00E94B5159801280F10
:102CB000391F04C02AE00E94B5159C01C901DF91AB
:102CC000CF911F910F91FF90EF90DF90CF900895DB
:102CD0000E94991508957F928F929F92AF92BF9212
:102CE000CF92DF92EF92FF920F931F93CF93DF93D8
:102CF0004C017A018B01722ECB01BA01A801970118
:102D00000E942F1F882321F0C40161E171E021C0DE
:102D1000C0E0D0E057016801E894D7F8C601B501DA
:102D20002FEF3FEF4FE75FE70E942F1F882351F4FB
:102D3000C601B5012FEF3FEF4FE75FE70E94791D16
:102D4000181614F0C1E0D0E0219739F0C40165E114
:102D500071E00E949915EC0193C0C801B7012FEFF3
:102D60003FEF4FE75FE40E94C81E181654F0C801F9
:102D7000B7012FEF3FEF4FE75FEC0E94791D8823EB
:102D800024F4C40169E171E0E4CFC801B70120E097
:102D900030E040E050E00E94791D87FD03C0C0E0B4
:102DA000D0E00EC0D401ED91FC910190F081E02DB6
:102DB000C4016DE20995EC0117FB109517F9109508
:102DC00020E030E040E05FE3DD240BC0CA01B90140
:102DD00020E030E040E251E40E947D1D9B01AC0107
:102DE000D394D71498F3C801B7010E94151D5B0155
:102DF0006C010E94EA1D7B018C01C401B801A7018E
:102E00002AE030E00E941916C80FD91F772039F048
:102E1000C4016DE171E00E949915C80FD91FC80166
:102E2000B7010E94161E9B01AC01C601B5010E94AC
:102E3000141D24C020E030E040E251E40E94CC1E8A
:102E40007B018C010E94E51D5B016C01CC24B7FC69
:102E5000C094DC2CC401B601A5012AE030E00E9438
:102E60002816C80FD91FC601B5010E94181E9B0164
:102E7000AC01C801B7010E94141D7A947720D1F6E5
:102E8000CE01DF91CF911F910F91FF90EF90DF90D6
:102E9000CF90BF90AF909F908F907F9008950E94A9
:102EA0006B1608958230B9F0833028F4882351F0EE
:102EB0008130F9F40AC08430B9F0843090F0853064
:102EC000C1F415C010926E00089580916F008D7F3F
:102ED00080936F000895809170008D7F80937000C3
:102EE0000895109271000895109272000895109242
:102EF000730008951F920F920FB60F9211242F9313
:102F00003F934F935F936F937F938F939F93AF9371
:102F1000BF93EF93FF938091990890919A08A091A5
:102F20009B08B0919C080097A105B10551F1E09173
:102F30009D08F0919E08808190919F088927808349
:102F40008091990890919A08A0919B08B0919C0853
:102F5000181619061A061B060CF58091990890910F
:102F60009A08A0919B08B0919C080197A109B1090A
:102F70008093990890939A08A0939B08B0939C081B
:102F80000DC083E00E945217E0919D08F0919E08C9
:102F9000908180919F08809589238083FF91EF9194
:102FA000BF91AF919F918F917F916F915F914F9161
:102FB0003F912F910F900FBE0F901F901895282FC3
:102FC0008091A2088823C1F057FF1AC015C0289825
:102FD0009093A1088091F1008193E217F307B9F76C
:102FE0004115510539F08091F200882319F48BE6E0
:102FF0008093E800AFBF02C04FEF5FEFCA010895B2
:10300000AFB7F89427702093E9008091F200282F41
:1030100030E0241735070CF4A901FB019B01240FB4
:10302000311D94E6DACFDF93CF930F92CDB7DEB7A1
:10303000BE016F5F7F4F41E050E00E94DF170197B4
:1030400019F02FEF3FEF03C08981282F30E0C9012D
:103050000F90CF91DF910895FF920F931F93F82E59
:10306000142F052F4091A5085091A608212F302F2D
:10307000C901DC01FB016EEF29C0F7FE02C094918B
:1030800001C090812091A3083091A408241735072E
:10309000ACF48091E8008570E1F38091E80082FF54
:1030A00003C02FEF3FEF17C09093F100C9010196C5
:1030B0008F739070892B11F46093E8002F5F3F4F5E
:1030C0003093A4082093A308119731961097A9F67E
:1030D000812F902F9C01C9011F910F91FF9008959E
:1030E0001F93782FE92F162F2091A3083091A40861
:1030F000A091A508B091A6082A173B07C4F48091B7
:10310000E8008570E1F38091E80082FD16C0812F10
:1031100090E00196880F991F8093F100C9010196F4
:103120008F739070892B19F48EEF8093E8002F5FD6
:103130003F4F3093A4082093A3082091A308309117
:10314000A4082A173B07A4F48091E8008570E1F3F6
:103150008091E80082FD12C083E08093F100C901F4
:1031600001968F739070892B19F48EEF8093E8008D
:103170002F5F3F4F3093A4082093A3084091A308EA
:103180005091A408872F9E2FFC0170E06EEF43C082
:1031900094914A175B07A4F48091E8008570E1F3ED
:1031A0008091E80082FF02C020E00DC09093F10002
:1031B000CA0101968F739070892B11F46093E80017
:1031C0004F5F5F4F21E04A175B07A4F48091E8004E
:1031D0008570E1F38091E80082FF02C080E00DC0BD
:1031E0001092F100CA0101968F739070892B11F42F
:1031F0006093E8004F5F5F4F81E0319690E030E0F0
:1032000082239323892B31F45093A4084093A3087D
:1032100080E009C07F5F711708F4BACF5093A4080B
:103220004093A30881E01F9108959C018091E800DC
:1032300082FFFCCFF901260F311D03C08091F10000
:103240008193E217F307D1F7289884E68093A108C9
:103250008BEF8093E800CB0108958093E900809183
:10326000F200882319F08AE38093E8000895089516
:103270001092A20881E08093D70080EA8093D80062
:1032800082E189BD09B400FEFDCF61E070E080E01D
:1032900090E00E94521180E98093D8008CE08093E6
:1032A000E2001092E000559A209A08955F926F9282
:1032B0007F928F929F92AF92BF92CF92DF92EF92C6
:1032C000FF920F931F93CF93DF93E82E842E752EDA
:1032D0008091A208882371F18B01242F352FC90119
:1032E000EC01AAEFFA2EF7E09F2E9E20E0E45E2E7E
:1032F0008E2D90E070E2A72EB12CA822B9226AE3AD
:10330000662E50E4C52ED12CC822D92258C09FB7B2
:10331000F8949092E9008091E80085FD02C020E0D9
:1033200004C08091F200252D281B9FBF222361F449
:10333000FA9419F42FEF3FEF4DC061E070E080E0A8
:1033400090E00E9452113BC0822F90E0C817D9072D
:103350000CF42C2FC21BD1094FB7F8949092E900BE
:10336000A114B10421F406C01092F10021502223CF
:10337000D9F719C0E7FC03C0F801922F10C0C801AB
:10338000322F06C0FC010196E491E093F100315028
:103390003323C1F706C081918093F10091509923A6
:1033A000D1F7020F111D8091E80085FF05C020971D
:1033B00029F4C114D10411F06092E8004FBF2097A6
:1033C00009F0A5CF5D9884E68093A008282D372DBD
:1033D000C9019C01C901DF91CF911F910F91FF900D
:1033E000EF90DF90CF90BF90AF909F908F907F90A5
:1033F0006F905F9008951F920F920FB60F92112455
:103400002F933F934F935F936F937F938F939F93EC
:10341000AF93BF93EF93FF938091E1001092E1008F
:10342000982F83FF0FC01092E90081E08093EB009A
:103430001092EC0082E38093ED001092A20888E0E5
:103440008093F00092FF34C083E08093E900809184
:10345000F200882319F08AE38093E8008FB7F8948C
:1034600092E09093E9009091F2008FBF992321F0B0
:1034700089EA97E00E94F8128091A008882351F011
:103480008091A00881508093A0088091A008882393
:1034900009F45D9A8091A108882351F08091A108D8
:1034A00081508093A1088091A108882309F4289A6B
:1034B000FF91EF91BF91AF919F918F917F916F910C
:1034C0005F914F913F912F910F900FBE0F901F90E2
:1034D00018950F931F93DF93CF930F92CDB7DEB75D
:1034E00019828E010F5F1F4FC8010E941F13C80170
:1034F0000E94081D898190E00F90CF91DF911F916C
:103500000F9108951F920F920FB60F921124EF9210
:10351000FF921F932F933F934F935F936F937F93EC
:103520008F939F93AF93BF93EF93FF93DF93CF93CB
:10353000CDB7DEB76197DEBFCDBF1092E9008091B5
:10354000E80083FF14C1FE0131969E01275F3F4FC3
:1035500003C08091F1008193E217F307D1F7289817
:1035600084E68093A10882EF8093E800998197FF19
:1035700005C08091E80080FFFCCF03C08EEF8093F0
:10358000E800292F30E0C90180769070892B09F07E
:10359000C7C08A81882329F41092F1001092F100AB
:1035A000DBC0813009F4D8C0833009F4D5C0853040
:1035B00049F48091E80080FFFCCF8B818068809384
:1035C000E300CAC0863009F081C01C81EF80F88416
:1035D0001230C1F51092E9001092A4081092A308CD
:1035E0001092A6081092A5080E94691A99E0FE019F
:1035F0003996DF01292F1D922A95E9F799871A87B5
:1036000091E09E8790E8988B9AEF998B2091A30880
:103610003091A408275F3F4F3C872B878D871092FE
:10362000E9001092A4081092A308F092A608E09274
:10363000A50880E0BF0149E050E00E942C180E94DC
:10364000691A8AC01092E9001092A4081092A30887
:10365000F092A608E092A508123241F482E290E0CE
:103660000E94001D892B09F47BC076C0113079F4CB
:1036700088E0E816F10419F481E08093A7088091AE
:10368000A708882309F070C0EAE9F6E018C01330F3
:1036900009F066C08B81882319F4E9E7F6E00FC0D2
:1036A000823021F48DE796E060E106C0813009F0B8
:1036B00057C08EE896E06BE00E9470184BC04491B2
:1036C00080E8BF0150E00E942C1846C0873009F402
:1036D00047C0883021F481E08093F1003DC08930FB
:1036E000D9F523703070232BD9F5EFEBF6E091E09C
:1036F00031E026E39093E9003093EB0084918093CE
:10370000EC002093ED009F5F3196953099F78EE79E
:103710008093EA001092EA008B818093A2081CC07B
:103720008F8198851092E9001092A4081092A30846
:103730009093A6088093A5088D81882329F4CE0153
:1037400001960E942B1306C0823051F4CE010196DF
:103750000E94D11B882321F08EEF8093E80007C0E0
:1037600081E28093EB0003C0ECEAF6E0A8CF61961B
:10377000DEBFCDBFCF91DF91FF91EF91BF91AF91B0
:103780009F918F917F916F915F914F913F912F9179
:103790001F91FF90EF900F900FBE0F901F90189504
:1037A0000895FC0191818081813A31F4913089F052
:1037B00080E0933089F40DC0813269F49B3021F4AC
:1037C00082818093280505C09A3029F482818093F4
:1037D000290581E0089580E00895EF92FF920F930C
:1037E0001F938C01E62EDC01ED91FC910480F581A4
:1037F000E02D0995F82ED801ED91FC910680F78116
:10380000E02DC8016E2D09958F2D90E01F910F912D
:10381000FF90EF9008951092A9081092AD081092B1
:10382000AC0880E795E09093AB088093AA080895D0
:10383000EF92FF920F931F93DF93CF930F92CDB729
:10384000DEB789838B017A0184E0BE016F5F7F4F11
:1038500041E050E00E94561984E4B801A7010E949B
:1038600056190F90CF91DF911F910F91FF90EF901C
:10387000089582E048E050E00E94181C0895FC0181
:103880001682178210861186128613861482349649
:10389000BF010E94391C0895DC01683810F0685897
:1038A00029C0E62FF0E067FF13C0E058F04081E048
:1038B00090E002C0880F991FEA95E2F78095149670
:1038C0002C911497282314962C93149760E012C01F
:1038D000EF5BF84F6491662319F420E030E01DC0DF
:1038E00067FF08C014968C9114978D7F14968C9363
:1038F00014976F77FD0190E0662321F0868186178B
:1039000009F416829F5F31969630B1F7CD01149677
:10391000BD010E94391C21E030E0C9010895CF9318
:10392000DF93DC01683810F0685825C0E62FF0E01E
:1039300067FF12C0E058F04081E090E002C0880FBD
:10394000991FEA95E2F714962C911497282B149658
:103950002C93149760E00FC0EF5BF84F64916623DF
:10396000D9F167FF08C014968C9114978260149661
:103970008C9314976F7716968C9116978617A9F1EA
:1039800017968C911797861781F118968C91189736
:10399000861759F119968C911997861731F11A9655
:1039A0008C911A97861709F11B968C911B97861795
:1039B000E1F0ED01E0E0F0E09E2F8E81882321F41C
:1039C000EA0FFB1F668306C09F5F31962196E630A3
:1039D000F10591F7963049F481E090E013969C93BD
:1039E0008E93129720E030E007C0CD011496BD0100
:1039F0000E94391C21E030E0C901DF91CF91089588
:103A000080E863EC76E045E650E00E942C180895CB
:103A1000FC0180818F5F808380E868E277E049E184
:103A200050E00E942C1808955058BB27AA270ED0AA
:103A300075C166D130F06BD120F031F49F3F11F4A5
:103A40001EF45BC10EF4E095E7FB51C1E92F77D17D
:103A500080F3BA17620773078407950718F071F4AB
:103A60009EF58FC10EF4E0950B2EBA2FA02D0B0101
:103A7000B90190010C01CA01A0011124FF27591BB3
:103A800099F0593F50F4503E68F11A16F040A22FB9
:103A9000232F342F4427585FF3CF4695379527952A
:103AA000A795F0405395C9F77EF41F16BA0B620B29
:103AB000730B840BBAF09150A1F0FF0FBB1F661F70
:103AC000771F881FC2F70EC0BA0F621F731F841FB3
:103AD00048F4879577956795B795F7959E3F08F0D9
:103AE000B3CF9395880F08F09927EE0F9795879598
:103AF0000895D9D008F481E008950CD00FC107D102
:103B000040F0FED030F021F45F3F19F0F0C05111C9
:103B100039C1F3C014D198F39923C9F35523B1F3F4
:103B2000951B550BBB27AA2762177307840738F02C
:103B30009F5F5F4F220F331F441FAA1FA9F333D08B
:103B40000E2E3AF0E0E830D091505040E695001C3F
:103B5000CAF729D0FE2F27D0660F771F881FBB1FFB
:103B6000261737074807AB07B0E809F0BB0B802DD5
:103B7000BF01FF2793585F4F2AF09E3F510568F021
:103B8000B6C000C15F3FECF3983EDCF386957795B5
:103B90006795B795F7959F5FC9F7880F911D969523
:103BA000879597F90895E1E0660F771F881FBB1F7F
:103BB000621773078407BA0720F0621B730B840B2C
:103BC000BA0BEE1F88F7E095089504D06894B11100
:103BD000D9C00895BCD088F09F5790F0B92F99278D
:103BE000B751A0F0D1F0660F771F881F991F1AF008
:103BF000BA95C9F712C0B13081F0C3D0B1E00895D1
:103C0000C0C0672F782F8827B85F39F0B93FCCF351
:103C1000869577956795B395D9F73EF490958095FD
:103C2000709561957F4F8F4F9F4F0895E89409C01D
:103C300097FB3EF490958095709561957F4F8F4FDF
:103C40009F4F9923A9F0F92F96E9BB279395F695F5
:103C5000879577956795B795F111F8CFFAF4BB0F73
:103C600011F460FF1BC06F5F7F4F8F4F9F4F16C0D7
:103C7000882311F096E911C0772321F09EE8872F61
:103C8000762F05C0662371F096E8862F70E060E01D
:103C90002AF09A95660F771F881FDAF7880F969596
:103CA000879597F90895990F0008550FAA0BE0E83A
:103CB000FEEF16161706E807F907C0F012161306EE
:103CC000E407F50798F0621B730B840B950B39F42E
:103CD0000A2661F0232B242B252B21F408950A2694
:103CE00009F4A140A6958FEF811D811D089597F9D4
:103CF0009F6780E870E060E008959FEF80EC089592
:103D000000240A94161617061806090608950024BA
:103D10000A9412161306140605060895092E039434
:103D2000000C11F4882352F0BB0F40F4BF2B11F4A8
:103D300060FF04C06F5F7F4F8F4F9F4F089557FD07
:103D40009058440F551F59F05F3F71F04795880F09
:103D500097FB991F61F09F3F79F0879508951216A0
:103D600013061406551FF2CF4695F1DF08C016164C
:103D700017061806991FF1CF8695710561050894FD
:103D80000895E894BB2766277727CB0197F9089514
:103D90008ADF08F48FEF08950BD0C0CFB1DF28F091
:103DA000B6DF18F0952309F0A2CFA7CF1124EACFF0
:103DB000C6DFA0F3959FD1F3950F50E0551F629F8A
:103DC000F001729FBB27F00DB11D639FAA27F00D74
:103DD000B11DAA1F649F6627B00DA11D661F829F9B
:103DE0002227B00DA11D621F739FB00DA11D621F80
:103DF000839FA00D611D221F749F3327A00D611D9D
:103E0000231F849F600D211D822F762F6A2F11247E
:103E10009F5750408AF0E1F088234AF0EE0FFF1FD1
:103E2000BB1F661F771F881F91505040A9F79E3F08
:103E3000510570F05CCFA6CF5F3FECF3983EDCF30A
:103E4000869577956795B795F795E7959F5FC1F745
:103E5000FE2B880F911D9695879597F9089523DF7E
:103E6000880B990B0895629FD001739FF001829F88
:103E7000E00DF11D649FE00DF11D929FF00D839FF9
:103E8000F00D749FF00D659FF00D9927729FB00D96
:103E9000E11DF91F639FB00DE11DF91FBD01CF01A9
:103EA00011240895A1E21A2EAA1BBB1BFD010DC00F
:103EB000AA1FBB1FEE1FFF1FA217B307E407F507DA
:103EC00020F0A21BB30BE40BF50B661F771F881FB6
:103ED000991F1A9469F760957095809590959B014C
:103EE000AC01BD01CF010895EE0FFF1F0590F491C5
:083EF000E02D0994F894FFCFC6
:103EF80058203D20000A59203D20000A5A203D2024
:103F0800006E616E00696E66006F7666002E0000B6
:103F18000000000000000000000000000000000099
:103F28000000000000000000000000000000000089
:103F38000000000000000000000000000000000079
:103F48000000000000000000000000000000000069
:103F58000000000000000000000000000000000059
:103F68000000000000000000000000000000000049
:103F78000000000000000000000000000000000039
:103F88000000000000000000000000000000000029
:103F980000000000000000010101030307070F0FE4
:103FA8000F0F0F0F070301000000000000000000C2
:103FB80000000000000000000000000000000000F9
:103FC80000000000000000000000000000000000E9
:103FD80000000000000000000000000000000000D9
:103FE80000000000000000000000000000000000C9
:103FF80000000000000000000000000000000000B9
:1040080000010F070000000000000000000000038E
:10401800070F3F7F7FFFFFFFFFFFFFFFFFFFFFFF50
:10402800FFFEFEFCFCFCFC78000000000000000025
:104038000000000000000000000000000000000078
:104048000000000000000000000000000000000068
:104058000000000000000000000000000000000058
:1040680000000000000000003FFFFFFFFFFFFFFF10
:104078003800000000000183E1F37B7F3F3F1F1FF2
:104088003FFFFFFF1F3F7F7FFFE7C78702020280D6
:10409800E0F0F8F8F8FCFEFEFFFFFFFFFFFFFFFF70
:1040A8001F0F0707030301000000000000060F1F91
:1040B8001F1F1F3F3F3F3F3F3F3F3F1F1F0F0F0740
:1040C8000300003F3F3F3F3F3F3F3F3F3F3F3F3FB2
:1040D8001F1F0F07000000003F3F3F3F3F1F0F1FFC
:1040E8001F1F1F1E1F1F1F0EFFFFFFFFFFFFFFFFEA
:1040F800030307070F1F1F1F0E048080808087CFD0
:10410800CFDFDFDFDFE0E0E0E0E0F07070300000FC
:1041180000000000000000000000008080C0C1E135
:10412800E1F1F3FFFFFFFFFFFFFF7F3F0F00FFFFFE
:10413800FFFFFFFF1F0307070F0F0FBFFFFFFFFE64
:10414800F8F0070F1F1F1F3F3F3C3C383838FFFF70
:10415800FFFFFFFFFF000000FFFFFFFFFFFFFF80E3
:104168000000000000000000C0FFFFFFFFFFFFFF8E
:10417800FFFFDF8F8F0F070301000000003FFFFFE5
:10418800FFFFFFF8C0000000000000000000000072
:1041980000000F7FFFFFFFFFFFFFFFFFFFFFFFFF95
:1041A800FFFEFEFEFCFCF8F8F0F0E0C08000C0FF67
:1041B800FFFFFFFFFFFFF7F0F0E0C0C080800000C6
:1041C800000080E0E0E0F0F0F0F0F0F0F0F0F0F067
:1041D800F0F0F0F0F0000000F0F0F0F0F0F0F00097
:1041E800000000000000000000F0F0F0F0F0F0C067
:1041F800008080C0E0E0E0E0E0000000F0F0F0F0D7
:10420800F0F0800000000000000000000000000046
:104218000000808080808080808080800000000096
:104228000000000000000000000000000000000086
:10423800E0FCFCFCFCFCF8F830000000000000008A
:104248000000000000000000000000000000000066
:104258000000000000000000000000000000000056
:104268000000000000000000000000000000000046
:104278000000000000000000000000000000000036
:104288000000000000000000000000000000000026
:104298000000000000000000000000000000000016
:1042A8000000000000000000000000000000000006
:1042B80000000000000000000000000000000000F6
:1042C80000000000000000000000000000000000E6
:1042D80000000000000000000000000000000000D6
:1042E80000000000000000000000000000000000C6
:1042F80000000000000000000000000000000000B6
:104308000000000000000000000000000000006441
:1043180000E100000000000001010302010007069F
:10432800050400000000800A750A00000000580D0E
:10433800270DE00CE90CFE0C0F0D00000000CC125C
:104348006F157B1297128712F412F8120000000002
:10435800CA146F1580149C148C14BA140000000041
:0A436800ED1B6F158F1C4C1C3F1C51
:00000001FF
