:100000000C94E7030C940F040C940F040C940F044D
:100010000C940F040C940F040C940F040C944309DB
:100020000C940F040C940F040C94C0160C944717F6
:100030000C940F040C940F040C940F040C940F04F4
:100040000C940F040C940F040C940F040C940F04E4
:100050000C940F040C940F040C940F040C94ED0EEC
:100060000C940F040C94E1110C9428120C940F04BE
:100070000C940F040C940F040C940F040C940F04B4
:100080000C943F140C9444040C940F040C940F042F
:100090000C94490D0C940F040C9457040C940F0409
:1000A0000C940F040C940F040C940F040000000037
:1000B000007CDAF2DA7C7CD6F2D67C387C3E7C3866
:1000C000183C7E3C1838EABEEA38387AFE7A3800A6
:1000D000183C1800FFE7C3E7FF0018241800FFE7EB
:1000E000DBE7FF0C125C607064949E946402FEA0D7
:1000F000A0E002FEA0A4FC5A3CE73C5AFE7C383843
:10010000101038387CFE2844FE4428FAFA00FAFA27
:100110006090FE80FE006691A95606060606062936
:1001200045FF452910207E201008047E0408101089
:1001300054381010385410107808080808307830F7
:1001400078300C1C7C1C0C60707C7060000000001F
:10015000000000FA000000E000E00028FE28FE2871
:100160002454FE5448C4C81026466C926A040A00FF
:1001700010E0C00000384482000082443800543847
:10018000FE385410107C101000010E0C00101010DE
:100190001010000006060004081020407C8A92A27D
:1001A0007C0042FE02004E92929262848292B2CC15
:1001B000182848FE08E4A2A2A29C3C5292928C828B
:1001C000848890E06C9292926C6292929478000093
:1001D00028000000022C0000001028448228282853
:1001E0002828008244281040809A90607C82BA9A25
:1001F000723E4888483EFE9292926C7C8282824493
:10020000FE8282827CFE92929282FE909090807C0E
:1002100082828ACEFE101010FE0082FE820004024E
:1002200082FC80FE10284482FE02020202FE403858
:1002300040FEFE201008FE7C8282827CFE90909020
:10024000607C828A847AFE90989462649292924C46
:10025000C080FE80C0FC020202FCF8040204F8FC2C
:10026000021C02FCC6281028C6C0201E20C0869A88
:1002700092B2C200FE828282402010080400828274
:1002800082FE2040804020020202020200C0E010F4
:1002900000042A2A1E02FE1422221C1C22222214DE
:1002A0001C222214FE1C2A2A2A1800107E904018B4
:1002B0002525391EFE1020201E0022BE0200040249
:1002C00002BC00FE081422000082FE02003E201E36
:1002D000201E3E1020201E1C2222221C3F182424F7
:1002E00018182424183F3E10202010122A2A2A24ED
:1002F0002020FC22243C0202043E38040204383C44
:10030000020C023C2214081422320909093E22265A
:100310002A322200106C82000000EE000000826C85
:10032000100040804020403C64C4643C7885858651
:10033000485C0202045E1C2A2AAA9A84AAAA9E8207
:10034000842A2A1E8284AA2A1E02042AAA9E023015
:10035000784A4E489CAAAAAA9A9C2A2A2A9A9CAA17
:100360002A2A1A0000A23E820040A2BE420080A2B9
:100370003E020F9424940F0F14A4140F3E2AAAA235
:1003800000042A2A3E2A3E5090FE924C9292924CB1
:100390004C1212124C4C5212120C5C8282845E5C23
:1003A0004202041E00B90505BE9C2222229CBC020A
:1003B0000202BC3C24FF2424127E92C266D4F43F85
:1003C000F4D4FF90946F0403117E90C0042A2A9EF7
:1003D00082000022BE820C1212524C1C0202445EA9
:1003E000005E50504EBEB0988CBE649494F4146479
:1003F000949494640C12B202041C1010101010108B
:1004000010101CF40813355DF408142C5F0000DE96
:100410000000102854284444285428105500AA00ED
:100420005555AA55AA55AA55AA55AA000000FF007D
:10043000080808FF00282828FF000808FF00FF0818
:10044000080F080F2828283F002828EF00FF000089
:10045000FF00FF28282F203F2828E808F80808F880
:1004600008F8282828F8000808080F00000000F8FD
:1004700008080808F8080808080F08000000FF0826
:100480000808080808080808FF08000000FF2800FE
:1004900000FF00FF0000F808E800003F202F282898
:1004A000E808E828282F202F0000FF00EF28282840
:1004B00028282828EF00EF282828E8280808F80826
:1004C000F82828282F2808080F080F0000F808F837
:1004D000000000F8280000003F2800000F080F0867
:1004E00008FF08FF282828FF28080808F80000004F
:1004F000000F08FFFFFFFFFF0F0F0F0F0FFFFFFFA2
:100500000000000000FFFFF0F0F0F0F01C22221CC1
:10051000223E54547C287E40406060407E407E40B5
:10052000C6AA9282C61C22223C20027E0478046065
:10053000407E404099A5E7A5993854925438324EF0
:10054000804E320C52B2B20C0C121E120C3D465AA6
:1005500062BC7C929292007E8080807E545454547F
:10056000542222FA2222028A5222020222528A02B1
:100570000000FF80C00701FF00001010D6D6106CED
:10058000486C246C60F090F06000001818000000C7
:100590000808000C02FF808000F88080780098B87E
:1005A000E848003C3C3C3C00000000240027002AB6
:1005B000002D00300000000000250028002B002E38
:1005C000003100000000002300260029002C002F2D
:1005D00000040404040403040502020202040302EA
:1005E00002020206060606060604040202020404CB
:1005F0000802011040804010204080408008020422
:1006000001804020100201108010204040000000B6
:100610000200080E0000030401000B0000000000AF
:1006200000000000000000000000000706050401B3
:1006300000080A0B0C0D09080B0002020201000958
:10064000040000010202000005240010010524013D
:100650000101042402060524060001070581031098
:10066000004009040100020A0000000705020240E0
:10067000000007058302400000040309044172647E
:1006800075696E6F204C656F6E6172646F004172A8
:100690006475696E6F204C4C43001201000200002B
:1006A00000404123368000010102000112010002D6
:1006B000020000404123368000010102000100C118
:1006C0008081C105010902A1010901A1008501057F
:1006D000091901290315002501950375018102956A
:1006E0000175058103050109300931093815812596
:1006F0007F750895038106C0C005010906A1018523
:1007000002050719E029E715002501750195088103
:100710000295017508810395067508150025650584
:1007200007190029658100C00904020001030000C7
:100730000009210101000122650007058403400032
:100740000100000000000000002A2B28000000002B
:100750000000000000000000000000000000000099
:10076000002C9EB4A0A1A2A434A6A7A5AE362D3716
:1007700038271E1F20212223242526B333B62EB767
:10078000B89F8485868788898A8B8C8D8E8F90917F
:1007900092939495969798999A9B9C9D2F3130A30C
:1007A000AD350405060708090A0B0C0D0E0F1011D4
:1007B00012131415161718191A1B1C1DAFB1B0B55A
:1007C00000007A0BC00B14116513FC15D01811240E
:1007D0001FBECFEFDAE0DEBFCDBF15E0A0E0B1E095
:1007E000E8EEF5E302C005900D92AE35B107D9F7FA
:1007F00018E0AEE5B5E001C01D92AA39B107E1F7F6
:1008000017E0CEECD7E004C02297FE010E94EE1A5A
:10081000C23CD107C9F70E94BB130C94F21A0C9486
:100820000000FB01DC0102C001900D9241505040DC
:10083000D8F708956817790768F4FB01DC01E40F25
:10084000F51FA40FB51F02C002900E9241505040F8
:10085000D8F708950C94110421E030E00CC000009A
:10086000000000000000000000009F5F9A35B9F70B
:100870002150304011F090E0F2CF3C9A8093BB00C1
:1008800084E88093BC0008951F920F920FB60F92D8
:1008900011248F938BB180588BB9109295001092D0
:1008A00094008F910F900FBE0F901F9018951F927C
:1008B0000F920FB60F921124EF92FF920F931F9396
:1008C0002F933F934F935F936F937F938F939F9358
:1008D000AF93BF93CF93DF93EF93FF931092BF003B
:1008E0001092BE001092600610926106209163067D
:1008F000309164068091650690E02817390728F446
:100900008091610681608093610620916306309139
:1009100064068091660690E02817390728F48091D4
:1009200061068260809361062091630630916406BF
:100930008091670690E02817390728F480916106B6
:1009400084608093610680916306909164060196AD
:100950009093640680936306809163069091640689
:100960008436910521F410926406109263068091FA
:100970006806882371F480916106877F8093610601
:1009800040E050E0F8E0FF2E0FEF1FEFE7E0EE2E23
:1009900004C0809161068860F1CFFA01EE0FFF1F5D
:1009A000EE0FFF1F9F012759394FE9018881998177
:1009B000AA81BB81EA01CC0FDD1F0297A105B10519
:1009C00008F443C0BE016B58794FFB0180819181CF
:1009D000892BA1F5DA01A558B94F8C91FA01E2589B
:1009E000F94F9081890F8C93F90180819181A281C7
:1009F000B3810197A109B10980839183A283B38355
:100A0000FA01EF57F94F2081CA01A3E0880F991F1F
:100A1000AA95E1F7C80FD91FC20FD11DCC57D94FE6
:100A2000888190E0DB0111969C938E9380818F5F8B
:100A3000808380818A30E8F010821BC0EB018881BE
:100A4000998101979983888314C0D9011D921D92C1
:100A50001D921C921397EE55F94F1082118212824B
:100A60001382FA01E558F94FF082CB58D94F198318
:100A70000883FA01E558F94F8081883014F010821C
:100A800003C0808187FDE082FA01EE0FFF1FEE0FA9
:100A9000FF1FEE55F94F80819181A281B3810097AC
:100AA000A105B10521F4FA01E558F94FF0824F5F35
:100AB0005F4F4330510509F070CF90916006E0918F
:100AC0007C06FF27E7FDF095E255F94F8081982BD2
:100AD0009093600690916006E0917D06FF27E7FD08
:100AE000F095E954F94F8081982B9093600690918E
:100AF0006106E0917B06FF27E7FDF095E954F94F89
:100B00008081982B909361065D98809161068EBDDF
:100B10000DB407FEFDCF8EB5809160068EBD0DB47D
:100B200007FEFDCF8EB55D9AFF91EF91DF91CF91DA
:100B3000BF91AF919F918F917F916F915F914F91F5
:100B40003F912F911F910F91FF90EF900F900FBE4B
:100B50000F901F901895CF93DF93962F50E0BA0116
:100B60007695762F66277795679585E02802900120
:100B70001124892F6D5F7E4FE9012596F901E45517
:100B8000FF4FE491DB01A80FB11DEC938F5F2F5F46
:100B90003F4F2C173D0791F7292F2B5F342F330F31
:100BA000330F330F692F665F4F5F5F4F440F440F62
:100BB000440F80915C06281710F420935C06809106
:100BC0005D06861710F460935D0680915E06381707
:100BD00010F430935E0680915F06841710F4409302
:100BE0005F06DF91CF9108950F931F93062F142F67
:100BF0003C9A84EA8093BC0020E030E08091BC0005
:100C000087FD38C02A353105A9F12F5F3F4FF6CF58
:100C10008091BC0087FD35C02A35310591F12F5FE9
:100C20003F4FF6CF8091BC0087FD31C02A3531059A
:100C300071F12F5F3F4FF6CF8091BC0087FD33C02D
:100C40002A35310581F12F5F3F4FF6CF8091BC00EF
:100C500087FD32C02A35310579F12F5F3F4FF6CF3E
:100C60008091BC0087FD2DC02A35310551F12F5FE1
:100C70003F4FF6CF812F880F0E942C0420E030E0F8
:100C8000C7CF802F0E942C0420E030E0CBCF3C9ACD
:100C900084EA8093BC00110F812F81600E942C0494
:100CA00020E030E0C9CF8091BC008F70806C8093D1
:100CB000BC0020E030E0CACF9091BB0020E030E0E3
:100CC000CFCF84E98093BC008091BC008B7F809360
:100CD000BC008091BC0084608093BC00892F1F9170
:100CE0000F9108950F931F93162F042F3C9A84EAB7
:100CF0008093BC0040E050E08091BC0087FD24C0A0
:100D00004A35510509F14F5F5F4FF6CF8091BC0026
:100D100087FD21C02A353105F1F02F5F3F4FF6CF17
:100D20008091BC0087FD1DC02A353105D1F02F5FB1
:100D30003F4FF6CF8091BC0087FD19C02A353105A1
:100D4000B1F02F5F3F4FF6CF822F880F0E942C0407
:100D500020E030E0DBCF812F0E942C0420E030E047
:100D6000DFCF802F0E942C0420E030E0E3CF84E925
:100D70008093BC001F910F910895CF93DF93EC01F6
:100D80006DE04DE10E94F4058A3219F02FEF3FEF3C
:100D900037C0CE016AE24DE10E94F405482F4E7F34
:100DA000CE016AE22DE10E947206CE016EE040E0C3
:100DB0002DE10E947206CE016AE24DE10E94F40527
:100DC000482F477CCE016AE22DE10E947206CE01D7
:100DD0006AE24DE10E94F405482FCE016AE22DE15E
:100DE0000E947206CE016AE24DE10E94F405482F8E
:100DF0004160CE016AE22DE10E94720621E030E0FE
:100E0000C901DF91CF91089510925A0610925B06A6
:100E100080E094E0E3E0F1E0DF019C011D922150CD
:100E20003040E1F780915C06882311F010925C0657
:100E300080915D068F3718F48FE780935D0680916F
:100E40005E06882311F010925E0680915F068F3354
:100E500018F48FE380935F0608951F93162FF8947C
:100E60005D9A81E160E00E94A6101EBD0DB407FEF0
:100E7000FDCF81E161E00E94A61078941F91089552
:100E8000FF920F931F938C01F62E84E061E00E9485
:100E9000A610C8016F2D0E942D071F910F91FF9082
:100EA0000895FF920F931F938C01F62E84E060E06B
:100EB0000E94A610C8016F2D0E942D071F910F914F
:100EC000FF9008958F929F92AF92BF92CF92DF9240
:100ED000EF92FF920F931F93CF93DF93EC017EE08D
:100EE000872E75E0972E20E030E0AA24BB2468E02E
:100EF000C62ED12CC20ED31E80915E0690E08C15BA
:100F00009D05D4F580915F0690E0821793070CF45D
:100F100040C0F4016081606BCE010E9451071091C6
:100F20005C0600915D06612F6F5F6F70CE010E94BD
:100F30005107612F70E06F5F7F4F54E075956795A3
:100F40005A95E1F76F706061CE010E945107CE01A2
:100F500060EE0E94510743E0E42E41E0F42EEA0CDB
:100F6000FB1C08C0F701E10FF11DCE0160810E945A
:100F700040071F5F0117B0F70894811C911C80E89F
:100F800090E0A80EB91E90E4C916D10411F09601A4
:100F9000AECF8FE780935C0610925D068FE380935F
:100FA0005E0610925F06DF91CF911F910F91FF9027
:100FB000EF90DF90CF90BF90AF909F908F9008956B
:100FC000EF92FF921F937C01162F61E80E94510758
:100FD0001F73C701612F0E9451071F91FF90EF906F
:100FE0000895CF93DF93EC0184E061E00E94191033
:100FF0008CE061E00E94191081E161E00E9419100B
:1010000081E160E00E94A61088EE93E020E931E0E3
:10101000F9013197F1F70197D9F78CE060E00E9470
:10102000A61088EE93E020E931E0F9013197F1F75D
:101030000197D9F78CE061E00E94A610CE0163EA27
:101040000E945107CE0161EA0E945107CE0160EC77
:101050000E945107CE0160E60E945107CE016CE26A
:101060000E94510784EF91E020E931E0F9013197C6
:10107000F1F70197D9F7CE016EE20E94510784EF94
:1010800091E020E931E0F9013197F1F70197D9F7C3
:10109000CE016FE20E94510780E49CE90197F1F7CD
:1010A000CE0166E20E94510780915C06882311F010
:1010B00010925C0680915D068F3718F48FE780935D
:1010C0005D0680915E06882311F010925E06809185
:1010D0005F068F3318F48FE380935F06DF91CF9123
:1010E00008958FE061E00E94191080E161E00E94A4
:1010F000191081E161E00E9419108FE060E00E9408
:10110000A61080E160E00E94A61081E161E00E94EB
:10111000A6108CB580618CBD8CB580648CBD8CB5FF
:101120008C7F8CBD8DB581608DBD08950F931F930D
:101130008C010E947108C8010E94F107C8016FEA82
:101140000E945107C80164EA0E945107C80160E08B
:101150000E94E0071F910F91089583E091E063E8FA
:1011600071E040E853E00E941A0480E8E3E8F4E00C
:10117000DF011D928A95E9F780915C06882311F0C2
:1011800010925C0680915D068F3718F48FE780938C
:101190005D0680915E06882311F010925E068091B4
:1011A0005F068F3318F48FE380935F060895CF9224
:1011B000DF92EF92FF920F931F93CF93DF938C01F7
:1011C0006B017A01C0E0D0E034C0F601EC0FFD1FE6
:1011D00020812A3041F480915B068F5F80935B060B
:1011E00010925A0619C02D30B9F0C80160915A0604
:1011F00040915B060E94AB0580915A068A5F8093FE
:101200005A0690E08A3791053CF010925A06809178
:101210005B068F5F80935B0680915B06883040F0B1
:10122000C8010E94AD0880915B06815080935B06E7
:101230002196CE15DF0548F2DF91CF911F910F91D6
:10124000FF90EF90DF90CF9008950F931F93142F8E
:10125000052F0E94D708812F902F1F910F9108957D
:10126000DF93CF930F92CDB7DEB76983BE016F5F77
:101270007F4F41E050E00E94D70881E090E00F905E
:10128000CF91DF9108951F920F920FB60F92112404
:10129000EF92FF920F931F932F933F934F935F9380
:1012A0006F937F938F939F93AF93BF93EF93FF932E
:1012B00080912F06813009F469C00E94350F9B018F
:1012C000AC018CB1682F70E0607470708091620521
:1012D00090916305A0916405B091650579018A013B
:1012E000E81AF90A0A0B1B0BE0925E05F0925F0503
:1012F000009360051093610580915E0590915F05F4
:10130000A0916005B091610580529E44A040B0401C
:10131000D4F1672B19F410922E062CC0E0912E0602
:10132000F0E080915E0590915F05A0916005B0911D
:101330006105EE0FFF1FEE0FFF1FEA59FA4F918371
:10134000808318C0E0912E06F0E080915E059091B8
:101350005F05A0916005B0916105EE0FFF1FEE0FD4
:10136000FF1FEA59FA4F9383828380912E068F5F85
:1013700080932E06209362053093630540936405A5
:101380005093650503C0672BE9F2C8CFFF91EF9139
:10139000BF91AF919F918F917F916F915F914F918D
:1013A0003F912F911F910F91FF90EF900F900FBEE3
:1013B0000F901F901895EF92FF920F931F93162F87
:1013C000042F8AE0E82E87E0F82EC7016EE170E076
:1013D0000E94860BC701612F0E94080CC701602F75
:1013E0000E94080CC7010E944B0C1F910F91FF90A7
:1013F000EF900895CF93DF938AE097E06EE170E07D
:101400000E94860B8AE097E063E00E94080C8AE065
:1014100097E00E944B0C8AE097E06EE170E00E943A
:10142000860B8AE097E06EE170E046E050E00E94B3
:101430005C0C8AE097E00E94900B069771F4C0E084
:10144000D0E08AE097E00E94990BFE01E05DF94F41
:1014500080832196C630D105A1F78AE097E00E94EB
:101460004B0CDF91CF9108950F931F938C0163E094
:1014700070E046E050E00E94FA0940913006209169
:101480003106742F60E030E0622B732B882777FDE4
:101490008095982F0E94DB192FE135E84BE65FE33A
:1014A0000E94671AF801648375838683978340914D
:1014B000320620913306742F60E030E0622B732BEC
:1014C000882777FD8095982F0E94DB192FE135E85A
:1014D0004BE65FE30E94671AF80160877187828795
:1014E00093874091340620913506742F60E030E0F8
:1014F000622B732B882777FD8095982F0E94DB192C
:101500002FE135E84BE65FE30E94671AF801648734
:101510007587868797871F910F910895CF93DF93E3
:10152000EC018DE897E060E875E20E94D9108BED40
:1015300097E040E855E260E070E00E9458128DE0CC
:1015400061E00E9419108DE060E00E94A6108BE01F
:1015500061E00E9419108BE060E00E94A61084E117
:1015600060E00E94191085E161E00E94191086E197
:1015700061E00E94191087E161E00E94191086E085
:1015800061E00E9419108AE061E00E94191085E074
:1015900060E00E94191089E061E00E94191083EC5C
:1015A00096E060E070E00E947F0B83EC96E060E0E4
:1015B00070E00E947F0B8E8F0E94710C84E00E946D
:1015C000600C559A5D98809161068EBD0DB407FE42
:1015D000FDCF8EB5809160068EBD0DB407FEFDCFA8
:1015E0008EB55D9A1092680680E18093B70680E31D
:1015F0008093B80680E28093B90680E68093BA06AD
:1016000080E48093BB0680EC8093BC0680E88093E6
:10161000BD0680E98093BE061092BF0681E08093EC
:10162000AE0683E08093AF0682E08093B00686E04A
:101630008093B10684E08093B2068CE08093B30679
:1016400088E08093B40689E08093B5061092B606D0
:10165000CE010E949608CE010E9462078091030588
:101660008093C2068093C1068093C006F8941092BE
:10167000C0001092C1001092BF001092BE0080E323
:101680008093CF0086E08093C100809172008064D7
:10169000809372007894F89487E060E00E941910BB
:1016A00080916A008F7C806180936A00EE9A7894C2
:1016B000CE010E94BD06CE0161E070E040E250E044
:1016C0000E94DB09CE0162E070E040E050E00E9441
:1016D000DB09CE010E94340ADF91CF910895FC010D
:1016E000138212828AE195E091838083CF010E9468
:1016F0008E0A089586E396E00E946F0B0895F9998B
:10170000FECF72BD61BDF89A80B5089581E08093E7
:1017100009076093E60610920707109208070895DC
:101720002091E50630E08091E406281B3109C901CB
:1017300008954091E4068091E506481718F02FEFD0
:101740003FEF0AC0E42FF0E0EC53F94F8081282FDF
:1017500030E04F5F4093E406C9010895E091E4064C
:101760008091E506E81718F0EFEFFFEF06C0F0E014
:10177000EC53F94F8081E82FF0E0CF0108950895F0
:1017800010920D0710920C0788EE93E0A0E0B0E0F5
:1017900080930E0790930F07A0931007B093110743
:1017A00082E295E090930B0780930A070895CF9209
:1017B000DF92EF92FF920F931F93CF93DF937C0101
:1017C0006B018A01809109078823A1F0C0E0D0E075
:1017D0000DC0D701ED91FC91D601AC0FBD1F01905A
:1017E000F081E02DC7016C9109952196C017D107B2
:1017F00080F304C0CB01642F0E942E0DC801DF913D
:10180000CF911F910F91FF90EF90DF90CF900895AF
:10181000DF93CF930F92CDB7DEB7FC016983809140
:1018200009078823C9F080910807803238F081E0E9
:1018300090E09383828320E030E015C08091070719
:10184000E82FF0E0E951F94F998190838F5F809301
:1018500007078093080705C0CE01019661E00E944A
:101860002E0D21E030E0C9010F90CF91DF91089556
:101870000F93062F8091E60667EE76E04091080709
:1018800021E00E94D90C10920707109208071092CD
:1018900009070F91089561E00E94380C08954132C4
:1018A00008F040E2862F64EC76E00E94900C1092E3
:1018B000E4068093E506089521E00E944F0C089508
:1018C0002CB5382F33702C7F322B3CBD2DB590E0DA
:1018D000959587959595879581702E7F822B8DBDE7
:1018E00008958FE061E00E94191080E161E00E949C
:1018F000191081E161E00E9419108FE060E00E9400
:10190000A61080E160E00E94A61081E161E00E94E3
:10191000A6108CB580618CBD8CB580648CBD08959B
:10192000382F413210F040E042C0809116078823E2
:10193000E1F791E090931607209318078FEF8093BB
:10194000830710923E07415040933F074F5F9093AB
:10195000170780911707330F832B80931707809108
:101960001907813041F4109219078091170780936D
:10197000BB0085EC01C085EE8093BC00809116070A
:101980008130E1F380913E07841710F440913E07C7
:1019900020E030E00AC0FB01E20FF31FD901A25E94
:1019A000B84F8C9180832F5F3F4F2417A0F3842F73
:1019B00008950F931F93582F122F413210F081E09A
:1019C0004AC0809116078823E1F782E080931607CA
:1019D000009318078FEF8093830710923E07409380
:1019E0003F07AEE1B7E0FB0102C081918D938E2FDE
:1019F000861B8417D0F31092170780911707550F95
:101A0000852B8093170780911907813041F410923C
:101A10001907809117078093BB0085EC01C085EE04
:101A20008093BC00112321F0809116078230E1F3EE
:101A3000809183078F3F11F480E00DC08091830770
:101A4000803211F482E007C080918307803311F067
:101A500084E001C083E01F910F910895482F613207
:101A600010F081E0089580911607843011F082E033
:101A7000089560936107A0E4B7E0842F9C01F90109
:101A800002C081918D938E2F841B8617D0F380E046
:101A900008951F920F920FB60F9211242F933F9328
:101AA0004F935F936F937F938F939F93AF93BF9366
:101AB000EF93FF938091B90090E0887F907080361B
:101AC000910509F4F2C081369105CCF58832910573
:101AD00009F47BC089329105B4F48031910509F491
:101AE0006FC0813191053CF4009709F447C1089714
:101AF00009F04FC165C08831910509F466C080972F
:101B000009F047C182C08034910509F4A4C0813432
:101B1000910544F48033910509F482C0C89709F017
:101B200038C189C08035910509F489C0883591058F
:101B300009F496C08834910509F02BC1AEC08839EC
:101B4000910509F413C189399105ECF488379105A1
:101B500009F4ABC0893791054CF48836910509F436
:101B6000A4C08037910509F014C19FC08838910541
:101B700009F4FCC08039910509F49DC080389105B5
:101B800009F007C198C0803B910509F4C6C0813BAC
:101B900091054CF4803A910509F49FC0883A91056B
:101BA00009F0F7C0BAC0803C910509F4E3C0883C55
:101BB000910509F4DFC0883B910509F0EAC0C2C075
:101BC000809117078093BB00CFC090913E07809112
:101BD0003F07981768F490913E07E92FF0E0E25E26
:101BE000F84F80818093BB009F5F90933E07BCC0FD
:101BF00080911807882309F44BC085ED8093BC00C1
:101C00008091BC0084FDFCCFC2C080E2809383073A
:101C100085ED8093BC008091BC0084FDFCCFB7C0F3
:101C200080E38093830785ED8093BC008091BC00A6
:101C300084FDFCCFACC088E3809383079BC0809178
:101C40003E079091BB00E82FF0E0E25EF84F9083F2
:101C50008F5F80933E0790913E0780913F0782C03F
:101C600080913E079091BB00E82FF0E0E25EF84FD4
:101C700090838F5F80933E0780911807882341F0FF
:101C800085ED8093BC008091BC0084FDFCCF7FC0BB
:101C900081E08093190784EA6EC085ED8093BC00D3
:101CA0008091BC0084FDFCCF72C083E08093160756
:101CB0001092820759C080918207803208F056C086
:101CC000809182079091BB00E82FF0E0EE59F84F29
:101CD00090838F5F8093820747C080918207803214
:101CE00030F4E0918207F0E0EE59F84F108285ED74
:101CF0008093BC008091BC0084FDFCCF109216073D
:101D000060918207E0911C07F0911D0782E697E041
:101D100070E00995109282072DC084E08093160729
:101D20001092600710926107E0911A07F0911B076B
:101D3000099580916107882329F481E080936107E8
:101D40001092400790916007E92FF0E0E05CF84FB7
:101D500080818093BB009F5F9093600790916007A4
:101D600080916107981710F485EC01C085E8809395
:101D7000BC000FC085EC8093BC0009C010928307A3
:101D800085ED8093BC008091BC0084FDFCCF109257
:101D90001607FF91EF91BF91AF919F918F917F9126
:101DA0006F915F914F913F912F910F900FBE0F90C8
:101DB0001F90189508950F931F9306E316E0C8012E
:101DC0000E940407C80160E071E00E941414C80179
:101DD0000E9462071F910F9108951F920F920FB6F4
:101DE0000F9211242F933F938F939F93AF93BF93A1
:101DF0008091880790918907A0918A07B0918B07FD
:101E000030918C070196A11DB11D232F2D5F2D3719
:101E100020F02D570196A11DB11D20938C078093B2
:101E2000880790938907A0938A07B0938B078091C6
:101E3000840790918507A0918607B0918707019646
:101E4000A11DB11D8093840790938507A0938607F9
:101E5000B0938707BF91AF919F918F913F912F9141
:101E60000F900FBE0F901F9018959FB7F894209178
:101E7000840730918507409186075091870786B582
:101E8000A89B06C08F3F21F02F5F3F4F4F4F5F4F02
:101E90009FBF542F432F322F2227280F311D411D62
:101EA000511D82E0220F331F441F551F8A95D1F721
:101EB000B901CA010895789484B5826084BD84B55F
:101EC000816084BD85B5826085BD85B5816085BD35
:101ED000EEE6F0E0808181608083E1E8F0E010824E
:101EE000808182608083808181608083E0E8F0E08F
:101EF000808181608083E1E9F0E08081826080837D
:101F0000808181608083E0E9F0E08081816080836E
:101F1000E1ECF0E080818460808380818260808356
:101F2000808181608083E3ECF0E080818160808348
:101F3000E0ECF0E0808182608083E2ECF0E0808180
:101F400081608083EAE7F0E0808184608083808123
:101F500082608083808181608083808180688083CB
:101F60000895EF92FF920F931F93CF93DF937B011E
:101F70008C013FB7F8948091840790918507A091D8
:101F80008607B091870726B5A89B05C02F3F19F09B
:101F90000196A11DB11D3FBFBA2FA92F982F8827E9
:101FA000820F911DA11DB11D52E0880F991FAA1F1C
:101FB000BB1F5A95D1F7EC0130C00E9495183FB76E
:101FC000F8948091840790918507A0918607B0913D
:101FD000870726B5A89B05C02F3F19F00196A11DC4
:101FE000B11D3FBFBA2FA92F982F8827820F911DAF
:101FF000A11DB11D32E0880F991FAA1FBB1F3A9582
:10200000D1F78C1B9D0B885E9340B8F20894E108D1
:10201000F10801091109C851DC4FE114F10401056F
:10202000110559F6DF91CF911F910F91FF90EF901D
:102030000895CF93DF93482F50E0CA0181519A4F02
:10204000FC0134914F525A4FFA018491882369F16F
:1020500090E0880F991FFC01E955FA4FA591B491C2
:10206000FC01EB54FA4FC591D491662351F42FB77C
:10207000F8948C91932F909589238C938881892350
:102080000BC0623061F42FB7F8948C91932F909528
:1020900089238C938881832B88832FBF06C09FB7A9
:1020A000F8948C91832B8C939FBFDF91CF910895EF
:1020B000883071F1893068F4823031F1833020F456
:1020C000813009F042C01DC0833089F08430E9F5C9
:1020D00012C08B3059F18C3028F48930E9F08A3005
:1020E000A1F51EC08C3031F18E3079F529C0809178
:1020F00080008F7703C0809180008F7D8093800067
:10210000089584B58F7702C084B58F7D84BD08950E
:10211000809190008F7707C0809190008F7D03C0E1
:1021200080919000877F8093900008958091C000F7
:102130008F7703C08091C0008F7D8093C000089589
:102140008091C200877F8093C2000895FF920F9311
:102150001F93F62E482F50E0CA01835F994FFC0170
:102160002491CA0181519A4FFC0114914F525A4F48
:10217000FA0104910023C9F0222319F0822F0E9452
:102180005810E02FF0E0EE0FFF1FEB54FA4FA5912F
:10219000B4919FB7F894FF2021F48C91109581237E
:1021A00002C08C91812B8C939FBF1F910F91FF9048
:1021B00008950895FC012485858530E0205C3F4F1B
:1021C000281B31092F733070C9010895FC019485D3
:1021D0008585981719F42FEF3FEF06C08585E80F26
:1021E000F11D8685282F30E0C9010895DC011C9679
:1021F0009C911C971D968C911D97981719F42FEFA1
:102200003FEF10C01D968C911D97FD01E80FF11D49
:1022100096851D968C911D978F5F8F731D968C935D
:10222000292F30E0C90108951092900710928F076E
:1022300088EE93E0A0E0B0E080939107909392073E
:10224000A0939307B093940782E395E090938E0751
:1022500080938D0708950F931F93DF93CF930F9271
:10226000CDB7DEB78C01698380910B05882369F0B7
:1022700083E0BE016F5F7F4F41E050E00E941B167C
:102280001816190614F49C0107C081E090E0F801CB
:102290009383828320E030E0C9010F90CF91DF91DA
:1022A0001F910F91089583E00E94F21508950F93F6
:1022B0001F93CF93DF938C01FC010FC082E00E943B
:1022C000D8149C01FFEF8F3F9F0799F0F801848598
:1022D000E80FF11D2687F801C4878485C82FD0E058
:1022E0002196CF73D070F801858590E0C817D90783
:1022F00029F7DF91CF911F910F910895FC01808103
:102300008E5F808380E867E376E042E450E00E94DD
:10231000F1140895FC0181819081913A59F4813240
:1023200009F04CC080E064E075E047E050E00E94B6
:10233000F11442C0913209F041C0803239F484E096
:1023400095E067E070E00E94DA1536C0823209F04D
:1023500035C0828180930B0580910405909105051D
:10236000A0910605B0910705805B9440A040B04065
:1023700019F580910B0580FD12C087E797E79093D0
:102380000108809300082BE088E190E00FB6F894F4
:10239000A895809360000FBE209360000DC088E177
:1023A0000FB6F89480936000109260000FBEA8955D
:1023B000109201081092000881E0089580E00895CD
:1023C00008951F920F920FB60F9211242F933F93EF
:1023D0004F938F939F93EF93FF938091C80082FD5B
:1023E00019C04091CE008091F907282F30E02F5F6F
:1023F0003F4F2F7330708091FA0790E0281739070C
:1024000059F0E091F907F0E0E552F84F42A320932C
:10241000F90702C08091CE00FF91EF919F918F91BB
:102420004F913F912F910F900FBE0F901F901895D5
:102430008091F9072091FA0790E0805C9F4F821B02
:1024400091098F739070892B11F00E94E01108950B
:102450001F920F920FB60F9211242F938F939F9379
:10246000EF93FF939091FB078091FC07981731F44D
:102470008091C9008F7D8093C90010C0E091FC0756
:10248000F0E0E35CF74F20818091FC0790E001963B
:102490008F7390708093FC072093CE00FF91EF9193
:1024A0009F918F912F910F900FBE0F901F901895B5
:1024B000AF92BF92DF92EF92FF920F931F93CF9351
:1024C000DF93EC017A018B01DD24403081EE580767
:1024D00080E0680780E0780711F0DD24D39491E074
:1024E000A92EB12CE889F989DD2069F0C5010C8C91
:1024F00002C0880F991F0A94E2F7808360E079E0B8
:102500008DE390E005C0108260E874E88EE190E011
:10251000A80197010E94CA1A215030404040504003
:10252000569547953795279580E12030380720F05C
:10253000DD2011F0DD24D6CFEC85FD853083EE85DE
:10254000FF8520831D8EEA89FB89408121E030E0F0
:10255000C901088C02C0880F991F0A94E2F7482B22
:102560004083EA89FB894081C901098C02C0880F38
:10257000991F0A94E2F7482B4083EA89FB8940813E
:10258000C9010A8C02C0880F991F0A94E2F7482BF0
:102590004083EA89FB8980810B8C02C0220F331FA4
:1025A0000A94E2F7209528232083DF91CF911F9191
:1025B0000F91FF90EF90DF90BF90AF900895FC01D6
:1025C000268D878D30E0205C3F4F281B31092F730B
:1025D0003070C9010895FC01968D878D981719F404
:1025E0002FEF3FEF06C0878DE80FF11D82A1282F46
:1025F00030E0C9010895DC015E969C915E975F967C
:102600008C915F97981719F42FEF3FEF10C05F96EA
:102610008C915F97FD01E80FF11D92A15F968C915F
:102620005F978F5F8F735F968C93292F30E0C9017E
:102630000895DC015D968C915D97882339F0509662
:10264000ED91FC915197808186FFF9CF5D961C92A8
:102650000895DC0190968C919097282F30E02F5FA1
:102660003F4F2F73307091968C91919790E028177F
:102670003907C9F390968C919097FD01E80FF11DF1
:10268000EE59FF4F608390962C9390975296ED9160
:10269000FC915397208181E090E05B960C905B97D2
:1026A00002C0880F991F0A94E2F7282B208381E04B
:1026B0005D968C935D975096ED91FC91519780813A
:1026C0008064808381E090E008951092DE0710928C
:1026D000DD0788EE93E0A0E0B0E08093DF07909301
:1026E000E007A093E107B093E20784E495E09093BC
:1026F000DC078093DB071092FC078091FC07809336
:10270000FB071092FA078091FA078093F9078DEC86
:1027100090E09093E8078093E7078CEC90E090932B
:10272000EA078093E90788EC90E09093EC078093A8
:10273000EB0789EC90E09093EE078093ED078AEC2D
:1027400090E09093F0078093EF078EEC90E09093E9
:10275000F2078093F10784E08093F30783E080938E
:10276000F40787E08093F50785E08093F60781E022
:102770008093F7070895CF93DF930E945B0F8CE857
:1027800098E00E94FD150E94DB0EC8E1D2E10E9494
:10279000DA0E2097E1F30E941812F9CFCF92DF9260
:1027A000EF92FF920F931F93CF93DF937C016B0106
:1027B0008A01C0E0D0E00FC0D6016D916D01D70154
:1027C000ED91FC910190F081E02DC7010995C80FB2
:1027D000D91F015010400115110571F7CE01DF918D
:1027E000CF911F910F91FF90EF90DF90CF900895C0
:1027F000CF93DF93EC016115710519F420E030E00F
:102800000FC0DB010D900020E9F71197A61BB70B55
:10281000E881F9810280F381E02DAD0109959C01E9
:10282000C901DF91CF9108950E94F8130895823075
:10283000B9F0833028F4882351F08130F9F40AC0CC
:102840008430B9F0843090F08530C1F415C0109216
:102850006E00089580916F008D7F80936F000895C2
:10286000809170008D7F80937000089510927100A8
:1028700008951092720008951092730008951F92A7
:102880000F920FB60F9211242F933F934F935F93A4
:102890006F937F938F939F93AF93BF93EF93FF9328
:1028A00080917D0890917E08A0917F08B09180086A
:1028B0000097A105B10551F1E0918108F0918208DE
:1028C0008081909183088927808380917D089091F1
:1028D0007E08A0917F08B0918008181619061A0684
:1028E0001B060CF580917D0890917E08A0917F08D1
:1028F000B09180080197A109B10980937D08909358
:102900007E08A0937F08B09380080DC083E00E94EA
:102910001714E0918108F0918208908180918308DA
:10292000809589238083FF91EF91BF91AF919F9113
:102930008F917F916F915F914F913F912F910F9068
:102940000FBE0F901F901895282F8091860888231E
:10295000C1F057FF1AC015C0289890938508809140
:10296000F1008193E217F307B9F74115510539F0EA
:102970008091F200882319F48BE68093E800AFBFC2
:1029800002C04FEF5FEFCA010895AFB7F894277008
:102990002093E9008091F200282F30E024173507BA
:1029A0000CF4A901FB019B01240F311D94E6DACF41
:1029B000DF93CF930F92CDB7DEB7BE016F5F7F4F2E
:1029C00041E050E00E94A414019719F02FEF3FEF6F
:1029D00003C08981282F30E0C9010F90CF91DF918A
:1029E0000895FF920F931F93F82E142F052F4091F7
:1029F000890850918A08212F302FC901DC01FB0181
:102A00006EEF29C0F7FE02C0949101C09081209121
:102A100087083091880824173507ACF48091E800C6
:102A20008570E1F38091E80082FF03C02FEF3FEF54
:102A300017C09093F100C90101968F739070892B94
:102A400011F46093E8002F5F3F4F30938808209384
:102A50008708119731961097A9F6812F902F9C0126
:102A6000C9011F910F91FF9008951F93782FE92FAF
:102A7000162F2091870830918808A0918908B0917D
:102A80008A082A173B07C4F48091E8008570E1F3B7
:102A90008091E80082FD16C0812F90E00196880F9A
:102AA000991F8093F100C90101968F739070892B53
:102AB00019F48EEF8093E8002F5F3F4F3093880822
:102AC0002093870820918708309188082A173B07B0
:102AD000A4F48091E8008570E1F38091E80082FD24
:102AE00012C083E08093F100C90101968F7390704A
:102AF000892B19F48EEF8093E8002F5F3F4F3093BE
:102B00008808209387084091870850918808872F6C
:102B10009E2FFC0170E06EEF43C094914A175B0753
:102B2000A4F48091E8008570E1F38091E80082FFD1
:102B300002C020E00DC09093F100CA0101968F738E
:102B40009070892B11F46093E8004F5F5F4F21E094
:102B50004A175B07A4F48091E8008570E1F3809147
:102B6000E80082FF02C080E00DC01092F100CA01AF
:102B700001968F739070892B11F46093E8004F5F7A
:102B80005F4F81E0319690E030E082239323892BE0
:102B900031F4509388084093870880E009C07F5F34
:102BA000711708F4BACF509388084093870881E0E2
:102BB0001F9108959C018091E80082FFFCCFF901EC
:102BC000260F311D03C08091F1008193E217F307B6
:102BD000D1F7289884E6809385088BEF8093E800EE
:102BE000CB0108958093E9008091F200882319F0C9
:102BF0008AE38093E800089508951092860881E0A2
:102C00008093D70080EA8093D80082E189BD09B41F
:102C100000FEFDCF61E070E080E090E00E94B10F27
:102C200080E98093D8008CE08093E2001092E0006D
:102C3000559A209A08955F926F927F928F929F92F9
:102C4000AF92BF92CF92DF92EF92FF920F931F93BA
:102C5000CF93DF93E82E842E752E809186088823EB
:102C600071F18B01242F352FC901EC01AAEFFA2E47
:102C7000F7E09F2E9E20E0E45E2E8E2D90E070E225
:102C8000A72EB12CA822B9226AE3662E50E4C52EE5
:102C9000D12CC822D92258C09FB7F8949092E9004D
:102CA0008091E80085FD02C020E004C08091F20020
:102CB000252D281B9FBF222361F4FA9419F42FEFCE
:102CC0003FEF4DC061E070E080E090E00E94B10F06
:102CD0003BC0822F90E0C817D9070CF42C2FC21BE1
:102CE000D1094FB7F8949092E900A114B10421F4EE
:102CF00006C01092F10021502223D9F719C0E7FC39
:102D000003C0F801922F10C0C801322F06C0FC0189
:102D10000196E491E093F10031503323C1F706C0EE
:102D200081918093F10091509923D1F7020F111DE9
:102D30008091E80085FF05C0209729F4C114D104D3
:102D400011F06092E8004FBF209709F0A5CF5D9881
:102D500084E680938408282D372DC9019C01C90180
:102D6000DF91CF911F910F91FF90EF90DF90CF9067
:102D7000BF90AF909F908F907F906F905F900895DD
:102D80001F920F920FB60F9211242F933F934F93E0
:102D90005F936F937F938F939F93AF93BF93EF93C3
:102DA000FF938091E1001092E100982F83FF0FC004
:102DB0001092E90081E08093EB001092EC0082E336
:102DC0008093ED001092860888E08093F00092FFD7
:102DD00034C083E08093E9008091F200882319F0E9
:102DE0008AE38093E8008FB7F89492E09093E9002B
:102DF0009091F2008FBF992321F08DE897E00E9417
:102E0000571180918408882351F080918408815063
:102E10008093840880918408882309F45D9A8091C6
:102E20008508882351F0809185088150809385081A
:102E300080918508882309F4289AFF91EF91BF912A
:102E4000AF919F918F917F916F915F914F913F9142
:102E50002F910F900FBE0F901F9018950F931F93F7
:102E6000DF93CF930F92CDB7DEB719828E010F5F3C
:102E70001F4FC8010E947E11C8010E94CD1989818F
:102E800090E00F90CF91DF911F910F9108951F92C5
:102E90000F920FB60F921124EF92FF921F932F9370
:102EA0003F934F935F936F937F938F939F93AF93D2
:102EB000BF93EF93FF93DF93CF93CDB7DEB76197C7
:102EC000DEBFCDBF1092E9008091E80083FF14C1FE
:102ED000FE0131969E01275F3F4F03C08091F100B4
:102EE0008193E217F307D1F7289884E68093850849
:102EF00082EF8093E800998197FF05C08091E800F8
:102F000080FFFCCF03C08EEF8093E800292F30E0D4
:102F1000C90180769070892B09F0C7C08A81882307
:102F200029F41092F1001092F100DBC0813009F415
:102F3000D8C0833009F4D5C0853049F48091E800C9
:102F400080FFFCCF8B8180688093E300CAC086300D
:102F500009F081C01C81EF80F8841230C1F5109215
:102F6000E900109288081092870810928A0810923F
:102F700089080E942E1799E0FE013996DF01292F5A
:102F80001D922A95E9F799871A8791E09E8790E824
:102F9000988B9AEF998B2091870830918808275F4A
:102FA0003F4F3C872B878D871092E900109288084D
:102FB00010928708F0928A08E092890880E0BF01A9
:102FC00049E050E00E94F1140E942E178AC010922E
:102FD000E9001092880810928708F0928A08E0921F
:102FE0008908123241F482E290E00E94C519892BCF
:102FF00009F47BC076C0113079F488E0E816F1045A
:1030000019F481E080938B0880918B08882309F064
:1030100070C0EAE9F6E018C0133009F066C08B8191
:10302000882319F4E9E7F6E00FC0823021F48DE738
:1030300096E060E106C0813009F057C08EE896E066
:103040006BE00E9435154BC0449180E8BF0150E011
:103050000E94F11446C0873009F447C0883021F43B
:1030600081E08093F1003DC08930D9F52370307044
:10307000232BD9F5EFEBF6E091E031E026E39093D6
:10308000E9003093EB0084918093EC002093ED00F5
:103090009F5F3196953099F78EE78093EA00109202
:1030A000EA008B81809386081CC08F8198851092DE
:1030B000E900109288081092870890938A088093FC
:1030C00089088D81882329F4CE0101960E948A11F6
:1030D00006C0823051F4CE0101960E9496188823D2
:1030E00021F08EEF8093E80007C081E28093EB002F
:1030F00003C0ECEAF6E0A8CF6196DEBFCDBFCF916A
:10310000DF91FF91EF91BF91AF919F918F917F914F
:103110006F915F914F913F912F911F91FF90EF9091
:103120000F900FBE0F901F9018950895FC0191818C
:103130008081813A31F4913089F080E0933089F4D4
:103140000DC0813269F49B3021F4828180930C059B
:1031500005C09A3029F4828180930D0581E008959D
:1031600080E00895EF92FF920F931F938C01E62E5B
:10317000DC01ED91FC910480F581E02D0995F82E9C
:10318000D801ED91FC910680F781E02DC8016E2DEC
:1031900009958F2D90E01F910F91FF90EF9008956A
:1031A00010928D08109291081092900884E595E095
:1031B00090938F0880938E080895EF92FF920F935B
:1031C0001F93DF93CF930F92CDB7DEB789838B0127
:1031D0007A0184E0BE016F5F7F4F41E050E00E94C2
:1031E0001B1684E4B801A7010E941B160F90CF9113
:1031F000DF911F910F91FF90EF90089582E048E0DA
:1032000050E00E94DD180895FC0116821782108696
:1032100011861286138614823496BF010E94FE180E
:103220000895DC01683810F0685829C0E62FF0E0F6
:1032300067FF13C0E058F04081E090E002C0880FC3
:10324000991FEA95E2F7809514962C9114972823FC
:1032500014962C93149760E012C0EF5BF84F6491C2
:10326000662319F420E030E01DC067FF08C0149603
:103270008C9114978D7F14968C9314976F77FD0122
:1032800090E0662321F08681861709F416829F5FFD
:1032900031969630B1F7CD011496BD010E94FE180B
:1032A00021E030E0C9010895CF93DF93DC01683855
:1032B00010F0685825C0E62FF0E067FF12C0E05814
:1032C000F04081E090E002C0880F991FEA95E2F794
:1032D00014962C911497282B14962C93149760E035
:1032E0000FC0EF5BF84F64916623D9F167FF08C008
:1032F00014968C911497826014968C9314976F7720
:1033000016968C9116978617A9F117968C91179798
:10331000861781F118968C911897861759F119968E
:103320008C911997861731F11A968C911A978617F6
:1033300009F11B968C911B978617E1F0ED01E0E0F7
:10334000F0E09E2F8E81882321F4EA0FFB1F668315
:1033500006C09F5F31962196E630F10591F79630D1
:1033600049F481E090E013969C938E93129720E0AD
:1033700030E007C0CD011496BD010E94FE1821E087
:1033800030E0C901DF91CF91089580E863EC76E0E9
:1033900045E650E00E94F1140895FC0180818F5FA2
:1033A000808380E868E277E049E150E00E94F11410
:1033B0000895E89409C097FB3EF490958095709528
:1033C00061957F4F8F4F9F4F9923A9F0F92F96E971
:1033D000BB279395F695879577956795B795F111E6
:1033E000F8CFFAF4BB0F11F460FF1BC06F5F7F4F83
:1033F0008F4F9F4F16C0882311F096E911C0772395
:1034000021F09EE8872F762F05C0662371F096E89D
:10341000862F70E060E02AF09A95660F771F881F6C
:10342000DAF7880F9695879597F9089597F99F672A
:1034300080E870E060E008959FEF80EC089500243C
:103440000A941616170618060906089500240A9409
:1034500012161306140605060895092E0394000C8F
:1034600011F4882352F0BB0F40F4BF2B11F460FF1E
:1034700004C06F5F7F4F8F4F9F4F089557FD905847
:10348000440F551F59F05F3F71F04795880F97FB28
:10349000991F61F09F3F79F08795089512161306E2
:1034A0001406551FF2CF4695F1DF08C01616170611
:1034B0001806991FF1CF8695710561050894089546
:1034C000E894BB2766277727CB0197F908950BD09F
:1034D000C4CFB5DF28F0BADF18F0952309F0A6CFE6
:1034E000ABCF1124EECFCADFA0F3959FD1F3950F98
:1034F00050E0551F629FF001729FBB27F00DB11D78
:10350000639FAA27F00DB11DAA1F649F6627B00D07
:10351000A11D661F829F2227B00DA11D621F739FF0
:10352000B00DA11D621F839FA00D611D221F749FFE
:103530003327A00D611D231F849F600D211D822F45
:10354000762F6A2F11249F5750408AF0E1F088238C
:103550004AF0EE0FFF1FBB1F661F771F881F915099
:103560005040A9F79E3F510570F060CFAACF5F3F52
:10357000ECF3983EDCF3869577956795B795F795CC
:10358000E7959F5FC1F7FE2B880F911D9695879554
:1035900097F90895A1E21A2EAA1BBB1BFD010DC0CD
:1035A000AA1FBB1FEE1FFF1FA217B307E407F507F3
:1035B00020F0A21BB30BE40BF50B661F771F881FCF
:1035C000991F1A9469F760957095809590959B0165
:1035D000AC01BD01CF010895EE0FFF1F0590F491DE
:0835E000E02D0994F894FFCFDF
:1035E8003A29000000000000000000000000000070
:1035F80000000000000000000000000000000000C3
:1036080000000000000000000000000000000000B2
:1036180000000000000000000000000000000000A2
:103628000000000000000000000000000000000092
:103638000000000000000000000000000000000082
:103648000000000000000000000000000000000072
:103658000000000000000000000000000000000062
:103668000000000000000000000000010101030349
:1036780007070F0F0F0F0F0F0703010000000000CF
:103688000000000000000000000000000000000032
:103698000000000000000000000000000000000022
:1036A8000000000000000000000000000000000012
:1036B8000000000000000000000000000000000002
:1036C80000000000000000000000000000000000F2
:1036D8000000000000010F070000000000000000CB
:1036E80000000003070F3F7F7FFFFFFFFFFFFFFF83
:1036F800FFFFFFFFFFFEFEFCFCFCFC780000000063
:1037080000000000000000000000000000000000B1
:1037180000000000000000000000000000000000A1
:103728000000000000000000000000000000000091
:103738000000000000000000000000003FFFFFFF45
:10374800FFFFFFFF3800000000000183E1F37B7FEB
:103758003F3F1F1F3FFFFFFF1F3F7F7FFFE7C787D9
:1037680002020280E0F0F8F8F8FCFEFEFFFFFFFF1F
:10377800FFFFFFFF1F0F0707030301000000000002
:1037880000060F1F1F1F1F3F3F3F3F3F3F3F3F1F89
:103798001F0F0F070300003F3F3F3F3F3F3F3F3FA3
:1037A8003F3F3F3F1F1F0F07000000003F3F3F3FC5
:1037B8003F1F0F1F1F1F1F1E1F1F1F0EFFFFFFFF93
:1037C800FFFFFFFF030307070F1F1F1F0E04808063
:1037D800808087CFCFDFDFDFDFE0E0E0E0E0F07080
:1037E80070300000000000000000000000000080B1
:1037F80080C0C1E1E1F1F3FFFFFFFFFFFFFF7F3F63
:103808000F00FFFFFFFFFFFF1F0307070F0F0FBF8B
:10381800FFFFFFFEF8F0070F1F1F1F3F3F3C3C381C
:103828003838FFFFFFFFFFFFFF000000FFFFFFFF2B
:10383800FFFFFF800000000000000000C0FFFFFF46
:10384800FFFFFFFFFFFFDF8F8F0F0703010000005F
:10385800003FFFFFFFFFFFF8C0000000000000006E
:103868000000000000000F7FFFFFFFFFFFFFFFFFCA
:10387800FFFFFFFFFFFEFEFEFCFCF8F8F0F0E0C0E3
:103888008000C0FFFFFFFFFFFFFFF7F0F0E0C0C0C0
:1038980080800000000080E0E0E0F0F0F0F0F0F060
:1038A800F0F0F0F0F0F0F0F0F0000000F0F0F0F0E0
:1038B800F0F0F000000000000000000000F0F0F060
:1038C800F0F0F0C0008080C0E0E0E0E0E000000040
:1038D800F0F0F0F0F0F080000000000000000000C0
:1038E80000000000000080808080808080808080D0
:1038F80000000000000000000000000000000000C0
:1039080000000000E0FCFCFCFCFCF8F830000000C3
:10391800000000000000000000000000000000009F
:10392800000000000000000000000000000000008F
:10393800000000000000000000000000000000007F
:10394800000000000000000000000000000000006F
:10395800000000000000000000000000000000005F
:10396800000000000000000000000000000000004F
:10397800000000000000000000000000000000003F
:10398800000000000000000000000000000000002F
:10399800000000000000000000000000000000001F
:1039A800000000000000000000000000000000000F
:1039B80000000000000000000000000000000000FF
:1039C80000000000000000000000000000000000EF
:1039D80000000000000000000000000000000000DF
:1039E8000000006400E10000000000000101030283
:1039F8000100070605040000000030092509000041
:103A08000000080CD70B900B990BAE0BBF0B0000F6
:103A180000002B11CE13DA10F610E61053115711CF
:103A2800000000002913CE13DF12FB12EB1219134A
:0E3A380000000000B218CE1354191119041921
:00000001FF
