:100000000C94E7030C940F040C940F040C940F044D
:100010000C940F040C940F040C940F040C944309DB
:100020000C940F040C940F040C94C21D0C94491EE4
:100030000C940F040C940F040C940F040C940F04F4
:100040000C940F040C940F040C940F040C940F04E4
:100050000C940F040C940F040C940F040C94E513EF
:100060000C940F040C94E3160C942A170C940F04B0
:100070000C940F040C940F040C940F040C940F04B4
:100080000C94411B0C9444040C940F040C940F0426
:100090000C94D5110C940F040C9457040C940F0479
:1000A0000C940F040C940F040C940F040000000037
:1000B000007CDAF2DA7C7CD6F2D67C387C3E7C3866
:1000C000183C7E3C1838EABEEA38387AFE7A3800A6
:1000D000183C1800FFE7C3E7FF0018241800FFE7EB
:1000E000DBE7FF0C125C607064949E946402FEA0D7
:1000F000A0E002FEA0A4FC5A3CE73C5AFE7C383843
:10010000101038387CFE2844FE4428FAFA00FAFA27
:100110006090FE80FE006691A95606060606062936
:1001200045FF452910207E201008047E0408101089
:1001300054381010385410107808080808307830F7
:1001400078300C1C7C1C0C60707C7060000000001F
:10015000000000FA000000E000E00028FE28FE2871
:100160002454FE5448C4C81026466C926A040A00FF
:1001700010E0C00000384482000082443800543847
:10018000FE385410107C101000010E0C00101010DE
:100190001010000006060004081020407C8A92A27D
:1001A0007C0042FE02004E92929262848292B2CC15
:1001B000182848FE08E4A2A2A29C3C5292928C828B
:1001C000848890E06C9292926C6292929478000093
:1001D00028000000022C0000001028448228282853
:1001E0002828008244281040809A90607C82BA9A25
:1001F000723E4888483EFE9292926C7C8282824493
:10020000FE8282827CFE92929282FE909090807C0E
:1002100082828ACEFE101010FE0082FE820004024E
:1002200082FC80FE10284482FE02020202FE403858
:1002300040FEFE201008FE7C8282827CFE90909020
:10024000607C828A847AFE90989462649292924C46
:10025000C080FE80C0FC020202FCF8040204F8FC2C
:10026000021C02FCC6281028C6C0201E20C0869A88
:1002700092B2C200FE828282402010080400828274
:1002800082FE2040804020020202020200C0E010F4
:1002900000042A2A1E02FE1422221C1C22222214DE
:1002A0001C222214FE1C2A2A2A1800107E904018B4
:1002B0002525391EFE1020201E0022BE0200040249
:1002C00002BC00FE081422000082FE02003E201E36
:1002D000201E3E1020201E1C2222221C3F182424F7
:1002E00018182424183F3E10202010122A2A2A24ED
:1002F0002020FC22243C0202043E38040204383C44
:10030000020C023C2214081422320909093E22265A
:100310002A322200106C82000000EE000000826C85
:10032000100040804020403C64C4643C7885858651
:10033000485C0202045E1C2A2AAA9A84AAAA9E8207
:10034000842A2A1E8284AA2A1E02042AAA9E023015
:10035000784A4E489CAAAAAA9A9C2A2A2A9A9CAA17
:100360002A2A1A0000A23E820040A2BE420080A2B9
:100370003E020F9424940F0F14A4140F3E2AAAA235
:1003800000042A2A3E2A3E5090FE924C9292924CB1
:100390004C1212124C4C5212120C5C8282845E5C23
:1003A0004202041E00B90505BE9C2222229CBC020A
:1003B0000202BC3C24FF2424127E92C266D4F43F85
:1003C000F4D4FF90946F0403117E90C0042A2A9EF7
:1003D00082000022BE820C1212524C1C0202445EA9
:1003E000005E50504EBEB0988CBE649494F4146479
:1003F000949494640C12B202041C1010101010108B
:1004000010101CF40813355DF408142C5F0000DE96
:100410000000102854284444285428105500AA00ED
:100420005555AA55AA55AA55AA55AA000000FF007D
:10043000080808FF00282828FF000808FF00FF0818
:10044000080F080F2828283F002828EF00FF000089
:10045000FF00FF28282F203F2828E808F80808F880
:1004600008F8282828F8000808080F00000000F8FD
:1004700008080808F8080808080F08000000FF0826
:100480000808080808080808FF08000000FF2800FE
:1004900000FF00FF0000F808E800003F202F282898
:1004A000E808E828282F202F0000FF00EF28282840
:1004B00028282828EF00EF282828E8280808F80826
:1004C000F82828282F2808080F080F0000F808F837
:1004D000000000F8280000003F2800000F080F0867
:1004E00008FF08FF282828FF28080808F80000004F
:1004F000000F08FFFFFFFFFF0F0F0F0F0FFFFFFFA2
:100500000000000000FFFFF0F0F0F0F01C22221CC1
:10051000223E54547C287E40406060407E407E40B5
:10052000C6AA9282C61C22223C20027E0478046065
:10053000407E404099A5E7A5993854925438324EF0
:10054000804E320C52B2B20C0C121E120C3D465AA6
:1005500062BC7C929292007E8080807E545454547F
:10056000542222FA2222028A5222020222528A02B1
:100570000000FF80C00701FF00001010D6D6106CED
:10058000486C246C60F090F06000001818000000C7
:100590000808000C02FF808000F88080780098B87E
:1005A000E848003C3C3C3C00000000240027002AB6
:1005B000002D00300000000000250028002B002E38
:1005C000003100000000002300260029002C002F2D
:1005D00000040404040403040502020202040302EA
:1005E00002020206060606060604040202020404CB
:1005F0000802011040804010204080408008020422
:1006000001804020100201108010204040000000B6
:100610000200080E0000030401000B0000000000AF
:1006200000000000000000000000000706050401B3
:1006300000080A0B0C0D09080B0002020201000958
:10064000040000010202000005240010010524013D
:100650000101042402060524060001070581031098
:10066000004009040100020A0000000705020240E0
:10067000000007058302400000040309044172647E
:1006800075696E6F204C656F6E6172646F004172A8
:100690006475696E6F204C4C43001201000200002B
:1006A00000404123368000010102000112010002D6
:1006B000020000404123368000010102000100C118
:1006C0008081C105010902A1010901A1008501057F
:1006D000091901290315002501950375018102956A
:1006E0000175058103050109300931093815812596
:1006F0007F750895038106C0C005010906A1018523
:1007000002050719E029E715002501750195088103
:100710000295017508810395067508150025650584
:1007200007190029658100C00904020001030000C7
:100730000009210101000122650007058403400032
:100740000100000000000000002A2B28000000002B
:100750000000000000000000000000000000000099
:10076000002C9EB4A0A1A2A434A6A7A5AE362D3716
:1007700038271E1F20212223242526B333B62EB767
:10078000B89F8485868788898A8B8C8D8E8F90917F
:1007900092939495969798999A9B9C9D2F3130A30C
:1007A000AD350405060708090A0B0C0D0E0F1011D4
:1007B00012131415161718191A1B1C1DAFB1B0B55A
:1007C000000006104C1016166718FE1CD21F1124CC
:1007D0001FBECFEFDAE0DEBFCDBF15E0A0E0B1E095
:1007E000E4EDF6E402C005900D92AE3AB107D9F7F8
:1007F00018E0AEEAB5E001C01D92A03FB107E1F7F5
:1008000017E0CEECD7E004C02297FE010E946423DB
:10081000C23CD107C9F70E94BD180C9468230C9400
:100820000000FB01DC0102C001900D9241505040DC
:10083000D8F708956817790768F4FB01DC01E40F25
:10084000F51FA40FB51F02C002900E9241505040F8
:10085000D8F708950C94110421E030E00CC000009A
:10086000000000000000000000009F5F9A35B9F70B
:100870002150304011F090E0F2CF3C9A8093BB00C1
:1008800084E88093BC0008951F920F920FB60F92D8
:1008900011248F938BB180588BB9109295001092D0
:1008A00094008F910F900FBE0F901F9018951F927C
:1008B0000F920FB60F921124EF92FF920F931F9396
:1008C0002F933F934F935F936F937F938F939F9358
:1008D000AF93BF93CF93DF93EF93FF931092BF003B
:1008E0001092BE001092B0061092B1062091B3068D
:1008F0003091B4068091B50690E02817390728F4A6
:100900008091B10681608093B1062091B306309149
:10091000B4068091B60690E02817390728F4809134
:10092000B10682608093B1062091B3063091B4067F
:100930008091B70690E02817390728F48091B10616
:1009400084608093B1068091B3069091B4060196BD
:100950009093B4068093B3068091B3069091B40649
:100960008436910521F41092B4061092B30680915A
:10097000B806882371F48091B106877F8093B10611
:1009800040E050E0F8E0FF2E0FEF1FEFE7E0EE2E23
:1009900004C08091B1068860F1CFFA01EE0FFF1F0D
:1009A000EE0FFF1F9F012754394FE901888199817C
:1009B000AA81BB81EA01CC0FDD1F0297A105B10519
:1009C00008F443C0BE016B53794FFB0180819181D4
:1009D000892BA1F5DA01A553B94F8C91FA01E253A5
:1009E000F94F9081890F8C93F90180819181A281C7
:1009F000B3810197A109B10980839183A283B38355
:100A0000FA01EF52F94F2081CA01A3E0880F991F24
:100A1000AA95E1F7C80FD91FC20FD11DCC52D94FEB
:100A2000888190E0DB0111969C938E9380818F5F8B
:100A3000808380818A30E8F010821BC0EB018881BE
:100A4000998101979983888314C0D9011D921D92C1
:100A50001D921C921397EE50F94F10821182128250
:100A60001382FA01E553F94FF082CB53D94F198322
:100A70000883FA01E553F94F8081883014F0108221
:100A800003C0808187FDE082FA01EE0FFF1FEE0FA9
:100A9000FF1FEE50F94F80819181A281B3810097B1
:100AA000A105B10521F4FA01E553F94FF0824F5F3A
:100AB0005F4F4330510509F070CF9091B006E0913F
:100AC000CC06FF27E7FDF095E250F94F8081982B87
:100AD0009093B0069091B006E091CD06FF27E7FD18
:100AE000F095E95FF84F8081982B9093B006909134
:100AF000B106E091CB06FF27E7FDF095E95FF84FDF
:100B00008081982B9093B1065D988091B1068EBD3F
:100B10000DB407FEFDCF8EB58091B0068EBD0DB42D
:100B200007FEFDCF8EB55D9AFF91EF91DF91CF91DA
:100B3000BF91AF919F918F917F916F915F914F91F5
:100B40003F912F911F910F91FF90EF900F900FBE4B
:100B50000F901F901895CF93DF93962F50E0BA0116
:100B60007695762F66277795679585E02802900120
:100B70001124892F6D5A7E4FE9012596F901E4551C
:100B8000FF4FE491DB01A80FB11DEC938F5F2F5F46
:100B90003F4F2C173D0791F7292F2B5F342F330F31
:100BA000330F330F692F665F4F5F5F4F440F440F62
:100BB000440F8091AC06281710F42093AC06809166
:100BC000AD06861710F46093AD068091AE06381717
:100BD00010F43093AE068091AF06841710F4409362
:100BE000AF06DF91CF9108950F931F93062F142F17
:100BF0003C9A84EA8093BC0020E030E08091BC0005
:100C000087FD38C02A353105A9F12F5F3F4FF6CF58
:100C10008091BC0087FD35C02A35310591F12F5FE9
:100C20003F4FF6CF8091BC0087FD31C02A3531059A
:100C300071F12F5F3F4FF6CF8091BC0087FD33C02D
:100C40002A35310581F12F5F3F4FF6CF8091BC00EF
:100C500087FD32C02A35310579F12F5F3F4FF6CF3E
:100C60008091BC0087FD2DC02A35310551F12F5FE1
:100C70003F4FF6CF812F880F0E942C0420E030E0F8
:100C8000C7CF802F0E942C0420E030E0CBCF3C9ACD
:100C900084EA8093BC00110F812F81600E942C0494
:100CA00020E030E0C9CF8091BC008F70806C8093D1
:100CB000BC0020E030E0CACF9091BB0020E030E0E3
:100CC000CFCF84E98093BC008091BC008B7F809360
:100CD000BC008091BC0084608093BC00892F1F9170
:100CE0000F9108950F931F93162F042F3C9A84EAB7
:100CF0008093BC0040E050E08091BC0087FD24C0A0
:100D00004A35510509F14F5F5F4FF6CF8091BC0026
:100D100087FD21C02A353105F1F02F5F3F4FF6CF17
:100D20008091BC0087FD1DC02A353105D1F02F5FB1
:100D30003F4FF6CF8091BC0087FD19C02A353105A1
:100D4000B1F02F5F3F4FF6CF822F880F0E942C0407
:100D500020E030E0DBCF812F0E942C0420E030E047
:100D6000DFCF802F0E942C0420E030E0E3CF84E925
:100D70008093BC001F910F910895CF93DF93EC01F6
:100D80006DE04DE10E94F4058A3219F02FEF3FEF3C
:100D900037C0CE016AE24DE10E94F405482F4E7F34
:100DA000CE016AE22DE10E947206CE016EE040E0C3
:100DB0002DE10E947206CE016AE24DE10E94F40527
:100DC000482F477CCE016AE22DE10E947206CE01D7
:100DD0006AE24DE10E94F405482FCE016AE22DE15E
:100DE0000E947206CE016AE24DE10E94F405482F8E
:100DF0004160CE016AE22DE10E94720621E030E0FE
:100E0000C901DF91CF9108951092AA061092AB0606
:100E100080E094E0E3E5F1E0DF019C011D922150C8
:100E20003040E1F78091AC06882311F01092AC06B7
:100E30008091AD068F3718F48FE78093AD068091CF
:100E4000AE06882311F01092AE068091AF068F3364
:100E500018F48FE38093AF0608951F93162FF8942C
:100E60005D9A81E160E00E94A8151EBD0DB407FEE9
:100E7000FDCF81E161E00E94A81578941F9108954B
:100E8000FF920F931F938C01F62E84E061E00E9485
:100E9000A815C8016F2D0E942D071F910F91FF907B
:100EA0000895FF920F931F938C01F62E84E060E06B
:100EB0000E94A815C8016F2D0E942D071F910F9148
:100EC000FF9008958F929F92AF92BF92CF92DF9240
:100ED000EF92FF920F931F93CF93DF93EC017EE588
:100EE000872E75E0972E20E030E0AA24BB2468E02E
:100EF000C62ED12CC20ED31E8091AE0690E08C156A
:100F00009D05D4F58091AF0690E0821793070CF40D
:100F100040C0F4016081606BCE010E9451071091C6
:100F2000AC060091AD06612F6F5F6F70CE010E941D
:100F30005107612F70E06F5F7F4F54E075956795A3
:100F40005A95E1F76F706061CE010E945107CE01A2
:100F500060EE0E94510743E5E42E41E0F42EEA0CD6
:100F6000FB1C08C0F701E10FF11DCE0160810E945A
:100F700040071F5F0117B0F70894811C911C80E89F
:100F800090E0A80EB91E90E4C916D10411F09601A4
:100F9000AECF8FE78093AC061092AD068FE38093BF
:100FA000AE061092AF06DF91CF911F910F91FF9087
:100FB000EF90DF90CF90BF90AF909F908F9008956B
:100FC000EF92FF921F937C01162F61E80E94510758
:100FD0001F73C701612F0E9451071F91FF90EF906F
:100FE0000895CF93DF93EC0184E061E00E941B152C
:100FF0008CE061E00E941B1581E161E00E941B15FD
:1010000081E160E00E94A81588EE93E020E931E0DC
:10101000F9013197F1F70197D9F78CE060E00E9470
:10102000A81588EE93E020E931E0F9013197F1F756
:101030000197D9F78CE061E00E94A815CE0163EA20
:101040000E945107CE0161EA0E945107CE0160EC77
:101050000E945107CE0160E60E945107CE016CE26A
:101060000E94510784EF91E020E931E0F9013197C6
:10107000F1F70197D9F7CE016EE20E94510784EF94
:1010800091E020E931E0F9013197F1F70197D9F7C3
:10109000CE016FE20E94510780E49CE90197F1F7CD
:1010A000CE0166E20E9451078091AC06882311F0C0
:1010B0001092AC068091AD068F3718F48FE78093BD
:1010C000AD068091AE06882311F01092AE06809195
:1010D000AF068F3318F48FE38093AF06DF91CF9183
:1010E00008958FE061E00E941B1580E161E00E949D
:1010F0001B1581E161E00E941B158FE060E00E94FA
:10110000A81580E160E00E94A81581E161E00E94DD
:10111000A8158CB580618CBD8CB580648CBD8CB5F8
:101120008C7F8CBD8DB581608DBD08950F931F930D
:101130008C010E947108C8010E94F107C8016FEA82
:101140000E945107C80164EA0E945107C80160E08B
:101150000E94E0071F910F91089583E591E063EDF0
:1011600071E040E853E00E941A0480E8E3EDF4E007
:10117000DF011D928A95E9F78091AC06882311F072
:101180001092AC068091AD068F3718F48FE78093EC
:10119000AD068091AE06882311F01092AE068091C4
:1011A000AF068F3318F48FE38093AF060895CF9284
:1011B000DF92EF92FF920F931F93CF93DF938C01F7
:1011C0006B017A01C0E0D0E034C0F601EC0FFD1FE6
:1011D00020812A3041F48091AB068F5F8093AB066B
:1011E0001092AA0619C02D30B9F0C8016091AA0664
:1011F0004091AB060E94AB058091AA068A5F80935E
:10120000AA0690E08A3791053CF01092AA068091D8
:10121000AB068F5F8093AB068091AB06883040F0C1
:10122000C8010E94AD088091AB0681508093AB0647
:101230002196CE15DF0548F2DF91CF911F910F91D6
:10124000FF90EF90DF90CF9008950F931F93142F8E
:10125000052F0E94D708812F902F1F910F9108957D
:10126000DF93CF930F92CDB7DEB76983BE016F5F77
:101270007F4F41E050E00E94D70881E090E00F905E
:10128000CF91DF9108951F920F920FB60F92112404
:10129000EF92FF920F931F932F933F934F935F9380
:1012A0006F937F938F939F93AF93BF93EF93FF932E
:1012B00080917F06813009F469C00E942D149B0142
:1012C000AC018CB1682F70E0607470708091B205D1
:1012D0009091B305A091B405B091B50579018A014B
:1012E000E81AF90A0A0B1B0BE092AE05F092AF0563
:1012F0000093B0051093B1058091AE059091AF05B4
:10130000A091B005B091B10580529E44A040B0407C
:10131000D4F1672B19F410927E062CC0E0917E0662
:10132000F0E08091AE059091AF05A091B005B0912D
:10133000B105EE0FFF1FEE0FFF1FEA54FA4F918326
:10134000808318C0E0917E06F0E08091AE05909118
:10135000AF05A091B005B091B105EE0FFF1FEE0FE4
:10136000FF1FEA54FA4F9383828380917E068F5F3A
:1013700080937E062093B2053093B3054093B40565
:101380005093B50503C0672BE9F2C8CFFF91EF91E9
:10139000BF91AF919F918F917F916F915F914F918D
:1013A0003F912F911F910F91FF90EF900F900FBEE3
:1013B0000F901F90189580917E06882339F42FEFA7
:1013C0003FEF3EC080E29EE40E9453140E942D1421
:1013D0002091B2053091B3054091B4055091B50507
:1013E000621B730B840B950B61527E4480409040CE
:1013F00048F381E080937F0640E020E030E061E048
:1014000070E0F901EE0FFF1FEE0FFF1FE650FA4FDD
:1014100082819381895E934040F0CB01022E02C00D
:10142000880F991F0A94E2F7482B2F5F3F4F28300F
:10143000310539F710927E0610927F06242F30E096
:10144000C90108955F926F927F928F929F92AF929F
:10145000BF92CF92DF92EF92FF920F931F93CF93A1
:10146000DF935B01542ED52EE9019E2C8F2C702E1C
:10147000612E83EE97E060E071E00E942F1A83EE08
:1014800097E0B5014AE050E00E94FD1983EE97E035
:1014900067E071E00E942F1A83EE97E0652D7D2DA5
:1014A0004AE050E00E94FD1983EE97E066E171E0AA
:1014B0000E942F1A83EE97E04E2D5F2D602F712F23
:1014C0002AE030E00E94E919F501E05FF84FC0839F
:1014D0002097C1F48FB7F894F501EE0FFF1FEE0FC0
:1014E000FF1FDF01A754B94F1D921D921D921C9240
:1014F0001397EE50F94F10821182128213828FBF20
:101500007894B7C084EF91E0BE010E9419236B016B
:10151000BE01882777FD8095982F0E94DF219B01CF
:10152000AC0160E070E08AEF93E40E9444217B010B
:101530008C01B601882777FD8095982F0E94DF21C6
:101540009B01AC01C801B7010E94DB2020E030E024
:1015500040E251E40E9493220E94AC218B0160E0A2
:101560004AE050E0401B510B7C2D7F5F9501220F1C
:10157000331FC501F3E0880F991FFA95E1F7280F93
:10158000391F06C0E20FF31FEC52F94F70836F5FF3
:10159000E62FF0E0E417F507ACF38AE0801BE501E5
:1015A000CC0FDD1FD50173E0AA0FBB1F7A95E1F7C1
:1015B0009E012A0F3B1F07C0F901E80FF11DEC52F5
:1015C000F94FC0828F5F8A30B8F34FB7F894F501B6
:1015D000EF52F94F1082AC0FBD1FAC52B94F8C9136
:1015E00090E0FE01ED5EF84F9183808380819181D0
:1015F000CB53D94F99838883892D982DA72DB62D4C
:101600009501220F331F220F331FF901E754F94FC1
:1016100080839183A283B3838EEC96E0A80EB91EDB
:10162000F50150822E50394F81E090E0A0E0B0E00B
:10163000F90180839183A283B3834FBF789483EEB3
:1016400097E060E271E00E942F1A83EE97E0B60106
:101650004AE050E00E94FD1983EE97E067E271E0F6
:101660000E942F1A83EE97E0B8014AE050E00E94F2
:10167000101A61E070E080E090E00E94B314DF9106
:10168000CF911F910F91FF90EF90DF90CF90BF907F
:10169000AF909F908F907F906F905F900895CF92C2
:1016A000DF92EF92FF920F931F936C0120915305ED
:1016B00060E070E041E050E030E0EE24EA94FE2C7F
:1016C00087010E94220A20915305C60161E070E063
:1016D0004FEF5FEF30E00E94220A1F910F91FF90C1
:1016E000EF90DF90CF9008958F929F92AF92BF922C
:1016F000CF92DF92EF92FF920F931F936C01B42E63
:10170000A52E962E872E2091530560E070E041E0D3
:1017100050E030E0EB2CFA2C092D182D0E94220A03
:1017200020915305C60161E070E04FEF5FEF30E0BC
:101730000E94220A1F910F91FF90EF90DF90CF90AF
:10174000BF90AF909F908F900895CF92DF92EF92CD
:10175000FF920F931F936C012091530560E070E09E
:101760004FEF5FEF30E0EE24EA94FE2C87010E94F9
:10177000220A20915305C60161E070E041E050E08B
:1017800030E00E94220A1F910F91FF90EF90DF90AE
:10179000CF9008958F929F92AF92BF92CF92DF9297
:1017A000EF92FF920F931F936C01B42EA52E962EED
:1017B000872E2091530560E070E04FEF5FEF30E03F
:1017C000EB2CFA2C092D182D0E94220A209153058A
:1017D000C60161E070E041E050E030E00E94220A82
:1017E0001F910F91FF90EF90DF90CF90BF90AF903F
:1017F0009F908F900895EF92FF920F931F93CF9336
:10180000DF93EC017A018B01CB01BA0120E030E0DB
:1018100040E050E00E944021882321F4CE010E9444
:10182000A50B52C0C801B70120E030E040E050E015
:101830000E944021882334F4CE01B801A7010E9400
:101840006B0C42C0C801B7012DE331E642E853E416
:101850000E9493220E94B121AB01BC01CE010E94E3
:10186000CA0B06C061E070E080E090E00E94B31413
:101870003FB7F8948091F2069091F306A091F40698
:10188000B091F5060097A105B105C9F48091F6065F
:101890009091F706A091F806B091F9060097A1057E
:1018A000B10569F48091FA069091FB06A091FC06BF
:1018B000B091FD0620E00097A105B10509F021E0F7
:1018C0003FBF7894222371F6DF91CF911F910F9142
:1018D000FF90EF900895EF92FF920F931F93CF9395
:1018E000DF93EC017A018B01CB01BA0120E030E0FB
:1018F00040E050E00E944021882321F4CE010E9464
:101900004F0B52C0C801B70120E030E040E050E08A
:101910000E944021882334F4CE01B801A7010E941F
:10192000FB0B42C0C801B7012DE331E642E853E4A6
:101930000E9493220E94B121AB01BC01CE010E9402
:10194000740B06C061E070E080E090E00E94B31488
:101950003FB7F8948091F2069091F306A091F406B7
:10196000B091F5060097A105B105C9F48091F6067E
:101970009091F706A091F806B091F9060097A1059D
:10198000B10569F48091FA069091FB06A091FC06DE
:10199000B091FD0620E00097A105B10509F021E016
:1019A0003FBF7894222371F6DF91CF911F910F9161
:1019B000FF90EF900895CF92DF92EF92FF920F93F6
:1019C0001F936C012091530560E070E041E050E00E
:1019D00030E0EE24EA94FE2C87010E94220A209136
:1019E0005305C60161E070E041E050E030E00E9444
:1019F000220A1F910F91FF90EF90DF90CF900895F2
:101A00008F929F92AF92BF92CF92DF92EF92FF920E
:101A10000F931F936C01B42EA52E962E872E209126
:101A2000530560E070E041E050E030E0EB2CFA2C30
:101A3000092D182D0E94220A20915305C60161E04C
:101A400070E041E050E030E00E94220A1F910F91C7
:101A5000FF90EF90DF90CF90BF90AF909F908F90CE
:101A60000895CF92DF92EF92FF920F931F936C0134
:101A70002091530560E070E04FEF5FEF30E0EE241F
:101A8000EA94FE2C87010E94220A20915305C60188
:101A900061E070E04FEF5FEF30E00E94220A1F919B
:101AA0000F91FF90EF90DF90CF9008958F929F92CB
:101AB000AF92BF92CF92DF92EF92FF920F931F935C
:101AC0006C01B42EA52E962E872E2091530560E032
:101AD00070E04FEF5FEF30E0EB2CFA2C092D182D62
:101AE0000E94220A20915305C60161E070E04FEF89
:101AF0005FEF30E00E94220A1F910F91FF90EF905C
:101B0000DF90CF90BF90AF909F908F900895EF920D
:101B1000FF920F931F93CF93DF93EC017A018B0118
:101B2000CB01BA0120E030E040E050E00E944021CB
:101B3000882321F4CE010E94310D52C0C801B701A3
:101B400020E030E040E050E00E944021882334F45F
:101B5000CE01B801A7010E94F70D42C0C801B7012C
:101B60002AE73BEE4AE951E40E9493220E94B12108
:101B7000AB01BC01CE010E94560D06C061E070E0D1
:101B800080E090E00E94B3143FB7F8948091F20691
:101B90009091F306A091F406B091F5060097A10587
:101BA000B105C9F48091F6069091F706A091F80668
:101BB000B091F9060097A105B10569F48091FA0684
:101BC0009091FB06A091FC06B091FD0620E00097E5
:101BD000A105B10509F021E03FBF7894222371F6F9
:101BE000DF91CF911F910F91FF90EF900895EF92A9
:101BF000FF920F931F93CF93DF93EC017A018B0138
:101C0000CB01BA0120E030E040E050E00E944021EA
:101C1000882321F4CE010E94DB0C52C0C801B70119
:101C200020E030E040E050E00E944021882334F47E
:101C3000CE01B801A7010E94870D42C0C801B701BB
:101C40002AE73BEE4AE951E40E9493220E94B12127
:101C5000AB01BC01CE010E94000D06C061E070E046
:101C600080E090E00E94B3143FB7F8948091F206B0
:101C70009091F306A091F406B091F5060097A105A6
:101C8000B105C9F48091F6069091F706A091F80687
:101C9000B091F9060097A105B10569F48091FA06A3
:101CA0009091FB06A091FC06B091FD0620E0009704
:101CB000A105B10509F021E03FBF7894222371F618
:101CC000DF91CF911F910F91FF90EF900895EF92C8
:101CD000FF920F931F93162F042F80E6E82E87E0C4
:101CE000F82EC7016EE170E00E941210C701612F4B
:101CF0000E949410C701602F0E949410C7010E9497
:101D0000D7101F910F91FF90EF900895CF93DF931D
:101D100080E697E06EE170E00E94121080E697E0A6
:101D200063E00E94941080E697E00E94D71080E65E
:101D300097E06EE170E00E94121080E697E06EE19D
:101D400070E046E050E00E94E81080E697E00E94D4
:101D50001C10069771F4C0E0D0E080E697E00E9486
:101D60002510FE01E058F94F80832196C630D10539
:101D7000A1F780E697E00E94D710DF91CF910895F8
:101D80000F931F938C0163E070E046E050E00E94E7
:101D9000860E4091800620918106742F60E030E02D
:101DA000622B732B882777FD8095982F0E94DF2167
:101DB0002FE135E84BE65FE30E949322F80164834C
:101DC0007583868397834091820620918306742FC2
:101DD00060E030E0622B732B882777FD8095982F89
:101DE0000E94DF212FE135E84BE65FE30E9493225A
:101DF000F8016087718782879387409184062091DC
:101E00008506742F60E030E0622B732B882777FD06
:101E10008095982F0E94DF212FE135E84BE65FE3A4
:101E20000E949322F80164877587868797871F91A0
:101E30000F910895CF93DF93EC0183EE97E060E874
:101E400075E20E94DB1581E398E040E855E260E02E
:101E500070E00E945A178DE061E00E941B158DE032
:101E600060E00E94A8158BE061E00E941B158BE0EA
:101E700060E00E94A81584E160E00E941B1585E1E6
:101E800061E00E941B1586E161E00E941B1587E15D
:101E900061E00E941B1586E061E00E941B158AE04C
:101EA00061E00E941B1585E060E00E941B1589E03F
:101EB00061E00E941B1589E197E060E070E00E94FC
:101EC0000B1089E197E060E070E00E940B108E8FAC
:101ED0000E94FD1084E00E94EC10559A5D9880915C
:101EE000B1068EBD0DB407FEFDCF8EB58091B00654
:101EF0008EBD0DB407FEFDCF8EB55D9A1092B8066B
:101F000080E18093070780E38093080780E2809355
:101F1000090780E680930A0780E480930B0780EC32
:101F200080930C0780E880930D0780E980930E076B
:101F300010920F0781E08093FE0683E08093FF06F6
:101F400082E08093000786E08093010784E080931D
:101F500002078CE08093030788E08093040789E000
:101F60008093050710920607CE010E949608CE01C5
:101F70000E94620780915305809312078093110796
:101F800080931007F8941092C0001092C100109234
:101F9000BF001092BE0080E38093CF0086E0809364
:101FA000C100809172008064809372007894F894EC
:101FB00087E060E00E941B1580916A008F7C806141
:101FC00080936A00EE9A7894CE010E94BD06CE01FD
:101FD00061E070E040E250E00E94670ECE0162E0F6
:101FE00070E040E050E00E94670ECE010E94C00EFB
:101FF000DF91CF910895FC01138212828AE695E069
:1020000091838083CF010E941A0F089586E896E09D
:102010000E94FB0F0895F999FECF72BD61BDF89A39
:1020200080B5089581E080935F0760933C0710922C
:102030005D0710925E07089520913B0730E0809184
:102040003A07281B3109C901089540913A07809148
:102050003B07481718F02FEF3FEF0AC0E42FF0E0DE
:10206000E65EF84F8081282F30E04F5F40933A07BB
:10207000C9010895E0913A0780913B07E81718F0ED
:10208000EFEFFFEF06C0F0E0E65EF84F8081E82F4B
:10209000F0E0CF010895089510926307109262074F
:1020A00088EE93E0A0E0B0E080936407909365072A
:1020B000A0936607B093670782E795E09093610766
:1020C000809360070895CF92DF92EF92FF920F9373
:1020D0001F93CF93DF937C016B018A0180915F078F
:1020E0008823A1F0C0E0D0E00DC0D701ED91FC91B4
:1020F000D601AC0FBD1F0190F081E02DC7016C919E
:1021000009952196C017D10780F304C0CB01642F35
:102110000E94BA11C801DF91CF911F910F91FF90DA
:10212000EF90DF90CF900895DF93CF930F92CDB7CC
:10213000DEB7FC01698380915F078823C9F0809135
:102140005E07803238F081E090E09383828320E064
:1021500030E015C080915D07E82FF0E0E35CF84FB8
:10216000998190838F5F80935D0780935E0705C0A0
:10217000CE01019661E00E94BA1121E030E0C90170
:102180000F90CF91DF9108950F93062F80913C0718
:102190006DE377E040915E0721E00E9465111092A7
:1021A0005D0710925E0710925F070F91089561E03E
:1021B0000E94C4100895413208F040E2862F6AE17F
:1021C00077E00E941C1110923A0780933B07089514
:1021D00021E00E94DB1008952CB5382F33702C7F3E
:1021E000322B3CBD2DB590E09595879595958795BB
:1021F00081702E7F822B8DBD08958FE061E00E945B
:102200001B1580E161E00E941B1581E161E00E94E5
:102210001B158FE060E00E94A81580E160E00E943D
:10222000A81581E161E00E94A8158CB580618CBD84
:102230008CB580648CBD0895382F413210F040E099
:1022400042C080916C078823E1F791E090936C077E
:1022500020936E078FEF8093D90710929407415017
:10226000409395074F5F90936D0780916D07330FF3
:10227000832B80936D0780916F07813041F410921A
:102280006F0780916D078093BB0085EC01C085EEE0
:102290008093BC0080916C078130E1F380919407BA
:1022A000841710F44091940720E030E00AC0FB014D
:1022B000E20FF31FD901AC58B84F8C9180832F5F88
:1022C0003F4F2417A0F3842F08950F931F93582F87
:1022D000122F413210F081E04AC080916C078823B0
:1022E000E1F782E080936C0700936E078FEF809395
:1022F000D9071092940740939507A4E7B7E0FB0134
:1023000002C081918D938E2F861B8417D0F310927B
:102310006D0780916D07550F852B80936D07809118
:102320006F07813041F410926F0780916D078093A1
:10233000BB0085EC01C085EE8093BC00112321F029
:1023400080916C078230E1F38091D9078F3F11F4BF
:1023500080E00DC08091D907803211F482E007C07F
:102360008091D907803311F084E001C083E01F9190
:102370000F910895482F613210F081E00895809107
:102380006C07843011F082E008956093B707A6E9E6
:10239000B7E0842F9C01F90102C081918D938E2FAB
:1023A000841B8617D0F380E008951F920F920FB61A
:1023B0000F9211242F933F934F935F936F937F93CB
:1023C0008F939F93AF93BF93EF93FF938091B90047
:1023D00090E0887F90708036910509F4F2C08136D4
:1023E0009105CCF58832910509F47BC089329105BD
:1023F000B4F48031910509F46FC0813191053CF44A
:10240000009709F447C1089709F04FC165C08831AA
:10241000910509F466C0809709F047C182C08034F5
:10242000910509F4A4C08134910544F480339105E9
:1024300009F482C0C89709F038C189C08035910578
:1024400009F489C08835910509F496C0883491054E
:1024500009F02BC1AEC08839910509F413C189393F
:102460009105ECF48837910509F4ABC089379105E3
:102470004CF48836910509F4A4C08037910509F021
:1024800014C19FC08838910509F4FCC080399105BA
:1024900009F49DC08038910509F007C198C0803BC0
:1024A000910509F4C6C0813B91054CF4803A910531
:1024B00009F49FC0883A910509F0F7C0BAC0803C82
:1024C000910509F4E3C0883C910509F4DFC0883B1D
:1024D000910509F0EAC0C2C080916D078093BB00EE
:1024E000CFC09091940780919507981768F49091C8
:1024F0009407E92FF0E0EC58F84F80818093BB00FF
:102500009F5F90939407BCC080916E07882309F465
:102510004BC085ED8093BC008091BC0084FDFCCF56
:10252000C2C080E28093D90785ED8093BC00809182
:10253000BC0084FDFCCFB7C080E38093D90785ED54
:102540008093BC008091BC0084FDFCCFACC088E3CC
:102550008093D9079BC0809194079091BB00E82F8E
:10256000F0E0EC58F84F90838F5F80939407909140
:1025700094078091950782C0809194079091BB0049
:10258000E82FF0E0EC58F84F90838F5F809394072A
:1025900080916E07882341F085ED8093BC00809187
:1025A000BC0084FDFCCF7FC081E080936F0784EA8C
:1025B0006EC085ED8093BC008091BC0084FDFCCF93
:1025C00072C083E080936C071092D80759C0809145
:1025D000D807803208F056C08091D8079091BB0090
:1025E000E82FF0E0E854F84F90838F5F8093D8078E
:1025F00047C08091D807803230F4E091D807F0E0EE
:10260000E854F84F108285ED8093BC008091BC00A7
:1026100084FDFCCF10926C076091D807E09172079F
:10262000F091730788EB97E070E009951092D80756
:102630002DC084E080936C071092B6071092B70704
:10264000E0917007F091710709958091B707882391
:1026500029F481E08093B707109296079091B6070E
:10266000E92FF0E0EA56F84F80818093BB009F5F2E
:102670009093B6079091B6078091B707981710F41A
:1026800085EC01C085E88093BC000FC085EC809389
:10269000BC0009C01092D90785ED8093BC008091E1
:1026A000BC0084FDFCCF10926C07FF91EF91BF91AD
:1026B000AF919F918F917F916F915F914F913F91DA
:1026C0002F910F900FBE0F901F9018950895EF92C5
:1026D000FF920F931F9386E896E00E94040786E816
:1026E00096E00E94DB09AA2797FDA095BA2FBC01AE
:1026F000CD010E94DF217B018C0120E030E040E829
:102700005FEB0E944021882309F454C086E896E0DC
:1027100065E371E00E942F1A86E896E0B801A701F0
:1027200022E030E00E94161BC801B7010E94AC21D4
:102730008B016634710549F486E896E040E050E08C
:1027400060E070E00E94FB0B24C06531710549F424
:1027500086E896E040E050E060E070E00E946B0C9C
:1027600029C06434710549F486E896E040E050E001
:1027700060E070E00E94F70D1DC06334710549F4FC
:1027800086E896E040E050E060E070E00E94870D4F
:1027900011C00034110571F486E896E040E050E085
:1027A00060E87FE30E94F70D68EE73E080E090E060
:1027B0000E94B31486E896E00E94620764E670E027
:1027C00080E090E00E94B31486CF1F920F920FB664
:1027D0000F9211242F933F938F939F93AF93BF93A7
:1027E0008091DE079091DF07A091E007B091E107AB
:1027F0003091E2070196A11DB11D232F2D5F2D37CA
:1028000020F02D570196A11DB11D2093E207809362
:10281000DE079093DF07A093E007B093E107809174
:10282000DA079091DB07A091DC07B091DD070196F4
:10283000A11DB11D8093DA079093DB07A093DC07FD
:10284000B093DD07BF91AF919F918F913F912F91F1
:102850000F900FBE0F901F9018959FB7F89420917E
:10286000DA073091DB074091DC075091DD0786B530
:10287000A89B06C08F3F21F02F5F3F4F4F4F5F4F08
:102880009FBF542F432F322F2227280F311D411D68
:10289000511D82E0220F331F441F551F8A95D1F727
:1028A000B901CA010895019739F0880F991F880F5F
:1028B000991F02970197F1F70895789484B5826083
:1028C00084BD84B5816084BD85B5826085BD85B5D4
:1028D000816085BDEEE6F0E0808181608083E1E883
:1028E000F0E01082808182608083808181608083BB
:1028F000E0E8F0E0808181608083E1E9F0E08081C0
:1029000082608083808181608083E0E9F0E0808163
:1029100081608083E1ECF0E080818460808380814D
:1029200082608083808181608083E3ECF0E080813D
:1029300081608083E0ECF0E0808182608083E2EC63
:10294000F0E0808181608083EAE7F0E0808184604C
:1029500080838081826080838081816080838081A8
:10296000806880830895EF92FF920F931F93CF9317
:10297000DF937B018C013FB7F8948091DA07909147
:10298000DB07A091DC07B091DD0726B5A89B05C049
:102990002F3F19F00196A11DB11D3FBFBA2FA92FDE
:1029A000982F8827820F911DA11DB11D52E0880F1D
:1029B000991FAA1FBB1F5A95D1F7EC0130C00E9486
:1029C000971F3FB7F8948091DA079091DB07A091A9
:1029D000DC07B091DD0726B5A89B05C02F3F19F095
:1029E0000196A11DB11D3FBFBA2FA92F982F88278F
:1029F000820F911DA11DB11D32E0880F991FAA1FE2
:102A0000BB1F3A95D1F78C1B9D0B885E9340B8F2A3
:102A10000894E108F10801091109C851DC4FE114DB
:102A2000F1040105110559F6DF91CF911F910F9126
:102A3000FF90EF900895CF93DF93482F50E0CA01A5
:102A400081519A4FFC0134914F525A4FFA018491AF
:102A5000882369F190E0880F991FFC01E955FA4F2E
:102A6000A591B491FC01EB54FA4FC591D491662322
:102A700051F42FB7F8948C91932F909589238C93D0
:102A8000888189230BC0623061F42FB7F8948C9150
:102A9000932F909589238C938881832B88832FBFD4
:102AA00006C09FB7F8948C91832B8C939FBFDF91C6
:102AB000CF910895883071F1893068F4823031F116
:102AC000833020F4813009F042C01DC0833089F08A
:102AD0008430E9F512C08B3059F18C3028F48930FC
:102AE000E9F08A30A1F51EC08C3031F18E3079F5D5
:102AF00029C0809180008F7703C0809180008F7DF6
:102B000080938000089584B58F7702C084B58F7D4F
:102B100084BD0895809190008F7707C080919000C8
:102B20008F7D03C080919000877F809390000895EF
:102B30008091C0008F7703C08091C0008F7D80930B
:102B4000C00008958091C200877F8093C2000895DD
:102B5000FF920F931F93F62E482F50E0CA01835F18
:102B6000994FFC012491CA0181519A4FFC011491A3
:102B70004F525A4FFA0104910023C9F0222319F051
:102B8000822F0E945A15E02FF0E0EE0FFF1FEB544A
:102B9000FA4FA591B4919FB7F894FF2021F48C913E
:102BA0001095812302C08C91812B8C939FBF1F9124
:102BB0000F91FF9008950895FC012485858530E0EC
:102BC000205C3F4F281B31092F733070C9010895D5
:102BD000FC0194858585981719F42FEF3FEF06C007
:102BE0008585E80FF11D8685282F30E0C9010895FD
:102BF000DC011C969C911C971D968C911D97981733
:102C000019F42FEF3FEF10C01D968C911D97FD0119
:102C1000E80FF11D96851D968C911D978F5F8F7320
:102C20001D968C93292F30E0C90108951092E60774
:102C30001092E50788EE93E0A0E0B0E08093E7070C
:102C40009093E807A093E907B093EA0782E895E03C
:102C50009093E4078093E30708950F931F93DF9306
:102C6000CF930F92CDB7DEB78C01698380915B055E
:102C7000882369F083E0BE016F5F7F4F41E050E041
:102C80000E941D1D1816190614F49C0107C081E04E
:102C900090E0F8019383828320E030E0C9010F9037
:102CA000CF91DF911F910F91089583E00E94F41C52
:102CB00008950F931F93CF93DF938C01FC010FC0F6
:102CC00082E00E94DA1B9C01FFEF8F3F9F0799F083
:102CD000F8018485E80FF11D2687F801C4878485F3
:102CE000C82FD0E02196CF73D070F801858590E091
:102CF000C817D90729F7DF91CF911F910F91089538
:102D0000FC0180818E5F808380E867E376E042E4A7
:102D100050E00E94F31B0895FC0181819081913A5B
:102D200059F4813209F04CC080E064E575E047E079
:102D300050E00E94F31B42C0913209F041C0803242
:102D400039F484E595E067E070E00E94DC1C36C051
:102D5000823209F035C0828180935B0580915405F1
:102D600090915505A0915605B0915705805B944010
:102D7000A040B04019F580915B0580FD12C087E747
:102D800097E790930108809300082BE088E190E09A
:102D90000FB6F894A895809360000FBE2093600052
:102DA0000DC088E10FB6F894809360001092600027
:102DB0000FBEA895109201081092000881E00895B6
:102DC00080E0089508951F920F920FB60F9211247C
:102DD0002F933F934F938F939F93EF93FF93809104
:102DE000C80082FD19C04091CE0080914F08282F65
:102DF00030E02F5F3F4F2F7330708091500890E08C
:102E00002817390759F0E0914F08F0E0EF5CF74FD1
:102E100042A320934F0802C08091CE00FF91EF9112
:102E20009F918F914F913F912F910F900FBE0F90D7
:102E30001F90189580914F082091500890E0805C79
:102E40009F4F821B91098F739070892B11F00E9404
:102E5000E21608951F920F920FB60F9211242F932E
:102E60008F939F93EF93FF93909151088091520815
:102E7000981731F48091C9008F7D8093C90010C0EC
:102E8000E0915208F0E0ED56F74F20818091520812
:102E900090E001968F739070809352082093CE003B
:102EA000FF91EF919F918F912F910F900FBE0F90F7
:102EB0001F901895AF92BF92DF92EF92FF920F93FF
:102EC0001F93CF93DF93EC017A018B01DD24403017
:102ED00081EE580780E0680780E0780711F0DD2474
:102EE000D39491E0A92EB12CE889F989DD2069F00D
:102EF000C5010C8C02C0880F991F0A94E2F78083E9
:102F000060E079E08DE390E005C0108260E874E84D
:102F10008EE190E0A80197010E942C2321503040BF
:102F200040405040569547953795279580E1203091
:102F3000380720F0DD2011F0DD24D6CFEC85FD85AB
:102F40003083EE85FF8520831D8EEA89FB894081D1
:102F500021E030E0C901088C02C0880F991F0A9453
:102F6000E2F7482B4083EA89FB894081C901098C3B
:102F700002C0880F991F0A94E2F7482B4083EA8920
:102F8000FB894081C9010A8C02C0880F991F0A94ED
:102F9000E2F7482B4083EA89FB8980810B8C02C0D1
:102FA000220F331F0A94E2F7209528232083DF9114
:102FB000CF911F910F91FF90EF90DF90BF90AF9056
:102FC0000895FC01268D878D30E0205C3F4F281B43
:102FD00031092F733070C9010895FC01968D878DDA
:102FE000981719F42FEF3FEF06C0878DE80FF11DFA
:102FF00082A1282F30E0C9010895DC015E969C91E2
:103000005E975F968C915F97981719F42FEF3FEFBB
:1030100010C05F968C915F97FD01E80FF11D92A1A2
:103020005F968C915F978F5F8F735F968C93292F3C
:1030300030E0C9010895DC015D968C915D9788238D
:1030400039F05096ED91FC915197808186FFF9CF30
:103050005D961C920895DC0190968C919097282F94
:1030600030E02F5F3F4F2F73307091968C91919786
:1030700090E028173907C9F390968C919097FD013D
:10308000E80FF11DEE59FF4F608390962C939097B7
:103090005296ED91FC915397208181E090E05B96F0
:1030A0000C905B9702C0880F991F0A94E2F7282BB7
:1030B000208381E05D968C935D975096ED91FC9115
:1030C000519780818064808381E090E00895109220
:1030D00034081092330888EE93E0A0E0B0E08093CB
:1030E000350890933608A0933708B093380884E9E0
:1030F00095E09093320880933108109252088091A5
:103100005208809351081092500880915008809383
:103110004F088DEC90E090933E0880933D088CEC36
:1031200090E09093400880933F0888EC90E0909363
:1031300042088093410889EC90E090934408809382
:1031400043088AEC90E090934608809345088EEC03
:1031500090E0909348088093470884E08093490862
:1031600083E080934A0887E080934B0885E0809352
:103170004C0881E080934D080895CF93DF930E941F
:103180005D1482EE98E00E94FF1C0E946713CAE162
:10319000D7E10E9466132097E1F30E941A17F9CF36
:1031A000CF92DF92EF92FF920F931F93CF93DF9313
:1031B0007C016B018A01C0E0D0E00FC0D6016D91A7
:1031C0006D01D701ED91FC910190F081E02DC701D7
:1031D0000995C80FD91F015010400115110571F74D
:1031E000CE01DF91CF911F910F91FF90EF90DF9073
:1031F000CF900895EF92FF920F931F938C01DC0103
:10320000ED91FC910190F081E02D6DE009957C013C
:10321000D801ED91FC910190F081E02DC8016AE0A8
:1032200009959C012E0D3F1DC9011F910F91FF9023
:10323000EF900895CF93DF93EC016115710519F4B8
:1032400020E030E00FC0DB010D900020E9F711977E
:10325000A61BB70BE881F9810280F381E02DAD0157
:1032600009959C01C901DF91CF9108954F925F921A
:103270007F928F929F92AF92BF92CF92DF92EF9206
:10328000FF920F931F93DF93CF93CDB7DEB7A19734
:103290000FB6F894DEBF0FBECDBF2C01742ECB014C
:1032A000223008F42AE019A231E2C32ED12CCC0E30
:1032B000DD1E822E9924AA24BB24672D752FA5011B
:1032C00094010E942C2379018A01C801B701A5014C
:1032D00094010E94FA22472D461B0894C108D10888
:1032E0004A3014F4405D01C0495CF6014083E114AA
:1032F000F1040105110521F07E2C5F2DC801DDCF01
:10330000C201B6010E941A19A1960FB6F894DEBF49
:103310000FBECDBFCF91DF911F910F91FF90EF9026
:10332000DF90CF90BF90AF909F908F907F905F90F5
:103330004F900895DC012115310541F4ED91FC9188
:103340000190F081E02D642F099508950E943619AF
:103350000895CF92DF92EF92FF920F931F93CF9336
:10336000DF93EC016A017B012115310541F4E8810D
:10337000F9810190F081E02D642F09951FC02A305A
:103380003105D1F477FF17C0E881F9810190F08110
:10339000E02D6DE209958C0144275527BA014C199F
:1033A0005D096E097F09CE012AE00E943619980155
:1033B000280F391F04C02AE00E9436199C01C90158
:1033C000DF91CF911F910F91FF90EF90DF90CF9001
:1033D0000895EF92FF920F931F937C010E94A91909
:1033E0008C01C7010E94FA189C01200F311FC901EE
:1033F0001F910F91FF90EF900895EF92FF920F931E
:103400001F937B019A010027F7FC0095102FB8014C
:10341000A7010E94A9191F910F91FF90EF900895A5
:10342000CF92DF92EF92FF920F931F936C017B017B
:103430009A010027F7FC0095102FB801A7010E9400
:10344000A9198C01C6010E94FA18080F191FC8019A
:103450001F910F91FF90EF90DF90CF9008950E9401
:103460001A1908957F928F929F92AF92BF92CF9236
:10347000DF92EF92FF920F931F93CF93DF934C0154
:103480007A018B01722ECB01BA01A80197010E942B
:10349000F622882321F0C40165E471E021C0C0E078
:1034A000D0E057016801E894D7F8C601B5012FEFC5
:1034B0003FEF4FE75FE70E94F622882351F4C601F1
:1034C000B5012FEF3FEF4FE75FE70E94402118164D
:1034D00014F0C1E0D0E0219739F0C40169E471E053
:1034E0000E941A19EC0193C0C801B7012FEF3FEFFA
:1034F0004FE75FE40E948F22181654F0C801B7010D
:103500002FEF3FEF4FE75FEC0E944021882324F428
:10351000C4016DE471E0E4CFC801B70120E030E000
:1035200040E050E00E94402187FD03C0C0E0D0E0B1
:103530000EC0D401ED91FC910190F081E02DC40109
:103540006DE20995EC0117FB109517F9109520E035
:1035500030E040E05FE3DD240BC0CA01B90120E0A8
:1035600030E040E251E40E9444219B01AC01D3943D
:10357000D71498F3C801B7010E94DC205B016C01ED
:103580000E94B1217B018C01C401B801A7012AE08E
:1035900030E00E949A19C80FD91F772039F0C40172
:1035A00061E571E00E941A19C80FD91FC801B7015F
:1035B0000E94DD219B01AC01C601B5010E94DB2008
:1035C00024C020E030E040E251E40E9493227B01DD
:1035D0008C010E94AC215B016C01CC24B7FCC0942F
:1035E000DC2CC401B601A5012AE030E00E94A91933
:1035F000C80FD91FC601B5010E94DF219B01AC0194
:10360000C801B7010E94DB207A947720D1F6CE0161
:10361000DF91CF911F910F91FF90EF90DF90CF90AE
:10362000BF90AF909F908F907F9008950E94321A24
:1036300008958230B9F0833028F4882351F0813026
:10364000F9F40AC08430B9F0843090F08530C1F4C8
:1036500015C010926E00089580916F008D7F809349
:103660006F000895809170008D7F809370000895A1
:1036700010927100089510927200089510927300D4
:1036800008951F920F920FB60F9211242F933F931C
:103690004F935F936F937F938F939F93AF93BF935A
:1036A000EF93FF938091D3089091D408A091D5080F
:1036B000B091D6080097A105B10551F1E091D70866
:1036C000F091D80880819091D908892780838091D2
:1036D000D3089091D408A091D508B091D6081816B7
:1036E00019061A061B060CF58091D3089091D40890
:1036F000A091D508B091D6080197A109B10980938E
:10370000D3089093D408A093D508B093D6080DC0E1
:1037100083E00E94191BE091D708F091D8089081AE
:103720008091D908809589238083FF91EF91BF9183
:10373000AF919F918F917F916F915F914F913F9149
:103740002F910F900FBE0F901F901895282F8091EA
:10375000DC088823C1F057FF1AC015C02898909341
:10376000DB088091F1008193E217F307B9F7411567
:10377000510539F08091F200882319F48BE680938B
:10378000E800AFBF02C04FEF5FEFCA010895AFB7C7
:10379000F89427702093E9008091F200282F30E000
:1037A000241735070CF4A901FB019B01240F311DDF
:1037B00094E6DACFDF93CF930F92CDB7DEB7BE0199
:1037C0006F5F7F4F41E050E00E94A61B019719F008
:1037D0002FEF3FEF03C08981282F30E0C9010F9000
:1037E000CF91DF910895FF920F931F93F82E142F1E
:1037F000052F4091DF085091E008212F302FC9019B
:10380000DC01FB016EEF29C0F7FE02C0949101C0FC
:1038100090812091DD083091DE0824173507ACF443
:103820008091E8008570E1F38091E80082FF03C099
:103830002FEF3FEF17C09093F100C90101968F73EE
:103840009070892B11F46093E8002F5F3F4F309305
:10385000DE082093DD08119731961097A9F6812F85
:10386000902F9C01C9011F910F91FF9008951F9304
:10387000782FE92F162F2091DD083091DE08A091D6
:10388000DF08B091E0082A173B07C4F48091E800F4
:103890008570E1F38091E80082FD16C0812F90E0F1
:1038A0000196880F991F8093F100C90101968F73CB
:1038B0009070892B19F48EEF8093E8002F5F3F4FB3
:1038C0003093DE082093DD082091DD083091DE087A
:1038D0002A173B07A4F48091E8008570E1F38091FA
:1038E000E80082FD12C083E08093F100C9010196D7
:1038F0008F739070892B19F48EEF8093E8002F5FFF
:103900003F4F3093DE082093DD084091DD08509151
:10391000DE08872F9E2FFC0170E06EEF43C094916C
:103920004A175B07A4F48091E8008570E1F3809169
:10393000E80082FF02C020E00DC09093F100CA01B0
:1039400001968F739070892B11F46093E8004F5F9C
:103950005F4F21E04A175B07A4F48091E80085706F
:10396000E1F38091E80082FF02C080E00DC0109278
:10397000F100CA0101968F739070892B11F4609346
:10398000E8004F5F5F4F81E0319690E030E08223A6
:103990009323892B31F45093DE084093DD0880E0B7
:1039A00009C07F5F711708F4BACF5093DE084093C7
:1039B000DD0881E01F9108959C018091E80082FF5D
:1039C000FCCFF901260F311D03C08091F1008193D6
:1039D000E217F307D1F7289884E68093DB088BEF92
:1039E0008093E800CB0108958093E9008091F20074
:1039F000882319F08AE38093E800089508951092CF
:103A0000DC0881E08093D70080EA8093D80082E1CF
:103A100089BD09B400FEFDCF61E070E080E090E078
:103A20000E94B31480E98093D8008CE08093E20078
:103A30001092E000559A209A08955F926F927F92BB
:103A40008F929F92AF92BF92CF92DF92EF92FF92AE
:103A50000F931F93CF93DF93E82E842E752E8091C2
:103A6000DC08882371F18B01242F352FC901EC016B
:103A7000AAEFFA2EF7E09F2E9E20E0E45E2E8E2D18
:103A800090E070E2A72EB12CA822B9226AE3662E3C
:103A900050E4C52ED12CC822D92258C09FB7F89423
:103AA0009092E9008091E80085FD02C020E004C00A
:103AB0008091F200252D281B9FBF222361F4FA94E8
:103AC00019F42FEF3FEF4DC061E070E080E090E02F
:103AD0000E94B3143BC0822F90E0C817D9070CF4A2
:103AE0002C2FC21BD1094FB7F8949092E900A11472
:103AF000B10421F406C01092F10021502223D9F71D
:103B000019C0E7FC03C0F801922F10C0C801322F82
:103B100006C0FC010196E491E093F100315033239B
:103B2000C1F706C081918093F10091509923D1F79C
:103B3000020F111D8091E80085FF05C0209729F430
:103B4000C114D10411F06092E8004FBF209709F032
:103B5000A5CF5D9884E68093DA08282D372DC9011A
:103B60009C01C901DF91CF911F910F91FF90EF90C0
:103B7000DF90CF90BF90AF909F908F907F906F908D
:103B80005F9008951F920F920FB60F9211242F93FA
:103B90003F934F935F936F937F938F939F93AF93D5
:103BA000BF93EF93FF938091E1001092E100982F73
:103BB00083FF0FC01092E90081E08093EB00109228
:103BC000EC0082E38093ED001092DC0888E08093A3
:103BD000F00092FF34C083E08093E9008091F2000E
:103BE000882319F08AE38093E8008FB7F89492E075
:103BF0009093E9009091F2008FBF992321F083EE1A
:103C000097E00E9459168091DA08882351F080913C
:103C1000DA0881508093DA088091DA08882309F461
:103C20005D9A8091DB08882351F08091DB088150F8
:103C30008093DB088091DB08882309F4289AFF91A0
:103C4000EF91BF91AF919F918F917F916F915F9114
:103C50004F913F912F910F900FBE0F901F9018958D
:103C60000F931F93DF93CF930F92CDB7DEB71982D7
:103C70008E010F5F1F4FC8010E948016C8010E946D
:103C8000CF20898190E00F90CF91DF911F910F910C
:103C900008951F920F920FB60F921124EF92FF9288
:103CA0001F932F933F934F935F936F937F938F93C4
:103CB0009F93AF93BF93EF93FF93DF93CF93CDB7D2
:103CC000DEB76197DEBFCDBF1092E9008091E800BA
:103CD00083FF14C1FE0131969E01275F3F4F03C051
:103CE0008091F1008193E217F307D1F7289884E6D9
:103CF0008093DB0882EF8093E800998197FF05C0ED
:103D00008091E80080FFFCCF03C08EEF8093E80035
:103D1000292F30E0C90180769070892B09F0C7C047
:103D20008A81882329F41092F1001092F100DBC0FF
:103D3000813009F4D8C0833009F4D5C0853049F406
:103D40008091E80080FFFCCF8B8180688093E30046
:103D5000CAC0863009F081C01C81EF80F88412301F
:103D6000C1F51092E9001092DE081092DD08109261
:103D7000E0081092DF080E94301E99E0FE0139969B
:103D8000DF01292F1D922A95E9F799871A8791E07B
:103D90009E8790E8988B9AEF998B2091DD0830915F
:103DA000DE08275F3F4F3C872B878D871092E90005
:103DB0001092DE081092DD08F092E008E092DF0831
:103DC00080E0BF0149E050E00E94F31B0E94301EDA
:103DD0008AC01092E9001092DE081092DD08F0927D
:103DE000E008E092DF08123241F482E290E00E94A3
:103DF000C720892B09F47BC076C0113079F488E0A4
:103E0000E816F10419F481E08093E1088091E1085B
:103E1000882309F070C0EAE9F6E018C0133009F011
:103E200066C08B81882319F4E9E7F6E00FC0823081
:103E300021F48DE796E060E106C0813009F057C0BB
:103E40008EE896E06BE00E94371C4BC0449180E8FE
:103E5000BF0150E00E94F31B46C0873009F447C001
:103E6000883021F481E08093F1003DC08930D9F59C
:103E700023703070232BD9F5EFEBF6E091E031E0C1
:103E800026E39093E9003093EB0084918093EC005B
:103E90002093ED009F5F3196953099F78EE78093E0
:103EA000EA001092EA008B818093DC081CC08F81AD
:103EB00098851092E9001092DE081092DD08909328
:103EC000E0088093DF088D81882329F4CE010196D4
:103ED0000E948C1606C0823051F4CE0101960E94D9
:103EE000981F882321F08EEF8093E80007C081E2BD
:103EF0008093EB0003C0ECEAF6E0A8CF6196DEBF4A
:103F0000CDBFCF91DF91FF91EF91BF91AF919F9185
:103F10008F917F916F915F914F913F912F911F9161
:103F2000FF90EF900F900FBE0F901F90189508957F
:103F3000FC0191818081813A31F4913089F080E0F7
:103F4000933089F40DC0813269F49B3021F4828171
:103F500080935C0505C09A3029F4828180935D05C9
:103F600081E0089580E00895EF92FF920F931F93F0
:103F70008C01E62EDC01ED91FC910480F581E02DB1
:103F80000995F82ED801ED91FC910680F781E02D7E
:103F9000C8016E2D09958F2D90E01F910F91FF9014
:103FA000EF9008951092E3081092E7081092E60847
:103FB00084EA95E09093E5088093E4080895EF92F1
:103FC000FF920F931F93DF93CF930F92CDB7DEB77E
:103FD00089838B017A0184E0BE016F5F7F4F41E0EE
:103FE00050E00E941D1D84E4B801A7010E941D1D20
:103FF0000F90CF91DF911F910F91FF90EF90089557
:1040000082E048E050E00E94DF1F0895FC01168224
:104010001782108611861286138614823496BF0189
:104020000E9400200895DC01683810F0685829C00B
:10403000E62FF0E067FF13C0E058F04081E090E029
:1040400002C0880F991FEA95E2F7809514962C918B
:104050001497282314962C93149760E012C0EF5BFA
:10406000F84F6491662319F420E030E01DC067FF2B
:1040700008C014968C9114978D7F14968C93149786
:104080006F77FD0190E0662321F08681861709F4A1
:1040900016829F5F31969630B1F7CD011496BD011F
:1040A0000E94002021E030E0C9010895CF93DF9302
:1040B000DC01683810F0685825C0E62FF0E067FF93
:1040C00012C0E058F04081E090E002C0880F991FD4
:1040D000EA95E2F714962C911497282B14962C93BA
:1040E000149760E00FC0EF5BF84F64916623D9F13D
:1040F00067FF08C014968C911497826014968C9375
:1041000014976F7716968C9116978617A9F11796C4
:104110008C911797861781F118968C9118978617AE
:1041200059F119968C911997861731F11A968C913D
:104130001A97861709F11B968C911B978617E1F049
:10414000ED01E0E0F0E09E2F8E81882321F4EA0F5C
:10415000FB1F668306C09F5F31962196E630F1050E
:1041600091F7963049F481E090E013969C938E93FA
:10417000129720E030E007C0CD011496BD010E94E7
:10418000002021E030E0C901DF91CF91089580E85F
:1041900063EC76E045E650E00E94F31B0895FC01D5
:1041A00080818F5F808380E868E277E049E150E0BA
:1041B0000E94F31B08955058BB27AA270ED075C143
:1041C00066D130F06BD120F031F49F3F11F41EF432
:1041D0005BC10EF4E095E7FB51C1E92F77D180F385
:1041E000BA17620773078407950718F071F49EF5F4
:1041F0008FC10EF4E0950B2EBA2FA02D0B01B90143
:1042000090010C01CA01A0011124FF27591B99F04C
:10421000593F50F4503E68F11A16F040A22F232F58
:10422000342F4427585FF3CF469537952795A795A8
:10423000F0405395C9F77EF41F16BA0B620B730B4F
:10424000840BBAF09150A1F0FF0FBB1F661F771FC0
:10425000881FC2F70EC0BA0F621F731F841F48F475
:10426000879577956795B795F7959E3F08F0B3CFFB
:104270009395880F08F09927EE0F979587950895E5
:10428000D9D008F481E008950CD00FC107D140F0D7
:10429000FED030F021F45F3F19F0F0C0511139C168
:1042A000F3C014D198F39923C9F35523B1F3951BA7
:1042B000550BBB27AA2762177307840738F09F5F47
:1042C0005F4F220F331F441FAA1FA9F333D00E2EB6
:1042D0003AF0E0E830D091505040E695001CCAF723
:1042E00029D0FE2F27D0660F771F881FBB1F2617E8
:1042F00037074807AB07B0E809F0BB0B802DBF01BB
:10430000FF2793585F4F2AF09E3F510568F0B6C0D3
:1043100000C15F3FECF3983EDCF386957795679597
:10432000B795F7959F5FC9F7880F911D969587956B
:1043300097F90895E1E0660F771F881FBB1F62178A
:1043400073078407BA0720F0621B730B840BBA0B48
:10435000EE1F88F7E095089504D06894B111D9C094
:104360000895BCD088F09F5790F0B92F9927B75186
:10437000A0F0D1F0660F771F881F991F1AF0BA9529
:10438000C9F712C0B13081F0C3D0B1E00895C0C008
:10439000672F782F8827B85F39F0B93FCCF386951F
:1043A00077956795B395D9F73EF49095809570957C
:1043B00061957F4F8F4F9F4F0895E89409C097FBF9
:1043C0003EF490958095709561957F4F8F4F9F4FEC
:1043D0009923A9F0F92F96E9BB279395F695879530
:1043E00077956795B795F111F8CFFAF4BB0F11F4F3
:1043F00060FF1BC06F5F7F4F8F4F9F4F16C088239A
:1044000011F096E911C0772321F09EE8872F762FCF
:1044100005C0662371F096E8862F70E060E02AF010
:104420009A95660F771F881FDAF7880F96958795FC
:1044300097F90895990F0008550FAA0BE0E8FEEFD1
:1044400016161706E807F907C0F012161306E40758
:10445000F50798F0621B730B840B950B39F40A2651
:1044600061F0232B242B252B21F408950A2609F42F
:10447000A140A6958FEF811D811D089597F99F6733
:1044800080E870E060E008959FEF80EC08950024DC
:104490000A941616170618060906089500240A94A9
:1044A00012161306140605060895092E0394000C2F
:1044B00011F4882352F0BB0F40F4BF2B11F460FFBE
:1044C00004C06F5F7F4F8F4F9F4F089557FD9058E7
:1044D000440F551F59F05F3F71F04795880F97FBC8
:1044E000991F61F09F3F79F0879508951216130682
:1044F0001406551FF2CF4695F1DF08C016161706B1
:104500001806991FF1CF86957105610508940895E5
:10451000E894BB2766277727CB0197F908958ADFB0
:1045200008F48FEF08950BD0C0CFB1DF28F0B6DFCD
:1045300018F0952309F0A2CFA7CF1124EACFC6DF48
:10454000A0F3959FD1F3950F50E0551F629FF001A6
:10455000729FBB27F00DB11D639FAA27F00DB11DFF
:10456000AA1F649F6627B00DA11D661F829F222788
:10457000B00DA11D621F739FB00DA11D621F839F0F
:10458000A00D611D221F749F3327A00D611D231FE5
:10459000849F600D211D822F762F6A2F11249F5733
:1045A00050408AF0E1F088234AF0EE0FFF1FBB1F56
:1045B000661F771F881F91505040A9F79E3F5105F5
:1045C00070F05CCFA6CF5F3FECF3983EDCF38695AE
:1045D00077956795B795F795E7959F5FC1F7FE2BA0
:1045E000880F911D9695879597F9089523DF880B7D
:1045F000990B0895629FD001739FF001829FE00D97
:10460000F11D649FE00DF11D929FF00D839FF00D51
:10461000749FF00D659FF00D9927729FB00DE11DFD
:10462000F91F639FB00DE11DF91FBD01CF011124DA
:10463000089597FB092E07260AD077FD04D02ED0C7
:1046400006D000201AF4709561957F4F0895F6F713
:10465000909581959F4F0895A1E21A2EAA1BBB1B2E
:10466000FD010DC0AA1FBB1FEE1FFF1FA217B3073E
:10467000E407F50720F0A21BB30BE40BF50B661F54
:10468000771F881F991F1A9469F760957095809518
:1046900090959B01AC01BD01CF010895AA1BBB1BE6
:1046A00051E107C0AA1FBB1FA617B70710F0A61B32
:1046B000B70B881F991F5A95A9F780959095BC0153
:1046C000CD010895EE0FFF1F0590F491E02D0994A0
:0446D000F894FFCF8C
:1046D4004D6F746F72200020726F746174652C20AA
:1046E4006469723D20002C2073746570733D200052
:1046F400626173653A20002C2072656D61696E6495
:1047040065723A2000526563656976656420436F7B
:1047140064653A20006E616E00696E66006F7666AD
:10472400002E000000000000000000000000000057
:104734000000000000000000000000000000000075
:104744000000000000000000000000000000000065
:104754000000000000000000000000000000000055
:104764000000000000000000000000000000000045
:104774000000000000000000000000000000000035
:104784000000000000000000000000000000000025
:104794000000000000000000000000000000000015
:1047A40000000000000000000000000101010303FC
:1047B40007070F0F0F0F0F0F070301000000000082
:1047C40000000000000000000000000000000000E5
:1047D40000000000000000000000000000000000D5
:1047E40000000000000000000000000000000000C5
:1047F40000000000000000000000000000000000B5
:1048040000000000000000000000000000000000A4
:104814000000000000010F0700000000000000007D
:1048240000000003070F3F7F7FFFFFFFFFFFFFFF35
:10483400FFFFFFFFFFFEFEFCFCFCFC780000000015
:104844000000000000000000000000000000000064
:104854000000000000000000000000000000000054
:104864000000000000000000000000000000000044
:104874000000000000000000000000003FFFFFFFF8
:10488400FFFFFFFF3800000000000183E1F37B7F9E
:104894003F3F1F1F3FFFFFFF1F3F7F7FFFE7C7878C
:1048A40002020280E0F0F8F8F8FCFEFEFFFFFFFFD2
:1048B400FFFFFFFF1F0F07070303010000000000B5
:1048C40000060F1F1F1F1F3F3F3F3F3F3F3F3F1F3C
:1048D4001F0F0F070300003F3F3F3F3F3F3F3F3F56
:1048E4003F3F3F3F1F1F0F07000000003F3F3F3F78
:1048F4003F1F0F1F1F1F1F1E1F1F1F0EFFFFFFFF46
:10490400FFFFFFFF030307070F1F1F1F0E04808015
:10491400808087CFCFDFDFDFDFE0E0E0E0E0F07032
:104924007030000000000000000000000000008063
:1049340080C0C1E1E1F1F3FFFFFFFFFFFFFF7F3F15
:104944000F00FFFFFFFFFFFF1F0307070F0F0FBF3E
:10495400FFFFFFFEF8F0070F1F1F1F3F3F3C3C38CF
:104964003838FFFFFFFFFFFFFF000000FFFFFFFFDE
:10497400FFFFFF800000000000000000C0FFFFFFF9
:10498400FFFFFFFFFFFFDF8F8F0F07030100000012
:10499400003FFFFFFFFFFFF8C00000000000000021
:1049A4000000000000000F7FFFFFFFFFFFFFFFFF7D
:1049B400FFFFFFFFFFFEFEFEFCFCF8F8F0F0E0C096
:1049C4008000C0FFFFFFFFFFFFFFF7F0F0E0C0C073
:1049D40080800000000080E0E0E0F0F0F0F0F0F013
:1049E400F0F0F0F0F0F0F0F0F0000000F0F0F0F093
:1049F400F0F0F000000000000000000000F0F0F013
:104A0400F0F0F0C0008080C0E0E0E0E0E0000000F2
:104A1400F0F0F0F0F0F08000000000000000000072
:104A24000000000000008080808080808080808082
:104A34000000000000000000000000000000000072
:104A440000000000E0FCFCFCFCFCF8F83000000076
:104A54000000000000000000000000000000000052
:104A64000000000000000000000000000000000042
:104A74000000000000000000000000000000000032
:104A84000000000000000000000000000000000022
:104A94000000000000000000000000000000000012
:104AA4000000000000000000000000000000000002
:104AB40000000000000000000000000000000000F2
:104AC40000000000000000000000000000000000E2
:104AD40000000000000000000000000000000000D2
:104AE40000000000000000000000000000000000C2
:104AF40000000000000000000000000000000000B2
:104B040000000000000000000000000000000000A1
:104B14000000000000000000000000000000000091
:104B2400000000FA00E1000000000000010103029F
:104B340001000706050400000000300925090000F3
:104B44000000941063101C1025103A104B10000044
:104B540000002D16D018DC15F815E8155516591651
:104B6400000000002B18D018E117FD17ED171B18D3
:0E4B740000000000B41FD018562013200620A9
:00000001FF
