:100000000C94E7030C940F040C940F040C940F044D
:100010000C940F040C940F040C940F040C94890995
:100020000C940F040C940F040C94F7160C947E1788
:100030000C940F040C940F040C940F040C940F04F4
:100040000C940F040C940F040C940F040C940F04E4
:100050000C940F040C940F040C940F040C94430F95
:100060000C940F040C9437120C947E120C940F0411
:100070000C940F040C940F040C940F040C940F04B4
:100080000C9476140C94B3040C940F040C940F0489
:100090000C948F0D0C940F040C94C6040C940F0454
:1000A0000C940F040C940F040C940F040000000037
:1000B000007CDAF2DA7C7CD6F2D67C387C3E7C3866
:1000C000183C7E3C1838EABEEA38387AFE7A3800A6
:1000D000183C1800FFE7C3E7FF0018241800FFE7EB
:1000E000DBE7FF0C125C607064949E946402FEA0D7
:1000F000A0E002FEA0A4FC5A3CE73C5AFE7C383843
:10010000101038387CFE2844FE4428FAFA00FAFA27
:100110006090FE80FE006691A95606060606062936
:1001200045FF452910207E201008047E0408101089
:1001300054381010385410107808080808307830F7
:1001400078300C1C7C1C0C60707C7060000000001F
:10015000000000FA000000E000E00028FE28FE2871
:100160002454FE5448C4C81026466C926A040A00FF
:1001700010E0C00000384482000082443800543847
:10018000FE385410107C101000010E0C00101010DE
:100190001010000006060004081020407C8A92A27D
:1001A0007C0042FE02004E92929262848292B2CC15
:1001B000182848FE08E4A2A2A29C3C5292928C828B
:1001C000848890E06C9292926C6292929478000093
:1001D00028000000022C0000001028448228282853
:1001E0002828008244281040809A90607C82BA9A25
:1001F000723E4888483EFE9292926C7C8282824493
:10020000FE8282827CFE92929282FE909090807C0E
:1002100082828ACEFE101010FE0082FE820004024E
:1002200082FC80FE10284482FE02020202FE403858
:1002300040FEFE201008FE7C8282827CFE90909020
:10024000607C828A847AFE90989462649292924C46
:10025000C080FE80C0FC020202FCF8040204F8FC2C
:10026000021C02FCC6281028C6C0201E20C0869A88
:1002700092B2C200FE828282402010080400828274
:1002800082FE2040804020020202020200C0E010F4
:1002900000042A2A1E02FE1422221C1C22222214DE
:1002A0001C222214FE1C2A2A2A1800107E904018B4
:1002B0002525391EFE1020201E0022BE0200040249
:1002C00002BC00FE081422000082FE02003E201E36
:1002D000201E3E1020201E1C2222221C3F182424F7
:1002E00018182424183F3E10202010122A2A2A24ED
:1002F0002020FC22243C0202043E38040204383C44
:10030000020C023C2214081422320909093E22265A
:100310002A322200106C82000000EE000000826C85
:10032000100040804020403C64C4643C7885858651
:10033000485C0202045E1C2A2AAA9A84AAAA9E8207
:10034000842A2A1E8284AA2A1E02042AAA9E023015
:10035000784A4E489CAAAAAA9A9C2A2A2A9A9CAA17
:100360002A2A1A0000A23E820040A2BE420080A2B9
:100370003E020F9424940F0F14A4140F3E2AAAA235
:1003800000042A2A3E2A3E5090FE924C9292924CB1
:100390004C1212124C4C5212120C5C8282845E5C23
:1003A0004202041E00B90505BE9C2222229CBC020A
:1003B0000202BC3C24FF2424127E92C266D4F43F85
:1003C000F4D4FF90946F0403117E90C0042A2A9EF7
:1003D00082000022BE820C1212524C1C0202445EA9
:1003E000005E50504EBEB0988CBE649494F4146479
:1003F000949494640C12B202041C1010101010108B
:1004000010101CF40813355DF408142C5F0000DE96
:100410000000102854284444285428105500AA00ED
:100420005555AA55AA55AA55AA55AA000000FF007D
:10043000080808FF00282828FF000808FF00FF0818
:10044000080F080F2828283F002828EF00FF000089
:10045000FF00FF28282F203F2828E808F80808F880
:1004600008F8282828F8000808080F00000000F8FD
:1004700008080808F8080808080F08000000FF0826
:100480000808080808080808FF08000000FF2800FE
:1004900000FF00FF0000F808E800003F202F282898
:1004A000E808E828282F202F0000FF00EF28282840
:1004B00028282828EF00EF282828E8280808F80826
:1004C000F82828282F2808080F080F0000F808F837
:1004D000000000F8280000003F2800000F080F0867
:1004E00008FF08FF282828FF28080808F80000004F
:1004F000000F08FFFFFFFFFF0F0F0F0F0FFFFFFFA2
:100500000000000000FFFFF0F0F0F0F01C22221CC1
:10051000223E54547C287E40406060407E407E40B5
:10052000C6AA9282C61C22223C20027E0478046065
:10053000407E404099A5E7A5993854925438324EF0
:10054000804E320C52B2B20C0C121E120C3D465AA6
:1005500062BC7C929292007E8080807E545454547F
:10056000542222FA2222028A5222020222528A02B1
:100570000000FF80C00701FF00001010D6D6106CED
:10058000486C246C60F090F06000001818000000C7
:100590000808000C02FF808000F88080780098B87E
:1005A000E848003C3C3C3C00000000240027002AB6
:1005B000002D00300000000000250028002B002E38
:1005C000003100000000002300260029002C002F2D
:1005D00000040404040403040502020202040302EA
:1005E00002020206060606060604040202020404CB
:1005F0000802011040804010204080408008020422
:1006000001804020100201108010204040000000B6
:100610000200080E0000030401000B0000000000AF
:1006200000000000000000000000000706050401B3
:1006300000080A0B0C0D09080B0002020201000958
:10064000040000010202000005240010010524013D
:100650000101042402060524060001070581031098
:10066000004009040100020A0000000705020240E0
:10067000000007058302400000040309044172647E
:1006800075696E6F204C656F6E6172646F004172A8
:100690006475696E6F204C4C43001201000200002B
:1006A00000404123368000010102000112010002D6
:1006B000020000404123368000010102000100C118
:1006C0008081C105010902A1010901A1008501057F
:1006D000091901290315002501950375018102956A
:1006E0000175058103050109300931093815812596
:1006F0007F750895038106C0C005010906A1018523
:1007000002050719E029E715002501750195088103
:100710000295017508810395067508150025650584
:1007200007190029658100C00904020001030000C7
:100730000009210101000122650007058403400032
:100740000100000000000000002A2B28000000002B
:100750000000000000000000000000000000000099
:10076000002C9EB4A0A1A2A434A6A7A5AE362D3716
:1007700038271E1F20212223242526B333B62EB767
:10078000B89F8485868788898A8B8C8D8E8F90917F
:1007900092939495969798999A9B9C9D2F3130A30C
:1007A000AD350405060708090A0B0C0D0E0F1011D4
:1007B00012131415161718191A1B1C1DAFB1B0B55A
:1007C0000000C00B060C6A11BB1333160719112465
:1007D0001FBECFEFDAE0DEBFCDBF15E0A0E0B1E095
:1007E000E0E9F8E302C005900D92AC35B107D9F706
:1007F00018E0ACE5B5E001C01D92A839B107E1F7FA
:1008000017E0CEECD7E004C02297FE010E94421C04
:10081000C23CD107C9F70E9411140C94461C0C94D9
:100820000000FB01DC0102C001900D9241505040DC
:10083000D8F708956817790768F4FB01DC01E40F25
:10084000F51FA40FB51F02C002900E9241505040F8
:10085000D8F708950C94110421E030E00CC000009A
:10086000000000000000000000009F5F9A35B9F70B
:100870002150304011F090E0F2CF3C9A8093BB00C1
:1008800084E88093BC0008952FB7F894A0E8B0E006
:100890001C92E1E8F0E080E1808380E29EE49093A6
:1008A0008700809386008081887F8083808182603A
:1008B0008083219A8C9180688C9378942FBF0895BF
:1008C000EF92FF920F931F938C017B010E944404CF
:1008D000F801668D772767FD70956E197F09882767
:1008E00077FD8095982F0E94101B20E030E04AEFA2
:1008F00054E40E949C1B20E030E044E353E40E9457
:10090000751A20E030E84BEB54E40E94111A20E005
:1009100030E44CE956E40E94751A20E030E040E8EB
:1009200054E40E949C1B0E94DD1A882777FD809565
:10093000982F20E23EE440E050E00E94FF1B2FB7DA
:10094000F8943AE096958795779567953A95D1F71B
:1009500070938900609388002FBF78941F910F9146
:10096000FF90EF9008951F920F920FB60F921124EF
:100970008F938BB180588BB9109295001092940090
:100980008F910F900FBE0F901F9018951F920F928E
:100990000FB60F921124EF92FF920F931F932F9394
:1009A0003F934F935F936F937F938F939F93AF93F7
:1009B000BF93CF93DF93EF93FF931092BF001092FA
:1009C000BE0010925E0610925F0620916106309183
:1009D00062068091630690E02817390728F4809119
:1009E0005F06816080935F06209161063091620608
:1009F0008091640690E02817390728F480915F06FB
:100A0000826080935F06209161063091620680913A
:100A1000650690E02817390728F480915F06846006
:100A200080935F0680916106909162060196909393
:100A30006206809361068091610690916206843619
:100A4000910521F41092620610926106809166066B
:100A5000882371F480915F06877F80935F0640E072
:100A600050E0F8E0FF2E0FEF1FEFE7E0EE2E04C09E
:100A700080915F068860F1CFFA01EE0FFF1FEE0F45
:100A8000FF1F9F012959394FE90188819981AA8166
:100A9000BB81EA01CC0FDD1F0297A105B10508F467
:100AA00043C0BE016D58794FFB0180819181892B34
:100AB000A1F5DA01A758B94F8C91FA01E458F94F22
:100AC0009081890F8C93F90180819181A281B381FA
:100AD0000197A109B10980839183A283B383FA01AD
:100AE000E158F94F2081CA01A3E0880F991FAA9508
:100AF000E1F7C80FD91FC20FD11DCE57D94F88813A
:100B000090E0DB0111969C938E9380818F5F8083B0
:100B100080818A30E8F010821BC0EB0188819981C6
:100B200001979983888314C0D9011D921D921D924B
:100B30001C921397E056F94F108211821282138291
:100B4000FA01E758F94FF082CD58D94F198308833D
:100B5000FA01E758F94F8081883014F0108203C001
:100B6000808187FDE082FA01EE0FFF1FEE0FFF1F6D
:100B7000E056F94F80819181A281B3810097A10550
:100B8000B10521F4FA01E758F94FF0824F5F5F4F4A
:100B90004330510509F070CF90915E06E0917A06DE
:100BA000FF27E7FDF095E455F94F8081982B90934E
:100BB0005E0690915E06E0917B06FF27E7FDF095CB
:100BC000EB54F94F8081982B90935E0690915F06CD
:100BD000E0917906FF27E7FDF095EB54F94F80810E
:100BE000982B90935F065D9880915F068EBD0DB443
:100BF00007FEFDCF8EB580915E068EBD0DB407FE5B
:100C0000FDCF8EB55D9AFF91EF91DF91CF91BF91AE
:100C1000AF919F918F917F916F915F914F913F9194
:100C20002F911F910F91FF90EF900F900FBE0F909B
:100C30001F901895CF93DF93962F50E0BA017695C9
:100C4000762F66277795679585E028029001112415
:100C5000892F60507F4FE9012596F901E455FF4F38
:100C6000E491DB01A80FB11DEC938F5F2F5F3F4F25
:100C70002C173D0791F7292F2B5F342F330F330F9C
:100C8000330F692F665F4F5F5F4F440F440F440F70
:100C900080915A06281710F420935A0680915B061B
:100CA000861710F460935B0680915C06381710F489
:100CB00030935C0680915D06841710F440935D06C6
:100CC000DF91CF9108950F931F93062F142F3C9A15
:100CD00084EA8093BC0020E030E08091BC0087FD76
:100CE00038C02A353105A9F12F5F3F4FF6CF8091EB
:100CF000BC0087FD35C02A35310591F12F5F3F4F8C
:100D0000F6CF8091BC0087FD31C02A35310571F1E5
:100D10002F5F3F4FF6CF8091BC0087FD33C02A354F
:100D2000310581F12F5F3F4FF6CF8091BC0087FDE9
:100D300032C02A35310579F12F5F3F4FF6CF8091D0
:100D4000BC0087FD2DC02A35310551F12F5F3F4F83
:100D5000F6CF812F880F0E942C0420E030E0C7CF0F
:100D6000802F0E942C0420E030E0CBCF3C9A84EA14
:100D70008093BC00110F812F81600E942C0420E021
:100D800030E0C9CF8091BC008F70806C8093BC0034
:100D900020E030E0CACF9091BB0020E030E0CFCF20
:100DA00084E98093BC008091BC008B7F8093BC0061
:100DB0008091BC0084608093BC00892F1F910F91AB
:100DC00008950F931F93162F042F3C9A84EA809363
:100DD000BC0040E050E08091BC0087FD24C04A3553
:100DE000510509F14F5F5F4FF6CF8091BC0087FD41
:100DF00021C02A353105F1F02F5F3F4FF6CF8091AA
:100E0000BC0087FD1DC02A353105D1F02F5F3F4F53
:100E1000F6CF8091BC0087FD19C02A353105B1F0AD
:100E20002F5F3F4FF6CF822F880F0E942C0420E0C7
:100E300030E0DBCF812F0E942C0420E030E0DFCFB8
:100E4000802F0E942C0420E030E0E3CF84E98093DF
:100E5000BC001F910F910895CF93DF93EC016DE0DB
:100E60004DE10E9463068A3219F02FEF3FEF37C041
:100E7000CE016AE24DE10E946306482F4E7FCE010B
:100E80006AE22DE10E94E106CE016EE040E02DE134
:100E90000E94E106CE016AE24DE10E946306482FFE
:100EA000477CCE016AE22DE10E94E106CE016AE2B2
:100EB0004DE10E946306482FCE016AE22DE10E94B7
:100EC000E106CE016AE24DE10E946306482F4160CF
:100ED000CE016AE22DE10E94E10621E030E0C90185
:100EE000DF91CF9108951F93162FF8945D9A81E1B9
:100EF00060E00E94FC101EBD0DB407FEFDCF81E135
:100F000061E00E94FC1078941F910895FF920F9366
:100F10001F938C01F62E84E061E00E94FC10C80152
:100F20006F2D0E9473071F910F91FF900895FF92FC
:100F30000F931F938C01F62E84E060E00E94FC105A
:100F4000C8016F2D0E9473071F910F91FF900895A4
:100F50008F929F92AF92BF92CF92DF92EF92FF92C9
:100F60000F931F93CF93DF93EC017BE0872E75E007
:100F7000972E20E030E0AA24BB2468E0C62ED12CB6
:100F8000C20ED31E80915C0690E08C159D05D4F5B1
:100F900080915D0690E0821793070CF440C0F40145
:100FA0006081606BCE010E94970710915A060091F4
:100FB0005B06612F6F5F6F70CE010E949707612FF4
:100FC00070E06F5F7F4F54E0759567955A95E1F734
:100FD0006F706061CE010E949707CE0160EE0E94A3
:100FE000970740E0E42E41E0F42EEA0CFB1C08C019
:100FF000F701E10FF11DCE0160810E9486071F5F9E
:101000000117B0F70894811C911C80E890E0A80EAD
:10101000B91E90E4C916D10411F09601AECF8FE746
:1010200080935A0610925B068FE380935C061092C1
:101030005D06DF91CF911F910F91FF90EF90DF90B0
:10104000CF90BF90AF909F908F900895EF92FF92B6
:101050001F937C01162F61E80E9497071F73C70139
:10106000612F0E9497071F91FF90EF900895CF93F3
:10107000DF93EC0184E061E00E946F108CE061E09E
:101080000E946F1081E161E00E946F1081E160E0D9
:101090000E94FC1088EE93E020E931E0F9013197DD
:1010A000F1F70197D9F78CE060E00E94FC1088EE20
:1010B00093E020E931E0F9013197F1F70197D9F791
:1010C0008CE061E00E94FC10CE0163EA0E94970769
:1010D000CE0161EA0E949707CE0160EC0E9497075B
:1010E000CE0160E60E949707CE016CE20E9497074E
:1010F00084EF91E020E931E0F9013197F1F70197B0
:10110000D9F7CE016EE20E94970784EF91E020E9C3
:1011100031E0F9013197F1F70197D9F7CE016FE28C
:101120000E94970780E49CE90197F1F7CE0166E2FF
:101130000E94970780915A06882311F010925A0650
:1011400080915B068F3718F48FE780935B06809160
:101150005C06882311F010925C0680915D068F3347
:1011600018F48FE380935D06DF91CF9108958FE0AF
:1011700061E00E946F1080E161E00E946F1081E1E8
:1011800061E00E946F108FE060E00E94FC1080E13F
:1011900060E00E94FC1081E161E00E94FC108CB5CF
:1011A00080618CBD8CB580648CBD8CB58C7F8CBD12
:1011B0008DB581608DBD08950F931F938C010E94A2
:1011C000B708C8010E943708C8016FEA0E94970754
:1011D000C80164EA0E949707C80160E00E942608DF
:1011E0001F910F91089580E091E060E871E040E880
:1011F00053E00E941A0480E8E0E8F4E0DF011D9269
:101200008A95E9F780915A06882311F010925A06C0
:1012100080915B068F3718F48FE780935B0680918F
:101220005C06882311F010925C0680915D068F3376
:1012300018F48FE380935D060895CF92DF92EF92CA
:10124000FF920F931F93CF93DF938C016B017A0171
:10125000C0E0D0E034C0F601EC0FFD1F20812A3041
:1012600041F4809159068F5F809359061092580679
:1012700019C02D30B9F0C801609158064091590647
:101280000E941A06809158068A5F8093580690E063
:101290008A3791053CF010925806809159068F5F6D
:1012A0008093590680915906883040F0C8010E9409
:1012B000F308809159068150809359062196CE15E6
:1012C000DF0548F2DF91CF911F910F91FF90EF90D2
:1012D000DF90CF9008950F931F93142F052F0E9436
:1012E0001D09812F902F1F910F910895DF93CF93A8
:1012F0000F92CDB7DEB76983BE016F5F7F4F41E0CC
:1013000050E00E941D0981E090E00F90CF91DF91A5
:1013100008951F920F920FB60F921124EF92FF9231
:101320000F931F932F933F934F935F936F937F93ED
:101330008F939F93AF93BF93EF93FF9380912D066D
:10134000813009F469C00E948B0F9B01AC018CB104
:10135000682F70E0607470708091600590916105F5
:10136000A0916205B091630579018A01E81AF90A32
:101370000A0B1B0BE0925C05F0925D0500935E0585
:1013800010935F0580915C0590915D05A0915E05CD
:10139000B0915F0580529E44A040B040D4F1672BCD
:1013A00019F410922C062CC0E0912C06F0E08091EC
:1013B0005C0590915D05A0915E05B0915F05EE0F13
:1013C000FF1FEE0FFF1FEC59FA4F9183808318C067
:1013D000E0912C06F0E080915C0590915D05A09174
:1013E0005E05B0915F05EE0FFF1FEE0FFF1FEC597A
:1013F000FA4F9383828380912C068F5F80932C0613
:101400002093600530936105409362055093630516
:1014100003C0672BE9F2C8CFFF91EF91BF91AF9165
:101420009F918F917F916F915F914F913F912F91FC
:101430001F910F91FF90EF900F900FBE0F901F9094
:101440001895EF92FF920F931F93162F042F88E0A9
:10145000E82E87E0F82EC7016EE170E00E94CC0B09
:10146000C701612F0E944E0CC701602F0E944E0CD5
:10147000C7010E94910C1F910F91FF90EF9008956A
:10148000CF93DF9388E097E06EE170E00E94CC0B91
:1014900088E097E063E00E944E0C88E097E00E94AD
:1014A000910C88E097E06EE170E00E94CC0B88E040
:1014B00097E06EE170E046E050E00E94A20C88E008
:1014C00097E00E94D60B069771F4C0E0D0E088E068
:1014D00097E00E94DF0BFE01E25DF94F80832196C9
:1014E000C630D105A1F788E097E00E94910CDF910A
:1014F000CF9108950F931F938C0163E070E046E055
:1015000050E00E94400A40912E0620912F06742F31
:1015100060E030E0622B732B882777FD8095982F51
:101520000E94101B2FE135E84BE65FE30E949C1BF5
:10153000F8016483758386839783409130062091F8
:101540003106742F60E030E0622B732B882777FD23
:101550008095982F0E94101B2FE135E84BE65FE342
:101560000E949C1BF8016087718782879387409156
:10157000320620913306742F60E030E0622B732B2B
:10158000882777FD8095982F0E94101B2FE135E862
:101590004BE65FE30E949C1BF80164877587868792
:1015A00097871F910F910895CF93DF93EC018BE8FC
:1015B00097E060E875E20E942F1189ED97E040E81E
:1015C00055E260E070E00E94AE128DE061E00E94A2
:1015D0006F108DE060E00E94FC108BE061E00E94E3
:1015E0006F108BE060E00E94FC1084E160E00E94DC
:1015F0006F1085E161E00E946F1086E161E00E945A
:101600006F1087E161E00E946F1086E061E00E9448
:101610006F108AE061E00E946F1085E060E00E9438
:101620006F1089E061E00E946F1081EC96E060E04D
:1016300070E00E94C50B81EC96E060E070E00E94D3
:10164000C50B8E8F0E94B70C84E00E94A60C559AA1
:101650005D9880915F068EBD0DB407FEFDCF8EB5FF
:1016600080915E068EBD0DB407FEFDCF8EB55D9AEE
:101670001092660680E18093B50680E38093B606FB
:1016800080E28093B70680E68093B80680E480937A
:10169000B90680EC8093BA0680E88093BB0680E9A7
:1016A0008093BC061092BD0681E08093AC0683E077
:1016B0008093AD0682E08093AE0686E08093AF060D
:1016C00084E08093B0068CE08093B10688E080933C
:1016D000B20689E08093B3061092B406CE010E9450
:1016E000DC08CE010E94A807809100058093C00607
:1016F0008093BF068093BE06F8941092C0001092AB
:10170000C1001092BF001092BE0080E38093CF0012
:1017100086E08093C10080917200806480937200A3
:101720007894F89487E060E00E946F1080916A00DE
:101730008F7C806180936A00EE9A7894CE010E943B
:101740002C07CE0161E070E040E250E00E94210AE7
:10175000CE0162E070E040E050E00E94210ACE013C
:101760000E947A0ADF91CF910895FC0113821282C0
:1017700087E195E091838083CF010E94D40A089588
:1017800084E396E00E94B50B0895F999FECF72BDEF
:1017900061BDF89A80B5089581E080930707609352
:1017A000E406109205071092060708952091E306BB
:1017B00030E08091E206281B3109C901089540916B
:1017C000E2068091E306481718F02FEF3FEF0AC0BA
:1017D000E42FF0E0EE53F94F8081282F30E04F5F87
:1017E0004093E206C9010895E091E2068091E30684
:1017F000E81718F0EFEFFFEF06C0F0E0EE53F94FF7
:101800008081E82FF0E0CF010895089510920B0732
:1018100010920A0788EE93E0A0E0B0E080930C07F6
:1018200090930D07A0930E07B0930F078FE195E0FB
:1018300090930907809308070895CF92DF92EF9263
:10184000FF920F931F93CF93DF937C016B018A016B
:10185000809107078823A1F0C0E0D0E00DC0D70138
:10186000ED91FC91D601AC0FBD1F0190F081E02DF0
:10187000C7016C9109952196C017D10780F304C068
:10188000CB01642F0E94740DC801DF91CF911F918D
:101890000F91FF90EF90DF90CF900895DF93CF935B
:1018A0000F92CDB7DEB7FC016983809107078823CB
:1018B000C9F080910607803238F081E090E0938390
:1018C000828320E030E015C080910507E82FF0E02A
:1018D000EB51F94F998190838F5F80930507809337
:1018E000060705C0CE01019661E00E94740D21E05B
:1018F00030E0C9010F90CF91DF9108950F93062F2B
:101900008091E40665EE76E04091060721E00E94B2
:101910001F0D1092050710920607109207070F91EE
:10192000089561E00E947E0C0895413208F040E283
:10193000862F62EC76E00E94D60C1092E20680932D
:10194000E306089521E00E94950C08952CB5382FE8
:1019500033702C7F322B3CBD2DB590E0959587954B
:101960009595879581702E7F822B8DBD08958FE090
:1019700061E00E946F1080E161E00E946F1081E1E0
:1019800061E00E946F108FE060E00E94FC1080E137
:1019900060E00E94FC1081E161E00E94FC108CB5C7
:1019A00080618CBD8CB580648CBD0895382F413228
:1019B00010F040E042C0809114078823E1F791E0E5
:1019C00090931407209316078FEF8093810710924E
:1019D0003C07415040933D074F5F9093150780911E
:1019E0001507330F832B80931507809117078130DC
:1019F00041F410921707809115078093BB0085EC86
:101A000001C085EE8093BC00809114078130E1F322
:101A100080913C07841710F440913C0720E030E0AF
:101A20000AC0FB01E20FF31FD901A45EB84F8C91ED
:101A300080832F5F3F4F2417A0F3842F08950F93C7
:101A40001F93582F122F413210F081E04AC080912D
:101A500014078823E1F782E08093140700931607A8
:101A60008FEF8093810710923C0740933D07ACE1D4
:101A7000B7E0FB0102C081918D938E2F861B8417E6
:101A8000D0F31092150780911507550F852B809381
:101A9000150780911707813041F410921707809144
:101AA00015078093BB0085EC01C085EE8093BC00D8
:101AB000112321F0809114078230E1F38091810796
:101AC0008F3F11F480E00DC080918107803211F4C6
:101AD00082E007C080918107803311F084E001C06B
:101AE00083E01F910F910895482F613210F081E03B
:101AF000089580911407843011F082E00895609376
:101B00005F07AEE3B7E0842F9C01F90102C0819129
:101B10008D938E2F841B8617D0F380E008951F923B
:101B20000F920FB60F9211242F933F934F935F9311
:101B30006F937F938F939F93AF93BF93EF93FF9395
:101B40008091B90090E0887F90708036910509F40B
:101B5000F2C081369105CCF58832910509F47BC03D
:101B600089329105B4F48031910509F46FC0813157
:101B700091053CF4009709F447C1089709F04FC15B
:101B800065C08831910509F466C0809709F047C1A6
:101B900082C08034910509F4A4C08134910544F4D5
:101BA0008033910509F482C0C89709F038C189C013
:101BB0008035910509F489C08835910509F496C0EE
:101BC0008834910509F02BC1AEC08839910509F41C
:101BD00013C189399105ECF48837910509F4ABC03C
:101BE000893791054CF48836910509F4A4C08037F3
:101BF000910509F014C19FC08838910509F4FCC013
:101C00008039910509F49DC08038910509F007C11C
:101C100098C0803B910509F4C6C0813B91054CF406
:101C2000803A910509F49FC0883A910509F0F7C000
:101C3000BAC0803C910509F4E3C0883C910509F4E1
:101C4000DFC0883B910509F0EAC0C2C0809115074A
:101C50008093BB00CFC090913C0780913D079817BF
:101C600068F490913C07E92FF0E0E45EF84F808142
:101C70008093BB009F5F90933C07BCC08091160788
:101C8000882309F44BC085ED8093BC008091BC0093
:101C900084FDFCCFC2C080E28093810785ED8093F4
:101CA000BC008091BC0084FDFCCFB7C080E3809372
:101CB000810785ED8093BC008091BC0084FDFCCF42
:101CC000ACC088E3809381079BC080913C079091D2
:101CD000BB00E82FF0E0E45EF84F90838F5F8093C5
:101CE0003C0790913C0780913D0782C080913C0762
:101CF0009091BB00E82FF0E0E45EF84F90838F5F97
:101D000080933C0780911607882341F085ED8093EE
:101D1000BC008091BC0084FDFCCF7FC081E080933B
:101D2000170784EA6EC085ED8093BC008091BC00EB
:101D300084FDFCCF72C083E080931407109280076B
:101D400059C080918007803208F056C0809180078A
:101D50009091BB00E82FF0E0E05AF84F90838F5F3E
:101D60008093800747C080918007803230F4E091F3
:101D70008007F0E0E05AF84F108285ED8093BC00B8
:101D80008091BC0084FDFCCF109214076091800705
:101D9000E0911A07F0911B0780E697E070E0099543
:101DA000109280072DC084E08093140710925E0784
:101DB00010925F07E0911807F0911907099580913B
:101DC0005F07882329F481E080935F0710923E0724
:101DD00090915E07E92FF0E0E25CF84F80818093FC
:101DE000BB009F5F90935E0790915E0780915F07B5
:101DF000981710F485EC01C085E88093BC000FC0F3
:101E000085EC8093BC0009C01092810785ED80931A
:101E1000BC008091BC0084FDFCCF10921407FF91A0
:101E2000EF91BF91AF919F918F917F916F915F9152
:101E30004F913F912F910F900FBE0F901F901895CB
:101E400008950F931F9304E316E0C80166EA7FEF3D
:101E50000E94600468EE73E080E090E00E9407104A
:101E6000C80160E070E00E94600468EE73E080E00A
:101E700090E00E940710C80160E570E00E946004D5
:101E80001F910F9108951F920F920FB60F92112478
:101E90002F933F938F939F93AF93BF938091860728
:101EA00090918707A0918807B091890730918A07A0
:101EB0000196A11DB11D232F2D5F2D3720F02D5729
:101EC0000196A11DB11D20938A07809386079093E8
:101ED0008707A0938807B093890780918207909124
:101EE0008307A0918407B09185070196A11DB11DBC
:101EF0008093820790938307A0938407B09385070C
:101F0000BF91AF919F918F913F912F910F900FBEF5
:101F10000F901F9018959FB7F894209182073091E9
:101F20008307409184075091850786B5A89B06C01A
:101F30008F3F21F02F5F3F4F4F4F5F4F9FBF542F79
:101F4000432F322F2227280F311D411D511D82E0C2
:101F5000220F331F441F551F8A95D1F7B901CA01BB
:101F60000895789484B5826084BD84B5816084BD11
:101F700085B5826085BD85B5816085BDEEE6F0E002
:101F8000808181608083E1E8F0E01082808182605E
:101F90008083808181608083E0E8F0E080818160DF
:101FA0008083E1E9F0E080818260808380818160CC
:101FB0008083E0E9F0E0808181608083E1ECF0E003
:101FC0008081846080838081826080838081816061
:101FD0008083E3ECF0E0808181608083E0ECF0E0DE
:101FE000808182608083E2ECF0E080818160808388
:101FF000EAE7F0E080818460808380818260808372
:102000008081816080838081806880830895EF92E1
:10201000FF920F931F93CF93DF937B018C013FB708
:10202000F8948091820790918307A0918407B091E2
:10203000850726B5A89B05C02F3F19F00196A11D65
:10204000B11D3FBFBA2FA92F982F8827820F911D4E
:10205000A11DB11D52E0880F991FAA1FBB1F5A95E1
:10206000D1F7EC0130C00E94CC183FB7F8948091B2
:10207000820790918307A0918407B091850726B5C8
:10208000A89B05C02F3F19F00196A11DB11D3FBFB0
:10209000BA2FA92F982F8827820F911DA11DB11D3E
:1020A00032E0880F991FAA1FBB1F3A95D1F78C1BEE
:1020B0009D0B885E9340B8F20894E108F10801098D
:1020C0001109C851DC4FE114F1040105110559F65D
:1020D000DF91CF911F910F91FF90EF900895CF93D3
:1020E000DF93482F50E0CA0181519A4FFC0134918F
:1020F0004F525A4FFA018491882369F190E0880F7A
:10210000991FFC01E955FA4FA591B491FC01EB54DC
:10211000FA4FC591D491662351F42FB7F8948C915E
:10212000932F909589238C93888189230BC06230EB
:1021300061F42FB7F8948C91932F909589238C9309
:102140008881832B88832FBF06C09FB7F8948C911A
:10215000832B8C939FBFDF91CF910895883071F1CD
:10216000893068F4823031F1833020F4813009F015
:1021700042C01DC0833089F08430E9F512C08B3035
:1021800059F18C3028F48930E9F08A30A1F51EC06D
:102190008C3031F18E3079F529C0809180008F77B5
:1021A00003C0809180008F7D80938000089584B566
:1021B0008F7702C084B58F7D84BD08958091900093
:1021C0008F7707C0809190008F7D03C08091900031
:1021D000877F8093900008958091C0008F7703C01F
:1021E0008091C0008F7D8093C00008958091C200CF
:1021F000877F8093C2000895FF920F931F93F62E5E
:10220000482F50E0CA01835F994FFC012491CA0115
:1022100081519A4FFC0114914F525A4FFA01049187
:102220000023C9F0222319F0822F0E94AE10E02F64
:10223000F0E0EE0FFF1FEB54FA4FA591B4919FB75A
:10224000F894FF2021F48C911095812302C08C9189
:10225000812B8C939FBF1F910F91FF90089508953C
:10226000FC012485858530E0205C3F4F281B310927
:102270002F733070C9010895FC01948585859817E6
:1022800019F42FEF3FEF06C08585E80FF11D868515
:10229000282F30E0C9010895DC011C969C911C9701
:1022A0001D968C911D97981719F42FEF3FEF10C0D2
:1022B0001D968C911D97FD01E80FF11D96851D96C9
:1022C0008C911D978F5F8F731D968C93292F30E013
:1022D000C901089510928E0710928D0788EE93E041
:1022E000A0E0B0E080938F0790939007A0939107B0
:1022F000B09392078FE295E090938C0780938B07C1
:1023000008950F931F93DF93CF930F92CDB7DEB74E
:102310008C01698380910805882369F083E0BE0100
:102320006F5F7F4F41E050E00E9452161816190669
:1023300014F49C0107C081E090E0F801938382834C
:1023400020E030E0C9010F90CF91DF911F910F91F4
:10235000089583E00E94291608950F931F93CF9349
:10236000DF938C01FC010FC082E00E940F159C01DD
:10237000FFEF8F3F9F0799F0F8018485E80FF11D6B
:102380002687F801C4878485C82FD0E02196CF73B3
:10239000D070F801858590E0C817D90729F7DF913B
:1023A000CF911F910F910895FC0180818E5F8083F2
:1023B00080E867E376E042E450E00E942815089543
:1023C000FC0181819081913A59F4813209F04CC02D
:1023D00080E061E075E047E050E00E94281542C0CF
:1023E000913209F041C0803239F481E095E067E034
:1023F00070E00E94111636C0823209F035C0828129
:10240000809308058091010590910205A091030534
:10241000B0910405805B9440A040B04019F58091D4
:10242000080580FD12C087E797E790930108809325
:1024300000082BE088E190E00FB6F894A89580930F
:1024400060000FBE209360000DC088E10FB6F894C5
:1024500080936000109260000FBEA8951092010852
:102460001092000881E0089580E0089508951F9279
:102470000F920FB60F9211242F933F934F938F9388
:102480009F93EF93FF938091C80082FD19C0409104
:10249000CE008091F707282F30E02F5F3F4F2F733A
:1024A00030708091F80790E02817390759F0E091D3
:1024B000F707F0E0E752F84F42A32093F70702C076
:1024C0008091CE00FF91EF919F918F914F913F911D
:1024D0002F910F900FBE0F901F9018958091F707C6
:1024E0002091F80790E0805C9F4F821B91098F73C9
:1024F0009070892B11F00E94361208951F920F924E
:102500000FB60F9211242F938F939F93EF93FF9306
:102510009091F9078091FA07981731F48091C900DA
:102520008F7D8093C90010C0E091FA07F0E0E55C70
:10253000F74F20818091FA0790E001968F73907099
:102540008093FA072093CE00FF91EF919F918F9196
:102550002F910F900FBE0F901F901895AF92BF92C2
:10256000DF92EF92FF920F931F93CF93DF93EC01D3
:102570007A018B01DD24403081EE580780E0680746
:1025800080E0780711F0DD24D39491E0A92EB12CDE
:10259000E889F989DD2069F0C5010C8C02C0880F3B
:1025A000991F0A94E2F7808360E079E08DE390E080
:1025B00005C0108260E874E88EE190E0A801970100
:1025C0000E941E1C21503040404050405695479577
:1025D0003795279580E12030380720F0DD2011F075
:1025E000DD24D6CFEC85FD853083EE85FF85208305
:1025F0001D8EEA89FB89408121E030E0C901088C09
:1026000002C0880F991F0A94E2F7482B4083EA8999
:10261000FB894081C901098C02C0880F991F0A9467
:10262000E2F7482B4083EA89FB894081C9010A8C83
:1026300002C0880F991F0A94E2F7482B4083EA8969
:10264000FB8980810B8C02C0220F331F0A94E2F7B2
:10265000209528232083DF91CF911F910F91FF9028
:10266000EF90DF90BF90AF900895FC01268D878D8D
:1026700030E0205C3F4F281B31092F733070C901B7
:102680000895FC01968D878D981719F42FEF3FEF71
:1026900006C0878DE80FF11D82A1282F30E0C90107
:1026A0000895DC015E969C915E975F968C915F9792
:1026B000981719F42FEF3FEF10C05F968C915F973A
:1026C000FD01E80FF11D92A15F968C915F978F5FDE
:1026D0008F735F968C93292F30E0C9010895DC0138
:1026E0005D968C915D97882339F05096ED91FC9121
:1026F0005197808186FFF9CF5D961C920895DC0189
:1027000090968C919097282F30E02F5F3F4F2F733A
:10271000307091968C91919790E028173907C9F302
:1027200090968C919097FD01E80FF11DEE59FF4FA7
:10273000608390962C9390975296ED91FC915397CD
:10274000208181E090E05B960C905B9702C0880F3F
:10275000991F0A94E2F7282B208381E05D968C93E1
:102760005D975096ED91FC915197808180648083B4
:1027700081E090E008951092DC071092DB0788EE6C
:1027800093E0A0E0B0E08093DD079093DE07A09394
:10279000DF07B093E00781E495E09093DA07809338
:1027A000D9071092FA078091FA078093F9071092DF
:1027B000F8078091F8078093F7078DEC90E09093ED
:1027C000E6078093E5078CEC90E09093E807809310
:1027D000E70788EC90E09093EA078093E90789EC9B
:1027E00090E09093EC078093EB078AEC90E0909355
:1027F000EE078093ED078EEC90E09093F0078093C6
:10280000EF0784E08093F10783E08093F20787E08D
:102810008093F30785E08093F40781E08093F507C8
:102820000895CF93DF930E94B10F8AE898E00E9449
:1028300034160E94210FCEE6D2E10E94200F20978D
:10284000E1F30E946E12F9CFCF92DF92EF92FF92E6
:102850000F931F93CF93DF937C016B018A01C0E03C
:10286000D0E00FC0D6016D916D01D701ED91FC91C3
:102870000190F081E02DC7010995C80FD91F0150C3
:1028800010400115110571F7CE01DF91CF911F9115
:102890000F91FF90EF90DF90CF9008958230B9F0C4
:1028A000833028F4882351F08130F9F40AC0843051
:1028B000B9F0843090F08530C1F415C010926E00EC
:1028C000089580916F008D7F80936F0008958091AF
:1028D00070008D7F809370000895109271000895AC
:1028E0001092720008951092730008951F920F9233
:1028F0000FB60F9211242F933F934F935F936F93D3
:102900007F938F939F93AF93BF93EF93FF938091A8
:102910007B0890917C08A0917D08B0917E0800977B
:10292000A105B10551F1E0917F08F0918008808107
:10293000909181088927808380917B0890917C0801
:10294000A0917D08B0917E08181619061A061B067C
:102950000CF580917B0890917C08A0917D08B09146
:102960007E080197A109B10980937B0890937C08A8
:10297000A0937D08B0937E080DC083E00E944E14A2
:10298000E0917F08F0918008908180918108809586
:1029900089238083FF91EF91BF91AF919F918F9198
:1029A0007F916F915F914F913F912F910F900FBE4B
:1029B0000F901F901895282F809184088823C1F0CC
:1029C00057FF1AC015C02898909383088091F10092
:1029D0008193E217F307B9F74115510539F080915A
:1029E000F200882319F48BE68093E800AFBF02C0A1
:1029F0004FEF5FEFCA010895AFB7F89427702093A7
:102A0000E9008091F200282F30E0241735070CF4FC
:102A1000A901FB019B01240F311D94E6DACFDF935E
:102A2000CF930F92CDB7DEB7BE016F5F7F4F41E00E
:102A300050E00E94DB14019719F02FEF3FEF03C025
:102A40008981282F30E0C9010F90CF91DF9108953F
:102A5000FF920F931F93F82E142F052F4091870894
:102A600050918808212F302FC901DC01FB016EEF46
:102A700029C0F7FE02C0949101C090812091850881
:102A80003091860824173507ACF48091E8008570F2
:102A9000E1F38091E80082FF03C02FEF3FEF17C002
:102AA0009093F100C90101968F739070892B11F4F6
:102AB0006093E8002F5F3F4F30938608209385088E
:102AC000119731961097A9F6812F902F9C01C9017B
:102AD0001F910F91FF9008951F93782FE92F162FC4
:102AE0002091850830918608A0918708B0918808C8
:102AF0002A173B07C4F48091E8008570E1F38091C8
:102B0000E80082FD16C0812F90E00196880F991F82
:102B10008093F100C90101968F739070892B19F48D
:102B20008EEF8093E8002F5F3F4F3093860820930D
:102B3000850820918508309186082A173B07A4F460
:102B40008091E8008570E1F38091E80082FD12C079
:102B500083E08093F100C90101968F739070892BF7
:102B600019F48EEF8093E8002F5F3F4F3093860873
:102B7000209385084091850850918608872F9E2FC5
:102B8000FC0170E06EEF43C094914A175B07A4F418
:102B90008091E8008570E1F38091E80082FF02C037
:102BA00020E00DC09093F100CA0101968F739070E0
:102BB000892B11F46093E8004F5F5F4F21E04A17C3
:102BC0005B07A4F48091E8008570E1F38091E80050
:102BD00082FF02C080E00DC01092F100CA01019690
:102BE0008F739070892B11F46093E8004F5F5F4FF3
:102BF00081E0319690E030E082239323892B31F4F9
:102C0000509386084093850880E009C07F5F711764
:102C100008F4BACF509386084093850881E01F914D
:102C200008959C018091E80082FFFCCFF901260FF6
:102C3000311D03C08091F1008193E217F307D1F7B2
:102C4000289884E6809383088BEF8093E800CB017B
:102C500008958093E9008091F200882319F08AE3B7
:102C60008093E800089508951092840881E080938D
:102C7000D70080EA8093D80082E189BD09B400FEC4
:102C8000FDCF61E070E080E090E00E94071080E9F5
:102C90008093D8008CE08093E2001092E000559A77
:102CA000209A08955F926F927F928F929F92AF9237
:102CB000BF92CF92DF92EF92FF920F931F93CF9329
:102CC000DF93E82E842E752E80918408882371F17D
:102CD0008B01242F352FC901EC01AAEFFA2EF7E062
:102CE0009F2E9E20E0E45E2E8E2D90E070E2A72EB7
:102CF000B12CA822B9226AE3662E50E4C52ED12C4D
:102D0000C822D92258C09FB7F8949092E9008091C8
:102D1000E80085FD02C020E004C08091F200252D6E
:102D2000281B9FBF222361F4FA9419F42FEF3FEF81
:102D30004DC061E070E080E090E00E9407103BC071
:102D4000822F90E0C817D9070CF42C2FC21BD10991
:102D50004FB7F8949092E900A114B10421F406C091
:102D60001092F10021502223D9F719C0E7FC03C0CB
:102D7000F801922F10C0C801322F06C0FC01019645
:102D8000E491E093F10031503323C1F706C0819103
:102D90008093F10091509923D1F7020F111D80917A
:102DA000E80085FF05C0209729F4C114D10411F073
:102DB0006092E8004FBF209709F0A5CF5D9884E6A8
:102DC00080938208282D372DC9019C01C901DF910C
:102DD000CF911F910F91FF90EF90DF90CF90BF9018
:102DE000AF909F908F907F906F905F9008951F920B
:102DF0000F920FB60F9211242F933F934F935F932F
:102E00006F937F938F939F93AF93BF93EF93FF93B2
:102E10008091E1001092E100982F83FF0FC0109283
:102E2000E90081E08093EB001092EC0082E3809354
:102E3000ED001092840888E08093F00092FF34C087
:102E400083E08093E9008091F200882319F08AE3FF
:102E50008093E8008FB7F89492E09093E900909106
:102E6000F2008FBF992321F08BE897E00E94AD110B
:102E700080918208882351F080918208815080934C
:102E8000820880918208882309F45D9A80918308E2
:102E9000882351F08091830881508093830880912A
:102EA0008308882309F4289AFF91EF91BF91AF918D
:102EB0009F918F917F916F915F914F913F912F9152
:102EC0000F900FBE0F901F9018950F931F93DF93D5
:102ED000CF930F92CDB7DEB719828E010F5F1F4FD0
:102EE000C8010E94D411C8010E94041A898190E08F
:102EF0000F90CF91DF911F910F9108951F920F9224
:102F00000FB60F921124EF92FF921F932F933F93CE
:102F10004F935F936F937F938F939F93AF93BF93E1
:102F2000EF93FF93DF93CF93CDB7DEB76197DEBF0B
:102F3000CDBF1092E9008091E80083FF14C1FE012B
:102F400031969E01275F3F4F03C08091F10081932E
:102F5000E217F307D1F7289884E68093830882EF7D
:102F60008093E800998197FF05C08091E80080FF79
:102F7000FCCF03C08EEF8093E800292F30E0C90119
:102F800080769070892B09F0C7C08A81882329F444
:102F90001092F1001092F100DBC0813009F4D8C02A
:102FA000833009F4D5C0853049F48091E80080FF72
:102FB000FCCF8B8180688093E300CAC0863009F023
:102FC00081C01C81EF80F8841230C1F51092E900B5
:102FD000109286081092850810928808109287082F
:102FE0000E94651799E0FE013996DF01292F1D9295
:102FF0002A95E9F799871A8791E09E8790E8988B40
:103000009AEF998B2091850830918608275F3F4F72
:103010003C872B878D871092E900109286081092CA
:103020008508F0928808E092870880E0BF0149E0B7
:1030300050E00E9428150E9465178AC01092E9008E
:103040001092860810928508F0928808E09287080E
:10305000123241F482E290E00E94FC19892B09F4BB
:103060007BC076C0113079F488E0E816F10419F4D9
:1030700081E08093890880918908882309F070C0D5
:10308000EAE9F6E018C0133009F066C08B818823A6
:1030900019F4E9E7F6E00FC0823021F48DE796E0FD
:1030A00060E106C0813009F057C08EE896E06BE021
:1030B0000E946C154BC0449180E8BF0150E00E9413
:1030C000281546C0873009F447C0883021F481E0D4
:1030D0008093F1003DC08930D9F523703070232BE7
:1030E000D9F5EFEBF6E091E031E026E39093E900CB
:1030F0003093EB0084918093EC002093ED009F5F70
:103100003196953099F78EE78093EA001092EA00A5
:103110008B81809384081CC08F8198851092E90070
:1031200010928608109285089093880880938708EB
:103130008D81882329F4CE0101960E94E01106C0FA
:10314000823051F4CE0101960E94CD18882321F0DF
:103150008EEF8093E80007C081E28093EB0003C00C
:10316000ECEAF6E0A8CF6196DEBFCDBFCF91DF914C
:10317000FF91EF91BF91AF919F918F917F916F914F
:103180005F914F913F912F911F91FF90EF900F9082
:103190000FBE0F901F9018950895FC0191818081BA
:1031A000813A31F4913089F080E0933089F40DC098
:1031B000813269F49B3021F482818093090505C036
:1031C0009A3029F4828180930A0581E0089580E095
:1031D0000895EF92FF920F931F938C01E62EDC016E
:1031E000ED91FC910480F581E02D0995F82ED80130
:1031F000ED91FC910680F781E02DC8016E2D0995B7
:103200008F2D90E01F910F91FF90EF9008951092F5
:103210008B0810928F0810928E0881E595E09093AC
:103220008D0880938C080895EF92FF920F931F935F
:10323000DF93CF930F92CDB7DEB789838B017A01ED
:1032400084E0BE016F5F7F4F41E050E00E94521664
:1032500084E4B801A7010E9452160F90CF91DF912C
:103260001F910F91FF90EF90089582E048E050E0A9
:103270000E9414190895FC01168217821086118687
:103280001286138614823496BF010E943519089560
:10329000DC01683810F0685829C0E62FF0E067FFBD
:1032A00013C0E058F04081E090E002C0880F991F01
:1032B000EA95E2F7809514962C911497282314969A
:1032C0002C93149760E012C0EF5BF84F6491662373
:1032D00019F420E030E01DC067FF08C014968C91FF
:1032E00014978D7F14968C9314976F77FD0190E05F
:1032F000662321F08681861709F416829F5F319636
:103300009630B1F7CD011496BD010E94351921E028
:1033100030E0C9010895CF93DF93DC01683810F0E5
:10332000685825C0E62FF0E067FF12C0E058F04073
:1033300081E090E002C0880F991FEA95E2F71496A9
:103340002C911497282B14962C93149760E00FC09F
:10335000EF5BF84F64916623D9F167FF08C01496BC
:103360008C911497826014968C9314976F771696AD
:103370008C9116978617A9F117968C911797861737
:1033800081F118968C911897861759F119968C919E
:103390001997861731F11A968C911A97861709F1A9
:1033A0001B968C911B978617E1F0ED01E0E0F0E0B1
:1033B0009E2F8E81882321F4EA0FFB1F668306C0AF
:1033C0009F5F31962196E630F10591F7963049F4EA
:1033D00081E090E013969C938E93129720E030E06A
:1033E00007C0CD011496BD010E94351921E030E0DF
:1033F000C901DF91CF91089580E863EC76E045E65E
:1034000050E00E9428150895FC0180818F5F808321
:1034100080E868E277E049E150E00E9428150895CD
:103420005058BB27AA270ED04DC13ED130F043D112
:1034300020F031F49F3F11F41EF433C10EF4E095F7
:10344000E7FB29C1E92F4FD180F3BA176207730751
:103450008407950718F071F49EF567C10EF4E095A6
:103460000B2EBA2FA02D0B01B90190010C01CA013E
:10347000A0011124FF27591B99F0593F50F4503EE9
:1034800068F11A16F040A22F232F342F4427585FDB
:10349000F3CF469537952795A795F0405395C9F7F3
:1034A0007EF41F16BA0B620B730B840BBAF09150AB
:1034B000A1F0FF0FBB1F661F771F881FC2F70EC04A
:1034C000BA0F621F731F841F48F48795779567951D
:1034D000B795F7959E3F08F0B3CF9395880F08F006
:1034E0009927EE0F9795879508950CD0EBC0E3D000
:1034F00040F0DAD030F021F45F3F19F0CCC0511128
:1035000015C1CFC0F0D098F39923C9F35523B1F377
:10351000951B550BBB27AA2762177307840738F042
:103520009F5F5F4F220F331F441FAA1FA9F333D0A1
:103530000E2E3AF0E0E830D091505040E695001C55
:10354000CAF729D0FE2F27D0660F771F881FBB1F11
:10355000261737074807AB07B0E809F0BB0B802DEB
:10356000BF01FF2793585F4F2AF09E3F510568F037
:1035700092C0DCC05F3FECF3983EDCF38695779514
:103580006795B795F7959F5FC9F7880F911D969539
:10359000879597F90895E1E0660F771F881FBB1F95
:1035A000621773078407BA0720F0621B730B840B42
:1035B000BA0BEE1F88F7E095089504D06894B11116
:1035C000B5C0089598D088F09F5790F0B92F9927EB
:1035D000B751A0F0D1F0660F771F881F991F1AF01E
:1035E000BA95C9F712C0B13081F09FD0B1E008950B
:1035F0009CC0672F782F8827B85F39F0B93FCCF38C
:10360000869577956795B395D9F73EF49095809513
:10361000709561957F4F8F4F9F4F0895E89409C033
:1036200097FB3EF490958095709561957F4F8F4FF5
:103630009F4F9923A9F0F92F96E9BB279395F6950B
:10364000879577956795B795F111F8CFFAF4BB0F89
:1036500011F460FF1BC06F5F7F4F8F4F9F4F16C0ED
:10366000882311F096E911C0772321F09EE8872F77
:10367000762F05C0662371F096E8862F70E060E033
:103680002AF09A95660F771F881FDAF7880F9695AC
:10369000879597F9089597F99F6780E870E060E053
:1036A00008959FEF80EC089500240A9416161706DB
:1036B00018060906089500240A9412161306140623
:1036C00005060895092E0394000C11F4882352F086
:1036D000BB0F40F4BF2B11F460FF04C06F5F7F4F3E
:1036E0008F4F9F4F089557FD9058440F551F59F025
:1036F0005F3F71F04795880F97FB991F61F09F3FDF
:1037000079F087950895121613061406551FF2CF07
:103710004695F1DF08C0161617061806991FF1CF57
:1037200086957105610508940895E894BB2766277E
:103730007727CB0197F908950BD0C4CFB5DF28F0D8
:10374000BADF18F0952309F0A6CFABCF1124EECF46
:10375000CADFA0F3959FD1F3950F50E0551F629FEC
:10376000F001729FBB27F00DB11D639FAA27F00DDA
:10377000B11DAA1F649F6627B00DA11D661F829F01
:103780002227B00DA11D621F739FB00DA11D621FE6
:10379000839FA00D611D221F749F3327A00D611D03
:1037A000231F849F600D211D822F762F6A2F1124E5
:1037B0009F5750408AF0E1F088234AF0EE0FFF1F38
:1037C000BB1F661F771F881F91505040A9F79E3F6F
:1037D000510570F060CFAACF5F3FECF3983EDCF369
:1037E000869577956795B795F795E7959F5FC1F7AC
:1037F000FE2B880F911D9695879597F90895629FE6
:10380000D001739FF001829FE00DF11D649FE00DD8
:10381000F11D929FF00D839FF00D749FF00D659F39
:10382000F00D9927729FB00DE11DF91F639FB00D38
:10383000E11DF91FBD01CF0111240895A1E21A2E47
:10384000AA1BBB1BFD010DC0AA1FBB1FEE1FFF1F44
:10385000A217B307E407F50720F0A21BB30BE40B94
:10386000F50B661F771F881F991F1A9469F76095DB
:103870007095809590959B01AC01BD01CF01089595
:10388000EE0FFF1F0590F491E02D0994F894FFCFFF
:103890000000000000000000000000000000000028
:1038A0000000000000000000000000000000000018
:1038B0000000000000000000000000000000000008
:1038C00000000000000000000000000000000000F8
:1038D00000000000000000000000000000000000E8
:1038E00000000000000000000000000000000000D8
:1038F00000000000000000000000000000000000C8
:1039000000000000000000000000000000000000B7
:103910000000000000000000010101030307070F81
:103920000F0F0F0F0F070301000000000000000041
:103930000000000000000000000000000000000087
:103940000000000000000000000000000000000077
:103950000000000000000000000000000000000067
:103960000000000000000000000000000000000057
:103970000000000000000000000000000000000047
:103980000000010F07000000000000000000000020
:1039900003070F3F7F7FFFFFFFFFFFFFFFFFFFFFDB
:1039A000FFFFFEFEFCFCFCFC7800000000000000B5
:1039B0000000000000000000000000000000000007
:1039C00000000000000000000000000000000000F7
:1039D00000000000000000000000000000000000E7
:1039E0000000000000000000003FFFFFFFFFFFFF9E
:1039F000FF3800000000000183E1F37B7F3F3F1FA1
:103A00001F3FFFFFFF1F3F7F7FFFE7C787020202C5
:103A100080E0F0F8F8F8FCFEFEFFFFFFFFFFFFFF7D
:103A2000FF1F0F0707030301000000000000060F3F
:103A30001F1F1F1F3F3F3F3F3F3F3F3F1F1F0F0FB6
:103A4000070300003F3F3F3F3F3F3F3F3F3F3F3F78
:103A50003F1F1F0F07000000003F3F3F3F3F1F0F6A
:103A60001F1F1F1F1E1F1F1F0EFFFFFFFFFFFFFF58
:103A7000FF030307070F1F1F1F0E0480808080872E
:103A8000CFCFDFDFDFDFE0E0E0E0E0F070703000BC
:103A90000000000000000000000000008080C0C1A5
:103AA000E1E1F1F3FFFFFFFFFFFFFF7F3F0F00FFAB
:103AB000FFFFFFFFFF1F0307070F0F0FBFFFFFFFF2
:103AC000FEF8F0070F1F1F1F3F3F3C3C383838FF00
:103AD000FFFFFFFFFFFF000000FFFFFFFFFFFFFFF3
:103AE000800000000000000000C0FFFFFFFFFFFF9C
:103AF000FFFFFFDF8F8F0F070301000000003FFF74
:103B0000FFFFFFFFF8C00000000000000000000001
:103B10000000000F7FFFFFFFFFFFFFFFFFFFFFFF22
:103B2000FFFFFEFEFEFCFCF8F8F0F0E0C08000C0F5
:103B3000FFFFFFFFFFFFFFF7F0F0E0C0C080800055
:103B400000000080E0E0E0F0F0F0F0F0F0F0F0F0E5
:103B5000F0F0F0F0F0F0000000F0F0F0F0F0F0F035
:103B600000000000000000000000F0F0F0F0F0F0B5
:103B7000C0008080C0E0E0E0E0E0000000F0F0F095
:103B8000F0F0F080000000000000000000000000E5
:103B90000000008080808080808080808000000025
:103BA0000000000000000000000000000000000015
:103BB00000E0FCFCFCFCFCF8F83000000000000019
:103BC00000000000000000000000000000000000F5
:103BD00000000000000000000000000000000000E5
:103BE00000000000000000000000000000000000D5
:103BF00000000000000000000000000000000000C5
:103C000000000000000000000000000000000000B4
:103C100000000000000000000000000000000000A4
:103C20000000000000000000000000000000000094
:103C30000000000000000000000000000000000084
:103C40000000000000000000000000000000000074
:103C50000000000000000000000000000000000064
:103C60000000000000000000000000000000000054
:103C70000000000000000000000000000000000044
:103C80000000000000000000000000000000000034
:103C90006400E100000000000001010302010007D0
:103CA0000605040000000076096B09000000004EC4
:103CB0000C1D0CD60BDF0BF40B050C000000008173
:103CC00011241430114C113C11A911AD1100000048
:103CD000007F1324143513511341136F1300000098
:0C3CE00000E91824148B1948193B190046
:00000001FF
