:100000000C94E7030C940F040C940F040C940F044D
:100010000C940F040C940F040C940F040C944309DB
:100020000C940F040C940F040C945B180C94E218BD
:100030000C940F040C940F040C940F040C940F04F4
:100040000C940F040C940F040C940F040C940F04E4
:100050000C940F040C940F040C940F040C94F10EE8
:100060000C940F040C94E5110C942C120C940F04B6
:100070000C940F040C940F040C940F040C940F04B4
:100080000C94DA150C9444040C940F040C940F0493
:100090000C94490D0C940F040C9457040C940F0409
:1000A0000C940F040C940F040C940F040000000037
:1000B000007CDAF2DA7C7CD6F2D67C387C3E7C3866
:1000C000183C7E3C1838EABEEA38387AFE7A3800A6
:1000D000183C1800FFE7C3E7FF0018241800FFE7EB
:1000E000DBE7FF0C125C607064949E946402FEA0D7
:1000F000A0E002FEA0A4FC5A3CE73C5AFE7C383843
:10010000101038387CFE2844FE4428FAFA00FAFA27
:100110006090FE80FE006691A95606060606062936
:1001200045FF452910207E201008047E0408101089
:1001300054381010385410107808080808307830F7
:1001400078300C1C7C1C0C60707C7060000000001F
:10015000000000FA000000E000E00028FE28FE2871
:100160002454FE5448C4C81026466C926A040A00FF
:1001700010E0C00000384482000082443800543847
:10018000FE385410107C101000010E0C00101010DE
:100190001010000006060004081020407C8A92A27D
:1001A0007C0042FE02004E92929262848292B2CC15
:1001B000182848FE08E4A2A2A29C3C5292928C828B
:1001C000848890E06C9292926C6292929478000093
:1001D00028000000022C0000001028448228282853
:1001E0002828008244281040809A90607C82BA9A25
:1001F000723E4888483EFE9292926C7C8282824493
:10020000FE8282827CFE92929282FE909090807C0E
:1002100082828ACEFE101010FE0082FE820004024E
:1002200082FC80FE10284482FE02020202FE403858
:1002300040FEFE201008FE7C8282827CFE90909020
:10024000607C828A847AFE90989462649292924C46
:10025000C080FE80C0FC020202FCF8040204F8FC2C
:10026000021C02FCC6281028C6C0201E20C0869A88
:1002700092B2C200FE828282402010080400828274
:1002800082FE2040804020020202020200C0E010F4
:1002900000042A2A1E02FE1422221C1C22222214DE
:1002A0001C222214FE1C2A2A2A1800107E904018B4
:1002B0002525391EFE1020201E0022BE0200040249
:1002C00002BC00FE081422000082FE02003E201E36
:1002D000201E3E1020201E1C2222221C3F182424F7
:1002E00018182424183F3E10202010122A2A2A24ED
:1002F0002020FC22243C0202043E38040204383C44
:10030000020C023C2214081422320909093E22265A
:100310002A322200106C82000000EE000000826C85
:10032000100040804020403C64C4643C7885858651
:10033000485C0202045E1C2A2AAA9A84AAAA9E8207
:10034000842A2A1E8284AA2A1E02042AAA9E023015
:10035000784A4E489CAAAAAA9A9C2A2A2A9A9CAA17
:100360002A2A1A0000A23E820040A2BE420080A2B9
:100370003E020F9424940F0F14A4140F3E2AAAA235
:1003800000042A2A3E2A3E5090FE924C9292924CB1
:100390004C1212124C4C5212120C5C8282845E5C23
:1003A0004202041E00B90505BE9C2222229CBC020A
:1003B0000202BC3C24FF2424127E92C266D4F43F85
:1003C000F4D4FF90946F0403117E90C0042A2A9EF7
:1003D00082000022BE820C1212524C1C0202445EA9
:1003E000005E50504EBEB0988CBE649494F4146479
:1003F000949494640C12B202041C1010101010108B
:1004000010101CF40813355DF408142C5F0000DE96
:100410000000102854284444285428105500AA00ED
:100420005555AA55AA55AA55AA55AA000000FF007D
:10043000080808FF00282828FF000808FF00FF0818
:10044000080F080F2828283F002828EF00FF000089
:10045000FF00FF28282F203F2828E808F80808F880
:1004600008F8282828F8000808080F00000000F8FD
:1004700008080808F8080808080F08000000FF0826
:100480000808080808080808FF08000000FF2800FE
:1004900000FF00FF0000F808E800003F202F282898
:1004A000E808E828282F202F0000FF00EF28282840
:1004B00028282828EF00EF282828E8280808F80826
:1004C000F82828282F2808080F080F0000F808F837
:1004D000000000F8280000003F2800000F080F0867
:1004E00008FF08FF282828FF28080808F80000004F
:1004F000000F08FFFFFFFFFF0F0F0F0F0FFFFFFFA2
:100500000000000000FFFFF0F0F0F0F01C22221CC1
:10051000223E54547C287E40406060407E407E40B5
:10052000C6AA9282C61C22223C20027E0478046065
:10053000407E404099A5E7A5993854925438324EF0
:10054000804E320C52B2B20C0C121E120C3D465AA6
:1005500062BC7C929292007E8080807E545454547F
:10056000542222FA2222028A5222020222528A02B1
:100570000000FF80C00701FF00001010D6D6106CED
:10058000486C246C60F090F06000001818000000C7
:100590000808000C02FF808000F88080780098B87E
:1005A000E848003C3C3C3C00000000240027002AB6
:1005B000002D00300000000000250028002B002E38
:1005C000003100000000002300260029002C002F2D
:1005D00000040404040403040502020202040302EA
:1005E00002020206060606060604040202020404CB
:1005F0000802011040804010204080408008020422
:1006000001804020100201108010204040000000B6
:100610000200080E0000030401000B0000000000AF
:1006200000000000000000000000000706050401B3
:1006300000080A0B0C0D09080B0002020201000958
:10064000040000010202000005240010010524013D
:100650000101042402060524060001070581031098
:10066000004009040100020A0000000705020240E0
:10067000000007058302400000040309044172647E
:1006800075696E6F204C656F6E6172646F004172A8
:100690006475696E6F204C4C43001201000200002B
:1006A00000404123368000010102000112010002D6
:1006B000020000404123368000010102000100C118
:1006C0008081C105010902A1010901A1008501057F
:1006D000091901290315002501950375018102956A
:1006E0000175058103050109300931093815812596
:1006F0007F750895038106C0C005010906A1018523
:1007000002050719E029E715002501750195088103
:100710000295017508810395067508150025650584
:1007200007190029658100C00904020001030000C7
:100730000009210101000122650007058403400032
:100740000100000000000000002A2B28000000002B
:100750000000000000000000000000000000000099
:10076000002C9EB4A0A1A2A434A6A7A5AE362D3716
:1007700038271E1F20212223242526B333B62EB767
:10078000B89F8485868788898A8B8C8D8E8F90917F
:1007900092939495969798999A9B9C9D2F3130A30C
:1007A000AD350405060708090A0B0C0D0E0F1011D4
:1007B00012131415161718191A1B1C1DAFB1B0B55A
:1007C00000007A0BC00B1811691397176B1A1124CC
:1007D0001FBECFEFDAE0DEBFCDBF15E0A0E0B1E095
:1007E000E8EBFBE302C005900D92AA36B107D9F7FA
:1007F00018E0AAE6B5E001C01D92A63AB107E1F7FC
:1008000017E0CEECD7E004C02297FE010E94D61D6F
:10081000C23CD107C9F70E94BF130C94DA1D0C9497
:100820000000FB01DC0102C001900D9241505040DC
:10083000D8F708956817790768F4FB01DC01E40F25
:10084000F51FA40FB51F02C002900E9241505040F8
:10085000D8F708950C94110421E030E00CC000009A
:10086000000000000000000000009F5F9A35B9F70B
:100870002150304011F090E0F2CF3C9A8093BB00C1
:1008800084E88093BC0008951F920F920FB60F92D8
:1008900011248F938BB180588BB9109295001092D0
:1008A00094008F910F900FBE0F901F9018951F927C
:1008B0000F920FB60F921124EF92FF920F931F9396
:1008C0002F933F934F935F936F937F938F939F9358
:1008D000AF93BF93CF93DF93EF93FF931092BF003B
:1008E0001092BE0010926C0610926D0620916F0659
:1008F000309170068091710690E02817390728F42E
:1009000080916D06816080936D0620916F06309115
:1009100070068091720690E02817390728F48091BC
:100920006D06826080936D0620916F06309170068F
:100930008091730690E02817390728F480916D069E
:10094000846080936D0680916F0690917006019689
:100950009093700680936F0680916F069091700659
:100960008436910521F41092700610926F068091E2
:100970007406882371F480916D06877F80936D06DD
:1009800040E050E0F8E0FF2E0FEF1FEFE7E0EE2E23
:1009900004C080916D068860F1CFFA01EE0FFF1F51
:1009A000EE0FFF1F9F012B58394FE9018881998174
:1009B000AA81BB81EA01CC0FDD1F0297A105B10519
:1009C00008F443C0BE016F57794FFB0180819181CC
:1009D000892BA1F5DA01A957B94F8C91FA01E65795
:1009E000F94F9081890F8C93F90180819181A281C7
:1009F000B3810197A109B10980839183A283B38355
:100A0000FA01E357F94F2081CA01A3E0880F991F2B
:100A1000AA95E1F7C80FD91FC20FD11DC057D94FF2
:100A2000888190E0DB0111969C938E9380818F5F8B
:100A3000808380818A30E8F010821BC0EB018881BE
:100A4000998101979983888314C0D9011D921D92C1
:100A50001D921C921397E255F94F10821182128257
:100A60001382FA01E957F94FF082CF57D94F198312
:100A70000883FA01E957F94F8081883014F0108219
:100A800003C0808187FDE082FA01EE0FFF1FEE0FA9
:100A9000FF1FE255F94F80819181A281B3810097B8
:100AA000A105B10521F4FA01E957F94FF0824F5F32
:100AB0005F4F4330510509F070CF90916C06E09183
:100AC0008806FF27E7FDF095E654F94F8081982BC3
:100AD00090936C0690916C06E0918906FF27E7FDE4
:100AE000F095ED53F94F8081982B90936C0690917F
:100AF0006D06E0918706FF27E7FDF095ED53F94F6E
:100B00008081982B90936D065D9880916D068EBDC7
:100B10000DB407FEFDCF8EB580916C068EBD0DB471
:100B200007FEFDCF8EB55D9AFF91EF91DF91CF91DA
:100B3000BF91AF919F918F917F916F915F914F91F5
:100B40003F912F911F910F91FF90EF900F900FBE4B
:100B50000F901F901895CF93DF93962F50E0BA0116
:100B60007695762F66277795679585E02802900120
:100B70001124892F625F7E4FE9012596F901E45522
:100B8000FF4FE491DB01A80FB11DEC938F5F2F5F46
:100B90003F4F2C173D0791F7292F2B5F342F330F31
:100BA000330F330F692F665F4F5F5F4F440F440F62
:100BB000440F80916806281710F4209368068091EE
:100BC0006906861710F46093690680916A063817E3
:100BD00010F430936A0680916B06841710F44093EA
:100BE0006B06DF91CF9108950F931F93062F142F5B
:100BF0003C9A84EA8093BC0020E030E08091BC0005
:100C000087FD38C02A353105A9F12F5F3F4FF6CF58
:100C10008091BC0087FD35C02A35310591F12F5FE9
:100C20003F4FF6CF8091BC0087FD31C02A3531059A
:100C300071F12F5F3F4FF6CF8091BC0087FD33C02D
:100C40002A35310581F12F5F3F4FF6CF8091BC00EF
:100C500087FD32C02A35310579F12F5F3F4FF6CF3E
:100C60008091BC0087FD2DC02A35310551F12F5FE1
:100C70003F4FF6CF812F880F0E942C0420E030E0F8
:100C8000C7CF802F0E942C0420E030E0CBCF3C9ACD
:100C900084EA8093BC00110F812F81600E942C0494
:100CA00020E030E0C9CF8091BC008F70806C8093D1
:100CB000BC0020E030E0CACF9091BB0020E030E0E3
:100CC000CFCF84E98093BC008091BC008B7F809360
:100CD000BC008091BC0084608093BC00892F1F9170
:100CE0000F9108950F931F93162F042F3C9A84EAB7
:100CF0008093BC0040E050E08091BC0087FD24C0A0
:100D00004A35510509F14F5F5F4FF6CF8091BC0026
:100D100087FD21C02A353105F1F02F5F3F4FF6CF17
:100D20008091BC0087FD1DC02A353105D1F02F5FB1
:100D30003F4FF6CF8091BC0087FD19C02A353105A1
:100D4000B1F02F5F3F4FF6CF822F880F0E942C0407
:100D500020E030E0DBCF812F0E942C0420E030E047
:100D6000DFCF802F0E942C0420E030E0E3CF84E925
:100D70008093BC001F910F910895CF93DF93EC01F6
:100D80006DE04DE10E94F4058A3219F02FEF3FEF3C
:100D900037C0CE016AE24DE10E94F405482F4E7F34
:100DA000CE016AE22DE10E947206CE016EE040E0C3
:100DB0002DE10E947206CE016AE24DE10E94F40527
:100DC000482F477CCE016AE22DE10E947206CE01D7
:100DD0006AE24DE10E94F405482FCE016AE22DE15E
:100DE0000E947206CE016AE24DE10E94F405482F8E
:100DF0004160CE016AE22DE10E94720621E030E0FE
:100E0000C901DF91CF91089510926606109267068E
:100E100080E094E0EEE0F1E0DF019C011D922150C2
:100E20003040E1F780916806882311F0109268063F
:100E3000809169068F3718F48FE780936906809157
:100E40006A06882311F010926A0680916B068F3330
:100E500018F48FE380936B0608951F93162FF89470
:100E60005D9A81E160E00E94AA101EBD0DB407FEEC
:100E7000FDCF81E161E00E94AA1078941F9108954E
:100E8000FF920F931F938C01F62E84E061E00E9485
:100E9000AA10C8016F2D0E942D071F910F91FF907E
:100EA0000895FF920F931F938C01F62E84E060E06B
:100EB0000E94AA10C8016F2D0E942D071F910F914B
:100EC000FF9008958F929F92AF92BF92CF92DF9240
:100ED000EF92FF920F931F93CF93DF93EC0179E191
:100EE000872E75E0972E20E030E0AA24BB2468E02E
:100EF000C62ED12CC20ED31E80916A0690E08C15AE
:100F00009D05D4F580916B0690E0821793070CF451
:100F100040C0F4016081606BCE010E9451071091C6
:100F2000680600916906612F6F5F6F70CE010E94A5
:100F30005107612F70E06F5F7F4F54E075956795A3
:100F40005A95E1F76F706061CE010E945107CE01A2
:100F500060EE0E9451074EE0E42E41E0F42EEA0CD0
:100F6000FB1C08C0F701E10FF11DCE0160810E945A
:100F700040071F5F0117B0F70894811C911C80E89F
:100F800090E0A80EB91E90E4C916D10411F09601A4
:100F9000AECF8FE780936806109269068FE3809347
:100FA0006A0610926B06DF91CF911F910F91FF900F
:100FB000EF90DF90CF90BF90AF909F908F9008956B
:100FC000EF92FF921F937C01162F61E80E94510758
:100FD0001F73C701612F0E9451071F91FF90EF906F
:100FE0000895CF93DF93EC0184E061E00E941D102F
:100FF0008CE061E00E941D1081E161E00E941D1003
:1010000081E160E00E94AA1088EE93E020E931E0DF
:10101000F9013197F1F70197D9F78CE060E00E9470
:10102000AA1088EE93E020E931E0F9013197F1F759
:101030000197D9F78CE061E00E94AA10CE0163EA23
:101040000E945107CE0161EA0E945107CE0160EC77
:101050000E945107CE0160E60E945107CE016CE26A
:101060000E94510784EF91E020E931E0F9013197C6
:10107000F1F70197D9F7CE016EE20E94510784EF94
:1010800091E020E931E0F9013197F1F70197D9F7C3
:10109000CE016FE20E94510780E49CE90197F1F7CD
:1010A000CE0166E20E94510780916806882311F004
:1010B00010926806809169068F3718F48FE7809345
:1010C000690680916A06882311F010926A06809161
:1010D0006B068F3318F48FE380936B06DF91CF910B
:1010E00008958FE061E00E941D1080E161E00E94A0
:1010F0001D1081E161E00E941D108FE060E00E9400
:10110000AA1080E160E00E94AA1081E161E00E94E3
:10111000AA108CB580618CBD8CB580648CBD8CB5FB
:101120008C7F8CBD8DB581608DBD08950F931F930D
:101130008C010E947108C8010E94F107C8016FEA82
:101140000E945107C80164EA0E945107C80160E08B
:101150000E94E0071F910F9108958EE091E06EE8E4
:1011600071E040E853E00E941A0480E8EEE8F4E001
:10117000DF011D928A95E9F780916806882311F0B6
:1011800010926806809169068F3718F48FE7809374
:10119000690680916A06882311F010926A06809190
:1011A0006B068F3318F48FE380936B060895CF920C
:1011B000DF92EF92FF920F931F93CF93DF938C01F7
:1011C0006B017A01C0E0D0E034C0F601EC0FFD1FE6
:1011D00020812A3041F4809167068F5F80936706F3
:1011E0001092660619C02D30B9F0C80160916606EC
:1011F000409167060E94AB05809166068A5F8093E6
:10120000660690E08A3791053CF010926606809160
:1012100067068F5F8093670680916706883040F08D
:10122000C8010E94AD0880916706815080936706CF
:101230002196CE15DF0548F2DF91CF911F910F91D6
:10124000FF90EF90DF90CF9008950F931F93142F8E
:10125000052F0E94D708812F902F1F910F9108957D
:10126000DF93CF930F92CDB7DEB76983BE016F5F77
:101270007F4F41E050E00E94D70881E090E00F905E
:10128000CF91DF9108951F920F920FB60F92112404
:10129000EF92FF920F931F932F933F934F935F9380
:1012A0006F937F938F939F93AF93BF93EF93FF932E
:1012B00080913B06813009F469C00E94390F9B017F
:1012C000AC018CB1682F70E06074707080916E0515
:1012D00090916F05A0917005B091710579018A0117
:1012E000E81AF90A0A0B1B0BE0926A05F0926B05EB
:1012F00000936C0510936D0580916A0590916B05C4
:10130000A0916C05B0916D0580529E44A040B04004
:10131000D4F1672B19F410923A062CC0E0913A06EA
:10132000F0E080916A0590916B05A0916C05B091F9
:101330006D05EE0FFF1FEE0FFF1FEE58FA4F918362
:10134000808318C0E0913A06F0E080916A059091A0
:101350006B05A0916C05B0916D05EE0FFF1FEE0FB0
:10136000FF1FEE58FA4F9383828380913A068F5F76
:1013700080933A0620936E0530936F054093700575
:101380005093710503C0672BE9F2C8CFFF91EF912D
:10139000BF91AF919F918F917F916F915F914F918D
:1013A0003F912F911F910F91FF90EF900F900FBEE3
:1013B0000F901F901895EF92FF920F931F93162F87
:1013C000042F86E1E82E87E0F82EC7016EE170E079
:1013D0000E94860BC701612F0E94080CC701602F75
:1013E0000E94080CC7010E944B0C1F910F91FF90A7
:1013F000EF900895CF93DF9386E197E06EE170E080
:101400000E94860B86E197E063E00E94080C86E16B
:1014100097E00E944B0C86E197E06EE170E00E943D
:10142000860B86E197E06EE170E046E050E00E94B6
:101430005C0C86E197E00E94900B069771F4C0E087
:10144000D0E086E197E00E94990BFE01E45CF94F41
:1014500080832196C630D105A1F786E197E00E94EE
:101460004B0CDF91CF9108950F931F938C0163E094
:1014700070E046E050E00E94FA0940913C0620915D
:101480003D06742F60E030E0622B732B882777FDD8
:101490008095982F0E94781C2FE135E84BE65FE39A
:1014A0000E942C1DF8016483758386839783409185
:1014B0003E0620913F06742F60E030E0622B732BD4
:1014C000882777FD8095982F0E94781C2FE135E8BA
:1014D0004BE65FE30E942C1DF801608771878287CD
:1014E00093874091400620914106742F60E030E0E0
:1014F000622B732B882777FD8095982F0E94781C8C
:101500002FE135E84BE65FE30E942C1DF80164876C
:101510007587868797871F910F910895CF93DF93E3
:10152000EC0189E997E060E875E20E94DD1087EE42
:1015300097E040E855E260E070E00E945C128DE0C8
:1015400061E00E941D108DE060E00E94AA108BE017
:1015500061E00E941D108BE060E00E94AA1084E10F
:1015600060E00E941D1085E161E00E941D1086E18F
:1015700061E00E941D1087E161E00E941D1086E07D
:1015800061E00E941D108AE061E00E941D1085E06C
:1015900060E00E941D1089E061E00E941D108FEC48
:1015A00096E060E070E00E947F0B8FEC96E060E0D8
:1015B00070E00E947F0B8E8F0E94710C84E00E946D
:1015C000600C559A5D9880916D068EBD0DB407FE36
:1015D000FDCF8EB580916C068EBD0DB407FEFDCF9C
:1015E0008EB55D9A1092740680E18093C30680E305
:1015F0008093C40680E28093C50680E68093C60689
:1016000080E48093C70680EC8093C80680E88093CE
:10161000C90680E98093CA061092CB0681E08093C8
:10162000BA0683E08093BB0682E08093BC0686E026
:101630008093BD0684E08093BE068CE08093BF0655
:1016400088E08093C00689E08093C1061092C206AC
:10165000CE010E949608CE010E94620780910E057D
:101660008093CE068093CD068093CC06F89410929A
:10167000C0001092C1001092BF001092BE0080E323
:101680008093CF0086E08093C100809172008064D7
:10169000809372007894F89487E060E00E941D10B7
:1016A00080916A008F7C806180936A00EE9A7894C2
:1016B000CE010E94BD06CE0161E070E040E250E044
:1016C0000E94DB09CE0162E070E040E050E00E9441
:1016D000DB09CE010E94340ADF91CF910895FC010D
:1016E0001382128285E295E091838083CF010E946C
:1016F0008E0A089582E496E00E946F0B0895F9998E
:10170000FECF72BD61BDF89A80B5089581E08093E7
:1017100015076093F20610921307109214070895AC
:101720002091F10630E08091F006281B3109C901B3
:1017300008954091F0068091F106481718F02FEFB8
:101740003FEF0AC0E42FF0E0E053F94F8081282FEB
:1017500030E04F5F4093F006C9010895E091F00634
:101760008091F106E81718F0EFEFFFEF06C0F0E008
:10177000E053F94F8081E82FF0E0CF0108950895FC
:10178000109219071092180788EE93E0A0E0B0E0DD
:1017900080931A0790931B07A0931C07B0931D0713
:1017A0008DE295E090931707809316070895CF92E6
:1017B000DF92EF92FF920F931F93CF93DF937C0101
:1017C0006B018A01809115078823A1F0C0E0D0E069
:1017D0000DC0D701ED91FC91D601AC0FBD1F01905A
:1017E000F081E02DC7016C9109952196C017D107B2
:1017F00080F304C0CB01642F0E942E0DC801DF913D
:10180000CF911F910F91FF90EF90DF90CF900895AF
:10181000DF93CF930F92CDB7DEB7FC016983809140
:1018200015078823C9F080911407803238F081E0D1
:1018300090E09383828320E030E015C0809113070D
:10184000E82FF0E0ED50F94F998190838F5F8093FE
:1018500013078093140705C0CE01019661E00E9432
:101860002E0D21E030E0C9010F90CF91DF91089556
:101870000F93062F8091F20663EF76E040911407F4
:1018800021E00E94D90C10921307109214071092B5
:1018900015070F91089561E00E94380C08954132B8
:1018A00008F040E2862F60ED76E00E94900C1092E6
:1018B000F0068093F106089521E00E944F0C0895F0
:1018C0002CB5382F33702C7F322B3CBD2DB590E0DA
:1018D000959587959595879581702E7F822B8DBDE7
:1018E00008958FE061E00E941D1080E161E00E9498
:1018F0001D1081E161E00E941D108FE060E00E94F8
:10190000AA1080E160E00E94AA1081E161E00E94DB
:10191000AA108CB580618CBD8CB580648CBD089597
:10192000382F413210F040E042C0809122078823D6
:10193000E1F791E090932207209324078FEF8093A3
:101940008F0710924A07415040934B074F5F909387
:10195000230780912307330F832B809323078091E4
:101960002507813041F41092250780912307809349
:10197000BB0085EC01C085EE8093BC0080912207FE
:101980008130E1F380914A07841710F440914A07AF
:1019900020E030E00AC0FB01E20FF31FD901A65D91
:1019A000B84F8C9180832F5F3F4F2417A0F3842F73
:1019B00008950F931F93582F122F413210F081E09A
:1019C0004AC0809122078823E1F782E080932207B2
:1019D000009324078FEF80938F0710924A0740935C
:1019E0004B07AAE2B7E0FB0102C081918D938E2FD5
:1019F000861B8417D0F31092230780912307550F7D
:101A0000852B8093230780912507813041F4109224
:101A10002507809123078093BB0085EC01C085EEEC
:101A20008093BC00112321F0809122078230E1F3E2
:101A300080918F078F3F11F480E00DC080918F0758
:101A4000803211F482E007C080918F07803311F05B
:101A500084E001C083E01F910F910895482F613207
:101A600010F081E0089580912207843011F082E027
:101A7000089560936D07ACE4B7E0842F9C01F901F1
:101A800002C081918D938E2F841B8617D0F380E046
:101A900008951F920F920FB60F9211242F933F9328
:101AA0004F935F936F937F938F939F93AF93BF9366
:101AB000EF93FF938091B90090E0887F907080361B
:101AC000910509F4F2C081369105CCF58832910573
:101AD00009F47BC089329105B4F48031910509F491
:101AE0006FC0813191053CF4009709F447C1089714
:101AF00009F04FC165C08831910509F466C080972F
:101B000009F047C182C08034910509F4A4C0813432
:101B1000910544F48033910509F482C0C89709F017
:101B200038C189C08035910509F489C0883591058F
:101B300009F496C08834910509F02BC1AEC08839EC
:101B4000910509F413C189399105ECF488379105A1
:101B500009F4ABC0893791054CF48836910509F436
:101B6000A4C08037910509F014C19FC08838910541
:101B700009F4FCC08039910509F49DC080389105B5
:101B800009F007C198C0803B910509F4C6C0813BAC
:101B900091054CF4803A910509F49FC0883A91056B
:101BA00009F0F7C0BAC0803C910509F4E3C0883C55
:101BB000910509F4DFC0883B910509F0EAC0C2C075
:101BC000809123078093BB00CFC090914A078091FA
:101BD0004B07981768F490914A07E92FF0E0E65D0B
:101BE000F84F80818093BB009F5F90934A07BCC0F1
:101BF00080912407882309F44BC085ED8093BC00B5
:101C00008091BC0084FDFCCFC2C080E280938F072E
:101C100085ED8093BC008091BC0084FDFCCFB7C0F3
:101C200080E380938F0785ED8093BC008091BC009A
:101C300084FDFCCFACC088E380938F079BC080916C
:101C40004A079091BB00E82FF0E0E65DF84F9083E3
:101C50008F5F80934A0790914A0780914B0782C01B
:101C600080914A079091BB00E82FF0E0E65DF84FC5
:101C700090838F5F80934A0780912407882341F0E7
:101C800085ED8093BC008091BC0084FDFCCF7FC0BB
:101C900081E08093250784EA6EC085ED8093BC00C7
:101CA0008091BC0084FDFCCF72C083E0809322074A
:101CB00010928E0759C080918E07803208F056C06E
:101CC00080918E079091BB00E82FF0E0E259F84F29
:101CD00090838F5F80938E0747C080918E078032FC
:101CE00030F4E0918E07F0E0E259F84F108285ED74
:101CF0008093BC008091BC0084FDFCCF1092220731
:101D000060918E07E0912807F09129078EE697E011
:101D100070E0099510928E072DC084E08093220711
:101D200010926C0710926D07E0912607F09127073B
:101D3000099580916D07882329F481E080936D07D0
:101D400010924C0790916C07E92FF0E0E45BF84F9C
:101D500080818093BB009F5F90936C0790916C078C
:101D600080916D07981710F485EC01C085E8809389
:101D7000BC000FC085EC8093BC0009C010928F0797
:101D800085ED8093BC008091BC0084FDFCCF109257
:101D90002207FF91EF91BF91AF919F918F917F911A
:101DA0006F915F914F913F912F910F900FBE0F90C8
:101DB0001F90189508950F931F9302E416E0C80131
:101DC0000E940407C8014BED5FE069E470E422E083
:101DD00030E00E94AF15C8010E9462071F910F9169
:101DE00008951F920F920FB60F9211242F933F93D5
:101DF0008F939F93AF93BF93809194079091950792
:101E0000A0919607B0919707309198070196A11D70
:101E1000B11D232F2D5F2D3720F02D570196A11DC9
:101E2000B11D209398078093940790939507A093F2
:101E30009607B09397078091900790919107A09192
:101E40009207B09193070196A11DB11D8093900751
:101E500090939107A0939207B0939307BF91AF918E
:101E60009F918F913F912F910F900FBE0F901F90D8
:101E700018959FB7F8942091900730919107409161
:101E800092075091930786B5A89B06C08F3F21F01B
:101E90002F5F3F4F4F4F5F4F9FBF542F432F322F26
:101EA0002227280F311D411D511D82E0220F331FB3
:101EB000441F551F8A95D1F7B901CA010895789436
:101EC00084B5826084BD84B5816084BD85B582603F
:101ED00085BD85B5816085BDEEE6F0E080818160DD
:101EE0008083E1E8F0E010828081826080838081DD
:101EF00081608083E0E8F0E0808181608083E1E9B7
:101F0000F0E0808182608083808181608083E0E96D
:101F1000F0E0808181608083E1ECF0E0808184608A
:101F20008083808182608083808181608083E3EC14
:101F3000F0E0808181608083E0ECF0E0808182606D
:101F40008083E2ECF0E0808181608083EAE7F0E06A
:101F500080818460808380818260808380818160D1
:101F600080838081806880830895EF92FF920F9331
:101F70001F93CF93DF937B018C013FB7F89480913F
:101F8000900790919107A0919207B091930726B581
:101F9000A89B05C02F3F19F00196A11DB11D3FBFA1
:101FA000BA2FA92F982F8827820F911DA11DB11D2F
:101FB00052E0880F991FAA1FBB1F5A95D1F7EC0159
:101FC00030C00E94301A3FB7F894809190079091EA
:101FD0009107A0919207B091930726B5A89B05C0E1
:101FE0002F3F19F00196A11DB11D3FBFBA2FA92F98
:101FF000982F8827820F911DA11DB11D32E0880FF7
:10200000991FAA1FBB1F3A95D1F78C1B9D0B885EA9
:102010009340B8F20894E108F10801091109C85188
:10202000DC4FE114F1040105110559F6DF91CF9160
:102030001F910F91FF90EF900895CF93DF93482F5A
:1020400050E0CA0181519A4FFC0134914F525A4FCE
:10205000FA018491882369F190E0880F991FFC01AF
:10206000E955FA4FA591B491FC01EB54FA4FC59193
:10207000D491662351F42FB7F8948C91932F9095B7
:1020800089238C93888189230BC0623061F42FB738
:10209000F8948C91932F909589238C938881832B2E
:1020A00088832FBF06C09FB7F8948C91832B8C93A5
:1020B0009FBFDF91CF910895883071F1893068F426
:1020C000823031F1833020F4813009F042C01DC0EC
:1020D000833089F08430E9F512C08B3059F18C30AF
:1020E00028F48930E9F08A30A1F51EC08C3031F136
:1020F0008E3079F529C0809180008F7703C0809160
:1021000080008F7D80938000089584B58F7702C012
:1021100084B58F7D84BD0895809190008F7707C02E
:10212000809190008F7D03C080919000877F809385
:10213000900008958091C0008F7703C08091C00007
:102140008F7D8093C00008958091C200877F809327
:10215000C2000895FF920F931F93F62E482F50E070
:10216000CA01835F994FFC012491CA0181519A4FA2
:10217000FC0114914F525A4FFA0104910023C9F007
:10218000222319F0822F0E945C10E02FF0E0EE0F66
:10219000FF1FEB54FA4FA591B4919FB7F894FF201D
:1021A00021F48C911095812302C08C91812B8C930A
:1021B0009FBF1F910F91FF9008950895FC01248502
:1021C000858530E0205C3F4F281B31092F7330702C
:1021D000C9010895FC0194858585981719F42FEF9E
:1021E0003FEF06C08585E80FF11D8685282F30E07A
:1021F000C9010895DC011C969C911C971D968C9139
:102200001D97981719F42FEF3FEF10C01D968C9172
:102210001D97FD01E80FF11D96851D968C911D9768
:102220008F5F8F731D968C93292F30E0C90108951D
:1022300010929C0710929B0788EE93E0A0E0B0E01C
:1022400080939D0790939E07A0939F07B093A0074C
:102250008DE395E090939A078093990708950F93E3
:102260001F93DF93CF930F92CDB7DEB78C016983B5
:1022700080911605882369F083E0BE016F5F7F4F70
:1022800041E050E00E94B6171816190614F49C019C
:1022900007C081E090E0F8019383828320E030E082
:1022A000C9010F90CF91DF911F910F91089583E0A5
:1022B0000E948D1708950F931F93CF93DF938C0186
:1022C000FC010FC082E00E9473169C01FFEF8F3F5C
:1022D0009F0799F0F8018485E80FF11D2687F80122
:1022E000C4878485C82FD0E02196CF73D070F801C1
:1022F000858590E0C817D90729F7DF91CF911F9105
:102300000F910895FC0180818E5F808380E867E3F0
:1023100076E042E450E00E948C160895FC01818131
:102320009081913A59F4813209F04CC080E06FE01D
:1023300075E047E050E00E948C1642C0913209F0EF
:1023400041C0803239F48FE095E067E070E00E9490
:10235000751736C0823209F035C082818093160528
:1023600080910F0590911005A0911105B091120573
:10237000805B9440A040B04019F58091160580FD27
:1023800012C087E797E790930108809300082BE03D
:1023900088E190E00FB6F894A895809360000FBE96
:1023A000209360000DC088E10FB6F8948093600020
:1023B000109260000FBEA8951092010810920008BC
:1023C00081E0089580E0089508951F920F920FB65E
:1023D0000F9211242F933F934F938F939F93EF93DB
:1023E000FF938091C80082FD19C04091CE0080917A
:1023F0000508282F30E02F5F3F4F2F7330708091FA
:10240000060890E02817390759F0E0910508F0E038
:10241000E951F84F42A32093050802C08091CE00F5
:10242000FF91EF919F918F914F913F912F910F903D
:102430000FBE0F901F9018958091050820910608F7
:1024400090E0805C9F4F821B91098F739070892B65
:1024500011F00E94E41108951F920F920FB60F928F
:1024600011242F938F939F93EF93FF9390910708DD
:1024700080910808981731F48091C9008F7D80936E
:10248000C90010C0E0910808F0E0E75BF74F208139
:102490008091080890E001968F73907080930808EF
:1024A0002093CE00FF91EF919F918F912F910F90EC
:1024B0000FBE0F901F901895AF92BF92DF92EF92D0
:1024C000FF920F931F93CF93DF93EC017A018B015F
:1024D000DD24403081EE580780E0680780E078070F
:1024E00011F0DD24D39491E0A92EB12CE889F9896B
:1024F000DD2069F0C5010C8C02C0880F991F0A9479
:10250000E2F7808360E079E08DE390E005C010821F
:1025100060E874E88EE190E0A80197010E94B21D86
:10252000215030404040504056954795379527956B
:1025300080E12030380720F0DD2011F0DD24D6CFF7
:10254000EC85FD853083EE85FF8520831D8EEA892D
:10255000FB89408121E030E0C901088C02C0880F6E
:10256000991F0A94E2F7482B4083EA89FB8940814E
:10257000C901098C02C0880F991F0A94E2F7482B01
:102580004083EA89FB894081C9010A8C02C0880F17
:10259000991F0A94E2F7482B4083EA89FB898081DE
:1025A0000B8C02C0220F331F0A94E2F720952823D8
:1025B0002083DF91CF911F910F91FF90EF90DF90DB
:1025C000BF90AF900895FC01268D878D30E0205C90
:1025D0003F4F281B31092F733070C9010895FC014A
:1025E000968D878D981719F42FEF3FEF06C0878DD2
:1025F000E80FF11D82A1282F30E0C9010895DC0108
:102600005E969C915E975F968C915F97981719F4F0
:102610002FEF3FEF10C05F968C915F97FD01E80FA1
:10262000F11D92A15F968C915F978F5F8F735F967C
:102630008C93292F30E0C9010895DC015D968C91BF
:102640005D97882339F05096ED91FC9151978081E8
:1026500086FFF9CF5D961C920895DC0190968C91CF
:102660009097282F30E02F5F3F4F2F733070919657
:102670008C91919790E028173907C9F390968C9127
:102680009097FD01E80FF11DEE59FF4F6083909682
:102690002C9390975296ED91FC915397208181E075
:1026A00090E05B960C905B9702C0880F991F0A948C
:1026B000E2F7282B208381E05D968C935D975096FE
:1026C000ED91FC91519780818064808381E090E05E
:1026D00008951092EA071092E90788EE93E0A0E0CF
:1026E000B0E08093EB079093EC07A093ED07B093D5
:1026F000EE078FE495E09093E8078093E707109248
:1027000008088091080880930708109206088091B5
:102710000608809305088DEC90E09093F407809371
:10272000F3078CEC90E09093F6078093F50788EC24
:1027300090E09093F8078093F70789EC90E09093EE
:10274000FA078093F9078AEC90E09093FC07809356
:10275000FB078EEC90E09093FE078093FD0784E0EA
:102760008093FF0783E08093000887E0809301084F
:1027700085E08093020881E0809303080895CF9359
:10278000DF930E945F0F88E998E00E9498170E94EB
:10279000DB0ECCE1D2E10E94DA0E2097E1F30E9439
:1027A0001C12F9CFCF92DF92EF92FF920F931F93FB
:1027B000CF93DF937C016B018A01C0E0D0E00FC0B2
:1027C000D6016D916D01D701ED91FC910190F081E1
:1027D000E02DC7010995C80FD91F01501040011500
:1027E000110571F7CE01DF91CF911F910F91FF90ED
:1027F000EF90DF90CF900895CF93DF93EC016115B8
:10280000710519F420E030E00FC0DB010D900020CD
:10281000E9F71197A61BB70BE881F9810280F381D4
:10282000E02DAD0109959C01C901DF91CF9108957B
:102830004F925F927F928F929F92AF92BF92CF9270
:10284000DF92EF92FF920F931F93DF93CF93CDB759
:10285000DEB7A1970FB6F894DEBF0FBECDBF2C0137
:10286000742ECB01223008F42AE019A231E2C32EE3
:10287000D12CCC0EDD1E822E9924AA24BB24672DD8
:10288000752FA50194010E94B21D79018A01C8012A
:10289000B701A50194010E94931D472D461B089482
:1028A000C108D1084A3014F4405D01C0495CF6010A
:1028B0004083E114F1040105110521F07E2C5F2D08
:1028C000C801DDCFC201B6010E94FC13A1960FB66C
:1028D000F894DEBF0FBECDBFCF91DF911F910F9156
:1028E000FF90EF90DF90CF90BF90AF909F908F9030
:1028F0007F905F904F900895DC012115310541F4E0
:10290000ED91FC910190F081E02D642F09950895DF
:102910000E9418140895CF92DF92EF92FF920F93C6
:102920001F93CF93DF93EC016A017B0121153105E1
:1029300041F4E881F9810190F081E02D642F09953F
:102940001FC02A303105D1F477FF17C0E881F98123
:102950000190F081E02D6DE209958C014427552707
:10296000BA014C195D096E097F09CE012AE00E9467
:1029700018149801280F391F04C02AE00E94181467
:102980009C01C901DF91CF911F910F91FF90EF90B2
:10299000DF90CF9008957F928F929F92AF92BF92D7
:1029A000CF92DF92EF92FF920F931F93CF93DF931B
:1029B0004C017A018B01722ECB01BA01A80197015B
:1029C0000E948F1D882321F0C40160E071E021C0C6
:1029D000C0E0D0E057016801E894D7F8C601B5011E
:1029E0002FEF3FEF4FE75FE70E948F1D882351F4E1
:1029F000C601B5012FEF3FEF4FE75FE70E94D91BFC
:102A0000181614F0C1E0D0E0219739F0C40164E059
:102A100071E00E94FC13EC0193C0C801B7012FEFD5
:102A20003FEF4FE75FE40E94281D181654F0C801DD
:102A3000B7012FEF3FEF4FE75FEC0E94D91B8823D0
:102A400024F4C40168E071E0E4CFC801B70120E0DC
:102A500030E040E050E00E94D91B87FD03C0C0E099
:102A6000D0E00EC0D401ED91FC910190F081E02DF9
:102A7000C4016DE20995EC0117FB109517F910954B
:102A800020E030E040E05FE3DD240BC0CA01B90183
:102A900020E030E040E251E40E94DD1B9B01AC01EC
:102AA000D394D71498F3C801B7010E94751B5B013A
:102AB0006C010E944A1C7B018C01C401B801A70172
:102AC0002AE030E00E947C14C80FD91F772039F02B
:102AD000C4016CE071E00E94FC13C80FD91FC8014B
:102AE000B7010E94761C9B01AC01C601B5010E9492
:102AF000741B24C020E030E040E251E40E942C1D11
:102B00007B018C010E94451C5B016C01CC24B7FC4D
:102B1000C094DC2CC401B601A5012AE030E00E947B
:102B20008B14C80FD91FC601B5010E94781C9B01E8
:102B3000AC01C801B7010E94741B7A947720D1F6CA
:102B4000CE01DF91CF911F910F91FF90EF90DF9019
:102B5000CF90BF90AF909F908F907F9008950E94EC
:102B6000CB1408958230B9F0833028F4882351F0D3
:102B70008130F9F40AC08430B9F0843090F08530A7
:102B8000C1F415C010926E00089580916F008D7F82
:102B900080936F000895809170008D7F8093700006
:102BA0000895109271000895109272000895109285
:102BB000730008951F920F920FB60F9211242F9356
:102BC0003F934F935F936F937F938F939F93AF93B5
:102BD000BF93EF93FF938091890890918A08A09109
:102BE0008B08B0918C080097A105B10551F1E091D7
:102BF0008D08F0918E08808190918F0889278083BD
:102C00008091890890918A08A0918B08B0918C08D6
:102C1000181619061A061B060CF580918908909162
:102C20008A08A0918B08B0918C080197A109B1097D
:102C30008093890890938A08A0938B08B0938C089E
:102C40000DC083E00E94B215E0918D08F0918E08CE
:102C5000908180918F08809589238083FF91EF91E7
:102C6000BF91AF919F918F917F916F915F914F91A4
:102C70003F912F910F900FBE0F901F901895282F06
:102C8000809192088823C1F057FF1AC015C0289878
:102C9000909391088091F1008193E217F307B9F7BF
:102CA0004115510539F08091F200882319F48BE623
:102CB0008093E800AFBF02C04FEF5FEFCA010895F5
:102CC000AFB7F89427702093E9008091F200282F85
:102CD00030E0241735070CF4A901FB019B01240FF8
:102CE000311D94E6DACFDF93CF930F92CDB7DEB7E5
:102CF000BE016F5F7F4F41E050E00E943F16019799
:102D000019F02FEF3FEF03C08981282F30E0C90170
:102D10000F90CF91DF910895FF920F931F93F82E9C
:102D2000142F052F4091950850919608212F302F90
:102D3000C901DC01FB016EEF29C0F7FE02C09491CE
:102D400001C0908120919308309194082417350791
:102D5000ACF48091E8008570E1F38091E80082FF97
:102D600003C02FEF3FEF17C09093F100C901019608
:102D70008F739070892B11F46093E8002F5F3F4FA1
:102D80003093940820939308119731961097A9F6E1
:102D9000812F902F9C01C9011F910F91FF900895E1
:102DA0001F93782FE92F162F2091930830919408C4
:102DB000A0919508B09196082A173B07C4F480911A
:102DC000E8008570E1F38091E80082FD16C0812F54
:102DD00090E00196880F991F8093F100C901019638
:102DE0008F739070892B19F48EEF8093E8002F5F1A
:102DF0003F4F30939408209393082091930830918B
:102E000094082A173B07A4F48091E8008570E1F349
:102E10008091E80082FD12C083E08093F100C90137
:102E200001968F739070892B19F48EEF8093E800D0
:102E30002F5F3F4F3093940820939308409193085D
:102E400050919408872F9E2FFC0170E06EEF43C0D5
:102E500094914A175B07A4F48091E8008570E1F330
:102E60008091E80082FF02C020E00DC09093F10045
:102E7000CA0101968F739070892B11F46093E8005A
:102E80004F5F5F4F21E04A175B07A4F48091E80091
:102E90008570E1F38091E80082FF02C080E00DC000
:102EA0001092F100CA0101968F739070892B11F472
:102EB0006093E8004F5F5F4F81E0319690E030E033
:102EC00082239323892B31F45093940840939308E1
:102ED00080E009C07F5F711708F4BACF509394085F
:102EE0004093930881E01F9108959C018091E80030
:102EF00082FFFCCFF901260F311D03C08091F10044
:102F00008193E217F307D1F7289884E6809391081C
:102F10008BEF8093E800CB0108958093E9008091C6
:102F2000F200882319F08AE38093E8000895089559
:102F30001092920881E08093D70080EA8093D800B5
:102F400082E189BD09B400FEFDCF61E070E080E060
:102F500090E00E94B50F80E98093D8008CE08093C8
:102F6000E2001092E000559A209A08955F926F92C5
:102F70007F928F929F92AF92BF92CF92DF92EF9209
:102F8000FF920F931F93CF93DF93E82E842E752E1D
:102F900080919208882371F18B01242F352FC9016C
:102FA000EC01AAEFFA2EF7E09F2E9E20E0E45E2EC1
:102FB0008E2D90E070E2A72EB12CA822B9226AE3F0
:102FC000662E50E4C52ED12CC822D92258C09FB7F6
:102FD000F8949092E9008091E80085FD02C020E01D
:102FE00004C08091F200252D281B9FBF222361F48D
:102FF000FA9419F42FEF3FEF4DC061E070E080E0EC
:1030000090E00E94B50F3BC0822F90E0C817D9070F
:103010000CF42C2FC21BD1094FB7F8949092E90001
:10302000A114B10421F406C01092F1002150222312
:10303000D9F719C0E7FC03C0F801922F10C0C801EE
:10304000322F06C0FC010196E491E093F10031506B
:103050003323C1F706C081918093F10091509923E9
:10306000D1F7020F111D8091E80085FF05C0209760
:1030700029F4C114D10411F06092E8004FBF2097E9
:1030800009F0A5CF5D9884E680939008282D372D10
:10309000C9019C01C901DF91CF911F910F91FF9050
:1030A000EF90DF90CF90BF90AF909F908F907F90E8
:1030B0006F905F9008951F920F920FB60F92112498
:1030C0002F933F934F935F936F937F938F939F9330
:1030D000AF93BF93EF93FF938091E1001092E100D3
:1030E000982F83FF0FC01092E90081E08093EB00DE
:1030F0001092EC0082E38093ED001092920888E039
:103100008093F00092FF34C083E08093E9008091C7
:10311000F200882319F08AE38093E8008FB7F894CF
:1031200092E09093E9009091F2008FBF992321F0F3
:1031300089E997E00E945B1180919008882351F003
:103140008091900881508093900880919008882306
:1031500009F45D9A80919108882351F0809191083B
:1031600081508093910880919108882309F4289ACE
:10317000FF91EF91BF91AF919F918F917F916F914F
:103180005F914F913F912F910F900FBE0F901F9025
:1031900018950F931F93DF93CF930F92CDB7DEB7A0
:1031A00019828E010F5F1F4FC8010E948211C80152
:1031B0000E94681B898190E00F90CF91DF911F9151
:1031C0000F9108951F920F920FB60F921124EF9254
:1031D000FF921F932F933F934F935F936F937F9330
:1031E0008F939F93AF93BF93EF93FF93DF93CF930F
:1031F000CDB7DEB76197DEBFCDBF1092E9008091F9
:10320000E80083FF14C1FE0131969E01275F3F4F06
:1032100003C08091F1008193E217F307D1F728985A
:1032200084E68093910882EF8093E800998197FF6C
:1032300005C08091E80080FFFCCF03C08EEF809333
:10324000E800292F30E0C90180769070892B09F0C1
:10325000C7C08A81882329F41092F1001092F100EE
:10326000DBC0813009F4D8C0833009F4D5C0853083
:1032700049F48091E80080FFFCCF8B8180688093C7
:10328000E300CAC0863009F081C01C81EF80F88459
:103290001230C1F51092E900109294081092930830
:1032A00010929608109295080E94C91899E0FE01A4
:1032B0003996DF01292F1D922A95E9F799871A87F8
:1032C00091E09E8790E8988B9AEF998B20919308D4
:1032D00030919408275F3F4F3C872B878D87109252
:1032E000E9001092940810929308F0929608E092E8
:1032F000950880E0BF0149E050E00E948C160E94D2
:10330000C9188AC01092E90010929408109293088C
:10331000F0929608E0929508123241F482E290E031
:103320000E94601B892B09F47BC076C0113079F4B0
:1033300088E0E816F10419F481E080939708809101
:103340009708882309F070C0EAE9F6E018C0133046
:1033500009F066C08B81882319F4E9E7F6E00FC015
:10336000823021F48DE796E060E106C0813009F0FB
:1033700057C08EE896E06BE00E94D0164BC0449197
:1033800080E8BF0150E00E948C1646C0873009F4E7
:1033900047C0883021F481E08093F1003DC089303E
:1033A000D9F523703070232BD9F5EFEBF6E091E0DF
:1033B00031E026E39093E9003093EB008491809311
:1033C000EC002093ED009F5F3196953099F78EE7E2
:1033D0008093EA001092EA008B81809392081CC0CF
:1033E0008F8198851092E9001092940810929308AA
:1033F00090939608809395088D81882329F4CE01B7
:1034000001960E948E1106C0823051F4CE010196C1
:103410000E94311A882321F08EEF8093E80007C0C4
:1034200081E28093EB0003C0ECEAF6E0A8CF61965E
:10343000DEBFCDBFCF91DF91FF91EF91BF91AF91F3
:103440009F918F917F916F915F914F913F912F91BC
:103450001F91FF90EF900F900FBE0F901F90189547
:103460000895FC0191818081813A31F4913089F095
:1034700080E0933089F40DC0813269F49B3021F4EF
:1034800082818093170505C09A3029F48281809348
:10349000180581E0089580E00895EF92FF920F9360
:1034A0001F938C01E62EDC01ED91FC910480F581E7
:1034B000E02D0995F82ED801ED91FC910680F78159
:1034C000E02DC8016E2D09958F2D90E01F910F9171
:1034D000FF90EF9008951092990810929D08109215
:1034E0009C088FE595E090939B0880939A08089537
:1034F000EF92FF920F931F93DF93CF930F92CDB76D
:10350000DEB789838B017A0184E0BE016F5F7F4F54
:1035100041E050E00E94B61784E4B801A7010E9480
:10352000B6170F90CF91DF911F910F91FF90EF9001
:10353000089582E048E050E00E94781A0895FC0166
:10354000168217821086118612861386148234968C
:10355000BF010E94991A0895DC01683810F068587C
:1035600029C0E62FF0E067FF13C0E058F04081E08B
:1035700090E002C0880F991FEA95E2F780951496B3
:103580002C911497282314962C93149760E012C062
:10359000EF5BF84F6491662319F420E030E01DC022
:1035A00067FF08C014968C9114978D7F14968C93A6
:1035B00014976F77FD0190E0662321F086818617CE
:1035C00009F416829F5F31969630B1F7CD011496BB
:1035D000BD010E94991A21E030E0C9010895CF93FE
:1035E000DF93DC01683810F0685825C0E62FF0E062
:1035F00067FF12C0E058F04081E090E002C0880F01
:10360000991FEA95E2F714962C911497282B14969B
:103610002C93149760E00FC0EF5BF84F6491662322
:10362000D9F167FF08C014968C91149782601496A4
:103630008C9314976F7716968C9116978617A9F12D
:1036400017968C911797861781F118968C91189779
:10365000861759F119968C911997861731F11A9698
:103660008C911A97861709F11B968C911B978617D8
:10367000E1F0ED01E0E0F0E09E2F8E81882321F45F
:10368000EA0FFB1F668306C09F5F31962196E630E6
:10369000F10591F7963049F481E090E013969C9300
:1036A0008E93129720E030E007C0CD011496BD0143
:1036B0000E94991A21E030E0C901DF91CF9108956D
:1036C00080E863EC76E045E650E00E948C160895B1
:1036D000FC0180818F5F808380E868E277E049E1C8
:1036E00050E00E948C1608955058BB27AA270ED090
:1036F00075C166D130F06BD120F031F49F3F11F4E9
:103700001EF45BC10EF4E095E7FB51C1E92F77D1C0
:1037100080F3BA17620773078407950718F071F4EE
:103720009EF58FC10EF4E0950B2EBA2FA02D0B0144
:10373000B90190010C01CA01A0011124FF27591BF6
:1037400099F0593F50F4503E68F11A16F040A22FFC
:10375000232F342F4427585FF3CF4695379527956D
:10376000A795F0405395C9F77EF41F16BA0B620B6C
:10377000730B840BBAF09150A1F0FF0FBB1F661FB3
:10378000771F881FC2F70EC0BA0F621F731F841FF6
:1037900048F4879577956795B795F7959E3F08F01C
:1037A000B3CF9395880F08F09927EE0F97958795DB
:1037B0000895D9D008F481E008950CD00FC107D145
:1037C00040F0FED030F021F45F3F19F0F0C051110D
:1037D00039C1F3C014D198F39923C9F35523B1F338
:1037E000951B550BBB27AA2762177307840738F070
:1037F0009F5F5F4F220F331F441FAA1FA9F333D0CF
:103800000E2E3AF0E0E830D091505040E695001C82
:10381000CAF729D0FE2F27D0660F771F881FBB1F3E
:10382000261737074807AB07B0E809F0BB0B802D18
:10383000BF01FF2793585F4F2AF09E3F510568F064
:10384000B6C000C15F3FECF3983EDCF386957795F8
:103850006795B795F7959F5FC9F7880F911D969566
:10386000879597F90895E1E0660F771F881FBB1FC2
:10387000621773078407BA0720F0621B730B840B6F
:10388000BA0BEE1F88F7E095089504D06894B11143
:10389000D9C00895BCD088F09F5790F0B92F9927D0
:1038A000B751A0F0D1F0660F771F881F991F1AF04B
:1038B000BA95C9F712C0B13081F0C3D0B1E0089514
:1038C000C0C0672F782F8827B85F39F0B93FCCF395
:1038D000869577956795B395D9F73EF49095809541
:1038E000709561957F4F8F4F9F4F0895E89409C061
:1038F00097FB3EF490958095709561957F4F8F4F23
:103900009F4F9923A9F0F92F96E9BB279395F69538
:10391000879577956795B795F111F8CFFAF4BB0FB6
:1039200011F460FF1BC06F5F7F4F8F4F9F4F16C01A
:10393000882311F096E911C0772321F09EE8872FA4
:10394000762F05C0662371F096E8862F70E060E060
:103950002AF09A95660F771F881FDAF7880F9695D9
:10396000879597F90895990F0008550FAA0BE0E87D
:10397000FEEF16161706E807F907C0F01216130631
:10398000E407F50798F0621B730B840B950B39F471
:103990000A2661F0232B242B252B21F408950A26D7
:1039A00009F4A140A6958FEF811D811D089597F917
:1039B0009F6780E870E060E008959FEF80EC0895D5
:1039C00000240A94161617061806090608950024FE
:1039D0000A9412161306140605060895092E039478
:1039E000000C11F4882352F0BB0F40F4BF2B11F4EC
:1039F00060FF04C06F5F7F4F8F4F9F4F089557FD4B
:103A00009058440F551F59F05F3F71F04795880F4C
:103A100097FB991F61F09F3F79F0879508951216E3
:103A200013061406551FF2CF4695F1DF08C016168F
:103A300017061806991FF1CF869571056105089440
:103A40000895E894BB2766277727CB0197F9089557
:103A50008ADF08F48FEF08950BD0C0CFB1DF28F0D4
:103A6000B6DF18F0952309F0A2CFA7CF1124EACF33
:103A7000C6DFA0F3959FD1F3950F50E0551F629FCD
:103A8000F001729FBB27F00DB11D639FAA27F00DB7
:103A9000B11DAA1F649F6627B00DA11D661F829FDE
:103AA0002227B00DA11D621F739FB00DA11D621FC3
:103AB000839FA00D611D221F749F3327A00D611DE0
:103AC000231F849F600D211D822F762F6A2F1124C2
:103AD0009F5750408AF0E1F088234AF0EE0FFF1F15
:103AE000BB1F661F771F881F91505040A9F79E3F4C
:103AF000510570F05CCFA6CF5F3FECF3983EDCF34E
:103B0000869577956795B795F795E7959F5FC1F788
:103B1000FE2B880F911D9695879597F9089523DFC1
:103B2000880B990B0895629FD001739FF001829FCB
:103B3000E00DF11D649FE00DF11D929FF00D839F3C
:103B4000F00D749FF00D659FF00D9927729FB00DD9
:103B5000E11DF91F639FB00DE11DF91FBD01CF01EC
:103B600011240895A1E21A2EAA1BBB1BFD010DC052
:103B7000AA1FBB1FEE1FFF1FA217B307E407F5071D
:103B800020F0A21BB30BE40BF50B661F771F881FF9
:103B9000991F1A9469F760957095809590959B018F
:103BA000AC01BD01CF010895EE0FFF1F0590F49108
:083BB000E02D0994F894FFCF09
:103BB8006E616E00696E66006F7666002E0000000A
:103BC80000000000000000000000000000000000ED
:103BD80000000000000000000000000000000000DD
:103BE80000000000000000000000000000000000CD
:103BF80000000000000000000000000000000000BD
:103C080000000000000000000000000000000000AC
:103C1800000000000000000000000000000000009C
:103C2800000000000000000000000000000000008C
:103C3800000000000000000000000000000000007C
:103C4800000000000000010101030307070F0F0F28
:103C58000F0F0F0703010000000000000000000024
:103C6800000000000000000000000000000000004C
:103C7800000000000000000000000000000000003C
:103C8800000000000000000000000000000000002C
:103C9800000000000000000000000000000000001C
:103CA800000000000000000000000000000000000C
:103CB800010F0700000000000000000000000307DB
:103CC8000F3F7F7FFFFFFFFFFFFFFFFFFFFFFFFFAC
:103CD800FEFEFCFCFCFC7800000000000000000078
:103CE80000000000000000000000000000000000CC
:103CF80000000000000000000000000000000000BC
:103D080000000000000000000000000000000000AB
:103D1800000000000000003FFFFFFFFFFFFFFF382B
:103D280000000000000183E1F37B7F3F3F1F1F3F3E
:103D3800FFFFFF1F3F7F7FFFE7C78702020280E088
:103D4800F0F8F8F8FCFEFEFFFFFFFFFFFFFFFF1F84
:103D58000F0707030301000000000000060F1F1FE4
:103D68001F1F3F3F3F3F3F3F3F3F1F1F0F0F0703AF
:103D780000003F3F3F3F3F3F3F3F3F3F3F3F3F1FE9
:103D88001F0F07000000003F3F3F3F3F1F0F1F1F4F
:103D98001F1F1E1F1F1F0EFFFFFFFFFFFFFFFF0359
:103DA8000307070F1F1F1F0E048080808087CFCF57
:103DB800DFDFDFDFE0E0E0E0E0F07070300000001F
:103DC800000000000000000000008080C0C1E1E1A8
:103DD800F1F3FFFFFFFFFFFFFF7F3F0F00FFFFFF34
:103DE800FFFFFF1F0307070F0F0FBFFFFFFFFEF8BF
:103DF800F0070F1F1F1F3F3F3C3C383838FFFFFFBD
:103E0800FFFFFFFF000000FFFFFFFFFFFFFF800035
:103E180000000000000000C0FFFFFFFFFFFFFFFFE2
:103E2800FFDF8F8F0F070301000000003FFFFFFF38
:103E3800FFFFF8C0000000000000000000000000C4
:103E4800000F7FFFFFFFFFFFFFFFFFFFFFFFFFFFE9
:103E5800FEFEFEFCFCF8F8F0F0E0C08000C0FFFFBA
:103E6800FFFFFFFFFFF7F0F0E0C0C0808000000018
:103E78000080E0E0E0F0F0F0F0F0F0F0F0F0F0F0CA
:103E8800F0F0F0F0000000F0F0F0F0F0F0F00000DA
:103E98000000000000000000F0F0F0F0F0F0C000BA
:103EA8008080C0E0E0E0E0E0000000F0F0F0F0F03A
:103EB800F08000000000000000000000000000008A
:103EC80000808080808080808080800000000000EA
:103ED800000000000000000000000000000000E0FA
:103EE800FCFCFCFCFCF8F8300000000000000000BE
:103EF80000000000000000000000000000000000BA
:103F080000000000000000000000000000000000A9
:103F18000000000000000000000000000000000099
:103F28000000000000000000000000000000000089
:103F38000000000000000000000000000000000079
:103F48000000000000000000000000000000000069
:103F58000000000000000000000000000000000059
:103F68000000000000000000000000000000000049
:103F78000000000000000000000000000000000039
:103F88000000000000000000000000000000000029
:103F98000000000000000000000000000000000019
:103FA8000000000000000000000000000000000009
:103FB8000000000000000000000000000000640095
:103FC800E1000000000000010103020100070605EE
:103FD80004000000003009250900000000080CD783
:103FE8000B900B990BAE0BBF0B000000002F11D2EA
:103FF80013DE10FA10EA1057115B11000000002DB3
:1040080013D213E312FF12EF121D13000000004D2C
:0A4018001AD213EF1AAC1A9F1A0017
:00000001FF
