:100000000C94E7030C940F040C940F040C940F044D
:100010000C940F040C940F040C940F040C941A0904
:100020000C940F040C940F040C94F2180C9479198E
:100030000C940F040C940F040C940F040C940F04F4
:100040000C940F040C940F040C940F040C940F04E4
:100050000C940F040C940F040C940F040C94D40E05
:100060000C940F040C94C8110C940F120C940F04F0
:100070000C940F040C940F040C940F040C940F04B4
:100080000C9407140C9444040C940F040C940F0467
:100090000C94290D0C940F040C9457040C940F0429
:1000A0000C940F040C940F040C940F040000000037
:1000B000007CDAF2DA7C7CD6F2D67C387C3E7C3866
:1000C000183C7E3C1838EABEEA38387AFE7A3800A6
:1000D000183C1800FFE7C3E7FF0018241800FFE7EB
:1000E000DBE7FF0C125C607064949E946402FEA0D7
:1000F000A0E002FEA0A4FC5A3CE73C5AFE7C383843
:10010000101038387CFE2844FE4428FAFA00FAFA27
:100110006090FE80FE006691A95606060606062936
:1001200045FF452910207E201008047E0408101089
:1001300054381010385410107808080808307830F7
:1001400078300C1C7C1C0C60707C7060000000001F
:10015000000000FA000000E000E00028FE28FE2871
:100160002454FE5448C4C81026466C926A040A00FF
:1001700010E0C00000384482000082443800543847
:10018000FE385410107C101000010E0C00101010DE
:100190001010000006060004081020407C8A92A27D
:1001A0007C0042FE02004E92929262848292B2CC15
:1001B000182848FE08E4A2A2A29C3C5292928C828B
:1001C000848890E06C9292926C6292929478000093
:1001D00028000000022C0000001028448228282853
:1001E0002828008244281040809A90607C82BA9A25
:1001F000723E4888483EFE9292926C7C8282824493
:10020000FE8282827CFE92929282FE909090807C0E
:1002100082828ACEFE101010FE0082FE820004024E
:1002200082FC80FE10284482FE02020202FE403858
:1002300040FEFE201008FE7C8282827CFE90909020
:10024000607C828A847AFE90989462649292924C46
:10025000C080FE80C0FC020202FCF8040204F8FC2C
:10026000021C02FCC6281028C6C0201E20C0869A88
:1002700092B2C200FE828282402010080400828274
:1002800082FE2040804020020202020200C0E010F4
:1002900000042A2A1E02FE1422221C1C22222214DE
:1002A0001C222214FE1C2A2A2A1800107E904018B4
:1002B0002525391EFE1020201E0022BE0200040249
:1002C00002BC00FE081422000082FE02003E201E36
:1002D000201E3E1020201E1C2222221C3F182424F7
:1002E00018182424183F3E10202010122A2A2A24ED
:1002F0002020FC22243C0202043E38040204383C44
:10030000020C023C2214081422320909093E22265A
:100310002A322200106C82000000EE000000826C85
:10032000100040804020403C64C4643C7885858651
:10033000485C0202045E1C2A2AAA9A84AAAA9E8207
:10034000842A2A1E8284AA2A1E02042AAA9E023015
:10035000784A4E489CAAAAAA9A9C2A2A2A9A9CAA17
:100360002A2A1A0000A23E820040A2BE420080A2B9
:100370003E020F9424940F0F14A4140F3E2AAAA235
:1003800000042A2A3E2A3E5090FE924C9292924CB1
:100390004C1212124C4C5212120C5C8282845E5C23
:1003A0004202041E00B90505BE9C2222229CBC020A
:1003B0000202BC3C24FF2424127E92C266D4F43F85
:1003C000F4D4FF90946F0403117E90C0042A2A9EF7
:1003D00082000022BE820C1212524C1C0202445EA9
:1003E000005E50504EBEB0988CBE649494F4146479
:1003F000949494640C12B202041C1010101010108B
:1004000010101CF40813355DF408142C5F0000DE96
:100410000000102854284444285428105500AA00ED
:100420005555AA55AA55AA55AA55AA000000FF007D
:10043000080808FF00282828FF000808FF00FF0818
:10044000080F080F2828283F002828EF00FF000089
:10045000FF00FF28282F203F2828E808F80808F880
:1004600008F8282828F8000808080F00000000F8FD
:1004700008080808F8080808080F08000000FF0826
:100480000808080808080808FF08000000FF2800FE
:1004900000FF00FF0000F808E800003F202F282898
:1004A000E808E828282F202F0000FF00EF28282840
:1004B00028282828EF00EF282828E8280808F80826
:1004C000F82828282F2808080F080F0000F808F837
:1004D000000000F8280000003F2800000F080F0867
:1004E00008FF08FF282828FF28080808F80000004F
:1004F000000F08FFFFFFFFFF0F0F0F0F0FFFFFFFA2
:100500000000000000FFFFF0F0F0F0F01C22221CC1
:10051000223E54547C287E40406060407E407E40B5
:10052000C6AA9282C61C22223C20027E0478046065
:10053000407E404099A5E7A5993854925438324EF0
:10054000804E320C52B2B20C0C121E120C3D465AA6
:1005500062BC7C929292007E8080807E545454547F
:10056000542222FA2222028A5222020222528A02B1
:100570000000FF80C00701FF00001010D6D6106CED
:10058000486C246C60F090F06000001818000000C7
:100590000808000C02FF808000F88080780098B87E
:1005A000E848003C3C3C3C00000000240027002AB6
:1005B000002D00300000000000250028002B002E38
:1005C000003100000000002300260029002C002F2D
:1005D00000040404040403040502020202040302EA
:1005E00002020206060606060604040202020404CB
:1005F0000802011040804010204080408008020422
:1006000001804020100201108010204040000000B6
:100610000200080E0000030401000B0000000000AF
:1006200000000000000000000000000706050401B3
:1006300000080A0B0C0D09080B0002020201000958
:10064000040000010202000005240010010524013D
:100650000101042402060524060001070581031098
:10066000004009040100020A0000000705020240E0
:1006700000000705830240000003040309044172DF
:100680006475696E6F204C656F6E6172646F0041B6
:10069000726475696E6F204C4C43001201000200B9
:1006A00000004041233680000101020001120100D8
:1006B00002020000404123368000010102000100D7
:1006C000C18081C105010902A1010901A1008501C3
:1006D00005091901290315002501950375018102FA
:1006E0009501750581030501093009310938158126
:1006F000257F750895038106C0C005010906A10183
:100700008502050719E029E71500250175019508FF
:100710008102950175088103950675081500256508
:100720000507190029658100C009040200010300C2
:100730000000092101010001226500070584034032
:10074000000100000000000000002A2B280000002B
:100750000000000000000000000000000000000099
:1007600000002C9EB4A0A1A2A434A6A7A5AE362D4D
:100770003738271E1F20212223242526B333B62EE7
:10078000B7B89F8485868788898A8B8C8D8E8F9059
:100790009192939495969798999A9B9C9D2F31301E
:1007A000A3AD350405060708090A0B0C0D0E0F1042
:1007B0001112131415161718191A1B1C1DAFB1B0FE
:1007C000B5005A0BA00BFB104C132E18021B112462
:1007D0001FBECFEFDAE0DEBFCDBF15E0A0E0B1E095
:1007E000E0ECFAE302C005900D92AC35B107D9F701
:1007F00018E0ACE5B5E001C01D92AD3AB107E1F7F4
:1008000017E0CEECD7E004C02297FE010E945A1DEB
:10081000C23CD107C9F70E94A2130C945E1D0C9430
:100820000000FB01DC0102C001900D9241505040DC
:10083000D8F708956817790768F4FB01DC01E40F25
:10084000F51FA40FB51F02C002900E9241505040F8
:10085000D8F708950C94110421E030E00CC000009A
:10086000000000000000000000009F5F9A35B9F70B
:100870002150304011F090E0F2CF3C9A8093BB00C1
:1008800084E88093BC0008951F920F920FB60F92D8
:1008900011248F938BB180588BB9109295001092D0
:1008A00094008F910F900FBE0F901F9018951F927C
:1008B0000F920FB60F921124EF92FF920F931F9396
:1008C0002F933F934F935F936F937F938F939F9358
:1008D000AF93BF93CF93DF93EF93FF931092BF003B
:1008E0001092BE0010925E0610925F062091610683
:1008F000309162068091630690E02817390728F44A
:1009000080915F06816080935F062091610630913F
:1009100062068091640690E02817390728F48091D8
:100920005F06826080935F062091610630916206C7
:100930008091650690E02817390728F480915F06BA
:10094000846080935F0680916106909162060196B3
:100950009093620680936106809161069091620691
:100960008436910521F410926206109261068091FE
:100970006606882371F480915F06877F80935F0607
:1009800040E050E0F8E0FF2E0FEF1FEFE7E0EE2E23
:1009900004C080915F068860F1CFFA01EE0FFF1F5F
:1009A000EE0FFF1F9F012959394FE9018881998175
:1009B000AA81BB81EA01CC0FDD1F0297A105B10519
:1009C00008F443C0BE016D58794FFB0180819181CD
:1009D000892BA1F5DA01A758B94F8C91FA01E45897
:1009E000F94F9081890F8C93F90180819181A281C7
:1009F000B3810197A109B10980839183A283B38355
:100A0000FA01E158F94F2081CA01A3E0880F991F2C
:100A1000AA95E1F7C80FD91FC20FD11DCE57D94FE4
:100A2000888190E0DB0111969C938E9380818F5F8B
:100A3000808380818A30E8F010821BC0EB018881BE
:100A4000998101979983888314C0D9011D921D92C1
:100A50001D921C921397E056F94F10821182128258
:100A60001382FA01E758F94FF082CD58D94F198314
:100A70000883FA01E758F94F8081883014F010821A
:100A800003C0808187FDE082FA01EE0FFF1FEE0FA9
:100A9000FF1FE056F94F80819181A281B3810097B9
:100AA000A105B10521F4FA01E758F94FF0824F5F33
:100AB0005F4F4330510509F070CF90915E06E09191
:100AC0007A06FF27E7FDF095E455F94F8081982BD2
:100AD00090935E0690915E06E0917B06FF27E7FD0E
:100AE000F095EB54F94F8081982B90935E0690918E
:100AF0005F06E0917906FF27E7FDF095EB54F94F8B
:100B00008081982B90935F065D9880915F068EBDE3
:100B10000DB407FEFDCF8EB580915E068EBD0DB47F
:100B200007FEFDCF8EB55D9AFF91EF91DF91CF91DA
:100B3000BF91AF919F918F917F916F915F914F91F5
:100B40003F912F911F910F91FF90EF900F900FBE4B
:100B50000F901F901895CF93DF93962F50E0BA0116
:100B60007695762F66277795679585E02802900120
:100B70001124892F60507F4FE9012596F901E45532
:100B8000FF4FE491DB01A80FB11DEC938F5F2F5F46
:100B90003F4F2C173D0791F7292F2B5F342F330F31
:100BA000330F330F692F665F4F5F5F4F440F440F62
:100BB000440F80915A06281710F420935A0680910A
:100BC0005B06861710F460935B0680915C0638170D
:100BD00010F430935C0680915D06841710F4409306
:100BE0005D06DF91CF9108950F931F93062F142F69
:100BF0003C9A84EA8093BC0020E030E08091BC0005
:100C000087FD38C02A353105A9F12F5F3F4FF6CF58
:100C10008091BC0087FD35C02A35310591F12F5FE9
:100C20003F4FF6CF8091BC0087FD31C02A3531059A
:100C300071F12F5F3F4FF6CF8091BC0087FD33C02D
:100C40002A35310581F12F5F3F4FF6CF8091BC00EF
:100C500087FD32C02A35310579F12F5F3F4FF6CF3E
:100C60008091BC0087FD2DC02A35310551F12F5FE1
:100C70003F4FF6CF812F880F0E942C0420E030E0F8
:100C8000C7CF802F0E942C0420E030E0CBCF3C9ACD
:100C900084EA8093BC00110F812F81600E942C0494
:100CA00020E030E0C9CF8091BC008F70806C8093D1
:100CB000BC0020E030E0CACF9091BB0020E030E0E3
:100CC000CFCF84E98093BC008091BC008B7F809360
:100CD000BC008091BC0084608093BC00892F1F9170
:100CE0000F9108950F931F93162F042F3C9A84EAB7
:100CF0008093BC0040E050E08091BC0087FD24C0A0
:100D00004A35510509F14F5F5F4FF6CF8091BC0026
:100D100087FD21C02A353105F1F02F5F3F4FF6CF17
:100D20008091BC0087FD1DC02A353105D1F02F5FB1
:100D30003F4FF6CF8091BC0087FD19C02A353105A1
:100D4000B1F02F5F3F4FF6CF822F880F0E942C0407
:100D500020E030E0DBCF812F0E942C0420E030E047
:100D6000DFCF802F0E942C0420E030E0E3CF84E925
:100D70008093BC001F910F910895CF93DF93EC01F6
:100D80006DE04DE10E94F4058A3219F02FEF3FEF3C
:100D900037C0CE016AE24DE10E94F405482F4E7F34
:100DA000CE016AE22DE10E947206CE016EE040E0C3
:100DB0002DE10E947206CE016AE24DE10E94F40527
:100DC000482F477CCE016AE22DE10E947206CE01D7
:100DD0006AE24DE10E94F405482FCE016AE22DE15E
:100DE0000E947206CE016AE24DE10E94F405482F8E
:100DF0004160CE016AE22DE10E94720621E030E0FE
:100E0000C901DF91CF9108951F93162FF8945D9A31
:100E100081E160E00E948D101EBD0DB407FEFDCF84
:100E200081E161E00E948D1078941F910895FF92F6
:100E30000F931F938C01F62E84E061E00E948D10C9
:100E4000C8016F2D0E9404071F910F91FF90089514
:100E5000FF920F931F938C01F62E84E060E00E94B6
:100E60008D10C8016F2D0E9404071F910F91FF90F4
:100E700008958F929F92AF92BF92CF92DF92EF929E
:100E8000FF920F931F93CF93DF93EC017CE0872EAB
:100E900075E0972E20E030E0AA24BB2468E0C62E3F
:100EA000D12CC20ED31E80915C0690E08C159D055E
:100EB000D4F580915D0690E0821793070CF440C052
:100EC000F4016081606BCE010E94280710915A06E0
:100ED00000915B06612F6F5F6F70CE010E94280743
:100EE000612F70E06F5F7F4F54E0759567955A955D
:100EF000E1F76F706061CE010E942807CE0160EEBD
:100F00000E94280740E0E42E41E0F42EEA0CFB1C8E
:100F100008C0F701E10FF11DCE0160810E941707A3
:100F20001F5F0117B0F70894811C911C80E890E0C6
:100F3000A80EB91E90E4C916D10411F09601AECFE7
:100F40008FE780935A0610925B068FE380935C06CE
:100F500010925D06DF91CF911F910F91FF90EF905E
:100F6000DF90CF90BF90AF909F908F900895EF92B9
:100F7000FF921F937C01162F61E80E9428071F73C0
:100F8000C701612F0E9428071F91FF90EF900895DD
:100F9000CF93DF93EC0184E061E00E9400108CE0CD
:100FA00061E00E94001081E161E00E94001081E197
:100FB00060E00E948D1088EE93E020E931E0F901B5
:100FC0003197F1F70197D9F78CE060E00E948D101E
:100FD00088EE93E020E931E0F9013197F1F70197CC
:100FE000D9F78CE061E00E948D10CE0163EA0E9487
:100FF0002807CE0161EA0E942807CE0160EC0E941A
:101000002807CE0160E60E942807CE016CE20E940C
:10101000280784EF91E020E931E0F9013197F1F7F9
:101020000197D9F7CE016EE20E94280784EF91E084
:1010300020E931E0F9013197F1F70197D9F7CE01B5
:101040006FE20E94280780E49CE90197F1F7CE0146
:1010500066E20E94280780915A06882311F01092B8
:101060005A0680915B068F3718F48FE780935B06F2
:1010700080915C06882311F010925C0680915D06D9
:101080008F3318F48FE380935D06DF91CF9108953D
:101090008FE061E00E94001080E161E00E9400109A
:1010A00081E161E00E9400108FE060E00E948D10FD
:1010B00080E160E00E948D1081E161E00E948D106E
:1010C0008CB580618CBD8CB580648CBD8CB58C7FFB
:1010D0008CBD8DB581608DBD08950F931F938C01DC
:1010E0000E944808C8010E94C807C8016FEA0E9410
:1010F0002807C80164EA0E942807C80160E00E942E
:10110000B7071F910F91089580E091E060E871E0CA
:1011100040E853E00E941A0480E8E0E8F4E0DF01D0
:101120001D928A95E9F780915A06882311F0109252
:101130005A0680915B068F3718F48FE780935B0621
:1011400080915C06882311F010925C0680915D0608
:101150008F3318F48FE380935D060895CF92DF926A
:10116000EF92FF920F931F93CF93DF938C016B014C
:101170007A01C0E0D0E034C0F601EC0FFD1F208101
:101180002A3041F4809159068F5F8093590610925E
:10119000580619C02D30B9F0C80160915806409129
:1011A00059060E94AB05809158068A5F80935806C5
:1011B00090E08A3791053CF01092580680915906CC
:1011C0008F5F8093590680915906883040F0C8019E
:1011D0000E94840880915906815080935906219677
:1011E000CE15DF0548F2DF91CF911F910F91FF904F
:1011F000EF90DF90CF9008950F931F93142F052F3A
:101200000E94AE08812F902F1F910F910895DF93B8
:10121000CF930F92CDB7DEB76983BE016F5F7F4F6B
:1012200041E050E00E94AE0881E090E00F90CF9145
:10123000DF9108951F920F920FB60F921124EF9233
:10124000FF920F931F932F933F934F935F936F934F
:101250007F938F939F93AF93BF93EF93FF9380916F
:101260002D06813009F469C00E941C0F9B01AC015E
:101270008CB1682F70E060747070809160059091FF
:101280006105A0916205B091630579018A01E81AB0
:10129000F90A0A0B1B0BE0925C05F0925D050093C6
:1012A0005E0510935F0580915C0590915D05A091AE
:1012B0005E05B0915F0580529E44A040B040D4F1DD
:1012C000672B19F410922C062CC0E0912C06F0E04C
:1012D00080915C0590915D05A0915E05B0915F05E0
:1012E000EE0FFF1FEE0FFF1FEC59FA4F9183808323
:1012F00018C0E0912C06F0E080915C0590915D05AE
:10130000A0915E05B0915F05EE0FFF1FEE0FFF1F6E
:10131000EC59FA4F9383828380912C068F5F8093E0
:101320002C0620936005309361054093620550932D
:10133000630503C0672BE9F2C8CFFF91EF91BF911E
:10134000AF919F918F917F916F915F914F913F915D
:101350002F911F910F91FF90EF900F900FBE0F9064
:101360001F9018959A01442737FD4095542F8BE024
:101370000E946C140895EF92FF920F931F93162F03
:10138000042F88E0E82E87E0F82EC7016EE170E0B8
:101390000E94660BC701612F0E94E80BC701602FF6
:1013A0000E94E80BC7010E942B0C1F910F91FF9028
:1013B000EF900895CF93DF9388E097E06EE170E0BF
:1013C0000E94660B88E097E063E00E94E80B88E0EB
:1013D00097E00E942B0C88E097E06EE170E00E949D
:1013E000660B88E097E06EE170E046E050E00E9416
:1013F0003C0C88E097E00E94700B069771F4C0E007
:10140000D0E088E097E00E94790BFE01E25DF94FA1
:1014100080832196C630D105A1F788E097E00E942D
:101420002B0CDF91CF9108950F931F938C0163E0F4
:1014300070E046E050E00E94DA0940912E062091CB
:101440002F06742F60E030E0622B732B882777FD26
:101450008095982F0E940D1C2FE135E84BE65FE345
:101460000E94991CF8016483758386839783409159
:10147000300620913106742F60E030E0622B732B30
:10148000882777FD8095982F0E940D1C2FE135E865
:101490004BE65FE30E94991CF801608771878287A1
:1014A00093874091320620913306742F60E030E03C
:1014B000622B732B882777FD8095982F0E940D1C37
:1014C0002FE135E84BE65FE30E94991CF801648741
:1014D0007587868797871F910F910895CF93DF9324
:1014E000EC018BE897E060E875E20E94C01089ED9E
:1014F00097E040E855E260E070E00E943F128DE026
:1015000061E00E9400108DE060E00E948D108BE091
:1015100061E00E9400108BE060E00E948D1084E189
:1015200060E00E94001085E161E00E94001086E109
:1015300061E00E94001087E161E00E94001086E0F7
:1015400061E00E9400108AE061E00E94001085E0E6
:1015500060E00E94001089E061E00E94001081ECD0
:1015600096E060E070E00E945F0B81EC96E060E046
:1015700070E00E945F0B8E8F0E94510C84E00E94ED
:10158000400C559A5D9880915F068EBD0DB407FEA4
:10159000FDCF8EB580915E068EBD0DB407FEFDCFEA
:1015A0008EB55D9A1092660680E18093B50680E361
:1015B0008093B60680E28093B70680E68093B806F3
:1015C00080E48093B90680EC8093BA0680E880932B
:1015D000BB0680E98093BC061092BD0681E0809333
:1015E000AC0683E08093AD0682E08093AE0686E091
:1015F0008093AF0684E08093B0068CE08093B106C0
:1016000088E08093B20689E08093B3061092B40616
:10161000CE010E946D08CE010E943907809100051D
:101620008093C0068093BF068093BE06F894109204
:10163000C0001092C1001092BF001092BE0080E363
:101640008093CF0086E08093C10080917200806417
:10165000809372007894F89487E060E00E94001014
:1016600080916A008F7C806180936A00EE9A789402
:10167000CE010E94BD06CE0161E070E040E250E084
:101680000E94BB09CE0162E070E040E050E00E94A1
:10169000BB09CE010E94140ADF91CF910895FC018D
:1016A0001382128288E195E091838083CF010E94AA
:1016B0006E0A089584E396E00E944F0B0895F9990D
:1016C000FECF72BD61BDF89A80B5089581E0809328
:1016D00007076093E4061092050710920607089525
:1016E0002091E30630E08091E206281B3109C90110
:1016F00008954091E2068091E306481718F02FEF15
:101700003FEF0AC0E42FF0E0EE53F94F8081282F1D
:1017100030E04F5F4093E206C9010895E091E20690
:101720008091E306E81718F0EFEFFFEF06C0F0E056
:10173000EE53F94F8081E82FF0E0CF01089508952E
:1017400010920B0710920A0788EE93E0A0E0B0E039
:1017500080930C0790930D07A0930E07B0930F078B
:1017600080E295E090930907809308070895CF924F
:10177000DF92EF92FF920F931F93CF93DF937C0141
:101780006B018A01809107078823A1F0C0E0D0E0B7
:101790000DC0D701ED91FC91D601AC0FBD1F01909A
:1017A000F081E02DC7016C9109952196C017D107F2
:1017B00080F304C0CB01642F0E940E0DC801DF919D
:1017C000CF911F910F91FF90EF90DF90CF900895F0
:1017D000DF93CF930F92CDB7DEB7FC016983809181
:1017E00007078823C9F080910607803238F081E02E
:1017F00090E09383828320E030E015C0809105075C
:10180000E82FF0E0EB51F94F998190838F5F80933F
:1018100005078093060705C0CE01019661E00E948E
:101820000E0D21E030E0C9010F90CF91DF910895B6
:101830000F93062F8091E40665EE76E0409106074F
:1018400021E00E94B90C1092050710920607109231
:1018500007070F91089561E00E94180C0895413226
:1018600008F040E2862F62EC76E00E94700C109245
:10187000E2068093E306089521E00E942F0C08956C
:101880002CB5382F33702C7F322B3CBD2DB590E01A
:10189000959587959595879581702E7F822B8DBD27
:1018A00008958FE061E00E94001080E161E00E94F5
:1018B000001081E161E00E9400108FE060E00E9472
:1018C0008D1080E160E00E948D1081E161E00E9456
:1018D0008D108CB580618CBD8CB580648CBD0895F5
:1018E000382F413210F040E042C080911407882325
:1018F000E1F791E090931407209316078FEF809300
:10190000810710923C07415040933D074F5F9093F1
:10191000150780911507330F832B8093150780914E
:101920001707813041F410921707809115078093B3
:10193000BB0085EC01C085EE8093BC00809114074C
:101940008130E1F380913C07841710F440913C070B
:1019500020E030E00AC0FB01E20FF31FD901A45ED2
:10196000B84F8C9180832F5F3F4F2417A0F3842FB3
:1019700008950F931F93582F122F413210F081E0DA
:101980004AC0809114078823E1F782E0809314070E
:10199000009316078FEF8093810710923C074093C6
:1019A0003D07ACE1B7E0FB0102C081918D938E2F22
:1019B000861B8417D0F31092150780911507550FD9
:1019C000852B8093150780911707813041F4109281
:1019D0001707809115078093BB0085EC01C085EE49
:1019E0008093BC00112321F0809114078230E1F331
:1019F000809181078F3F11F480E00DC080918107B5
:101A0000803211F482E007C080918107803311F0A9
:101A100084E001C083E01F910F910895482F613247
:101A200010F081E0089580911407843011F082E075
:101A3000089560935F07AEE3B7E0842F9C01F9013E
:101A400002C081918D938E2F841B8617D0F380E086
:101A500008951F920F920FB60F9211242F933F9368
:101A60004F935F936F937F938F939F93AF93BF93A6
:101A7000EF93FF938091B90090E0887F907080365B
:101A8000910509F4F2C081369105CCF588329105B3
:101A900009F47BC089329105B4F48031910509F4D1
:101AA0006FC0813191053CF4009709F447C1089754
:101AB00009F04FC165C08831910509F466C080976F
:101AC00009F047C182C08034910509F4A4C0813473
:101AD000910544F48033910509F482C0C89709F058
:101AE00038C189C08035910509F489C088359105D0
:101AF00009F496C08834910509F02BC1AEC088392D
:101B0000910509F413C189399105ECF488379105E1
:101B100009F4ABC0893791054CF48836910509F476
:101B2000A4C08037910509F014C19FC08838910581
:101B300009F4FCC08039910509F49DC080389105F5
:101B400009F007C198C0803B910509F4C6C0813BEC
:101B500091054CF4803A910509F49FC0883A9105AB
:101B600009F0F7C0BAC0803C910509F4E3C0883C95
:101B7000910509F4DFC0883B910509F0EAC0C2C0B5
:101B8000809115078093BB00CFC090913C07809156
:101B90003D07981768F490913C07E92FF0E0E45E68
:101BA000F84F80818093BB009F5F90933C07BCC03F
:101BB00080911607882309F44BC085ED8093BC0003
:101BC0008091BC0084FDFCCFC2C080E2809381077D
:101BD00085ED8093BC008091BC0084FDFCCFB7C034
:101BE00080E38093810785ED8093BC008091BC00E9
:101BF00084FDFCCFACC088E3809381079BC08091BB
:101C00003C079091BB00E82FF0E0E45EF84F908332
:101C10008F5F80933C0790913C0780913D0782C085
:101C200080913C079091BB00E82FF0E0E45EF84F14
:101C300090838F5F80933C0780911607882341F043
:101C400085ED8093BC008091BC0084FDFCCF7FC0FB
:101C500081E08093170784EA6EC085ED8093BC0015
:101C60008091BC0084FDFCCF72C083E08093140798
:101C70001092800759C080918007803208F056C0CA
:101C8000809180079091BB00E82FF0E0E05AF84F78
:101C900090838F5F8093800747C080918007803258
:101CA00030F4E0918007F0E0E05AF84F108285EDC3
:101CB0008093BC008091BC0084FDFCCF109214077F
:101CC00060918007E0911A07F0911B0780E697E08A
:101CD00070E00995109280072DC084E0809314076E
:101CE00010925E0710925F07E0911807F0911907B4
:101CF000099580915F07882329F481E080935F072D
:101D000010923E0790915E07E92FF0E0E25CF84FF9
:101D100080818093BB009F5F90935E0790915E07E8
:101D200080915F07981710F485EC01C085E88093D7
:101D3000BC000FC085EC8093BC0009C010928107E5
:101D400085ED8093BC008091BC0084FDFCCF109297
:101D50001407FF91EF91BF91AF919F918F917F9168
:101D60006F915F914F913F912F910F900FBE0F9008
:101D70001F9018950895CF93DF93C0E0D0E084E3DF
:101D800096E060E971E044E650E00E94B20968EE36
:101D900073E080E090E00E94980F2196C530D10555
:101DA00071F7DF91CF9108951F920F920FB60F92A6
:101DB00011242F933F938F939F93AF93BF93809161
:101DC000860790918707A0918807B0918907309185
:101DD0008A070196A11DB11D232F2D5F2D3720F0FD
:101DE0002D570196A11DB11D20938A078093860768
:101DF00090938707A0938807B09389078091820703
:101E000090918307A0918407B09185070196A11D49
:101E1000B11D8093820790938307A0938407B093AA
:101E20008507BF91AF919F918F913F912F910F9017
:101E30000FBE0F901F9018959FB7F89420918207BE
:101E400030918307409184075091850786B5A89B00
:101E500006C08F3F21F02F5F3F4F4F4F5F4F9FBF17
:101E6000542F432F322F2227280F311D411D511D82
:101E700082E0220F331F441F551F8A95D1F7B90105
:101E8000CA010895789484B5826084BD84B5816068
:101E900084BD85B5826085BD85B5816085BDEEE672
:101EA000F0E0808181608083E1E8F0E01082808151
:101EB00082608083808181608083E0E8F0E08081BF
:101EC00081608083E1E9F0E08081826080838081AD
:101ED00081608083E0E9F0E0808181608083E1ECD3
:101EE000F0E0808184608083808182608083808153
:101EF00081608083E3ECF0E0808181608083E0ECAE
:101F0000F0E0808182608083E2ECF0E0808181609B
:101F10008083EAE7F0E08081846080838081826052
:101F20008083808181608083808180688083089540
:101F3000EF92FF920F931F93CF93DF937B018C015E
:101F40003FB7F8948091820790918307A09184070E
:101F5000B091850726B5A89B05C02F3F19F00196C3
:101F6000A11DB11D3FBFBA2FA92F982F8827820F1F
:101F7000911DA11DB11D52E0880F991FAA1FBB1F03
:101F80005A95D1F7EC0130C00E94C71A3FB7F894B8
:101F90008091820790918307A0918407B091850773
:101FA00026B5A89B05C02F3F19F00196A11DB11DB4
:101FB0003FBFBA2FA92F982F8827820F911DA11DEF
:101FC000B11D32E0880F991FAA1FBB1F3A95D1F7A8
:101FD0008C1B9D0B885E9340B8F20894E108F108D1
:101FE00001091109C851DC4FE114F1040105110583
:101FF00059F6DF91CF911F910F91FF90EF900895C7
:10200000CF93DF93482F50E0CA0181519A4FFC01D2
:1020100034914F525A4FFA018491882369F190E02C
:10202000880F991FFC01E955FA4FA591B491FC0165
:10203000EB54FA4FC591D491662351F42FB7F8941D
:102040008C91932F909589238C93888189230BC041
:10205000623061F42FB7F8948C91932F9095892377
:102060008C938881832B88832FBF06C09FB7F894F9
:102070008C91832B8C939FBFDF91CF9108958830F3
:1020800071F1893068F4823031F1833020F481308D
:1020900009F042C01DC0833089F08430E9F512C0D8
:1020A0008B3059F18C3028F48930E9F08A30A1F571
:1020B0001EC08C3031F18E3079F529C080918000BE
:1020C0008F7703C0809180008F7D8093800008957A
:1020D00084B58F7702C084B58F7D84BD08958091CB
:1020E00090008F7707C0809190008F7D03C0809112
:1020F0009000877F8093900008958091C0008F7733
:1021000003C08091C0008F7D8093C00008958091AE
:10211000C200877F8093C2000895FF920F931F93A0
:10212000F62E482F50E0CA01835F994FFC0124919D
:10213000CA0181519A4FFC0114914F525A4FFA0132
:1021400004910023C9F0222319F0822F0E943F102E
:10215000E02FF0E0EE0FFF1FEB54FA4FA591B49182
:102160009FB7F894FF2021F48C911095812302C031
:102170008C91812B8C939FBF1F910F91FF9008959D
:102180000895FC012485858530E0205C3F4F281BA5
:1021900031092F733070C9010895FC01948585853C
:1021A000981719F42FEF3FEF06C08585E80FF11D52
:1021B0008685282F30E0C9010895DC011C969C918A
:1021C0001C971D968C911D97981719F42FEF3FEFD0
:1021D00010C01D968C911D97FD01E80FF11D96858D
:1021E0001D968C911D978F5F8F731D968C93292F51
:1021F00030E0C901089510928E0710928D0788EE85
:1022000093E0A0E0B0E080938F0790939007A093B5
:102210009107B093920780E395E090938C078093A9
:102220008B0708950F931F93DF93CF930F92CDB732
:10223000DEB78C01698380910805882369F083E00B
:10224000BE016F5F7F4F41E050E00E944D181816AD
:10225000190614F49C0107C081E090E0F801938313
:10226000828320E030E0C9010F90CF91DF911F9170
:102270000F91089583E00E94241808950F931F93EF
:10228000CF93DF938C01FC010FC082E00E940A17FC
:102290009C01FFEF8F3F9F0799F0F8018485E80FBD
:1022A000F11D2687F801C4878485C82FD0E02196C8
:1022B000CF73D070F801858590E0C817D90729F74A
:1022C000DF91CF911F910F910895FC0180818E5F66
:1022D000808380E867E376E042E450E00E942317C1
:1022E0000895FC0181819081913A59F4813209F07D
:1022F0004CC080E061E075E047E050E00E942317A9
:1023000042C0913209F041C0803239F481E095E059
:1023100067E070E00E940C1836C0823209F035C0C8
:102320008281809308058091010590910205A0911A
:102330000305B0910405805B9440A040B04019F5BE
:102340008091080580FD12C087E797E79093010808
:10235000809300082BE088E190E00FB6F894A895F0
:10236000809360000FBE209360000DC088E10FB61F
:10237000F89480936000109260000FBEA8951092B0
:1023800001081092000881E0089580E00895089502
:102390001F920F920FB60F9211242F933F934F93DA
:1023A0008F939F93EF93FF938091C80082FD19C094
:1023B0004091CE008091F707282F30E02F5F3F4FEC
:1023C0002F7330708091F80790E02817390759F083
:1023D000E091F707F0E0E752F84F42A32093F707A8
:1023E00002C08091CE00FF91EF919F918F914F910C
:1023F0003F912F910F900FBE0F901F9018958091D5
:10240000F7072091F80790E0805C9F4F821B9109AD
:102410008F739070892B11F00E94C71108951F923D
:102420000F920FB60F9211242F938F939F93EF93D8
:10243000FF939091F9078091FA07981731F48091F2
:10244000C9008F7D8093C90010C0E091FA07F0E0C9
:10245000E55CF74F20818091FA0790E001968F7339
:1024600090708093FA072093CE00FF91EF919F9197
:102470008F912F910F900FBE0F901F901895AF92D4
:10248000BF92DF92EF92FF920F931F93CF93DF9350
:10249000EC017A018B01DD24403081EE580780E0A9
:1024A000680780E0780711F0DD24D39491E0A92E2D
:1024B000B12CE889F989DD2069F0C5010C8C02C0D6
:1024C000880F991F0A94E2F7808360E079E08DE33A
:1024D00090E005C0108260E874E88EE190E0A80109
:1024E00097010E941B1D215030404040504056959E
:1024F00047953795279580E12030380720F0DD207B
:1025000011F0DD24D6CFEC85FD853083EE85FF8587
:1025100020831D8EEA89FB89408121E030E0C901DA
:10252000088C02C0880F991F0A94E2F7482B408359
:10253000EA89FB894081C901098C02C0880F991F73
:102540000A94E2F7482B4083EA89FB894081C9015C
:102550000A8C02C0880F991F0A94E2F7482B408327
:10256000EA89FB8980810B8C02C0220F331F0A94F9
:10257000E2F7209528232083DF91CF911F910F91BF
:10258000FF90EF90DF90BF90AF900895FC01268DF3
:10259000878D30E0205C3F4F281B31092F7330704E
:1025A000C9010895FC01968D878D981719F42FEFB6
:1025B0003FEF06C0878DE80FF11D82A1282F30E084
:1025C000C9010895DC015E969C915E975F968C919F
:1025D0005F97981719F42FEF3FEF10C05F968C911B
:1025E0005F97FD01E80FF11D92A15F968C915F97B7
:1025F0008F5F8F735F968C93292F30E0C901089508
:10260000DC015D968C915D97882339F05096ED91B1
:10261000FC915197808186FFF9CF5D961C920895B9
:10262000DC0190968C919097282F30E02F5F3F4FE0
:102630002F73307091968C91919790E028173907FD
:10264000C9F390968C919097FD01E80FF11DEE591A
:10265000FF4F608390962C9390975296ED91FC914A
:102660005397208181E090E05B960C905B9702C0CD
:10267000880F991F0A94E2F7282B208381E05D964A
:102680008C935D975096ED91FC9151978081806479
:10269000808381E090E008951092DC071092DB07C0
:1026A00088EE93E0A0E0B0E08093DD079093DE0732
:1026B000A093DF07B093E00782E495E09093DA07F8
:1026C0008093D9071092FA078091FA078093F9074F
:1026D0001092F8078091F8078093F7078DEC90E04F
:1026E0009093E6078093E5078CEC90E09093E807E1
:1026F0008093E70788EC90E09093EA078093E907DE
:1027000089EC90E09093EC078093EB078AEC90E0E3
:102710009093EE078093ED078EEC90E09093F00796
:102720008093EF0784E08093F10783E08093F207C2
:1027300087E08093F30785E08093F40781E080933E
:10274000F5070895CF93DF930E94420F8FE998E039
:102750000E942F180E94BB0ECFEFD1E10E94BA0E4B
:102760002097E1F30E94FF11F9CFCF92DF92EF9211
:10277000FF920F931F93CF93DF937C016B018A012C
:10278000C0E0D0E00FC0D6016D916D01D701ED9191
:10279000FC910190F081E02DC7010995C80FD91F68
:1027A000015010400115110571F7CE01DF91CF9155
:1027B0001F910F91FF90EF90DF90CF90089582309E
:1027C000B9F0833028F4882351F08130F9F40AC03D
:1027D0008430B9F0843090F08530C1F415C0109287
:1027E0006E00089580916F008D7F80936F00089533
:1027F000809170008D7F8093700008951092710019
:1028000008951092720008951092730008951F9217
:102810000F920FB60F9211242F933F934F935F9314
:102820006F937F938F939F93AF93BF93EF93FF9398
:102830008091890890918A08A0918B08B0918C08AA
:102840000097A105B10551F1E0918D08F0918E0836
:10285000808190918F088927808380918908909149
:102860008A08A0918B08B0918C08181619061A06D0
:102870001B060CF58091890890918A08A0918B081D
:10288000B0918C080197A109B109809389089093B0
:102890008A08A0938B08B0938C080DC083E00E9437
:1028A000DF13E0918D08F0918E08908180918F0860
:1028B000809589238083FF91EF91BF91AF919F9184
:1028C0008F917F916F915F914F913F912F910F90D9
:1028D0000FBE0F901F9018952F923F925F926F92AC
:1028E0007F928F929F92AF92BF92CF92DF92EF92A0
:1028F000FF920F931F93DF93CF9300D000D0CDB7FB
:10290000DEB7A82F1B0129833A834B835C83809118
:1029100009058A1721F4E9E7F6E05490AFC08F3F2C
:1029200009F02EC2A0930905E9E7F6E054902FEFD5
:10293000521609F425C281E0581671F185151CF074
:10294000552051F09BC093E0591609F44BC0B4E0F8
:102950005B1609F093C06CC014BC15BC84B58260D2
:1029600084BD85B5816085BD2A2F30E0F901EF5225
:10297000FA4FE491F0E0EE0FFF1FEB54FA4F859110
:1029800094919093800880937F0821513A4FF901E8
:1029900084918093810874C010928000109281000D
:1029A00080918100886080938100809181008160A6
:1029B000809381002A2F30E0F901EF52FA4FE49121
:1029C000F0E0EE0FFF1FEB54FA4F85919491909336
:1029D00087088093860821513A4FF90184918093AA
:1029E00088084EC010929000109291008091910042
:1029F0008860809391008091910081608093910024
:102A00002A2F30E0F901EF52FA4FE491F0E0EE0F97
:102A1000FF1FEB54FA4F8591949190938E08809309
:102A20008D0821513A4FF901849180938F0828C075
:102A30001092C0001092C1008091C1008860809304
:102A4000C1008091C10081608093C1002A2F30E0D5
:102A5000F901EF52FA4FE491F0E0EE0FFF1FEB5453
:102A6000FA4F859194919093950880939408215101
:102A70003A4FF90184918093960802C057FC80C1B7
:102A80008A2F61E00E940010552021F0F2E05F16CD
:102A900009F0BAC031018824992460E072E18AE724
:102AA00090E0A40193010E943D1D59016A01860135
:102AB00075010894E108F108010911092FEFE216E8
:102AC000F1040105110509F008F498C060E472E40E
:102AD0008FE090E0A40193010E943D1D79018A01DD
:102AE0000894E108F1080109110982E05816C1F4BF
:102AF0009FEFE916F1040105110509F008F4CEC0B5
:102B000060E970ED83E090E0A40193010E943D1D17
:102B100079018A010894E108F1080109110983E0AB
:102B2000AFEFEA16F1040105110509F008F467C0DA
:102B300068E478EE81E090E0A40193010E943D1DDD
:102B400079018A010894E108F10801091109552069
:102B500011F483E01DC0B2E05B1611F084E018C0F0
:102B6000EFEFEE16F1040105110509F008F496C027
:102B700064E274EF80E090E0A40193010E943D1DA7
:102B800079018A010894E108F1080109110985E039
:102B9000FFEFEF16F1040105110589F180F162E103
:102BA0007AE780E090E0A40193010E943D1D790145
:102BB0008A010894E108F10801091109552011F072
:102BC00086E001C084E02FEFE216F1040105110553
:102BD000B1F0A8F0C601B50120E034E040E050E0DB
:102BE0000E943D1D79018A010894E108F10801095C
:102BF0001109552009F052C085E004C081E055203C
:102C000009F04CC085BD4AC05101CC24DD2460E0F0
:102C100072E18AE790E0A60195010E943D1D7901CD
:102C20008A010894E108F1080109110980E0E81619
:102C300080E0F80681E0080780E0180710F491E0D2
:102C400010C068E478EE81E090E0A60195010E9452
:102C50003D1D79018A010894E108F1080109110973
:102C600093E0A1E05A1639F480918100887F982B77
:102C70009093810013C0B3E05B1639F4809191000A
:102C8000887F982B9093910009C0E4E05E1631F4A0
:102C90008091C100887F982B9093C10089819A818F
:102CA000AB81BC810097A105B10529F48FEF9FEF9F
:102CB000AFEFBFEF13C0220C331CB10180E090E0F6
:102CC00029813A814B815C810E94FC1C28EE33E013
:102CD00040E050E00E941B1DC901DA01E1E05E16F0
:102CE000E1F0E5151CF0552049F04AC0F3E05F160D
:102CF00031F124E0521609F043C033C0E7BC8093A1
:102D00007B0890937C08A0937D08B0937E08809107
:102D10006E00826080936E0033C0F0928900E09272
:102D200088008093820890938308A0938408B093CE
:102D3000850880916F00826080936F0021C0F092BF
:102D40009900E09298008093890890938A08A09354
:102D50008B08B0938C088091710082608093710021
:102D60000FC0E092CF008093900890939108A093B9
:102D70009208B093930880917200806480937200EF
:102D80000F900F900F900F90CF91DF911F910F91A7
:102D9000FF90EF90DF90CF90BF90AF909F908F907B
:102DA0007F906F905F903F902F900895282F809193
:102DB00099088823C1F057FF1AC015C0289890932E
:102DC00098088091F1008193E217F307B9F7411554
:102DD000510539F08091F200882319F48BE6809335
:102DE000E800AFBF02C04FEF5FEFCA010895AFB771
:102DF000F89427702093E9008091F200282F30E0AA
:102E0000241735070CF4A901FB019B01240F311D88
:102E100094E6DACFDF93CF930F92CDB7DEB7BE0142
:102E20006F5F7F4F41E050E00E94D616019719F086
:102E30002FEF3FEF03C08981282F30E0C9010F90A9
:102E4000CF91DF910895FF920F931F93F82E142FC7
:102E5000052F40919C0850919D08212F302FC901CA
:102E6000DC01FB016EEF29C0F7FE02C0949101C0A6
:102E7000908120919A0830919B0824173507ACF473
:102E80008091E8008570E1F38091E80082FF03C043
:102E90002FEF3FEF17C09093F100C90101968F7398
:102EA0009070892B11F46093E8002F5F3F4F3093AF
:102EB0009B0820939A08119731961097A9F6812FB5
:102EC000902F9C01C9011F910F91FF9008951F93AE
:102ED000782FE92F162F20919A0830919B08A09106
:102EE0009C08B0919D082A173B07C4F48091E80024
:102EF0008570E1F38091E80082FD16C0812F90E09B
:102F00000196880F991F8093F100C90101968F7374
:102F10009070892B19F48EEF8093E8002F5F3F4F5C
:102F200030939B0820939A0820919A0830919B082F
:102F30002A173B07A4F48091E8008570E1F38091A3
:102F4000E80082FD12C083E08093F100C901019680
:102F50008F739070892B19F48EEF8093E8002F5FA8
:102F60003F4F30939B0820939A0840919A085091C4
:102F70009B08872F9E2FFC0170E06EEF43C0949159
:102F80004A175B07A4F48091E8008570E1F3809113
:102F9000E80082FF02C020E00DC09093F100CA015A
:102FA00001968F739070892B11F46093E8004F5F46
:102FB0005F4F21E04A175B07A4F48091E800857019
:102FC000E1F38091E80082FF02C080E00DC0109222
:102FD000F100CA0101968F739070892B11F46093F0
:102FE000E8004F5F5F4F81E0319690E030E0822350
:102FF0009323892B31F450939B0840939A0880E0E7
:1030000009C07F5F711708F4BACF50939B084093B3
:103010009A0881E01F9108959C018091E80082FF49
:10302000FCCFF901260F311D03C08091F10081937F
:10303000E217F307D1F7289884E6809398088BEF7E
:103040008093E800CB0108958093E9008091F2001D
:10305000882319F08AE38093E80008950895109278
:10306000990881E08093D70080EA8093D80082E1BC
:1030700089BD09B400FEFDCF61E070E080E090E022
:103080000E94980F80E98093D8008CE08093E20042
:103090001092E000559A209A08955F926F927F9265
:1030A0008F929F92AF92BF92CF92DF92EF92FF9258
:1030B0000F931F93CF93DF93E82E842E752E80916C
:1030C0009908882371F18B01242F352FC901EC0158
:1030D000AAEFFA2EF7E09F2E9E20E0E45E2E8E2DC2
:1030E00090E070E2A72EB12CA822B9226AE3662EE6
:1030F00050E4C52ED12CC822D92258C09FB7F894CD
:103100009092E9008091E80085FD02C020E004C0B3
:103110008091F200252D281B9FBF222361F4FA9491
:1031200019F42FEF3FEF4DC061E070E080E090E0D8
:103130000E94980F3BC0822F90E0C817D9070CF46B
:103140002C2FC21BD1094FB7F8949092E900A1141B
:10315000B10421F406C01092F10021502223D9F7C6
:1031600019C0E7FC03C0F801922F10C0C801322F2C
:1031700006C0FC010196E491E093F1003150332345
:10318000C1F706C081918093F10091509923D1F746
:10319000020F111D8091E80085FF05C0209729F4DA
:1031A000C114D10411F06092E8004FBF209709F0DC
:1031B000A5CF5D9884E680939708282D372DC90107
:1031C0009C01C901DF91CF911F910F91FF90EF906A
:1031D000DF90CF90BF90AF909F908F907F906F9037
:1031E0005F9008951F920F920FB60F9211242F93A4
:1031F0003F934F935F936F937F938F939F93AF937F
:10320000BF93EF93FF938091E1001092E100982F1C
:1032100083FF0FC01092E90081E08093EB001092D1
:10322000EC0082E38093ED001092990888E080938F
:10323000F00092FF34C083E08093E9008091F200B7
:10324000882319F08AE38093E8008FB7F89492E01E
:103250009093E9009091F2008FBF992321F08BE8C1
:1032600097E00E943E1180919708882351F0809149
:10327000970881508093970880919708882309F4D4
:103280005D9A80919808882351F080919808815028
:103290008093980880919808882309F4289AFF91D0
:1032A000EF91BF91AF919F918F917F916F915F91BE
:1032B0004F913F912F910F900FBE0F901F90189537
:1032C0000F931F93DF93CF930F92CDB7DEB7198281
:1032D0008E010F5F1F4FC8010E946511C8010E9437
:1032E000FF1B898190E00F90CF91DF911F910F918B
:1032F00008951F920F920FB60F921124EF92FF9232
:103300001F932F933F934F935F936F937F938F936D
:103310009F93AF93BF93EF93FF93DF93CF93CDB77B
:10332000DEB76197DEBFCDBF1092E9008091E80063
:1033300083FF14C1FE0131969E01275F3F4F03C0FA
:103340008091F1008193E217F307D1F7289884E682
:103350008093980882EF8093E800998197FF05C0D9
:103360008091E80080FFFCCF03C08EEF8093E800DF
:10337000292F30E0C90180769070892B09F0C7C0F1
:103380008A81882329F41092F1001092F100DBC0A9
:10339000813009F4D8C0833009F4D5C0853049F4B0
:1033A0008091E80080FFFCCF8B8180688093E300F0
:1033B000CAC0863009F081C01C81EF80F8841230C9
:1033C000C1F51092E90010929B0810929A08109291
:1033D0009D0810929C080E94601999E0FE013996A0
:1033E000DF01292F1D922A95E9F799871A8791E025
:1033F0009E8790E8988B9AEF998B20919A0830914C
:103400009B08275F3F4F3C872B878D871092E900F1
:1034100010929B0810929A08F0929D08E0929C08E6
:1034200080E0BF0149E050E00E9423170E9460192C
:103430008AC01092E90010929B0810929A08F092AC
:103440009D08E0929C08123241F482E290E00E94D2
:10345000F71B892B09F47BC076C0113079F488E022
:10346000E816F10419F481E080939E0880919E088B
:10347000882309F070C0EBE9F6E018C0133009F0BA
:1034800066C08B81882319F4EAE7F6E00FC082302A
:1034900021F48EE796E060E106C0813009F057C064
:1034A0008FE896E06BE00E9467174BC0449180E87C
:1034B000BF0150E00E94231746C0873009F447C07F
:1034C000883021F481E08093F1003DC08930D9F546
:1034D00023703070232BD9F5E0ECF6E091E031E079
:1034E00026E39093E9003093EB0084918093EC0005
:1034F0002093ED009F5F3196953099F78EE780938A
:10350000EA001092EA008B81809399081CC08F8199
:1035100098851092E90010929B0810929A08909357
:103520009D0880939C088D81882329F4CE01019603
:103530000E94711106C0823051F4CE0101960E94A2
:10354000C81A882321F08EEF8093E80007C081E23B
:103550008093EB0003C0EDEAF6E0A8CF6196DEBFF2
:10356000CDBFCF91DF91FF91EF91BF91AF919F912F
:103570008F917F916F915F914F913F912F911F910B
:10358000FF90EF900F900FBE0F901F901895089529
:10359000FC0191818081813A31F4913089F080E0A1
:1035A000933089F40DC0813269F49B3021F482811B
:1035B00080930A0505C09A3029F4828180930B0517
:1035C00081E0089580E00895EF92FF920F931F939A
:1035D0008C01E62EDC01ED91FC910480F581E02D5B
:1035E0000995F82ED801ED91FC910680F781E02D28
:1035F000C8016E2D09958F2D90E01F910F91FF90BE
:10360000EF9008951092A0081092A4081092A308B9
:1036100082E595E09093A2088093A1080895EF9227
:10362000FF920F931F93DF93CF930F92CDB7DEB727
:1036300089838B017A0184E0BE016F5F7F4F41E097
:1036400050E00E944D1884E4B801A7010E944D1873
:103650000F90CF91DF911F910F91FF90EF90089500
:1036600082E048E050E00E940F1B0895FC011682A2
:103670001782108611861286138614823496BF0133
:103680000E94301B0895DC01683810F0685829C08A
:10369000E62FF0E067FF13C0E058F04081E090E0D3
:1036A00002C0880F991FEA95E2F7809514962C9135
:1036B0001497282314962C93149760E012C0EE5BA5
:1036C000F84F6491662319F420E030E01DC067FFD5
:1036D00008C014968C9114978D7F14968C93149730
:1036E0006F77FD0190E0662321F08681861709F44B
:1036F00016829F5F31969630B1F7CD011496BD01C9
:103700000E94301B21E030E0C9010895CF93DF9380
:10371000DC01683810F0685825C0E62FF0E067FF3C
:1037200012C0E058F04081E090E002C0880F991F7D
:10373000EA95E2F714962C911497282B14962C9363
:10374000149760E00FC0EE5BF84F64916623D9F1E7
:1037500067FF08C014968C911497826014968C931E
:1037600014976F7716968C9116978617A9F117966E
:103770008C911797861781F118968C911897861758
:1037800059F119968C911997861731F11A968C91E7
:103790001A97861709F11B968C911B978617E1F0F3
:1037A000ED01E0E0F0E09E2F8E81882321F4EA0F06
:1037B000FB1F668306C09F5F31962196E630F105B8
:1037C00091F7963049F481E090E013969C938E93A4
:1037D000129720E030E007C0CD011496BD010E9491
:1037E000301B21E030E0C901DF91CF91089580E8DE
:1037F00064EC76E045E650E00E9423170895FC0152
:1038000080818F5F808380E869E277E049E150E062
:103810000E9423170895E89409C097FB3EF4909501
:103820008095709561957F4F8F4F9F4F9923A9F099
:10383000F92F96E9BB279395F69587957795679528
:10384000B795F111F8CFFAF4BB0F11F460FF1BC06C
:103850006F5F7F4F8F4F9F4F16C0882311F096E9FF
:1038600011C0772321F09EE8872F762F05C06623AD
:1038700071F096E8862F70E060E02AF09A95660F66
:10388000771F881FDAF7880F9695879597F908951F
:1038900097F99F6780E870E060E008959FEF80EC03
:1038A000089500240A9416161706180609060895A6
:1038B00000240A9412161306140605060895092E0C
:1038C0000394000C11F4882352F0BB0F40F4BF2B7B
:1038D00011F460FF04C06F5F7F4F8F4F9F4F0895BB
:1038E00057FD9058440F551F59F05F3F71F04795B1
:1038F000880F97FB991F61F09F3F79F08795089596
:10390000121613061406551FF2CF4695F1DF08C0B4
:10391000161617061806991FF1CF869571056105D1
:1039200008940895E894BB2766277727CB0197F979
:1039300008950BD0C4CFB5DF28F0BADF18F0952377
:1039400009F0A6CFABCF1124EECFCADFA0F3959F2D
:10395000D1F3950F50E0551F629FF001729FBB2776
:10396000F00DB11D639FAA27F00DB11DAA1F649F22
:103970006627B00DA11D661F829F2227B00DA11DD5
:10398000621F739FB00DA11D621F839FA00D611D5B
:10399000221F749F3327A00D611D231F849F600D7C
:1039A000211D822F762F6A2F11249F5750408AF0B5
:1039B000E1F088234AF0EE0FFF1FBB1F661F771F41
:1039C000881F91505040A9F79E3F510570F060CF7D
:1039D000AACF5F3FECF3983EDCF386957795679529
:1039E000B795F795E7959F5FC1F7FE2B880F911D5F
:1039F0009695879597F90895629FD001739FF0017E
:103A0000829FE00DF11D649FE00DF11D929FF00D6E
:103A1000839FF00D749FF00D659FF00D9927729FA5
:103A2000B00DE11DF91F639FB00DE11DF91FBD0130
:103A3000CF0111240895A1E21A2EAA1BBB1BFD0180
:103A40000DC0AA1FBB1FEE1FFF1FA217B307E4077D
:103A5000F50720F0A21BB30BE40BF50B661F771FD5
:103A6000881F991F1A9469F76095709580959095B5
:103A70009B01AC01BD01CF01089597FB092E0526DE
:103A80000ED057FD04D0D7DF0AD0001C38F4509573
:103A90004095309521953F4F4F4F5F4F0895F6F772
:103AA00090958095709561957F4F8F4F9F4F0895AA
:103AB000EE0FFF1F0590F491E02D0994F894FFCFCD
:103AC00000000000000000000000000000000000F6
:103AD00000000000000000000000000000000000E6
:103AE00000000000000000000000000000000000D6
:103AF00000000000000000000000000000000000C6
:103B000000000000000000000000000000000000B5
:103B100000000000000000000000000000000000A5
:103B20000000000000000000000000000000000095
:103B30000000000000000000000000000000000085
:103B40000000000000000000010101030307070F4F
:103B50000F0F0F0F0F07030100000000000000000F
:103B60000000000000000000000000000000000055
:103B70000000000000000000000000000000000045
:103B80000000000000000000000000000000000035
:103B90000000000000000000000000000000000025
:103BA0000000000000000000000000000000000015
:103BB0000000010F070000000000000000000000EE
:103BC00003070F3F7F7FFFFFFFFFFFFFFFFFFFFFA9
:103BD000FFFFFEFEFCFCFCFC780000000000000083
:103BE00000000000000000000000000000000000D5
:103BF00000000000000000000000000000000000C5
:103C000000000000000000000000000000000000B4
:103C10000000000000000000003FFFFFFFFFFFFF6B
:103C2000FF3800000000000183E1F37B7F3F3F1F6E
:103C30001F3FFFFFFF1F3F7F7FFFE7C78702020293
:103C400080E0F0F8F8F8FCFEFEFFFFFFFFFFFFFF4B
:103C5000FF1F0F0707030301000000000000060F0D
:103C60001F1F1F1F3F3F3F3F3F3F3F3F1F1F0F0F84
:103C7000070300003F3F3F3F3F3F3F3F3F3F3F3F46
:103C80003F1F1F0F07000000003F3F3F3F3F1F0F38
:103C90001F1F1F1F1E1F1F1F0EFFFFFFFFFFFFFF26
:103CA000FF030307070F1F1F1F0E048080808087FC
:103CB000CFCFDFDFDFDFE0E0E0E0E0F0707030008A
:103CC0000000000000000000000000008080C0C173
:103CD000E1E1F1F3FFFFFFFFFFFFFF7F3F0F00FF79
:103CE000FFFFFFFFFF1F0307070F0F0FBFFFFFFFC0
:103CF000FEF8F0070F1F1F1F3F3F3C3C383838FFCE
:103D0000FFFFFFFFFFFF000000FFFFFFFFFFFFFFC0
:103D1000800000000000000000C0FFFFFFFFFFFF69
:103D2000FFFFFFDF8F8F0F070301000000003FFF41
:103D3000FFFFFFFFF8C000000000000000000000CF
:103D40000000000F7FFFFFFFFFFFFFFFFFFFFFFFF0
:103D5000FFFFFEFEFEFCFCF8F8F0F0E0C08000C0C3
:103D6000FFFFFFFFFFFFFFF7F0F0E0C0C080800023
:103D700000000080E0E0E0F0F0F0F0F0F0F0F0F0B3
:103D8000F0F0F0F0F0F0000000F0F0F0F0F0F0F003
:103D900000000000000000000000F0F0F0F0F0F083
:103DA000C0008080C0E0E0E0E0E0000000F0F0F063
:103DB000F0F0F080000000000000000000000000B3
:103DC00000000080808080808080808080000000F3
:103DD00000000000000000000000000000000000E3
:103DE00000E0FCFCFCFCFCF8F830000000000000E7
:103DF00000000000000000000000000000000000C3
:103E000000000000000000000000000000000000B2
:103E100000000000000000000000000000000000A2
:103E20000000000000000000000000000000000092
:103E30000000000000000000000000000000000082
:103E40000000000000000000000000000000000072
:103E50000000000000000000000000000000000062
:103E60000000000000000000000000000000000052
:103E70000000000000000000000000000000000042
:103E80000000000000000000000000000000000032
:103E90000000000000000000000000000000000022
:103EA0000000000000000000000000000000000012
:103EB0000000000000000000000000000000000002
:103EC0006400E1000000000000FF010103020100A6
:103ED00007060504000000000709FC0800000000B8
:103EE000E80BB70B700B790B8E0B9F0B00000000DB
:103EF0001211B513C110DD10CD103A113E110000A2
:103F000000001013B513C612E212D2120013000003
:0C3F10000000E41AB513861B431B361B8F
:00000001FF
