:100000000C94E7030C940F040C940F040C940F044D
:100010000C940F040C940F040C940F040C944309DB
:100020000C940F040C940F040C94CC180C945319DA
:100030000C940F040C940F040C940F040C940F04F4
:100040000C940F040C940F040C940F040C940F04E4
:100050000C940F040C940F040C940F040C945F0F79
:100060000C940F040C9453120C949A120C940F04D9
:100070000C940F040C940F040C940F040C940F04B4
:100080000C944B160C9444040C940F040C940F0421
:100090000C94760D0C940F040C9457040C940F04DC
:1000A0000C940F040C940F040C940F040000000037
:1000B000007CDAF2DA7C7CD6F2D67C387C3E7C3866
:1000C000183C7E3C1838EABEEA38387AFE7A3800A6
:1000D000183C1800FFE7C3E7FF0018241800FFE7EB
:1000E000DBE7FF0C125C607064949E946402FEA0D7
:1000F000A0E002FEA0A4FC5A3CE73C5AFE7C383843
:10010000101038387CFE2844FE4428FAFA00FAFA27
:100110006090FE80FE006691A95606060606062936
:1001200045FF452910207E201008047E0408101089
:1001300054381010385410107808080808307830F7
:1001400078300C1C7C1C0C60707C7060000000001F
:10015000000000FA000000E000E00028FE28FE2871
:100160002454FE5448C4C81026466C926A040A00FF
:1001700010E0C00000384482000082443800543847
:10018000FE385410107C101000010E0C00101010DE
:100190001010000006060004081020407C8A92A27D
:1001A0007C0042FE02004E92929262848292B2CC15
:1001B000182848FE08E4A2A2A29C3C5292928C828B
:1001C000848890E06C9292926C6292929478000093
:1001D00028000000022C0000001028448228282853
:1001E0002828008244281040809A90607C82BA9A25
:1001F000723E4888483EFE9292926C7C8282824493
:10020000FE8282827CFE92929282FE909090807C0E
:1002100082828ACEFE101010FE0082FE820004024E
:1002200082FC80FE10284482FE02020202FE403858
:1002300040FEFE201008FE7C8282827CFE90909020
:10024000607C828A847AFE90989462649292924C46
:10025000C080FE80C0FC020202FCF8040204F8FC2C
:10026000021C02FCC6281028C6C0201E20C0869A88
:1002700092B2C200FE828282402010080400828274
:1002800082FE2040804020020202020200C0E010F4
:1002900000042A2A1E02FE1422221C1C22222214DE
:1002A0001C222214FE1C2A2A2A1800107E904018B4
:1002B0002525391EFE1020201E0022BE0200040249
:1002C00002BC00FE081422000082FE02003E201E36
:1002D000201E3E1020201E1C2222221C3F182424F7
:1002E00018182424183F3E10202010122A2A2A24ED
:1002F0002020FC22243C0202043E38040204383C44
:10030000020C023C2214081422320909093E22265A
:100310002A322200106C82000000EE000000826C85
:10032000100040804020403C64C4643C7885858651
:10033000485C0202045E1C2A2AAA9A84AAAA9E8207
:10034000842A2A1E8284AA2A1E02042AAA9E023015
:10035000784A4E489CAAAAAA9A9C2A2A2A9A9CAA17
:100360002A2A1A0000A23E820040A2BE420080A2B9
:100370003E020F9424940F0F14A4140F3E2AAAA235
:1003800000042A2A3E2A3E5090FE924C9292924CB1
:100390004C1212124C4C5212120C5C8282845E5C23
:1003A0004202041E00B90505BE9C2222229CBC020A
:1003B0000202BC3C24FF2424127E92C266D4F43F85
:1003C000F4D4FF90946F0403117E90C0042A2A9EF7
:1003D00082000022BE820C1212524C1C0202445EA9
:1003E000005E50504EBEB0988CBE649494F4146479
:1003F000949494640C12B202041C1010101010108B
:1004000010101CF40813355DF408142C5F0000DE96
:100410000000102854284444285428105500AA00ED
:100420005555AA55AA55AA55AA55AA000000FF007D
:10043000080808FF00282828FF000808FF00FF0818
:10044000080F080F2828283F002828EF00FF000089
:10045000FF00FF28282F203F2828E808F80808F880
:1004600008F8282828F8000808080F00000000F8FD
:1004700008080808F8080808080F08000000FF0826
:100480000808080808080808FF08000000FF2800FE
:1004900000FF00FF0000F808E800003F202F282898
:1004A000E808E828282F202F0000FF00EF28282840
:1004B00028282828EF00EF282828E8280808F80826
:1004C000F82828282F2808080F080F0000F808F837
:1004D000000000F8280000003F2800000F080F0867
:1004E00008FF08FF282828FF28080808F80000004F
:1004F000000F08FFFFFFFFFF0F0F0F0F0FFFFFFFA2
:100500000000000000FFFFF0F0F0F0F01C22221CC1
:10051000223E54547C287E40406060407E407E40B5
:10052000C6AA9282C61C22223C20027E0478046065
:10053000407E404099A5E7A5993854925438324EF0
:10054000804E320C52B2B20C0C121E120C3D465AA6
:1005500062BC7C929292007E8080807E545454547F
:10056000542222FA2222028A5222020222528A02B1
:100570000000FF80C00701FF00001010D6D6106CED
:10058000486C246C60F090F06000001818000000C7
:100590000808000C02FF808000F88080780098B87E
:1005A000E848003C3C3C3C00000000240027002AB6
:1005B000002D00300000000000250028002B002E38
:1005C000003100000000002300260029002C002F2D
:1005D00000040404040403040502020202040302EA
:1005E00002020206060606060604040202020404CB
:1005F0000802011040804010204080408008020422
:1006000001804020100201108010204040000000B6
:100610000200080E0000030401000B0000000000AF
:1006200000000000000000000000000706050401B3
:1006300000080A0B0C0D09080B0002020201000958
:10064000040000010202000005240010010524013D
:100650000101042402060524060001070581031098
:10066000004009040100020A0000000705020240E0
:10067000000007058302400000040309044172647E
:1006800075696E6F204C656F6E6172646F004172A8
:100690006475696E6F204C4C43001201000200002B
:1006A00000404123368000010102000112010002D6
:1006B000020000404123368000010102000100C118
:1006C0008081C105010902A1010901A1008501057F
:1006D000091901290315002501950375018102956A
:1006E0000175058103050109300931093815812596
:1006F0007F750895038106C0C005010906A1018523
:1007000002050719E029E715002501750195088103
:100710000295017508810395067508150025650584
:1007200007190029658100C00904020001030000C7
:100730000009210101000122650007058403400032
:100740000100000000000000002A2B28000000002B
:100750000000000000000000000000000000000099
:10076000002C9EB4A0A1A2A434A6A7A5AE362D3716
:1007700038271E1F20212223242526B333B62EB767
:10078000B89F8485868788898A8B8C8D8E8F90917F
:1007900092939495969798999A9B9C9D2F3130A30C
:1007A000AD350405060708090A0B0C0D0E0F1011D4
:1007B00012131415161718191A1B1C1DAFB1B0B55A
:1007C0000000A70BED0B8611D7130818DC1A1124B3
:1007D0001FBECFEFDAE0DEBFCDBF15E0A0E0B1E095
:1007E000EAE9FCE302C005900D92A438B107D9F7FD
:1007F00018E0A4E8B5E001C01D92A03CB107E1F704
:1008000017E0CEECD7E004C02297FE010E94471EFD
:10081000C23CD107C9F70E942D140C944B1E0C94B6
:100820000000FB01DC0102C001900D9241505040DC
:10083000D8F708956817790768F4FB01DC01E40F25
:10084000F51FA40FB51F02C002900E9241505040F8
:10085000D8F708950C94110421E030E00CC000009A
:10086000000000000000000000009F5F9A35B9F70B
:100870002150304011F090E0F2CF3C9A8093BB00C1
:1008800084E88093BC0008951F920F920FB60F92D8
:1008900011248F938BB180588BB9109295001092D0
:1008A00094008F910F900FBE0F901F9018951F927C
:1008B0000F920FB60F921124EF92FF920F931F9396
:1008C0002F933F934F935F936F937F938F939F9358
:1008D000AF93BF93CF93DF93EF93FF931092BF003B
:1008E0001092BE001092860610928706209189060B
:1008F00030918A0680918B0690E02817390728F4FA
:1009000080918706816080938706209189063091C7
:100910008A0680918C0690E02817390728F4809188
:1009200087068260809387062091890630918A0627
:1009300080918D0690E02817390728F4809187066A
:100940008460809387068091890690918A0601963B
:1009500090938A06809389068091890690918A06F1
:100960008436910521F410928A06109289068091AE
:100970008E06882371F480918706877F809387068F
:1009800040E050E0F8E0FF2E0FEF1FEFE7E0EE2E23
:1009900004C0809187068860F1CFFA01EE0FFF1F37
:1009A000EE0FFF1F9F012157394FE901888199817F
:1009B000AA81BB81EA01CC0FDD1F0297A105B10519
:1009C00008F443C0BE016556794FFB0180819181D7
:1009D000892BA1F5DA01AF55B94F8C91FA01EC558D
:1009E000F94F9081890F8C93F90180819181A281C7
:1009F000B3810197A109B10980839183A283B38355
:100A0000FA01E955F94F2081CA01A3E0880F991F27
:100A1000AA95E1F7C80FD91FC20FD11DC655D94FEE
:100A2000888190E0DB0111969C938E9380818F5F8B
:100A3000808380818A30E8F010821BC0EB018881BE
:100A4000998101979983888314C0D9011D921D92C1
:100A50001D921C921397E853F94F10821182128253
:100A60001382FA01EF55F94FF082C556D94F198319
:100A70000883FA01EF55F94F8081883014F0108215
:100A800003C0808187FDE082FA01EE0FFF1FEE0FA9
:100A9000FF1FE853F94F80819181A281B3810097B4
:100AA000A105B10521F4FA01EF55F94FF0824F5F2E
:100AB0005F4F4330510509F070CF90918606E09169
:100AC000A206FF27E7FDF095EC52F94F8081982BA5
:100AD0009093860690918606E091A306FF27E7FD96
:100AE000F095E352F94F8081982B90938606909170
:100AF0008706E091A106FF27E7FDF095E352F94F45
:100B00008081982B909387065D98809187068EBD93
:100B10000DB407FEFDCF8EB5809186068EBD0DB457
:100B200007FEFDCF8EB55D9AFF91EF91DF91CF91DA
:100B3000BF91AF919F918F917F916F915F914F91F5
:100B40003F912F911F910F91FF90EF900F900FBE4B
:100B50000F901F901895CF93DF93962F50E0BA0116
:100B60007695762F66277795679585E02802900120
:100B70001124892F685D7E4FE9012596F901E4551E
:100B8000FF4FE491DB01A80FB11DEC938F5F2F5F46
:100B90003F4F2C173D0791F7292F2B5F342F330F31
:100BA000330F330F692F665F4F5F5F4F440F440F62
:100BB000440F80918206281710F4209382068091BA
:100BC0008306861710F46093830680918406381795
:100BD00010F43093840680918506841710F44093B6
:100BE0008506DF91CF9108950F931F93062F142F41
:100BF0003C9A84EA8093BC0020E030E08091BC0005
:100C000087FD38C02A353105A9F12F5F3F4FF6CF58
:100C10008091BC0087FD35C02A35310591F12F5FE9
:100C20003F4FF6CF8091BC0087FD31C02A3531059A
:100C300071F12F5F3F4FF6CF8091BC0087FD33C02D
:100C40002A35310581F12F5F3F4FF6CF8091BC00EF
:100C500087FD32C02A35310579F12F5F3F4FF6CF3E
:100C60008091BC0087FD2DC02A35310551F12F5FE1
:100C70003F4FF6CF812F880F0E942C0420E030E0F8
:100C8000C7CF802F0E942C0420E030E0CBCF3C9ACD
:100C900084EA8093BC00110F812F81600E942C0494
:100CA00020E030E0C9CF8091BC008F70806C8093D1
:100CB000BC0020E030E0CACF9091BB0020E030E0E3
:100CC000CFCF84E98093BC008091BC008B7F809360
:100CD000BC008091BC0084608093BC00892F1F9170
:100CE0000F9108950F931F93162F042F3C9A84EAB7
:100CF0008093BC0040E050E08091BC0087FD24C0A0
:100D00004A35510509F14F5F5F4FF6CF8091BC0026
:100D100087FD21C02A353105F1F02F5F3F4FF6CF17
:100D20008091BC0087FD1DC02A353105D1F02F5FB1
:100D30003F4FF6CF8091BC0087FD19C02A353105A1
:100D4000B1F02F5F3F4FF6CF822F880F0E942C0407
:100D500020E030E0DBCF812F0E942C0420E030E047
:100D6000DFCF802F0E942C0420E030E0E3CF84E925
:100D70008093BC001F910F910895CF93DF93EC01F6
:100D80006DE04DE10E94F4058A3219F02FEF3FEF3C
:100D900037C0CE016AE24DE10E94F405482F4E7F34
:100DA000CE016AE22DE10E947206CE016EE040E0C3
:100DB0002DE10E947206CE016AE24DE10E94F40527
:100DC000482F477CCE016AE22DE10E947206CE01D7
:100DD0006AE24DE10E94F405482FCE016AE22DE15E
:100DE0000E947206CE016AE24DE10E94F405482F8E
:100DF0004160CE016AE22DE10E94720621E030E0FE
:100E0000C901DF91CF91089510928006109281065A
:100E100080E094E0E8E2F1E0DF019C011D922150C6
:100E20003040E1F780918206882311F0109282060B
:100E3000809183068F3718F48FE780938306809123
:100E40008406882311F010928406809185068F33E2
:100E500018F48FE38093850608951F93162FF89456
:100E60005D9A81E160E00E9418111EBD0DB407FE7D
:100E7000FDCF81E161E00E94181178941F910895DF
:100E8000FF920F931F938C01F62E84E061E00E9485
:100E90001811C8016F2D0E942D071F910F91FF900F
:100EA0000895FF920F931F938C01F62E84E060E06B
:100EB0000E941811C8016F2D0E942D071F910F91DC
:100EC000FF9008958F929F92AF92BF92CF92DF9240
:100ED000EF92FF920F931F93CF93DF93EC0173E395
:100EE000872E75E0972E20E030E0AA24BB2468E02E
:100EF000C62ED12CC20ED31E8091840690E08C1594
:100F00009D05D4F58091850690E0821793070CF437
:100F100040C0F4016081606BCE010E9451071091C6
:100F2000820600918306612F6F5F6F70CE010E9471
:100F30005107612F70E06F5F7F4F54E075956795A3
:100F40005A95E1F76F706061CE010E945107CE01A2
:100F500060EE0E94510748E2E42E41E0F42EEA0CD4
:100F6000FB1C08C0F701E10FF11DCE0160810E945A
:100F700040071F5F0117B0F70894811C911C80E89F
:100F800090E0A80EB91E90E4C916D10411F09601A4
:100F9000AECF8FE780938206109283068FE3809313
:100FA000840610928506DF91CF911F910F91FF90DB
:100FB000EF90DF90CF90BF90AF909F908F9008956B
:100FC000EF92FF921F937C01162F61E80E94510758
:100FD0001F73C701612F0E9451071F91FF90EF906F
:100FE0000895CF93DF93EC0184E061E00E948B10C1
:100FF0008CE061E00E948B1081E161E00E948B1027
:1010000081E160E00E94181188EE93E020E931E070
:10101000F9013197F1F70197D9F78CE060E00E9470
:10102000181188EE93E020E931E0F9013197F1F7EA
:101030000197D9F78CE061E00E941811CE0163EAB4
:101040000E945107CE0161EA0E945107CE0160EC77
:101050000E945107CE0160E60E945107CE016CE26A
:101060000E94510784EF91E020E931E0F9013197C6
:10107000F1F70197D9F7CE016EE20E94510784EF94
:1010800091E020E931E0F9013197F1F70197D9F7C3
:10109000CE016FE20E94510780E49CE90197F1F7CD
:1010A000CE0166E20E94510780918206882311F0EA
:1010B00010928206809183068F3718F48FE7809311
:1010C000830680918406882311F010928406809113
:1010D00085068F3318F48FE380938506DF91CF91D7
:1010E00008958FE061E00E948B1080E161E00E9432
:1010F0008B1081E161E00E948B108FE060E00E9424
:10110000181180E160E00E94181181E161E00E9405
:1011100018118CB580618CBD8CB580648CBD8CB58C
:101120008C7F8CBD8DB581608DBD08950F931F930D
:101130008C010E947108C8010E94F107C8016FEA82
:101140000E945107C80164EA0E945107C80160E08B
:101150000E94E0071F910F91089588E291E068EAEC
:1011600071E040E853E00E941A0480E8E8EAF4E005
:10117000DF011D928A95E9F780918206882311F09C
:1011800010928206809183068F3718F48FE7809340
:10119000830680918406882311F010928406809142
:1011A00085068F3318F48FE3809385060895CF92D8
:1011B000DF92EF92FF920F931F93CF93DF938C01F7
:1011C0006B017A01C0E0D0E034C0F601EC0FFD1FE6
:1011D00020812A3041F4809181068F5F80938106BF
:1011E0001092800619C02D30B9F0C80160918006B8
:1011F000409181060E94AB05809180068A5F8093B2
:10120000800690E08A3791053CF01092800680912C
:1012100081068F5F8093810680918106883040F03F
:10122000C8010E94AD08809181068150809381069B
:101230002196CE15DF0548F2DF91CF911F910F91D6
:10124000FF90EF90DF90CF9008950F931F93142F8E
:10125000052F0E94D708812F902F1F910F9108957D
:10126000DF93CF930F92CDB7DEB76983BE016F5F77
:101270007F4F41E050E00E94D70881E090E00F905E
:10128000CF91DF9108951F920F920FB60F92112404
:10129000EF92FF920F931F932F933F934F935F9380
:1012A0006F937F938F939F93AF93BF93EF93FF932E
:1012B00080915506813009F469C00E94A70F9B01F7
:1012C000AC018CB1682F70E06074707080918805FB
:1012D00090918905A0918A05B0918B0579018A01C9
:1012E000E81AF90A0A0B1B0BE0928405F0928505B7
:1012F000009386051093870580918405909185055C
:10130000A0918605B091870580529E44A040B040D0
:10131000D4F1672B19F4109254062CC0E0915406B6
:10132000F0E08091840590918505A0918605B091AB
:101330008705EE0FFF1FEE0FFF1FE457FA4F918353
:10134000808318C0E0915406F0E08091840590916C
:101350008505A0918605B0918705EE0FFF1FEE0F62
:10136000FF1FE457FA4F93838283809154068F5F67
:1013700080935406209388053093890540938A050D
:1013800050938B0503C0672BE9F2C8CFFF91EF9113
:10139000BF91AF919F918F917F916F915F914F918D
:1013A0003F912F911F910F91FF90EF900F900FBEE3
:1013B0000F901F901895EF92FF920F931F93162F87
:1013C000042F80E3E82E87E0F82EC7016EE170E07D
:1013D0000E94B30BC701612F0E94350CC701602F1B
:1013E0000E94350CC7010E94780C1F910F91FF904D
:1013F000EF900895CF93DF9380E397E06EE170E084
:101400000E94B30B80E397E063E00E94350C80E319
:1014100097E00E94780C80E397E06EE170E00E9414
:10142000B30B80E397E06EE170E046E050E00E948D
:10143000890C80E397E00E94BD0B069771F4C0E031
:10144000D0E080E397E00E94C60BFE01EA5AF94F14
:1014500080832196C630D105A1F780E397E00E94F2
:10146000780CDF91CF9108950F931F938C0163E067
:1014700070E046E050E00E94FA0940915606209143
:101480005706742F60E030E0622B732B882777FDBE
:101490008095982F0E94E91C2FE135E84BE65FE329
:1014A0000E949D1DF8016483758386839783409114
:1014B000580620915906742F60E030E0622B732BA0
:1014C000882777FD8095982F0E94E91C2FE135E849
:1014D0004BE65FE30E949D1DF8016087718782875C
:1014E000938740915A0620915B06742F60E030E0AC
:1014F000622B732B882777FD8095982F0E94E91C1B
:101500002FE135E84BE65FE30E949D1DF8016487FB
:101510007587868797871F910F9108950F931F9363
:101520008C010E94340AF80120853185428553855B
:10153000B901CA011F910F9108950F931F938C0158
:101540000E94340AF8012485358546855785B901FE
:10155000CA011F910F9108950F931F938C010E9450
:10156000340AF8012481358146815781B901CA01C5
:101570001F910F910895CF93DF93EC0183EB97E0D8
:1015800060E875E20E944B1181E098E040E855E286
:1015900060E070E00E94CA128DE061E00E948B1052
:1015A0008DE060E00E9418118BE061E00E948B10DA
:1015B0008BE060E00E94181184E160E00E948B10D3
:1015C00085E161E00E948B1086E161E00E948B1052
:1015D00087E161E00E948B1086E061E00E948B1041
:1015E0008AE061E00E948B1085E060E00E948B1031
:1015F00089E061E00E948B1089EE96E060E070E087
:101600000E94AC0B89EE96E060E070E00E94AC0BAB
:101610008E8F0E949E0C84E00E948D0C559A5D98DE
:10162000809187068EBD0DB407FEFDCF8EB58091EB
:1016300086068EBD0DB407FEFDCF8EB55D9A109265
:101640008E0680E18093DD0680E38093DE0680E2F3
:101650008093DF0680E68093E00680E48093E106D5
:1016600080EC8093E20680E88093E30680E9809333
:10167000E4061092E50681E08093D40683E080932F
:10168000D50682E08093D60686E08093D70684E074
:101690008093D8068CE08093D90688E08093DA06A0
:1016A00089E08093DB061092DC06CE010E9496084A
:1016B000CE010E946207809128058093E8068093FE
:1016C000E7068093E606F8941092C0001092C100DD
:1016D0001092BF001092BE0080E38093CF0086E09E
:1016E0008093C1008091720080648093720078942E
:1016F000F89487E060E00E948B1080916A008F7CF4
:10170000806180936A00EE9A7894CE010E94BD06B3
:10171000CE0161E070E040E250E00E94DB09CE01C2
:1017200062E070E040E050E00E94DB09CE010E94E0
:10173000340ADF91CF910895FC01138212828FE366
:1017400095E091838083CF010E94BB0A08958CE5C8
:1017500096E00E949C0B0895F999FECF72BD61BD81
:10176000F89A80B5089581E080932F0760930C0765
:1017700010922D0710922E07089520910B0730E04C
:1017800080910A07281B3109C901089540910A0771
:1017900080910B07481718F02FEF3FEF0AC0E42F96
:1017A000F0E0E651F94F8081282F30E04F5F409301
:1017B0000A07C9010895E0910A0780910B07E8170D
:1017C00018F0EFEFFFEF06C0F0E0E651F94F80812F
:1017D000E82FF0E0CF01089508951092330710929A
:1017E000320788EE93E0A0E0B0E080933407909356
:1017F0003507A0933607B093370787E495E09093B9
:101800003107809330070895CF92DF92EF92FF92D5
:101810000F931F93CF93DF937C016B018A0180911B
:101820002F078823A1F0C0E0D0E00DC0D701ED91D3
:10183000FC91D601AC0FBD1F0190F081E02DC701D6
:101840006C9109952196C017D10780F304C0CB0194
:10185000642F0E945B0DC801DF91CF911F910F9102
:10186000FF90EF90DF90CF900895DF93CF930F928A
:10187000CDB7DEB7FC01698380912F078823C9F0BB
:1018800080912E07803238F081E090E0938382834C
:1018900020E030E015C080912D07E82FF0E0E35FF5
:1018A000F84F998190838F5F80932D0780932E0747
:1018B00005C0CE01019661E00E945B0D21E030E0A1
:1018C000C9010F90CF91DF9108950F93062F80915A
:1018D0000C076DE077E040912E0721E00E94060D95
:1018E00010922D0710922E0710922F070F91089536
:1018F00061E00E94650C0895413208F040E2862FB5
:101900006AEE76E00E94BD0C10920A0780930B07E6
:10191000089521E00E947C0C08952CB5382F337077
:101920002C7F322B3CBD2DB590E0959587959595F4
:10193000879581702E7F822B8DBD08958FE061E0A9
:101940000E948B1080E161E00E948B1081E161E0D8
:101950000E948B108FE060E00E94181180E160E02F
:101960000E94181181E161E00E9418118CB580611C
:101970008CBD8CB580648CBD0895382F413210F039
:1019800040E042C080913C078823E1F791E09093CA
:101990003C0720933E078FEF8093A90710926407BE
:1019A0004150409365074F5F90933D0780913D07FD
:1019B000330F832B80933D0780913F07813041F4A3
:1019C00010923F0780913D078093BB0085EC01C0DA
:1019D00085EE8093BC0080913C078130E1F38091DB
:1019E0006407841710F44091640720E030E00AC0D7
:1019F000FB01E20FF31FD901AC5BB84F8C918083E0
:101A00002F5F3F4F2417A0F3842F08950F931F9348
:101A1000582F122F413210F081E04AC080913C07CC
:101A20008823E1F782E080933C0700933E078FEF25
:101A30008093A9071092640740936507A4E4B7E078
:101A4000FB0102C081918D938E2F861B8417D0F3EA
:101A500010923D0780913D07550F852B80933D07E0
:101A600080913F07813041F410923F0780913D07FC
:101A70008093BB0085EC01C085EE8093BC001123F0
:101A800021F080913C078230E1F38091A9078F3FDC
:101A900011F480E00DC08091A907803211F482E03A
:101AA00007C08091A907803311F084E001C083E072
:101AB0001F910F910895482F613210F081E0089531
:101AC00080913C07843011F082E00895609387078D
:101AD000A6E6B7E0842F9C01F90102C081918D93A5
:101AE0008E2F841B8617D0F380E008951F920F92EB
:101AF0000FB60F9211242F933F934F935F936F93E1
:101B00007F938F939F93AF93BF93EF93FF938091B6
:101B1000B90090E0887F90708036910509F4F2C09A
:101B200081369105CCF58832910509F47BC0893264
:101B30009105B4F48031910509F46FC081319105AC
:101B40003CF4009709F447C1089709F04FC165C0FC
:101B50008831910509F466C0809709F047C182C0B9
:101B60008034910509F4A4C08134910544F4803394
:101B7000910509F482C0C89709F038C189C0803541
:101B8000910509F489C08835910509F496C0883417
:101B9000910509F02BC1AEC08839910509F413C134
:101BA00089399105ECF48837910509F4ABC0893780
:101BB00091054CF48836910509F4A4C0803791054D
:101BC00009F014C19FC08838910509F4FCC0803920
:101BD000910509F49DC08038910509F007C198C0AE
:101BE000803B910509F4C6C0813B91054CF4803AD5
:101BF000910509F49FC0883A910509F0F7C0BAC071
:101C0000803C910509F4E3C0883C910509F4DFC0EC
:101C1000883B910509F0EAC0C2C080913D078093DE
:101C2000BB00CFC09091640780916507981768F456
:101C300090916407E92FF0E0EC5BF84F808180938E
:101C4000BB009F5F90936407BCC080913E078823D0
:101C500009F44BC085ED8093BC008091BC0084FDED
:101C6000FCCFC2C080E28093A90785ED8093BC00C1
:101C70008091BC0084FDFCCFB7C080E38093A907AE
:101C800085ED8093BC008091BC0084FDFCCFACC08E
:101C900088E38093A9079BC0809164079091BB0063
:101CA000E82FF0E0EC5BF84F90838F5F8093640740
:101CB000909164078091650782C08091640790913C
:101CC000BB00E82FF0E0EC5BF84F90838F5F8093D0
:101CD000640780913E07882341F085ED8093BC0026
:101CE0008091BC0084FDFCCF7FC081E080933F07E2
:101CF00084EA6EC085ED8093BC008091BC0084FDB9
:101D0000FCCF72C083E080933C071092A80759C0B3
:101D10008091A807803208F056C08091A807909162
:101D2000BB00E82FF0E0E857F84F90838F5F809377
:101D3000A80747C08091A807803230F4E091A80737
:101D4000F0E0E857F84F108285ED8093BC00809159
:101D5000BC0084FDFCCF10923C076091A807E09185
:101D60004207F091430788E897E070E009951092E8
:101D7000A8072DC084E080933C071092860710923C
:101D80008707E0914007F091410709958091870707
:101D9000882329F481E08093870710926607909149
:101DA0008607E92FF0E0EA59F84F80818093BB0065
:101DB0009F5F909386079091860780918707981779
:101DC00010F485EC01C085E88093BC000FC085EC61
:101DD0008093BC0009C01092A90785ED8093BC00D8
:101DE0008091BC0084FDFCCF10923C07FF91EF91E5
:101DF000BF91AF919F918F917F916F915F914F9123
:101E00003F912F910F900FBE0F901F90189508953E
:101E10006F927F928F929F92AF92BF92CF92DF92FA
:101E2000EF92FF920F931F938CE596E00E940407B8
:101E30008CE596E00E94AC0A7B018C018CE596E073
:101E40000E949D0A5B016C018CE596E00E948E0A5F
:101E50003B014C018CE596E060E071E00E94391591
:101E60008CE596E0B801A70122E030E00E94201640
:101E70008CE596E068E071E00E9439158CE596E00B
:101E8000B601A50122E030E00E9420168CE596E024
:101E900061E171E00E9439158CE596E0B401A3017F
:101EA00022E030E00E9420168CE596E00E94620756
:101EB00064E670E080E090E00E942310B5CF1F92AE
:101EC0000F920FB60F9211242F933F938F939F93EE
:101ED000AF93BF938091AE079091AF07A091B007E9
:101EE000B091B1073091B2070196A11DB11D232F0A
:101EF0002D5F2D3720F02D570196A11DB11D209388
:101F0000B2078093AE079093AF07A093B007B0934A
:101F1000B1078091AA079091AB07A091AC07B0914F
:101F2000AD070196A11DB11D8093AA079093AB0741
:101F3000A093AC07B093AD07BF91AF919F918F91E4
:101F40003F912F910F900FBE0F901F9018959FB744
:101F5000F8942091AA073091AB074091AC075091BB
:101F6000AD0786B5A89B06C08F3F21F02F5F3F4F7E
:101F70004F4F5F4F9FBF542F432F322F2227280FE1
:101F8000311D411D511D82E0220F331F441F551F7B
:101F90008A95D1F7B901CA010895789484B5826011
:101FA00084BD84B5816084BD85B5826085BD85B5FD
:101FB000816085BDEEE6F0E0808181608083E1E8AC
:101FC000F0E01082808182608083808181608083E4
:101FD000E0E8F0E0808181608083E1E9F0E08081E9
:101FE00082608083808181608083E0E9F0E080818D
:101FF00081608083E1ECF0E0808184608083808177
:1020000082608083808181608083E3ECF0E0808166
:1020100081608083E0ECF0E0808182608083E2EC8C
:10202000F0E0808181608083EAE7F0E08081846075
:1020300080838081826080838081816080838081D1
:10204000806880830895EF92FF920F931F93CF9340
:10205000DF937B018C013FB7F8948091AA079091A0
:10206000AB07A091AC07B091AD0726B5A89B05C002
:102070002F3F19F00196A11DB11D3FBFBA2FA92F07
:10208000982F8827820F911DA11DB11D52E0880F46
:10209000991FAA1FBB1F5A95D1F7EC0130C00E94AF
:1020A000A11A3FB7F8948091AA079091AB07A0912D
:1020B000AC07B091AD0726B5A89B05C02F3F19F01E
:1020C0000196A11DB11D3FBFBA2FA92F982F8827B8
:1020D000820F911DA11DB11D32E0880F991FAA1F0B
:1020E000BB1F3A95D1F78C1B9D0B885E9340B8F2CD
:1020F0000894E108F10801091109C851DC4FE11405
:10210000F1040105110559F6DF91CF911F910F914F
:10211000FF90EF900895CF93DF93482F50E0CA01CE
:1021200081519A4FFC0134914F525A4FFA018491D8
:10213000882369F190E0880F991FFC01E955FA4F57
:10214000A591B491FC01EB54FA4FC591D49166234B
:1021500051F42FB7F8948C91932F909589238C93F9
:10216000888189230BC0623061F42FB7F8948C9179
:10217000932F909589238C938881832B88832FBFFD
:1021800006C09FB7F8948C91832B8C939FBFDF91EF
:10219000CF910895883071F1893068F4823031F13F
:1021A000833020F4813009F042C01DC0833089F0B3
:1021B0008430E9F512C08B3059F18C3028F4893025
:1021C000E9F08A30A1F51EC08C3031F18E3079F5FE
:1021D00029C0809180008F7703C0809180008F7D1F
:1021E00080938000089584B58F7702C084B58F7D79
:1021F00084BD0895809190008F7707C080919000F2
:102200008F7D03C080919000877F80939000089518
:102210008091C0008F7703C08091C0008F7D809334
:10222000C00008958091C200877F8093C200089506
:10223000FF920F931F93F62E482F50E0CA01835F41
:10224000994FFC012491CA0181519A4FFC011491CC
:102250004F525A4FFA0104910023C9F0222319F07A
:10226000822F0E94CA10E02FF0E0EE0FFF1FEB5408
:10227000FA4FA591B4919FB7F894FF2021F48C9167
:102280001095812302C08C91812B8C939FBF1F914D
:102290000F91FF9008950895FC012485858530E015
:1022A000205C3F4F281B31092F733070C9010895FE
:1022B000FC0194858585981719F42FEF3FEF06C030
:1022C0008585E80FF11D8685282F30E0C901089526
:1022D000DC011C969C911C971D968C911D9798175C
:1022E00019F42FEF3FEF10C01D968C911D97FD0143
:1022F000E80FF11D96851D968C911D978F5F8F734A
:102300001D968C93292F30E0C90108951092B607CD
:102310001092B50788EE93E0A0E0B0E08093B70795
:102320009093B807A093B907B093BA0787E595E0F3
:102330009093B4078093B30708950F931F93DF938F
:10234000CF930F92CDB7DEB78C01698380913005B2
:10235000882369F083E0BE016F5F7F4F41E050E06A
:102360000E9427181816190614F49C0107C081E072
:1023700090E0F8019383828320E030E0C9010F9060
:10238000CF91DF911F910F91089583E00E94FE1776
:1023900008950F931F93CF93DF938C01FC010FC01F
:1023A00082E00E94E4169C01FFEF8F3F9F0799F0A7
:1023B000F8018485E80FF11D2687F801C48784851C
:1023C000C82FD0E02196CF73D070F801858590E0BA
:1023D000C817D90729F7DF91CF911F910F91089561
:1023E000FC0180818E5F808380E867E376E042E4D1
:1023F00050E00E94FD160895FC0181819081913A80
:1024000059F4813209F04CC080E069E275E047E0A0
:1024100050E00E94FD1642C0913209F041C0803266
:1024200039F489E295E067E070E00E94E61736C073
:10243000823209F035C08281809330058091290570
:1024400090912A05A0912B05B0912C05805B9440BA
:10245000A040B04019F58091300580FD12C087E79B
:1024600097E790930108809300082BE088E190E0C3
:102470000FB6F894A895809360000FBE209360007B
:102480000DC088E10FB6F894809360001092600050
:102490000FBEA895109201081092000881E00895DF
:1024A00080E0089508951F920F920FB60F921124A5
:1024B0002F933F934F938F939F93EF93FF9380912D
:1024C000C80082FD19C04091CE0080911F08282FBE
:1024D00030E02F5F3F4F2F7330708091200890E0E5
:1024E0002817390759F0E0911F08F0E0EF5FF74F28
:1024F00042A320931F0802C08091CE00FF91EF916C
:102500009F918F914F913F912F910F900FBE0F9000
:102510001F90189580911F082091200890E0805C02
:102520009F4F821B91098F739070892B11F00E942D
:10253000521208951F920F920FB60F9211242F93EB
:102540008F939F93EF93FF9390912108809122089E
:10255000981731F48091C9008F7D8093C90010C015
:10256000E0912208F0E0ED59F74F20818091220898
:1025700090E001968F739070809322082093CE0094
:10258000FF91EF919F918F912F910F900FBE0F9020
:102590001F901895AF92BF92DF92EF92FF920F9328
:1025A0001F93CF93DF93EC017A018B01DD24403040
:1025B00081EE580780E0680780E0780711F0DD249D
:1025C000D39491E0A92EB12CE889F989DD2069F036
:1025D000C5010C8C02C0880F991F0A94E2F7808312
:1025E00060E079E08DE390E005C0108260E874E877
:1025F0008EE190E0A80197010E94231E21503040F7
:1026000040405040569547953795279580E12030BA
:10261000380720F0DD2011F0DD24D6CFEC85FD85D4
:102620003083EE85FF8520831D8EEA89FB894081FA
:1026300021E030E0C901088C02C0880F991F0A947C
:10264000E2F7482B4083EA89FB894081C901098C64
:1026500002C0880F991F0A94E2F7482B4083EA8949
:10266000FB894081C9010A8C02C0880F991F0A9416
:10267000E2F7482B4083EA89FB8980810B8C02C0FA
:10268000220F331F0A94E2F7209528232083DF913D
:10269000CF911F910F91FF90EF90DF90BF90AF907F
:1026A0000895FC01268D878D30E0205C3F4F281B6C
:1026B00031092F733070C9010895FC01968D878D03
:1026C000981719F42FEF3FEF06C0878DE80FF11D23
:1026D00082A1282F30E0C9010895DC015E969C910B
:1026E0005E975F968C915F97981719F42FEF3FEFE5
:1026F00010C05F968C915F97FD01E80FF11D92A1CC
:102700005F968C915F978F5F8F735F968C93292F65
:1027100030E0C9010895DC015D968C915D978823B6
:1027200039F05096ED91FC915197808186FFF9CF59
:102730005D961C920895DC0190968C919097282FBD
:1027400030E02F5F3F4F2F73307091968C919197AF
:1027500090E028173907C9F390968C919097FD0166
:10276000E80FF11DEE59FF4F608390962C939097E0
:102770005296ED91FC915397208181E090E05B9619
:102780000C905B9702C0880F991F0A94E2F7282BE0
:10279000208381E05D968C935D975096ED91FC913E
:1027A000519780818064808381E090E00895109249
:1027B00004081092030888EE93E0A0E0B0E0809354
:1027C000050890930608A0930708B093080889E6C7
:1027D00095E090930208809301081092220880915E
:1027E000220880932108109220088091200880936D
:1027F0001F088DEC90E090930E0880930D088CECF0
:1028000090E09093100880930F0888EC90E09093EC
:1028100012088093110889EC90E09093140880933B
:1028200013088AEC90E090931608809315088EECBC
:1028300090E0909318088093170884E0809319081B
:1028400083E080931A0887E080931B0885E08093DB
:102850001C0881E080931D080895CF93DF930E94A8
:10286000CD0F82EB98E00E9409180E94080FCAE879
:10287000D2E10E94070F2097E1F30E948A12F9CF5C
:10288000CF92DF92EF92FF920F931F93CF93DF933C
:102890007C016B018A01C0E0D0E00FC0D6016D91D0
:1028A0006D01D701ED91FC910190F081E02DC70100
:1028B0000995C80FD91F015010400115110571F776
:1028C000CE01DF91CF911F910F91FF90EF90DF909C
:1028D000CF900895CF93DF93EC016115710519F442
:1028E00020E030E00FC0DB010D900020E9F71197E8
:1028F000A61BB70BE881F9810280F381E02DAD01C1
:1029000009959C01C901DF91CF9108954F925F9283
:102910007F928F929F92AF92BF92CF92DF92EF926F
:10292000FF920F931F93DF93CF93CDB7DEB7A1979D
:102930000FB6F894DEBF0FBECDBF2C01742ECB01B5
:10294000223008F42AE019A231E2C32ED12CCC0E99
:10295000DD1E822E9924AA24BB24672D752FA50184
:1029600094010E94231E79018A01C801B701A501C3
:1029700094010E94041E472D461B0894C108D108EB
:102980004A3014F4405D01C0495CF6014083E11413
:10299000F1040105110521F07E2C5F2DC801DDCF6A
:1029A000C201B6010E946A14A1960FB6F894DEBF68
:1029B0000FBECDBFCF91DF911F910F91FF90EF9090
:1029C000DF90CF90BF90AF909F908F907F905F905F
:1029D0004F900895DC012115310541F4ED91FC91F2
:1029E0000190F081E02D642F099508950E948614CE
:1029F0000895CF92DF92EF92FF920F931F93CF93A0
:102A0000DF93EC016A017B012115310541F4E88176
:102A1000F9810190F081E02D642F09951FC02A30C3
:102A20003105D1F477FF17C0E881F9810190F08179
:102A3000E02D6DE209958C0144275527BA014C1908
:102A40005D096E097F09CE012AE00E948614980173
:102A5000280F391F04C02AE00E9486149C01C90176
:102A6000DF91CF911F910F91FF90EF90DF90CF906A
:102A700008950E946A1408957F928F929F92AF9258
:102A8000BF92CF92DF92EF92FF920F931F93CF935B
:102A9000DF934C017A018B01722ECB01BA01A801A0
:102AA00097010E94001E882321F0C4016AE171E0B1
:102AB00021C0C0E0D0E057016801E894D7F8C60112
:102AC000B5012FEF3FEF4FE75FE70E94001E88231D
:102AD00051F4C601B5012FEF3FEF4FE75FE70E94CA
:102AE0004A1C181614F0C1E0D0E0219739F0C40157
:102AF0006EE171E00E946A14EC0193C0C801B70155
:102B00002FEF3FEF4FE75FE40E94991D181654F036
:102B1000C801B7012FEF3FEF4FE75FEC0E944A1C5F
:102B2000882324F4C40162E271E0E4CFC801B70154
:102B300020E030E040E050E00E944A1C87FD03C0E6
:102B4000C0E0D0E00EC0D401ED91FC910190F08185
:102B5000E02DC4016DE20995EC0117FB109517F902
:102B6000109520E030E040E05FE3DD240BC0CA01B7
:102B7000B90120E030E040E251E40E944E1C9B018C
:102B8000AC01D394D71498F3C801B7010E94E61B97
:102B90005B016C010E94BB1C7B018C01C401B8016C
:102BA000A7012AE030E00E94EA14C80FD91F77205D
:102BB00039F0C40166E271E00E946A14C80FD91F9F
:102BC000C801B7010E94E71C9B01AC01C601B50119
:102BD0000E94E51B24C020E030E040E251E40E9466
:102BE0009D1D7B018C010E94B61C5B016C01CC24F5
:102BF000B7FCC094DC2CC401B601A5012AE030E08A
:102C00000E94F914C80FD91FC601B5010E94E91C22
:102C10009B01AC01C801B7010E94E51B7A947720A3
:102C2000D1F6CE01DF91CF911F910F91FF90EF90E0
:102C3000DF90CF90BF90AF909F908F907F9008953E
:102C40000E943C1508958230B9F0833028F488231F
:102C500051F08130F9F40AC08430B9F0843090F03A
:102C60008530C1F415C010926E00089580916F00F8
:102C70008D7F80936F000895809170008D7F809389
:102C800070000895109271000895109272000895D6
:102C90001092730008951F920F920FB60F92112495
:102CA0002F933F934F935F936F937F938F939F9354
:102CB000AF93BF93EF93FF938091A3089091A408E3
:102CC000A091A508B091A6080097A105B10551F102
:102CD000E091A708F091A80880819091A908892720
:102CE00080838091A3089091A408A091A508B09139
:102CF000A608181619061A061B060CF58091A308DB
:102D00009091A408A091A508B091A6080197A109E7
:102D1000B1098093A3089093A408A093A508B09349
:102D2000A6080DC083E00E942316E091A708F09149
:102D3000A80890818091A908809589238083FF91BC
:102D4000EF91BF91AF919F918F917F916F915F9123
:102D50004F913F912F910F900FBE0F901F9018959C
:102D6000282F8091AC088823C1F057FF1AC015C0E6
:102D700028989093AB088091F1008193E217F307B4
:102D8000B9F74115510539F08091F200882319F403
:102D90008BE68093E800AFBF02C04FEF5FEFCA0140
:102DA0000895AFB7F89427702093E9008091F2005E
:102DB000282F30E0241735070CF4A901FB019B01F3
:102DC000240F311D94E6DACFDF93CF930F92CDB766
:102DD000DEB7BE016F5F7F4F41E050E00E94B0164A
:102DE000019719F02FEF3FEF03C08981282F30E0C2
:102DF000C9010F90CF91DF910895FF920F931F9318
:102E0000F82E142F052F4091AF085091B008212FB4
:102E1000302FC901DC01FB016EEF29C0F7FE02C0B3
:102E2000949101C090812091AD083091AE08241793
:102E30003507ACF48091E8008570E1F38091E800FB
:102E400082FF03C02FEF3FEF17C09093F100C9013D
:102E500001968F739070892B11F46093E8002F5FB7
:102E60003F4F3093AE082093AD08119731961097DD
:102E7000A9F6812F902F9C01C9011F910F91FF90FE
:102E800008951F93782FE92F162F2091AD083091C8
:102E9000AE08A091AF08B091B0082A173B07C4F460
:102EA0008091E8008570E1F38091E80082FD16C012
:102EB000812F90E00196880F991F8093F100C9013E
:102EC00001968F739070892B19F48EEF8093E80030
:102ED0002F5F3F4F3093AE082093AD082091AD088F
:102EE0003091AE082A173B07A4F48091E800857062
:102EF000E1F38091E80082FD12C083E08093F1004D
:102F0000C90101968F739070892B19F48EEF80930D
:102F1000E8002F5F3F4F3093AE082093AD084091FB
:102F2000AD085091AE08872F9E2FFC0170E06EEF28
:102F300043C094914A175B07A4F48091E800857020
:102F4000E1F38091E80082FF02C020E00DC0909381
:102F5000F100CA0101968F739070892B11F4609370
:102F6000E8004F5F5F4F21E04A175B07A4F48091B0
:102F7000E8008570E1F38091E80082FF02C080E004
:102F80000DC01092F100CA0101968F739070892BC9
:102F900011F46093E8004F5F5F4F81E0319690E05D
:102FA00030E082239323892B31F45093AE08409371
:102FB000AD0880E009C07F5F711708F4BACF509365
:102FC000AE084093AD0881E01F9108959C01809167
:102FD000E80082FFFCCFF901260F311D03C080916C
:102FE000F1008193E217F307D1F7289884E68093E4
:102FF000AB088BEF8093E800CB0108958093E90044
:103000008091F200882319F08AE38093E800089504
:1030100008951092AC0881E08093D70080EA8093F5
:10302000D80082E189BD09B400FEFDCF61E070E007
:1030300080E090E00E94231080E98093D8008CE02B
:103040008093E2001092E000559A209A08955F92D2
:103050006F927F928F929F92AF92BF92CF92DF92A8
:10306000EF92FF920F931F93CF93DF93E82E842E5E
:10307000752E8091AC08882371F18B01242F352F98
:10308000C901EC01AAEFFA2EF7E09F2E9E20E0E4A2
:103090005E2E8E2D90E070E2A72EB12CA822B922D0
:1030A0006AE3662E50E4C52ED12CC822D92258C01E
:1030B0009FB7F8949092E9008091E80085FD02C0E6
:1030C00020E004C08091F200252D281B9FBF222301
:1030D00061F4FA9419F42FEF3FEF4DC061E070E016
:1030E00080E090E00E9423103BC0822F90E0C81740
:1030F000D9070CF42C2FC21BD1094FB7F89490922A
:10310000E900A114B10421F406C01092F10021508D
:103110002223D9F719C0E7FC03C0F801922F10C091
:10312000C801322F06C0FC010196E491E093F10042
:1031300031503323C1F706C081918093F100915043
:103140009923D1F7020F111D8091E80085FF05C07A
:10315000209729F4C114D10411F06092E8004FBF08
:10316000209709F0A5CF5D9884E68093AA08282DC2
:10317000372DC9019C01C901DF91CF911F910F919A
:10318000FF90EF90DF90CF90BF90AF909F908F9087
:103190007F906F905F9008951F920F920FB60F92DD
:1031A00011242F933F934F935F936F937F938F934C
:1031B0009F93AF93BF93EF93FF938091E1001092A1
:1031C000E100982F83FF0FC01092E90081E0809307
:1031D000EB001092EC0082E38093ED001092AC08BB
:1031E00088E08093F00092FF34C083E08093E90090
:1031F0008091F200882319F08AE38093E8008FB76A
:10320000F89492E09093E9009091F2008FBF992397
:1032100021F083EB97E00E94C9118091AA088823CE
:1032200051F08091AA0881508093AA088091AA0841
:10323000882309F45D9A8091AB08882351F080912E
:10324000AB0881508093AB088091AB08882309F4C8
:10325000289AFF91EF91BF91AF919F918F917F91AC
:103260006F915F914F913F912F910F900FBE0F90F3
:103270001F9018950F931F93DF93CF930F92CDB7A5
:10328000DEB719828E010F5F1F4FC8010E94F01137
:10329000C8010E94D91B898190E00F90CF91DF91E6
:1032A0001F910F9108951F920F920FB60F92112444
:1032B000EF92FF921F932F933F934F935F936F93E0
:1032C0007F938F939F93AF93BF93EF93FF93DF937E
:1032D000CF93CDB7DEB76197DEBFCDBF1092E900C7
:1032E0008091E80083FF14C1FE0131969E01275FA3
:1032F0003F4F03C08091F1008193E217F307D1F7AC
:10330000289884E68093AB0882EF8093E800998147
:1033100097FF05C08091E80080FFFCCF03C08EEFCF
:103320008093E800292F30E0C90180769070892BC6
:1033300009F0C7C08A81882329F41092F100109205
:10334000F100DBC0813009F4D8C0833009F4D5C066
:10335000853049F48091E80080FFFCCF8B81806844
:103360008093E300CAC0863009F081C01C81EF80E1
:10337000F8841230C1F51092E9001092AE08109254
:10338000AD081092B0081092AF080E943A1999E067
:10339000FE013996DF01292F1D922A95E9F79987B9
:1033A0001A8791E09E8790E8988B9AEF998B2091ED
:1033B000AD083091AE08275F3F4F3C872B878D8744
:1033C0001092E9001092AE081092AD08F092B00889
:1033D000E092AF0880E0BF0149E050E00E94FD1696
:1033E0000E943A198AC01092E9001092AE08109219
:1033F000AD08F092B008E092AF08123241F482E2D8
:1034000090E00E94D11B892B09F47BC076C011305B
:1034100079F488E0E816F10419F481E08093B108AA
:103420008091B108882309F070C0EAE9F6E018C07D
:10343000133009F066C08B81882319F4E9E7F6E0C0
:103440000FC0823021F48DE796E060E106C0813044
:1034500009F057C08EE896E06BE00E9441174BC020
:10346000449180E8BF0150E00E94FD1646C08730BD
:1034700009F447C0883021F481E08093F1003DC019
:103480008930D9F523703070232BD9F5EFEBF6E0B6
:1034900091E031E026E39093E9003093EB008491D2
:1034A0008093EC002093ED009F5F3196953099F763
:1034B0008EE78093EA001092EA008B818093AC083B
:1034C0001CC08F8198851092E9001092AE0810926E
:1034D000AD089093B0088093AF088D81882329F4BC
:1034E000CE0101960E94FC1106C0823051F4CE013B
:1034F00001960E94A21A882321F08EEF8093E800A3
:1035000007C081E28093EB0003C0ECEAF6E0A8CFAD
:103510006196DEBFCDBFCF91DF91FF91EF91BF915B
:10352000AF919F918F917F916F915F914F913F915B
:103530002F911F91FF90EF900F900FBE0F901F9053
:1035400018950895FC0191818081813A31F4913080
:1035500089F080E0933089F40DC0813269F49B30AA
:1035600021F482818093310505C09A3029F482814B
:103570008093320581E0089580E00895EF92FF92F4
:103580000F931F938C01E62EDC01ED91FC910480DA
:10359000F581E02D0995F82ED801ED91FC9106807A
:1035A000F781E02DC8016E2D09958F2D90E01F91B8
:1035B0000F91FF90EF9008951092B3081092B70802
:1035C0001092B60889E795E09093B5088093B40807
:1035D0000895EF92FF920F931F93DF93CF930F9273
:1035E000CDB7DEB789838B017A0184E0BE016F5FBE
:1035F0007F4F41E050E00E94271884E4B801A70102
:103600000E9427180F90CF91DF911F910F91FF908B
:10361000EF90089582E048E050E00E94E91A089592
:10362000FC01168217821086118612861386148278
:103630003496BF010E940A1B0895DC01683810F01F
:10364000685829C0E62FF0E067FF13C0E058F0404B
:1036500081E090E002C0880F991FEA95E2F780951B
:1036600014962C911497282314962C93149760E0A9
:1036700012C0EF5BF84F6491662319F420E030E04C
:103680001DC067FF08C014968C9114978D7F149607
:103690008C9314976F77FD0190E0662321F086816B
:1036A000861709F416829F5F31969630B1F7CD01E7
:1036B0001496BD010E940A1B21E030E0C901089563
:1036C000CF93DF93DC01683810F0685825C0E62FEF
:1036D000F0E067FF12C0E058F04081E090E002C0E7
:1036E000880F991FEA95E2F714962C911497282BCE
:1036F00014962C93149760E00FC0EF5BF84F649121
:103700006623D9F167FF08C014968C9114978260E4
:1037100014968C9314976F7716968C91169786173C
:10372000A9F117968C911797861781F118968C91AD
:103730001897861759F119968C911997861731F1B8
:103740001A968C911A97861709F11B968C911B97E4
:103750008617E1F0ED01E0E0F0E09E2F8E818823F6
:1037600021F4EA0FFB1F668306C09F5F3196219606
:10377000E630F10591F7963049F481E090E0139638
:103780009C938E93129720E030E007C0CD011496F1
:10379000BD010E940A1B21E030E0C901DF91CF91F9
:1037A000089580E863EC76E045E650E00E94FD165F
:1037B0000895FC0180818F5F808380E868E277E074
:1037C00049E150E00E94FD1608955058BB27AA27F2
:1037D0000ED075C166D130F06BD120F031F49F3F2F
:1037E00011F41EF45BC10EF4E095E7FB51C1E92F23
:1037F00077D180F3BA17620773078407950718F02B
:1038000071F49EF58FC10EF4E0950B2EBA2FA02D0A
:103810000B01B90190010C01CA01A0011124FF277D
:10382000591B99F0593F50F4503E68F11A16F04078
:10383000A22F232F342F4427585FF3CF4695379577
:103840002795A795F0405395C9F77EF41F16BA0B3C
:10385000620B730B840BBAF09150A1F0FF0FBB1FEA
:10386000661F771F881FC2F70EC0BA0F621F731F33
:10387000841F48F4879577956795B795F7959E3F90
:1038800008F0B3CF9395880F08F09927EE0F97951E
:1038900087950895D9D008F481E008950CD00FC120
:1038A00007D140F0FED030F021F45F3F19F0F0C0B6
:1038B000511139C1F3C014D198F39923C9F3552399
:1038C000B1F3951B550BBB27AA2762177307840713
:1038D00038F09F5F5F4F220F331F441FAA1FA9F3C9
:1038E00033D00E2E3AF0E0E830D091505040E695BB
:1038F000001CCAF729D0FE2F27D0660F771F881F1C
:10390000BB1F261737074807AB07B0E809F0BB0B0A
:10391000802DBF01FF2793585F4F2AF09E3F51052E
:1039200068F0B6C000C15F3FECF3983EDCF38695CB
:1039300077956795B795F7959F5FC9F7880F911DA4
:103940009695879597F90895E1E0660F771F881F90
:10395000BB1F621773078407BA0720F0621B730B43
:10396000840BBA0BEE1F88F7E095089504D0689495
:10397000B111D9C00895BCD088F09F5790F0B92FED
:103980009927B751A0F0D1F0660F771F881F991FB4
:103990001AF0BA95C9F712C0B13081F0C3D0B1E0C6
:1039A0000895C0C0672F782F8827B85F39F0B93FD6
:1039B000CCF3869577956795B395D9F73EF49095B6
:1039C0008095709561957F4F8F4F9F4F0895E89434
:1039D00009C097FB3EF490958095709561957F4F57
:1039E0008F4F9F4F9923A9F0F92F96E9BB27939505
:1039F000F695879577956795B795F111F8CFFAF415
:103A0000BB0F11F460FF1BC06F5F7F4F8F4F9F4F45
:103A100016C0882311F096E911C0772321F09EE8A3
:103A2000872F762F05C0662371F096E8862F70E009
:103A300060E02AF09A95660F771F881FDAF7880FE3
:103A40009695879597F90895990F0008550FAA0B39
:103A5000E0E8FEEF16161706E807F907C0F01216A1
:103A60001306E407F50798F0621B730B840B950BA4
:103A700039F40A2661F0232B242B252B21F40895F9
:103A80000A2609F4A140A6958FEF811D811D089596
:103A900097F99F6780E870E060E008959FEF80EC01
:103AA000089500240A9416161706180609060895A4
:103AB00000240A9412161306140605060895092E0A
:103AC0000394000C11F4882352F0BB0F40F4BF2B79
:103AD00011F460FF04C06F5F7F4F8F4F9F4F0895B9
:103AE00057FD9058440F551F59F05F3F71F04795AF
:103AF000880F97FB991F61F09F3F79F08795089594
:103B0000121613061406551FF2CF4695F1DF08C0B2
:103B1000161617061806991FF1CF869571056105CF
:103B200008940895E894BB2766277727CB0197F977
:103B300008958ADF08F48FEF08950BD0C0CFB1DF6E
:103B400028F0B6DF18F0952309F0A2CFA7CF1124F3
:103B5000EACFC6DFA0F3959FD1F3950F50E0551F34
:103B6000629FF001729FBB27F00DB11D639FAA27D2
:103B7000F00DB11DAA1F649F6627B00DA11D661F21
:103B8000829F2227B00DA11D621F739FB00DA11D42
:103B9000621F839FA00D611D221F749F3327A00DFC
:103BA000611D231F849F600D211D822F762F6A2F98
:103BB00011249F5750408AF0E1F088234AF0EE0F1D
:103BC000FF1FBB1F661F771F881F91505040A9F72A
:103BD0009E3F510570F05CCFA6CF5F3FECF3983E5F
:103BE000DCF3869577956795B795F795E7959F5F91
:103BF000C1F7FE2B880F911D9695879597F908952B
:103C000023DF880B990B0895629FD001739FF00109
:103C1000829FE00DF11D649FE00DF11D929FF00D5C
:103C2000839FF00D749FF00D659FF00D9927729F93
:103C3000B00DE11DF91F639FB00DE11DF91FBD011E
:103C4000CF0111240895A1E21A2EAA1BBB1BFD016E
:103C50000DC0AA1FBB1FEE1FFF1FA217B307E4076B
:103C6000F50720F0A21BB30BE40BF50B661F771FC3
:103C7000881F991F1A9469F76095709580959095A3
:103C80009B01AC01BD01CF010895EE0FFF1F059010
:0A3C9000F491E02D0994F894FFCFA1
:103C9A004D616720583A20000A4D616720593A2041
:103CAA00000A4D6167205A3A20006E616E00696E03
:103CBA0066006F7666002E0000000000000000001B
:103CCA0000000000000000000000000000000000EA
:103CDA0000000000000000000000000000000000DA
:103CEA0000000000000000000000000000000000CA
:103CFA0000000000000000000000000000000000BA
:103D0A0000000000000000000000000000000000A9
:103D1A000000000000000000000000000000000099
:103D2A000000000000000000000000000000000089
:103D3A000000000000000000000000000000000079
:103D4A00010101030307070F0F0F0F0F0F070301ED
:103D5A000000000000000000000000000000000059
:103D6A000000000000000000000000000000000049
:103D7A000000000000000000000000000000000039
:103D8A000000000000000000000000000000000029
:103D9A000000000000000000000000000000000019
:103DAA0000000000000000000000010F07000000F2
:103DBA00000000000000000003070F3F7F7FFFFFA5
:103DCA00FFFFFFFFFFFFFFFFFFFFFEFEFCFCFCFC07
:103DDA007800000000000000000000000000000061
:103DEA0000000000000000000000000000000000C9
:103DFA0000000000000000000000000000000000B9
:103E0A0000000000000000000000000000000000A8
:103E1A00003FFFFFFFFFFFFFFF3800000000000127
:103E2A0083E1F37B7F3F3F1F1F3FFFFFFF1F3F7F62
:103E3A007FFFE7C78702020280E0F0F8F8F8FCFE8D
:103E4A00FEFFFFFFFFFFFFFFFF1F0F07070303012F
:103E5A00000000000000060F1F1F1F1F3F3F3F3FCB
:103E6A003F3F3F3F1F1F0F0F070300003F3F3F3FEA
:103E7A003F3F3F3F3F3F3F3F3F1F1F0F07000000AD
:103E8A00003F3F3F3F3F1F0F1F1F1F1F1E1F1F1FC8
:103E9A000EFFFFFFFFFFFFFFFF030307070F1F1FB1
:103EAA001F0E048080808087CFCFDFDFDFDFE0E076
:103EBA00E0E0E0F070703000000000000000000058
:103ECA00000000008080C0C1E1E1F1F3FFFFFFFFC5
:103EDA00FFFFFF7F3F0F00FFFFFFFFFFFF1F0307EB
:103EEA00070F0F0FBFFFFFFFFEF8F0070F1F1F1F7F
:103EFA003F3F3C3C383838FFFFFFFFFFFFFF000021
:103F0A0000FFFFFFFFFFFFFF80000000000000002E
:103F1A0000C0FFFFFFFFFFFFFFFFFFDF8F8F0F07CD
:103F2A000301000000003FFFFFFFFFFFF8C0000091
:103F3A0000000000000000000000000F7FFFFFFFEC
:103F4A00FFFFFFFFFFFFFFFFFFFFFEFEFEFCFCF887
:103F5A00F8F0F0E0C08000C0FFFFFFFFFFFFFFF7AF
:103F6A00F0F0E0C0C080800000000080E0E0E0F0F7
:103F7A00F0F0F0F0F0F0F0F0F0F0F0F0F0F0000017
:103F8A0000F0F0F0F0F0F0F0000000000000000097
:103F9A000000F0F0F0F0F0F0C0008080C0E0E0E057
:103FAA00E0E0000000F0F0F0F0F0F0800000000027
:103FBA000000000000000000000000808080808077
:103FCA008080808080000000000000000000000067
:103FDA00000000000000000000E0FCFCFCFCFCF813
:103FEA00F83000000000000000000000000000009F
:103FFA0000000000000000000000000000000000B7
:10400A0000000000000000000000000000000000A6
:10401A000000000000000000000000000000000096
:10402A000000000000000000000000000000000086
:10403A000000000000000000000000000000000076
:10404A000000000000000000000000000000000066
:10405A000000000000000000000000000000000056
:10406A000000000000000000000000000000000046
:10407A000000000000000000000000000000000036
:10408A000000000000000000000000000000000026
:10409A000000000000000000000000000000000016
:1040AA000000000000000000000000000000000006
:1040BA0000000000000000006400E10000000000B1
:1040CA000001010302010007060504000000003098
:1040DA0009250900000000350C040CBD0BC60BDBDA
:1040EA000BEC0B000000009D1140144C1168115894
:1040FA0011C511C911000000009B13401451136D22
:10410A00135D138B1300000000BE1A4014601B1DC0
:04411A001B101B005B
:00000001FF
