:100000000C94E7030C940F040C940F040C940F044D
:100010000C940F040C940F040C940F040C941A0904
:100020000C940F040C940F040C94C61C0C944D1DDE
:100030000C940F040C940F040C940F040C940F04F4
:100040000C940F040C940F040C940F040C940F04E4
:100050000C940F040C940F040C940F040C94B11323
:100060000C940F040C94DD160C9424170C940F04BC
:100070000C940F040C940F040C940F040C940F04B4
:100080000C94451A0C9444040C940F040C940F0423
:100090000C9498110C940F040C9457040C940F04B6
:1000A0000C940F040C940F040C940F040000000037
:1000B000007CDAF2DA7C7CD6F2D67C387C3E7C3866
:1000C000183C7E3C1838EABEEA38387AFE7A3800A6
:1000D000183C1800FFE7C3E7FF0018241800FFE7EB
:1000E000DBE7FF0C125C607064949E946402FEA0D7
:1000F000A0E002FEA0A4FC5A3CE73C5AFE7C383843
:10010000101038387CFE2844FE4428FAFA00FAFA27
:100110006090FE80FE006691A95606060606062936
:1001200045FF452910207E201008047E0408101089
:1001300054381010385410107808080808307830F7
:1001400078300C1C7C1C0C60707C7060000000001F
:10015000000000FA000000E000E00028FE28FE2871
:100160002454FE5448C4C81026466C926A040A00FF
:1001700010E0C00000384482000082443800543847
:10018000FE385410107C101000010E0C00101010DE
:100190001010000006060004081020407C8A92A27D
:1001A0007C0042FE02004E92929262848292B2CC15
:1001B000182848FE08E4A2A2A29C3C5292928C828B
:1001C000848890E06C9292926C6292929478000093
:1001D00028000000022C0000001028448228282853
:1001E0002828008244281040809A90607C82BA9A25
:1001F000723E4888483EFE9292926C7C8282824493
:10020000FE8282827CFE92929282FE909090807C0E
:1002100082828ACEFE101010FE0082FE820004024E
:1002200082FC80FE10284482FE02020202FE403858
:1002300040FEFE201008FE7C8282827CFE90909020
:10024000607C828A847AFE90989462649292924C46
:10025000C080FE80C0FC020202FCF8040204F8FC2C
:10026000021C02FCC6281028C6C0201E20C0869A88
:1002700092B2C200FE828282402010080400828274
:1002800082FE2040804020020202020200C0E010F4
:1002900000042A2A1E02FE1422221C1C22222214DE
:1002A0001C222214FE1C2A2A2A1800107E904018B4
:1002B0002525391EFE1020201E0022BE0200040249
:1002C00002BC00FE081422000082FE02003E201E36
:1002D000201E3E1020201E1C2222221C3F182424F7
:1002E00018182424183F3E10202010122A2A2A24ED
:1002F0002020FC22243C0202043E38040204383C44
:10030000020C023C2214081422320909093E22265A
:100310002A322200106C82000000EE000000826C85
:10032000100040804020403C64C4643C7885858651
:10033000485C0202045E1C2A2AAA9A84AAAA9E8207
:10034000842A2A1E8284AA2A1E02042AAA9E023015
:10035000784A4E489CAAAAAA9A9C2A2A2A9A9CAA17
:100360002A2A1A0000A23E820040A2BE420080A2B9
:100370003E020F9424940F0F14A4140F3E2AAAA235
:1003800000042A2A3E2A3E5090FE924C9292924CB1
:100390004C1212124C4C5212120C5C8282845E5C23
:1003A0004202041E00B90505BE9C2222229CBC020A
:1003B0000202BC3C24FF2424127E92C266D4F43F85
:1003C000F4D4FF90946F0403117E90C0042A2A9EF7
:1003D00082000022BE820C1212524C1C0202445EA9
:1003E000005E50504EBEB0988CBE649494F4146479
:1003F000949494640C12B202041C1010101010108B
:1004000010101CF40813355DF408142C5F0000DE96
:100410000000102854284444285428105500AA00ED
:100420005555AA55AA55AA55AA55AA000000FF007D
:10043000080808FF00282828FF000808FF00FF0818
:10044000080F080F2828283F002828EF00FF000089
:10045000FF00FF28282F203F2828E808F80808F880
:1004600008F8282828F8000808080F00000000F8FD
:1004700008080808F8080808080F08000000FF0826
:100480000808080808080808FF08000000FF2800FE
:1004900000FF00FF0000F808E800003F202F282898
:1004A000E808E828282F202F0000FF00EF28282840
:1004B00028282828EF00EF282828E8280808F80826
:1004C000F82828282F2808080F080F0000F808F837
:1004D000000000F8280000003F2800000F080F0867
:1004E00008FF08FF282828FF28080808F80000004F
:1004F000000F08FFFFFFFFFF0F0F0F0F0FFFFFFFA2
:100500000000000000FFFFF0F0F0F0F01C22221CC1
:10051000223E54547C287E40406060407E407E40B5
:10052000C6AA9282C61C22223C20027E0478046065
:10053000407E404099A5E7A5993854925438324EF0
:10054000804E320C52B2B20C0C121E120C3D465AA6
:1005500062BC7C929292007E8080807E545454547F
:10056000542222FA2222028A5222020222528A02B1
:100570000000FF80C00701FF00001010D6D6106CED
:10058000486C246C60F090F06000001818000000C7
:100590000808000C02FF808000F88080780098B87E
:1005A000E848003C3C3C3C00000000240027002AB6
:1005B000002D00300000000000250028002B002E38
:1005C000003100000000002300260029002C002F2D
:1005D00000040404040403040502020202040302EA
:1005E00002020206060606060604040202020404CB
:1005F0000802011040804010204080408008020422
:1006000001804020100201108010204040000000B6
:100610000200080E0000030401000B0000000000AF
:1006200000000000000000000000000706050401B3
:1006300000080A0B0C0D09080B0002020201000958
:10064000040000010202000005240010010524013D
:100650000101042402060524060001070581031098
:10066000004009040100020A0000000705020240E0
:10067000000007058302400000040309044172647E
:1006800075696E6F204C656F6E6172646F004172A8
:100690006475696E6F204C4C43001201000200002B
:1006A00000404123368000010102000112010002D6
:1006B000020000404123368000010102000100C118
:1006C0008081C105010902A1010901A1008501057F
:1006D000091901290315002501950375018102956A
:1006E0000175058103050109300931093815812596
:1006F0007F750895038106C0C005010906A1018523
:1007000002050719E029E715002501750195088103
:100710000295017508810395067508150025650584
:1007200007190029658100C00904020001030000C7
:100730000009210101000122650007058403400032
:100740000100000000000000002A2B28000000002B
:100750000000000000000000000000000000000099
:10076000002C9EB4A0A1A2A434A6A7A5AE362D3716
:1007700038271E1F20212223242526B333B62EB767
:10078000B89F8485868788898A8B8C8D8E8F90917F
:1007900092939495969798999A9B9C9D2F3130A30C
:1007A000AD350405060708090A0B0C0D0E0F1011D4
:1007B00012131415161718191A1B1C1DAFB1B0B55A
:1007C0000000C90F0F1010166118021CD61E11244C
:1007D0001FBECFEFDAE0DEBFCDBF15E0A0E0B1E095
:1007E000E4EDF4E402C005900D92A239B107D9F707
:1007F00018E0A2E9B5E001C01D92A43DB107E1F700
:1008000017E0CEECD7E004C02297FE010E946422DC
:10081000C23CD107C9F70E94B7180C9468220C9407
:100820000000FB01DC0102C001900D9241505040DC
:10083000D8F708956817790768F4FB01DC01E40F25
:10084000F51FA40FB51F02C002900E9241505040F8
:10085000D8F708950C94110421E030E00CC000009A
:10086000000000000000000000009F5F9A35B9F70B
:100870002150304011F090E0F2CF3C9A8093BB00C1
:1008800084E88093BC0008951F920F920FB60F92D8
:1008900011248F938BB180588BB9109295001092D0
:1008A00094008F910F900FBE0F901F9018951F927C
:1008B0000F920FB60F921124EF92FF920F931F9396
:1008C0002F933F934F935F936F937F938F939F9358
:1008D000AF93BF93CF93DF93EF93FF931092BF003B
:1008E0001092BE00109294061092950620919706E1
:1008F000309198068091990690E02817390728F4DE
:10090000809195068160809395062091970630919D
:10091000980680919A0690E02817390728F480916C
:1009200095068260809395062091970630919806EF
:1009300080919B0690E02817390728F4809195064E
:100940008460809395068091970690919806019611
:1009500090939806809397068091970690919806B9
:100960008436910521F41092980610929706809192
:100970009C06882371F480919506877F8093950665
:1009800040E050E0F8E0FF2E0FEF1FEFE7E0EE2E23
:1009900004C0809195068860F1CFFA01EE0FFF1F29
:1009A000EE0FFF1F9F012356394FE901888199817E
:1009B000AA81BB81EA01CC0FDD1F0297A105B10519
:1009C00008F443C0BE016755794FFB0180819181D6
:1009D000892BA1F5DA01A155B94F8C91FA01EE549A
:1009E000F94F9081890F8C93F90180819181A281C7
:1009F000B3810197A109B10980839183A283B38355
:100A0000FA01EB54F94F2081CA01A3E0880F991F26
:100A1000AA95E1F7C80FD91FC20FD11DC854D94FED
:100A2000888190E0DB0111969C938E9380818F5F8B
:100A3000808380818A30E8F010821BC0EB018881BE
:100A4000998101979983888314C0D9011D921D92C1
:100A50001D921C921397EA52F94F10821182128252
:100A60001382FA01E155F94FF082C755D94F198326
:100A70000883FA01E155F94F8081883014F0108223
:100A800003C0808187FDE082FA01EE0FFF1FEE0FA9
:100A9000FF1FEA52F94F80819181A281B3810097B3
:100AA000A105B10521F4FA01E155F94FF0824F5F3C
:100AB0005F4F4330510509F070CF90919406E0915B
:100AC000B006FF27E7FDF095EE51F94F8081982B96
:100AD0009093940690919406E091B106FF27E7FD6C
:100AE000F095E551F94F8081982B90939406909161
:100AF0009506E091AF06FF27E7FDF095E551F94F28
:100B00008081982B909395065D98809195068EBD77
:100B10000DB407FEFDCF8EB5809194068EBD0DB449
:100B200007FEFDCF8EB55D9AFF91EF91DF91CF91DA
:100B3000BF91AF919F918F917F916F915F914F91F5
:100B40003F912F911F910F91FF90EF900F900FBE4B
:100B50000F901F901895CF93DF93962F50E0BA0116
:100B60007695762F66277795679585E02802900120
:100B70001124892F6B5C7E4FE9012596F901E4551C
:100B8000FF4FE491DB01A80FB11DEC938F5F2F5F46
:100B90003F4F2C173D0791F7292F2B5F342F330F31
:100BA000330F330F692F665F4F5F5F4F440F440F62
:100BB000440F80919006281710F42093900680919E
:100BC0009106861710F4609391068091920638176B
:100BD00010F43093920680919306841710F440939A
:100BE0009306DF91CF9108950F931F93062F142F33
:100BF0003C9A84EA8093BC0020E030E08091BC0005
:100C000087FD38C02A353105A9F12F5F3F4FF6CF58
:100C10008091BC0087FD35C02A35310591F12F5FE9
:100C20003F4FF6CF8091BC0087FD31C02A3531059A
:100C300071F12F5F3F4FF6CF8091BC0087FD33C02D
:100C40002A35310581F12F5F3F4FF6CF8091BC00EF
:100C500087FD32C02A35310579F12F5F3F4FF6CF3E
:100C60008091BC0087FD2DC02A35310551F12F5FE1
:100C70003F4FF6CF812F880F0E942C0420E030E0F8
:100C8000C7CF802F0E942C0420E030E0CBCF3C9ACD
:100C900084EA8093BC00110F812F81600E942C0494
:100CA00020E030E0C9CF8091BC008F70806C8093D1
:100CB000BC0020E030E0CACF9091BB0020E030E0E3
:100CC000CFCF84E98093BC008091BC008B7F809360
:100CD000BC008091BC0084608093BC00892F1F9170
:100CE0000F9108950F931F93162F042F3C9A84EAB7
:100CF0008093BC0040E050E08091BC0087FD24C0A0
:100D00004A35510509F14F5F5F4FF6CF8091BC0026
:100D100087FD21C02A353105F1F02F5F3F4FF6CF17
:100D20008091BC0087FD1DC02A353105D1F02F5FB1
:100D30003F4FF6CF8091BC0087FD19C02A353105A1
:100D4000B1F02F5F3F4FF6CF822F880F0E942C0407
:100D500020E030E0DBCF812F0E942C0420E030E047
:100D6000DFCF802F0E942C0420E030E0E3CF84E925
:100D70008093BC001F910F910895CF93DF93EC01F6
:100D80006DE04DE10E94F4058A3219F02FEF3FEF3C
:100D900037C0CE016AE24DE10E94F405482F4E7F34
:100DA000CE016AE22DE10E947206CE016EE040E0C3
:100DB0002DE10E947206CE016AE24DE10E94F40527
:100DC000482F477CCE016AE22DE10E947206CE01D7
:100DD0006AE24DE10E94F405482FCE016AE22DE15E
:100DE0000E947206CE016AE24DE10E94F405482F8E
:100DF0004160CE016AE22DE10E94720621E030E0FE
:100E0000C901DF91CF9108951F93162FF8945D9A31
:100E100081E160E00E94A2151EBD0DB407FEFDCF6A
:100E200081E161E00E94A21578941F910895FF92DC
:100E30000F931F938C01F62E84E061E00E94A215AF
:100E4000C8016F2D0E9404071F910F91FF90089514
:100E5000FF920F931F938C01F62E84E060E00E94B6
:100E6000A215C8016F2D0E9404071F910F91FF90DA
:100E700008958F929F92AF92BF92CF92DF92EF929E
:100E8000FF920F931F93CF93DF93EC0171E4872EB2
:100E900075E0972E20E030E0AA24BB2468E0C62E3F
:100EA000D12CC20ED31E8091920690E08C159D0528
:100EB000D4F58091930690E0821793070CF440C01C
:100EC000F4016081606BCE010E94280710919006AA
:100ED00000919106612F6F5F6F70CE010E9428070D
:100EE000612F70E06F5F7F4F54E0759567955A955D
:100EF000E1F76F706061CE010E942807CE0160EEBD
:100F00000E94280745E3E42E41E0F42EEA0CFB1C86
:100F100008C0F701E10FF11DCE0160810E941707A3
:100F20001F5F0117B0F70894811C911C80E890E0C6
:100F3000A80EB91E90E4C916D10411F09601AECFE7
:100F40008FE780939006109291068FE3809392062C
:100F500010929306DF91CF911F910F91FF90EF9028
:100F6000DF90CF90BF90AF909F908F900895EF92B9
:100F7000FF921F937C01162F61E80E9428071F73C0
:100F8000C701612F0E9428071F91FF90EF900895DD
:100F9000CF93DF93EC0184E061E00E9415158CE0B3
:100FA00061E00E94151581E161E00E94151581E163
:100FB00060E00E94A21588EE93E020E931E0F9019B
:100FC0003197F1F70197D9F78CE060E00E94A21504
:100FD00088EE93E020E931E0F9013197F1F70197CC
:100FE000D9F78CE061E00E94A215CE0163EA0E946D
:100FF0002807CE0161EA0E942807CE0160EC0E941A
:101000002807CE0160E60E942807CE016CE20E940C
:10101000280784EF91E020E931E0F9013197F1F7F9
:101020000197D9F7CE016EE20E94280784EF91E084
:1010300020E931E0F9013197F1F70197D9F7CE01B5
:101040006FE20E94280780E49CE90197F1F7CE0146
:1010500066E20E94280780919006882311F0109282
:101060009006809191068F3718F48FE78093910650
:1010700080919206882311F0109292068091930637
:101080008F3318F48FE380939306DF91CF91089507
:101090008FE061E00E94151580E161E00E94151566
:1010A00081E161E00E9415158FE060E00E94A215C9
:1010B00080E160E00E94A21581E161E00E94A2153A
:1010C0008CB580618CBD8CB580648CBD8CB58C7FFB
:1010D0008CBD8DB581608DBD08950F931F938C01DC
:1010E0000E944808C8010E94C807C8016FEA0E9410
:1010F0002807C80164EA0E942807C80160E00E942E
:10110000B7071F910F91089585E391E065EB71E0BA
:1011100040E853E00E941A0480E8E5EBF4E0DF01C8
:101120001D928A95E9F780919006882311F010921C
:101130009006809191068F3718F48FE7809391067F
:1011400080919206882311F0109292068091930666
:101150008F3318F48FE3809393060895CF92DF9234
:10116000EF92FF920F931F93CF93DF938C016B014C
:101170007A01C0E0D0E034C0F601EC0FFD1F208101
:101180002A3041F480918F068F5F80938F061092F2
:101190008E0619C02D30B9F0C80160918E064091BD
:1011A0008F060E94AB0580918E068A5F80938E0623
:1011B00090E08A3791053CF010928E0680918F0660
:1011C0008F5F80938F0680918F06883040F0C80132
:1011D0000E94840880918F06815080938F0621960B
:1011E000CE15DF0548F2DF91CF911F910F91FF904F
:1011F000EF90DF90CF9008950F931F93142F052F3A
:101200000E94AE08812F902F1F910F910895DF93B8
:10121000CF930F92CDB7DEB76983BE016F5F7F4F6B
:1012200041E050E00E94AE0881E090E00F90CF9145
:10123000DF9108951F920F920FB60F921124EF9233
:10124000FF920F931F932F933F934F935F936F934F
:101250007F938F939F93AF93BF93EF93FF9380916F
:101260006306813009F469C00E94F9139B01AC0147
:101270008CB1682F70E060747070809196059091C9
:101280009705A0919805B091990579018A01E81A0E
:10129000F90A0A0B1B0BE0929205F092930500935A
:1012A0009405109395058091920590919305A091D6
:1012B0009405B091950580529E44A040B040D4F171
:1012C000672B19F4109262062CC0E0916206F0E0E0
:1012D0008091920590919305A0919405B091950508
:1012E000EE0FFF1FEE0FFF1FE656FA4F918380832C
:1012F00018C0E0916206F0E080919205909193050C
:10130000A0919405B0919505EE0FFF1FEE0FFF1F02
:10131000E656FA4F93838283809162068F5F8093B3
:101320006206209396053093970540939805509355
:10133000990503C0672BE9F2C8CFFF91EF91BF91E8
:10134000AF919F918F917F916F915F914F913F915D
:101350002F911F910F91FF90EF900F900FBE0F9064
:101360001F9018950F931F93142F022F85E10E9451
:10137000A21586E1612F0E94A21587E1602F0E94CD
:10138000A21561E070E080E090E00E9475141F916A
:101390000F9108955F926F927F928F929F92AF927A
:1013A000BF92CF92DF92EF92FF920F931F93CF9352
:1013B000DF935B01542ED52EE9019E2C8F2C702ECD
:1013C000612E87EC97E060E071E00E941A1A87ECCA
:1013D00097E0B5014AE050E00E94E81987EC97E0F9
:1013E00067E071E00E941A1A87EC97E0652D7D2D69
:1013F0004AE050E00E94E81987EC97E066E171E06E
:101400000E941A1A87EC97E04E2D5F2D602F712FE6
:101410002AE030E00E94D419F501EC50F94FC08366
:101420002097C1F48FB7F894F501EE0FFF1FEE0F70
:10143000FF1FDF01A356B94F1D921D921D921C92F2
:101440001397EA52F94F10821182128213828FBFD2
:101450007894B7C084EF91E0BE010E9419226B011D
:10146000BE01882777FD8095982F0E94E3209B017D
:10147000AC0160E070E08AEF93E40E9448207B01B9
:101480008C01B601882777FD8095982F0E94E32074
:101490009B01AC01C801B7010E94DF1F20E030E0D2
:1014A00040E251E40E9497210E94B0208B0160E04D
:1014B0004AE050E0401B510B7C2D7F5F9501220FCD
:1014C000331FC501F3E0880F991FFA95E1F7280F44
:1014D000391F06C0E20FF31FE854F94F70836F5FA6
:1014E000E62FF0E0E417F507ACF38AE0801BE50196
:1014F000CC0FDD1FD50173E0AA0FBB1F7A95E1F772
:101500009E012A0F3B1F07C0F901E80FF11DE854A7
:10151000F94FC0828F5F8A30B8F34FB7F894F50166
:10152000EB54F94F1082AC0FBD1FA854B94F8C91EA
:1015300090E0FE01E950F94F918380838081918191
:10154000C755D94F99838883892D982DA72DB62DFE
:101550009501220F331F220F331FF901E356F94F74
:1015600080839183A283B38382EB96E0A80EB91E99
:10157000F50150822A52394F81E090E0A0E0B0E0BE
:10158000F90180839183A283B3834FBF789487EC62
:1015900097E060E271E00E941A1A87EC97E0B601CA
:1015A0004AE050E00E94E81987EC97E067E271E0BA
:1015B0000E941A1A87EC97E0B8014AE050E00E94B6
:1015C000FB1961E070E080E090E00E947514DF910B
:1015D000CF911F910F91FF90EF90DF90CF90BF9030
:1015E000AF909F908F907F906F905F900895CF9273
:1015F000DF92EF92FF920F931F936C0120913505BC
:1016000060E070E041E050E030E0EE24EA94FE2C2F
:1016100087010E94CA0920913505C60161E070E08A
:101620004FEF5FEF30E00E94CA091F910F91FF90CA
:10163000EF90DF90CF9008958F929F92AF92BF92DC
:10164000CF92DF92EF92FF920F931F936C01B42E13
:10165000A52E962E872E2091350560E070E041E0A2
:1016600050E030E0EB2CFA2C092D182D0E94CA090D
:1016700020913505C60161E070E04FEF5FEF30E08B
:101680000E94CA091F910F91FF90EF90DF90CF90B9
:10169000BF90AF909F908F900895CF92DF92EF927E
:1016A000FF920F931F936C012091350560E070E06D
:1016B0004FEF5FEF30E0EE24EA94FE2C87010E94AA
:1016C000CA0920913505C60161E070E041E050E0B3
:1016D00030E00E94CA091F910F91FF90EF90DF90B8
:1016E000CF9008958F929F92AF92BF92CF92DF9248
:1016F000EF92FF920F931F936C01B42EA52E962E9E
:10170000872E2091350560E070E04FEF5FEF30E00D
:10171000EB2CFA2C092D182D0E94CA0920913505B1
:10172000C60161E070E041E050E030E00E94CA098B
:101730001F910F91FF90EF90DF90CF90BF90AF90EF
:101740009F908F900895EF92FF920F931F93CF93E6
:10175000DF93EC017A018B01CB01BA0120E030E08C
:1017600040E050E00E944420882321F4CE010E94F2
:101770004D0B52C0C801B70120E030E040E050E01E
:101780000E944420882334F4CE01B801A7010E94AE
:10179000130C42C0C801B7012DE331E642E853E41F
:1017A0000E9497210E94B520AB01BC01CE010E948E
:1017B000720B06C061E070E080E090E00E9475145A
:1017C0003FB7F8948091D6069091D706A091D8069D
:1017D000B091D9060097A105B105C9F48091DA0648
:1017E0009091DB06A091DC06B091DD060097A10583
:1017F000B10569F48091DE069091DF06A091E006C4
:10180000B091E10620E00097A105B10509F021E0C3
:101810003FBF7894222371F6DF91CF911F910F91F2
:10182000FF90EF900895EF92FF920F931F93CF9345
:10183000DF93EC017A018B01CB01BA0120E030E0AB
:1018400040E050E00E944420882321F4CE010E9411
:10185000F70A52C0C801B70120E030E040E050E094
:101860000E944420882334F4CE01B801A7010E94CD
:10187000A30B42C0C801B7012DE331E642E853E4AF
:101880000E9497210E94B520AB01BC01CE010E94AD
:101890001C0B06C061E070E080E090E00E947514CF
:1018A0003FB7F8948091D6069091D706A091D806BC
:1018B000B091D9060097A105B105C9F48091DA0667
:1018C0009091DB06A091DC06B091DD060097A105A2
:1018D000B10569F48091DE069091DF06A091E006E3
:1018E000B091E10620E00097A105B10509F021E0E3
:1018F0003FBF7894222371F6DF91CF911F910F9112
:10190000FF90EF900895CF92DF92EF92FF920F93A6
:101910001F936C012091350560E070E041E050E0DC
:1019200030E0EE24EA94FE2C87010E94CA0920913F
:101930003505C60161E070E041E050E030E00E9412
:10194000CA091F910F91FF90EF90DF90CF900895FB
:101950008F929F92AF92BF92CF92DF92EF92FF92BF
:101960000F931F936C01B42EA52E962E872E2091D7
:10197000350560E070E041E050E030E0EB2CFA2CFF
:10198000092D182D0E94CA0920913505C60161E074
:1019900070E041E050E030E00E94CA091F910F91D1
:1019A000FF90EF90DF90CF90BF90AF909F908F907F
:1019B0000895CF92DF92EF92FF920F931F936C01E5
:1019C0002091350560E070E04FEF5FEF30E0EE24EE
:1019D000EA94FE2C87010E94CA0920913505C601B0
:1019E00061E070E04FEF5FEF30E00E94CA091F91A5
:1019F0000F91FF90EF90DF90CF9008958F929F927C
:101A0000AF92BF92CF92DF92EF92FF920F931F930C
:101A10006C01B42EA52E962E872E2091350560E000
:101A200070E04FEF5FEF30E0EB2CFA2C092D182D12
:101A30000E94CA0920913505C60161E070E04FEFB0
:101A40005FEF30E00E94CA091F910F91FF90EF9065
:101A5000DF90CF90BF90AF909F908F900895EF92BE
:101A6000FF920F931F93CF93DF93EC017A018B01C9
:101A7000CB01BA0120E030E040E050E00E94442079
:101A8000882321F4CE010E94D90C52C0C801B701AD
:101A900020E030E040E050E00E944420882334F40D
:101AA000CE01B801A7010E949F0D42C0C801B70135
:101AB0002AE73BEE4AE951E40E9497210E94B520B3
:101AC000AB01BC01CE010E94FE0C06C061E070E0DB
:101AD00080E090E00E9475143FB7F8948091D6069C
:101AE0009091D706A091D806B091D9060097A1058C
:101AF000B105C9F48091DA069091DB06A091DC066D
:101B0000B091DD060097A105B10569F48091DE066C
:101B10009091DF06A091E006B091E10620E00097E9
:101B2000A105B10509F021E03FBF7894222371F6A9
:101B3000DF91CF911F910F91FF90EF900895EF9259
:101B4000FF920F931F93CF93DF93EC017A018B01E8
:101B5000CB01BA0120E030E040E050E00E94442098
:101B6000882321F4CE010E94830C52C0C801B70122
:101B700020E030E040E050E00E944420882334F42C
:101B8000CE01B801A7010E942F0D42C0C801B701C4
:101B90002AE73BEE4AE951E40E9497210E94B520D2
:101BA000AB01BC01CE010E94A80C06C061E070E050
:101BB00080E090E00E9475143FB7F8948091D606BB
:101BC0009091D706A091D806B091D9060097A105AB
:101BD000B105C9F48091DA069091DB06A091DC068C
:101BE000B091DD060097A105B10569F48091DE068C
:101BF0009091DF06A091E006B091E10620E0009709
:101C0000A105B10509F021E03FBF7894222371F6C8
:101C1000DF91CF911F910F91FF90EF90089560E0B9
:101C200040E021E00E94B20984E10E94DD140895A1
:101C300060E041E021E00E94B20984E10E94DD14ED
:101C4000089561E041E021E00E94B20984E10E9430
:101C5000DD140895EF92FF920F931F93162F042F18
:101C600084E4E82E87E0F82EC7016EE170E00E9460
:101C7000D50FC701612F0E945710C701602F0E9426
:101C80005710C7010E949A101F910F91FF90EF907B
:101C90000895CF93DF9384E497E06EE170E00E94B3
:101CA000D50F84E497E063E00E94571084E497E046
:101CB0000E949A1084E497E06EE170E00E94D50FD4
:101CC00084E497E06EE170E046E050E00E94AB10E3
:101CD00084E497E00E94DF0F069771F4C0E0D0E043
:101CE00084E497E00E94E80FFE01EC59F94F8083ED
:101CF0002196C630D105A1F784E497E00E949A109E
:101D0000DF91CF9108950F931F938C0163E070E0F2
:101D100046E050E00E94490E40916406209165061D
:101D2000742F60E030E0622B732B882777FD80955D
:101D3000982F0E94E3202FE135E84BE65FE30E94F5
:101D40009721F801648375838683978340916606A3
:101D500020916706742F60E030E0622B732B882798
:101D600077FD8095982F0E94E3202FE135E84BE620
:101D70005FE30E949721F8016087718782879387CC
:101D80004091680620916906742F60E030E0622B74
:101D9000732B882777FD8095982F0E94E3202FE1F1
:101DA00035E84BE65FE30E949721F8016487758769
:101DB000868797871F910F910895CF93DF93EC014A
:101DC00087EC97E060E875E20E94D51585E198E020
:101DD00040E855E260E070E00E9454178DE061E059
:101DE0000E9415158DE060E00E94A2158BE061E075
:101DF0000E9415158BE060E00E94A21584E160E06E
:101E00000E94151585E161E00E94151586E161E0EB
:101E10000E94151587E161E00E94151586E061E0DA
:101E20000E9415158AE061E00E94151585E060E0CA
:101E30000E94151589E061E00E9415158DEF96E06E
:101E400060E070E00E94CE0F8DEF96E060E070E001
:101E50000E94CE0F8E8F0E94C01084E00E94AF10AF
:101E6000559A5D98809195068EBD0DB407FEFDCF05
:101E70008EB5809194068EBD0DB407FEFDCF8EB554
:101E80005D9A10929C0680E18093EB0680E380933C
:101E9000EC0680E28093ED0680E68093EE0680E417
:101EA0008093EF0680EC8093F00680E88093F10643
:101EB00080E98093F2061092F30681E08093E206B7
:101EC00083E08093E30682E08093E40686E08093DB
:101ED000E50684E08093E6068CE08093E70688E0E0
:101EE0008093E80689E08093E9061092EA06CE0125
:101EF0000E946D08CE010E943907809135058093BC
:101F0000F6068093F5068093F406F8941092C000CC
:101F10001092C1001092BF001092BE0080E3809327
:101F2000CF0086E08093C10080917200806480932E
:101F300072007894F89487E060E00E941515809113
:101F40006A008F7C806180936A00EE9A7894CE015B
:101F50000E94BD06CE0161E070E040E250E00E94C8
:101F60002A0ECE0162E070E040E050E00E942A0EAE
:101F7000CE010E94830EDF91CF910895FC01138260
:101F800012828DE495E091838083CF010E94DD0E63
:101F900008958AE696E00E94BE0F0895F999FECF53
:101FA00072BD61BDF89A80B5089581E080934307C2
:101FB00060932007109241071092420708952091E4
:101FC0001F0730E080911E07281B3109C9010895C1
:101FD00040911E0780911F07481718F02FEF3FEF21
:101FE0000AC0E42FF0E0E250F94F8081282F30E062
:101FF0004F5F40931E07C9010895E0911E0780912D
:102000001F07E81718F0EFEFFFEF06C0F0E0E2500F
:10201000F94F8081E82FF0E0CF01089508951092E4
:1020200047071092460788EE93E0A0E0B0E0809367
:10203000480790934907A0934A07B0934B0785E55B
:1020400095E090934507809344070895CF92DF92DF
:10205000EF92FF920F931F93CF93DF937C016B015D
:102060008A01809143078823A1F0C0E0D0E00DC031
:10207000D701ED91FC91D601AC0FBD1F0190F0810D
:10208000E02DC7016C9109952196C017D10780F307
:1020900004C0CB01642F0E947D11C801DF91CF9154
:1020A0001F910F91FF90EF90DF90CF900895DF93F5
:1020B000CF930F92CDB7DEB7FC01698380914307C0
:1020C0008823C9F080914207803238F081E090E0A7
:1020D0009383828320E030E015C080914107E82F90
:1020E000F0E0EF5DF84F998190838F5F8093410717
:1020F0008093420705C0CE01019661E00E947D11E8
:1021000021E030E0C9010F90CF91DF9108950F9346
:10211000062F8091200761E277E04091420721E09D
:102120000E94281110924107109242071092430713
:102130000F91089561E00E9487100895413208F0E0
:1021400040E2862F6EEF76E00E94DF1010921E07AD
:1021500080931F07089521E00E949E1008952CB5DA
:10216000382F33702C7F322B3CBD2DB590E09595E8
:1021700087959595879581702E7F822B8DBD0895CB
:102180008FE061E00E94151580E161E00E94151565
:1021900081E161E00E9415158FE060E00E94A215C8
:1021A00080E160E00E94A21581E161E00E94A21539
:1021B0008CB580618CBD8CB580648CBD0895382F42
:1021C000413210F040E042C0809150078823E1F78F
:1021D00091E090935007209352078FEF8093BD07B3
:1021E000109278074150409379074F5F90935107C1
:1021F00080915107330F832B8093510780915307B0
:10220000813041F410925307809151078093BB00B5
:1022100085EC01C085EE8093BC0080915007813031
:10222000E1F380917807841710F44091780720E05B
:1022300030E00AC0FB01E20FF31FD901A85AB84FE2
:102240008C9180832F5F3F4F2417A0F3842F089534
:102250000F931F93582F122F413210F081E04AC084
:10226000809150078823E1F782E080935007009324
:1022700052078FEF8093BD0710927807409379073C
:10228000A8E5B7E0FB0102C081918D938E2F861BDC
:102290008417D0F31092510780915107550F852B69
:1022A0008093510780915307813041F41092530776
:1022B000809151078093BB0085EC01C085EE80932F
:1022C000BC00112321F0809150078230E1F380910E
:1022D000BD078F3F11F480E00DC08091BD078032B3
:1022E00011F482E007C08091BD07803311F084E0D3
:1022F00001C083E01F910F910895482F613210F0C3
:1023000081E0089580915007843011F082E00895B3
:1023100060939B07AAE7B7E0842F9C01F90102C0F4
:1023200081918D938E2F841B8617D0F380E00895C2
:102330001F920F920FB60F9211242F933F934F933A
:102340005F936F937F938F939F93AF93BF93EF931D
:10235000FF938091B90090E0887F9070803691055E
:1023600009F4F2C081369105CCF58832910509F463
:102370007BC089329105B4F48031910509F46FC0B6
:10238000813191053CF4009709F447C1089709F0A1
:102390004FC165C08831910509F466C0809709F086
:1023A00047C182C08034910509F4A4C081349105ED
:1023B00044F48033910509F482C0C89709F038C10C
:1023C00089C08035910509F489C08835910509F4E3
:1023D00096C08834910509F02BC1AEC088399105AB
:1023E00009F413C189399105ECF48837910509F492
:1023F000ABC0893791054CF48836910509F4A4C027
:102400008037910509F014C19FC08838910509F4FF
:10241000FCC08039910509F49DC08038910509F010
:1024200007C198C0803B910509F4C6C0813B910566
:102430004CF4803A910509F49FC0883A910509F05F
:10244000F7C0BAC0803C910509F4E3C0883C91050F
:1024500009F4DFC0883B910509F0EAC0C2C0809151
:1024600051078093BB00CFC0909178078091790786
:10247000981768F490917807E92FF0E0E85AF84F40
:1024800080818093BB009F5F90937807BCC0809150
:102490005207882309F44BC085ED8093BC008091DE
:1024A000BC0084FDFCCFC2C080E28093BD0785EDF7
:1024B0008093BC008091BC0084FDFCCFB7C080E35A
:1024C0008093BD0785ED8093BC008091BC0084FDA6
:1024D000FCCFACC088E38093BD079BC08091780798
:1024E0009091BB00E82FF0E0E85AF84F90838F5F9F
:1024F00080937807909178078091790782C08091C6
:1025000078079091BB00E82FF0E0E85AF84F9083ED
:102510008F5F8093780780915207882341F085ED83
:102520008093BC008091BC0084FDFCCF7FC081E023
:102530008093530784EA6EC085ED8093BC00809140
:10254000BC0084FDFCCF72C083E0809350071092E2
:10255000BC0759C08091BC07803208F056C08091FA
:10256000BC079091BB00E82FF0E0E456F84F908351
:102570008F5F8093BC0747C08091BC07803230F4E6
:10258000E091BC07F0E0E456F84F108285ED8093AF
:10259000BC008091BC0084FDFCCF1092500760917C
:1025A000BC07E0915607F09157078CE997E070E07F
:1025B00009951092BC072DC084E0809350071092BB
:1025C0009A0710929B07E0915407F09155070995DF
:1025D00080919B07882329F481E080939B071092C8
:1025E0007A0790919A07E92FF0E0E658F84F80813A
:1025F0008093BB009F5F90939A0790919A07809178
:102600009B07981710F485EC01C085E88093BC0007
:102610000FC085EC8093BC0009C01092BD0785ED0A
:102620008093BC008091BC0084FDFCCF10925007C9
:10263000FF91EF91BF91AF919F918F917F916F919A
:102640005F914F913F912F910F900FBE0F901F9070
:10265000189508956F927F928F929F92AF92BF923A
:10266000CF92DF92EF92FF920F931F938AE696E04C
:102670000E940F0EAA2797FDA095BA2FBC01CD018D
:102680000E94E3203B014C018AE696E00E94180E6E
:10269000AA2797FDA095BA2FBC01CD010E94E32087
:1026A0005B016C018AE696E00E94210EAA2797FD45
:1026B000A095BA2FBC01CD010E94E3207B018C01C3
:1026C000C601B501A40193010E94932118168CF450
:1026D000C601B501A80197010E94932118164CF478
:1026E0008AE696E040E050E060E070E40E94130C5F
:1026F00031C0C401B301A60195010E9493211816AF
:102700008CF4C401B301A80197010E94932118160B
:102710004CF48AE696E040E050E060EA70E40E9403
:102720002F0D18C0C801B701A60195010E94932181
:10273000181684F4C801B701A40193010E949321E3
:10274000181644F48AE696E040E050E060EA70E44F
:102750000E949F0D64E670E080E090E00E94751496
:1027600085CF1F920F920FB60F9211242F933F9394
:102770008F939F93AF93BF938091C2079091C307AC
:10278000A091C407B091C5073091C6070196A11D5D
:10279000B11D232F2D5F2D3720F02D570196A11D40
:1027A000B11D2093C6078093C2079093C307A093DF
:1027B000C407B093C5078091BE079091BF07A09151
:1027C000C007B091C1070196A11DB11D8093BE073E
:1027D0009093BF07A093C007B093C107BF91AF917B
:1027E0009F918F913F912F910F900FBE0F901F904F
:1027F00018959FB7F8942091BE073091BF0740917C
:10280000C0075091C10786B5A89B06C08F3F21F035
:102810002F5F3F4F4F4F5F4F9FBF542F432F322F9C
:102820002227280F311D411D511D82E0220F331F29
:10283000441F551F8A95D1F7B901CA0108957894AC
:1028400084B5826084BD84B5816084BD85B58260B5
:1028500085BD85B5816085BDEEE6F0E08081816053
:102860008083E1E8F0E01082808182608083808153
:1028700081608083E0E8F0E0808181608083E1E92D
:10288000F0E0808182608083808181608083E0E9E4
:10289000F0E0808181608083E1ECF0E08081846001
:1028A0008083808182608083808181608083E3EC8B
:1028B000F0E0808181608083E0ECF0E080818260E4
:1028C0008083E2ECF0E0808181608083EAE7F0E0E1
:1028D0008081846080838081826080838081816048
:1028E00080838081806880830895EF92FF920F93A8
:1028F0001F93CF93DF937B018C013FB7F8948091B6
:10290000BE079091BF07A091C007B091C10726B53F
:10291000A89B05C02F3F19F00196A11DB11D3FBF17
:10292000BA2FA92F982F8827820F911DA11DB11DA5
:1029300052E0880F991FAA1FBB1F5A95D1F7EC01CF
:1029400030C00E949B1E3FB7F8948091BE079091C3
:10295000BF07A091C007B091C10726B5A89B05C0CD
:102960002F3F19F00196A11DB11D3FBFBA2FA92F0E
:10297000982F8827820F911DA11DB11D32E0880F6D
:10298000991FAA1FBB1F3A95D1F78C1B9D0B885E20
:102990009340B8F20894E108F10801091109C851FF
:1029A000DC4FE114F1040105110559F6DF91CF91D7
:1029B0001F910F91FF90EF900895823108F082519E
:1029C000E82FF0E0E55DF94FE49120917B008E2F38
:1029D00086958695869590E08170907035E0880F99
:1029E000991F3A95E1F72F7D282B20937B00E77004
:1029F000809136058295880F880F807C8E2B80937E
:102A00007C0080917A00806480937A0080917A00C3
:102A100086FDFCCF2091780040917900942F80E0D2
:102A200030E0282B392BC9010895CF93DF93482F2D
:102A300050E0CA0181519A4FFC0134914F525A4FD4
:102A4000FA018491882369F190E0880F991FFC01B5
:102A5000E955FA4FA591B491FC01EB54FA4FC59199
:102A6000D491662351F42FB7F8948C91932F9095BD
:102A700089238C93888189230BC0623061F42FB73E
:102A8000F8948C91932F909589238C938881832B34
:102A900088832FBF06C09FB7F8948C91832B8C93AB
:102AA0009FBFDF91CF910895883071F1893068F42C
:102AB000823031F1833020F4813009F042C01DC0F2
:102AC000833089F08430E9F512C08B3059F18C30B5
:102AD00028F48930E9F08A30A1F51EC08C3031F13C
:102AE0008E3079F529C0809180008F7703C0809166
:102AF00080008F7D80938000089584B58F7702C019
:102B000084B58F7D84BD0895809190008F7707C034
:102B1000809190008F7D03C080919000877F80938B
:102B2000900008958091C0008F7703C08091C0000D
:102B30008F7D8093C00008958091C200877F80932D
:102B4000C2000895FF920F931F93F62E482F50E076
:102B5000CA01835F994FFC012491CA0181519A4FA8
:102B6000FC0114914F525A4FFA0104910023C9F00D
:102B7000222319F0822F0E945415E02FF0E0EE0F6F
:102B8000FF1FEB54FA4FA591B4919FB7F894FF2023
:102B900021F48C911095812302C08C91812B8C9310
:102BA0009FBF1F910F91FF9008950895FC01248508
:102BB000858530E0205C3F4F281B31092F73307032
:102BC000C9010895FC0194858585981719F42FEFA4
:102BD0003FEF06C08585E80FF11D8685282F30E080
:102BE000C9010895DC011C969C911C971D968C913F
:102BF0001D97981719F42FEF3FEF10C01D968C9179
:102C00001D97FD01E80FF11D96851D968C911D976E
:102C10008F5F8F731D968C93292F30E0C901089523
:102C20001092CA071092C90788EE93E0A0E0B0E0C6
:102C30008093CB079093CC07A093CD07B093CE079A
:102C400085E695E09093C8078093C70708950F9392
:102C50001F93DF93CF930F92CDB7DEB78C016983BB
:102C600080913E05882369F083E0BE016F5F7F4F4E
:102C700041E050E00E94211C1816190614F49C0132
:102C800007C081E090E0F8019383828320E030E088
:102C9000C9010F90CF91DF911F910F91089583E0AB
:102CA0000E94F81B08950F931F93CF93DF938C011D
:102CB000FC010FC082E00E94DE1A9C01FFEF8F3FF3
:102CC0009F0799F0F8018485E80FF11D2687F80128
:102CD000C4878485C82FD0E02196CF73D070F801C7
:102CE000858590E0C817D90729F7DF91CF911F910B
:102CF0000F910895FC0180818E5F808380E867E3F7
:102D000076E042E450E00E94F71A0895FC018181C8
:102D10009081913A59F4813209F04CC080E067E328
:102D200075E047E050E00E94F71A42C0913209F086
:102D300041C0803239F487E395E067E070E00E949B
:102D4000E01B36C0823209F035C0828180933E0597
:102D50008091370590913805A0913905B0913A05D9
:102D6000805B9440A040B04019F580913E0580FD05
:102D700012C087E797E790930108809300082BE043
:102D800088E190E00FB6F894A895809360000FBE9C
:102D9000209360000DC088E10FB6F8948093600026
:102DA000109260000FBEA8951092010810920008C2
:102DB00081E0089580E0089508951F920F920FB664
:102DC0000F9211242F933F934F938F939F93EF93E1
:102DD000FF938091C80082FD19C04091CE00809180
:102DE0003308282F30E02F5F3F4F2F7330708091D2
:102DF000340890E02817390759F0E0913308F0E0E3
:102E0000EB5EF74F42A32093330802C08091CE00BF
:102E1000FF91EF919F918F914F913F912F910F9043
:102E20000FBE0F901F9018958091330820913408A1
:102E300090E0805C9F4F821B91098F739070892B6B
:102E400011F00E94DC1608951F920F920FB60F9298
:102E500011242F938F939F93EF93FF9390913508B5
:102E600080913608981731F48091C9008F7D809346
:102E7000C90010C0E0913608F0E0E958F74F208112
:102E80008091360890E001968F7390708093360899
:102E90002093CE00FF91EF919F918F912F910F90F2
:102EA0000FBE0F901F901895AF92BF92DF92EF92D6
:102EB000FF920F931F93CF93DF93EC017A018B0165
:102EC000DD24403081EE580780E0680780E0780715
:102ED00011F0DD24D39491E0A92EB12CE889F98971
:102EE000DD2069F0C5010C8C02C0880F991F0A947F
:102EF000E2F7808360E079E08DE390E005C0108226
:102F000060E874E88EE190E0A80197010E942C220D
:102F10002150304040405040569547953795279571
:102F200080E12030380720F0DD2011F0DD24D6CFFD
:102F3000EC85FD853083EE85FF8520831D8EEA8933
:102F4000FB89408121E030E0C901088C02C0880F74
:102F5000991F0A94E2F7482B4083EA89FB89408154
:102F6000C901098C02C0880F991F0A94E2F7482B07
:102F70004083EA89FB894081C9010A8C02C0880F1D
:102F8000991F0A94E2F7482B4083EA89FB898081E4
:102F90000B8C02C0220F331F0A94E2F720952823DE
:102FA0002083DF91CF911F910F91FF90EF90DF90E1
:102FB000BF90AF900895FC01268D878D30E0205C96
:102FC0003F4F281B31092F733070C9010895FC0150
:102FD000968D878D981719F42FEF3FEF06C0878DD8
:102FE000E80FF11D82A1282F30E0C9010895DC010E
:102FF0005E969C915E975F968C915F97981719F4F7
:103000002FEF3FEF10C05F968C915F97FD01E80FA7
:10301000F11D92A15F968C915F978F5F8F735F9682
:103020008C93292F30E0C9010895DC015D968C91C5
:103030005D97882339F05096ED91FC9151978081EE
:1030400086FFF9CF5D961C920895DC0190968C91D5
:103050009097282F30E02F5F3F4F2F73307091965D
:103060008C91919790E028173907C9F390968C912D
:103070009097FD01E80FF11DEE59FF4F6083909688
:103080002C9390975296ED91FC915397208181E07B
:1030900090E05B960C905B9702C0880F991F0A9492
:1030A000E2F7282B208381E05D968C935D97509604
:1030B000ED91FC91519780818064808381E090E064
:1030C0000895109218081092170888EE93E0A0E077
:1030D000B0E08093190890931A08A0931B08B0934E
:1030E0001C0887E795E090931608809315081092C6
:1030F0003608809136088093350810923408809104
:103100003408809333088DEC90E0909322088093EC
:1031100021088CEC90E0909324088093230888EC9D
:1031200090E0909326088093250889EC90E0909396
:103130002808809327088AEC90E090932A088093CF
:1031400029088EEC90E090932C0880932B0884E063
:1031500080932D0883E080932E0887E080932F08CA
:1031600085E08093300881E0809331080895CF9303
:10317000DF930E941F1486EC98E00E94031C0E94BB
:103180002A13C4E1D7E10E9429132097E1F30E949A
:103190001417F9CFCF92DF92EF92FF920F931F9304
:1031A000CF93DF937C016B018A01C0E0D0E00FC0B8
:1031B000D6016D916D01D701ED91FC910190F081E7
:1031C000E02DC7010995C80FD91F01501040011506
:1031D000110571F7CE01DF91CF911F910F91FF90F3
:1031E000EF90DF90CF900895EF92FF920F931F938F
:1031F0008C01DC01ED91FC910190F081E02D6DE0FE
:1032000009957C01D801ED91FC910190F081E02DB0
:10321000C8016AE009959C012E0D3F1DC9011F914F
:103220000F91FF90EF900895CF93DF93EC0161151C
:10323000710519F420E030E00FC0DB010D90002093
:10324000E9F71197A61BB70BE881F9810280F3819A
:10325000E02DAD0109959C01C901DF91CF91089541
:103260004F925F927F928F929F92AF92BF92CF9236
:10327000DF92EF92FF920F931F93DF93CF93CDB71F
:10328000DEB7A1970FB6F894DEBF0FBECDBF2C01FD
:10329000742ECB01223008F42AE019A231E2C32EA9
:1032A000D12CCC0EDD1E822E9924AA24BB24672D9E
:1032B000752FA50194010E942C2279018A01C80171
:1032C000B701A50194010E94FA21472D461B0894DD
:1032D000C108D1084A3014F4405D01C0495CF601D0
:1032E0004083E114F1040105110521F07E2C5F2DCE
:1032F000C801DDCFC201B6010E941419A1960FB614
:10330000F894DEBF0FBECDBFCF91DF911F910F911B
:10331000FF90EF90DF90CF90BF90AF909F908F90F5
:103320007F905F904F900895CF92DF92EF92FF923F
:103330000F931F93CF93DF93EC016A017B0121155B
:10334000310541F4E881F9810190F081E02D642F8D
:1033500009951FC02A303105D1F477FF17C0E881E5
:10336000F9810190F081E02D6DE209958C014427EF
:103370005527BA014C195D096E097F09CE012AE073
:103380000E9430199801280F391F04C02AE00E94BA
:1033900030199C01C901DF91CF911F910F91FF90CE
:1033A000EF90DF90CF900895EF92FF920F931F93CD
:1033B0007C010E9494198C01C7010E94F4189C01A1
:1033C000200F311FC9011F910F91FF90EF900895B9
:1033D000EF92FF920F931F937B019A010027F7FC56
:1033E0000095102FB801A7010E9494191F910F9109
:1033F000FF90EF900895CF92DF92EF92FF920F939C
:103400001F936C017B019A010027F7FC0095102F98
:10341000B801A7010E9494198C01C6010E94F418FA
:10342000080F191FC8011F910F91FF90EF90DF90B7
:10343000CF9008950E94141908958230B9F0833016
:1034400028F4882351F08130F9F40AC08430B9F0AF
:10345000843090F08530C1F415C010926E0008954C
:1034600080916F008D7F80936F0008958091700030
:103470008D7F8093700008951092710008951092CE
:10348000720008951092730008951F920F920FB664
:103490000F9211242F933F934F935F936F937F93DA
:1034A0008F939F93AF93BF93EF93FF938091B70850
:1034B0009091B808A091B908B091BA080097A105F9
:1034C000B10551F1E091BB08F091BC088081909169
:1034D000BD08892780838091B7089091B808A09192
:1034E000B908B091BA08181619061A061B060CF589
:1034F0008091B7089091B808A091B908B091BA0826
:103500000197A109B1098093B7089093B808A093D7
:10351000B908B093BA080DC083E00E941D1AE0916B
:10352000BB08F091BC0890818091BD0880958923EB
:103530008083FF91EF91BF91AF919F918F917F9188
:103540006F915F914F913F912F910F900FBE0F9010
:103550001F901895282F8091C0088823C1F057FF2D
:103560001AC015C028989093BF088091F1008193EC
:10357000E217F307B9F74115510539F08091F200D0
:10358000882319F48BE68093E800AFBF02C04FEFA9
:103590005FEFCA010895AFB7F89427702093E90050
:1035A0008091F200282F30E0241735070CF4A90190
:1035B000FB019B01240F311D94E6DACFDF93CF93FB
:1035C0000F92CDB7DEB7BE016F5F7F4F41E050E095
:1035D0000E94AA1A019719F02FEF3FEF03C08981CB
:1035E000282F30E0C9010F90CF91DF910895FF920D
:1035F0000F931F93F82E142F052F4091C30850915D
:10360000C408212F302FC901DC01FB016EEF29C056
:10361000F7FE02C0949101C090812091C1083091C1
:10362000C20824173507ACF48091E8008570E1F3F7
:103630008091E80082FF03C02FEF3FEF17C0909307
:10364000F100C90101968F739070892B11F460937A
:10365000E8002F5F3F4F3093C2082093C1081197B5
:1036600031961097A9F6812F902F9C01C9011F91C7
:103670000F91FF9008951F93782FE92F162F209117
:10368000C1083091C208A091C308B091C4082A179C
:103690003B07C4F48091E8008570E1F38091E80075
:1036A00082FD16C0812F90E00196880F991F8093AC
:1036B000F100C90101968F739070892B19F48EEF78
:1036C0008093E8002F5F3F4F3093C2082093C108DA
:1036D0002091C1083091C2082A173B07A4F48091B9
:1036E000E8008570E1F38091E80082FD12C083E07C
:1036F0008093F100C90101968F739070892B19F4A2
:103700008EEF8093E8002F5F3F4F3093C2082093E5
:10371000C1084091C1085091C208872F9E2FFC011B
:1037200070E06EEF43C094914A175B07A4F4809158
:10373000E8008570E1F38091E80082FF02C020E09C
:103740000DC09093F100CA0101968F739070892B80
:1037500011F46093E8004F5F5F4F21E04A175B0769
:10376000A4F48091E8008570E1F38091E80082FF85
:1037700002C080E00DC01092F100CA0101968F7363
:103780009070892B11F46093E8004F5F5F4F81E0E8
:10379000319690E030E082239323892B31F45093CB
:1037A000C2084093C10880E009C07F5F711708F428
:1037B000BACF5093C2084093C10881E01F91089589
:1037C0009C018091E80082FFFCCFF901260F311D9A
:1037D00003C08091F1008193E217F307D1F7289895
:1037E00084E68093BF088BEF8093E800CB010895B7
:1037F0008093E9008091F200882319F08AE3809396
:10380000E800089508951092C00881E08093D700E1
:1038100080EA8093D80082E189BD09B400FEFDCF23
:1038200061E070E080E090E00E94751480E9809390
:10383000D8008CE08093E2001092E000559A209A24
:1038400008955F926F927F928F929F92AF92BF92F4
:10385000CF92DF92EF92FF920F931F93CF93DF935C
:10386000E82E842E752E8091C008882371F18B017B
:10387000242F352FC901EC01AAEFFA2EF7E09F2E75
:103880009E20E0E45E2E8E2D90E070E2A72EB12CFB
:10389000A822B9226AE3662E50E4C52ED12CC82294
:1038A000D92258C09FB7F8949092E9008091E8001F
:1038B00085FD02C020E004C08091F200252D281B68
:1038C0009FBF222361F4FA9419F42FEF3FEF4DC00C
:1038D00061E070E080E090E00E9475143BC0822FB0
:1038E00090E0C817D9070CF42C2FC21BD1094FB791
:1038F000F8949092E900A114B10421F406C010924A
:10390000F10021502223D9F719C0E7FC03C0F801C8
:10391000922F10C0C801322F06C0FC010196E4911D
:10392000E093F10031503323C1F706C081918093B9
:10393000F10091509923D1F7020F111D8091E800F9
:1039400085FF05C0209729F4C114D10411F06092BD
:10395000E8004FBF209709F0A5CF5D9884E68093DB
:10396000BE08282D372DC9019C01C901DF91CF91D7
:103970001F910F91FF90EF90DF90CF90BF90AF908D
:103980009F908F907F906F905F9008951F920F92FD
:103990000FB60F9211242F933F934F935F936F9322
:1039A0007F938F939F93AF93BF93EF93FF938091F8
:1039B000E1001092E100982F83FF0FC01092E90000
:1039C00081E08093EB001092EC0082E38093ED00A5
:1039D0001092C00888E08093F00092FF34C083E02A
:1039E0008093E9008091F200882319F08AE38093A4
:1039F000E8008FB7F89492E09093E9009091F2007C
:103A00008FBF992321F087EC97E00E945316809195
:103A1000BE08882351F08091BE0881508093BE0873
:103A20008091BE08882309F45D9A8091BF0888239D
:103A300051F08091BF0881508093BF088091BF08EA
:103A4000882309F4289AFF91EF91BF91AF919F913C
:103A50008F917F916F915F914F913F912F910F9037
:103A60000FBE0F901F9018950F931F93DF93CF9366
:103A70000F92CDB7DEB719828E010F5F1F4FC801BD
:103A80000E947A16C8010E94D31F898190E00F908E
:103A9000CF91DF911F910F9108951F920F920FB652
:103AA0000F921124EF92FF921F932F933F934F9306
:103AB0005F936F937F938F939F93AF93BF93EF9396
:103AC000FF93DF93CF93CDB7DEB76197DEBFCDBF56
:103AD0001092E9008091E80083FF14C1FE01319645
:103AE0009E01275F3F4F03C08091F1008193E21751
:103AF000F307D1F7289884E68093BF0882EF80937C
:103B0000E800998197FF05C08091E80080FFFCCF15
:103B100003C08EEF8093E800292F30E0C901807642
:103B20009070892B09F0C7C08A81882329F41092EC
:103B3000F1001092F100DBC0813009F4D8C083306D
:103B400009F4D5C0853049F48091E80080FFFCCFAE
:103B50008B8180688093E300CAC0863009F081C001
:103B60001C81EF80F8841230C1F51092E9001092A8
:103B7000C2081092C1081092C4081092C3080E9493
:103B8000341D99E0FE013996DF01292F1D922A95F7
:103B9000E9F799871A8791E09E8790E8988B9AEFCA
:103BA000998B2091C1083091C208275F3F4F3C8715
:103BB0002B878D871092E9001092C2081092C108DD
:103BC000F092C408E092C30880E0BF0149E050E0F1
:103BD0000E94F71A0E94341D8AC01092E9001092C8
:103BE000C2081092C108F092C408E092C3081232D1
:103BF00041F482E290E00E94CB1F892B09F47BC044
:103C000076C0113079F488E0E816F10419F481E007
:103C10008093C5088091C508882309F070C0EAE93F
:103C2000F6E018C0133009F066C08B81882319F4C0
:103C3000E9E7F6E00FC0823021F48DE796E060E11D
:103C400006C0813009F057C08EE896E06BE00E9414
:103C50003B1B4BC0449180E8BF0150E00E94F71A23
:103C600046C0873009F447C0883021F481E0809352
:103C7000F1003DC08930D9F523703070232BD9F580
:103C8000EFEBF6E091E031E026E39093E90030932A
:103C9000EB0084918093EC002093ED009F5F3196C0
:103CA000953099F78EE78093EA001092EA008B81B5
:103CB0008093C0081CC08F8198851092E9001092F3
:103CC000C2081092C1089093C4088093C3088D81E4
:103CD000882329F4CE0101960E94861606C0823000
:103CE00051F4CE0101960E949C1E882321F08EEF94
:103CF0008093E80007C081E28093EB0003C0ECEA08
:103D0000F6E0A8CF6196DEBFCDBFCF91DF91FF91E6
:103D1000EF91BF91AF919F918F917F916F915F9143
:103D20004F913F912F911F91FF90EF900F900FBEF9
:103D30000F901F9018950895FC0191818081813A20
:103D400031F4913089F080E0933089F40DC08132F4
:103D500069F49B3021F4828180933F0505C09A303D
:103D600029F482818093400581E0089580E00895E0
:103D7000EF92FF920F931F938C01E62EDC01ED91E1
:103D8000FC910480F581E02D0995F82ED801ED9184
:103D9000FC910680F781E02DC8016E2D09958F2DCD
:103DA00090E01F910F91FF90EF9008951092C70837
:103DB0001092CB081092CA0887E895E09093C90842
:103DC0008093C8080895EF92FF920F931F93DF939B
:103DD000CF930F92CDB7DEB789838B017A0184E050
:103DE000BE016F5F7F4F41E050E00E94211C84E4E0
:103DF000B801A7010E94211C0F90CF91DF911F9164
:103E00000F91FF90EF90089582E048E050E00E940B
:103E1000E31E0895FC011682178210861186128611
:103E2000138614823496BF010E94041F0895DC019A
:103E3000683810F0685829C0E62FF0E067FF13C01B
:103E4000E058F04081E090E002C0880F991FEA95A9
:103E5000E2F7809514962C911497282314962C93AE
:103E6000149760E012C0EF5BF84F6491662319F479
:103E700020E030E01DC067FF08C014968C911497B5
:103E80008D7F14968C9314976F77FD0190E06623D5
:103E900021F08681861709F416829F5F319696304D
:103EA000B1F7CD011496BD010E94041F21E030E05E
:103EB000C9010895CF93DF93DC01683810F068588A
:103EC00025C0E62FF0E067FF12C0E058F04081E027
:103ED00090E002C0880F991FEA95E2F714962C91A2
:103EE0001497282B14962C93149760E00FC0EF5B67
:103EF000F84F64916623D9F167FF08C014968C913E
:103F00001497826014968C9314976F7716968C9101
:103F100016978617A9F117968C911797861781F136
:103F200018968C911897861759F119968C911997B4
:103F3000861731F11A968C911A97861709F11B96FC
:103F40008C911B978617E1F0ED01E0E0F0E09E2FE9
:103F50008E81882321F4EA0FFB1F668306C09F5FD2
:103F600031962196E630F10591F7963049F481E0DB
:103F700090E013969C938E93129720E030E007C058
:103F8000CD011496BD010E94041F21E030E0C9015B
:103F9000DF91CF91089580E863EC76E045E650E04C
:103FA0000E94F71A0895FC0180818F5F808380E86A
:103FB00068E277E049E150E00E94F71A089550580E
:103FC000BB27AA270ED075C166D130F06BD120F087
:103FD00031F49F3F11F41EF45BC10EF4E095E7FB52
:103FE00051C1E92F77D180F3BA17620773078407AD
:103FF000950718F071F49EF58FC10EF4E0950B2E25
:10400000BA2FA02D0B01B90190010C01CA01A0012A
:104010001124FF27591B99F0593F50F4503E68F185
:104020001A16F040A22F232F342F4427585FF3CFC6
:10403000469537952795A795F0405395C9F77EF497
:104040001F16BA0B620B730B840BBAF09150A1F0E0
:10405000FF0FBB1F661F771F881FC2F70EC0BA0F66
:10406000621F731F841F48F4879577956795B795EE
:10407000F7959E3F08F0B3CF9395880F08F09927E6
:10408000EE0F979587950895D9D008F481E00895AB
:104090000CD00FC107D140F0FED030F021F45F3FCB
:1040A00019F0F0C0511139C1F3C014D198F399231C
:1040B000C9F35523B1F3951B550BBB27AA276217EC
:1040C0007307840738F09F5F5F4F220F331F441F31
:1040D000AA1FA9F333D00E2E3AF0E0E830D0915069
:1040E0005040E695001CCAF729D0FE2F27D0660F56
:1040F000771F881FBB1F261737074807AB07B0E895
:1041000009F0BB0B802DBF01FF2793585F4F2AF0AA
:104110009E3F510568F0B6C000C15F3FECF3983E8A
:10412000DCF3869577956795B795F7959F5FC9F707
:10413000880F911D9695879597F90895E1E0660F90
:10414000771F881FBB1F621773078407BA0720F009
:10415000621B730B840BBA0BEE1F88F7E095089572
:1041600004D06894B111D9C00895BCD088F09F578D
:1041700090F0B92F9927B751A0F0D1F0660F771FB3
:10418000881F991F1AF0BA95C9F712C0B13081F093
:10419000C3D0B1E00895C0C0672F782F8827B85FDB
:1041A00039F0B93FCCF3869577956795B395D9F7F4
:1041B0003EF490958095709561957F4F8F4F9F4FFE
:1041C0000895E89409C097FB3EF49095809570950A
:1041D00061957F4F8F4F9F4F9923A9F0F92F96E953
:1041E000BB279395F695879577956795B795F111C8
:1041F000F8CFFAF4BB0F11F460FF1BC06F5F7F4F65
:104200008F4F9F4F16C0882311F096E911C0772376
:1042100021F09EE8872F762F05C0662371F096E87F
:10422000862F70E060E02AF09A95660F771F881F4E
:10423000DAF7880F9695879597F90895990F0008F2
:10424000550FAA0BE0E8FEEF16161706E807F90768
:10425000C0F012161306E407F50798F0621B730B03
:10426000840B950B39F40A2661F0232B242B252B84
:1042700021F408950A2609F4A140A6958FEF811D27
:10428000811D089597F99F6780E870E060E00895C8
:104290009FEF80EC089500240A941616170618065E
:1042A0000906089500240A9412161306140605063A
:1042B0000895092E0394000C11F4882352F0BB0FCB
:1042C00040F4BF2B11F460FF04C06F5F7F4F8F4F2E
:1042D0009F4F089557FD9058440F551F59F05F3F69
:1042E00071F04795880F97FB991F61F09F3F79F018
:1042F00087950895121613061406551FF2CF46959A
:10430000F1DF08C0161617061806991FF1CF86951B
:104310007105610508940895E894BB2766277727FF
:10432000CB0197F908958ADF08F48FEF08950BD039
:10433000C0CFB1DF28F0B6DF18F0952309F0A2CF87
:10434000A7CF1124EACFC6DFA0F3959FD1F3950F35
:1043500050E0551F629FF001729FBB27F00DB11D09
:10436000639FAA27F00DB11DAA1F649F6627B00D99
:10437000A11D661F829F2227B00DA11D621F739F82
:10438000B00DA11D621F839FA00D611D221F749F90
:104390003327A00D611D231F849F600D211D822FD7
:1043A000762F6A2F11249F5750408AF0E1F088231E
:1043B0004AF0EE0FFF1FBB1F661F771F881F91502B
:1043C0005040A9F79E3F510570F05CCFA6CF5F3FEC
:1043D000ECF3983EDCF3869577956795B795F7955E
:1043E000E7959F5FC1F7FE2B880F911D96958795E6
:1043F00097F90895629FD001739FF001829FE00DAD
:10440000F11D649FE00DF11D929FF00D839FF00D53
:10441000749FF00D659FF00D9927729FB00DE11DFF
:10442000F91F639FB00DE11DF91FBD01CF011124DC
:10443000089597FB092E07260AD077FD04D02ED0C9
:1044400006D000201AF4709561957F4F0895F6F715
:10445000909581959F4F0895A1E21A2EAA1BBB1B30
:10446000FD010DC0AA1FBB1FEE1FFF1FA217B30740
:10447000E407F50720F0A21BB30BE40BF50B661F56
:10448000771F881F991F1A9469F76095709580951A
:1044900090959B01AC01BD01CF010895AA1BBB1BE8
:1044A00051E107C0AA1FBB1FA617B70710F0A61B34
:1044B000B70B881F991F5A95A9F780959095BC0155
:1044C000CD010895EE0FFF1F0590F491E02D0994A2
:0444D000F894FFCF8E
:1044D4004D6F746F72200020726F746174652C20AC
:1044E4006469723D20002C2073746570733D200054
:1044F400626173653A20002C2072656D61696E6497
:1045040065723A2000000000000000000000000076
:104514000000000000000000000000000000000097
:104524000000000000000000000000000000000087
:104534000000000000000000000000000000000077
:104544000000000000000000000000000000000067
:104554000000000000000000000000000000000057
:104564000000000000000000000000000000000047
:104574000000000000000000000000000000000037
:104584000000000000000000000000000001010124
:10459400030307070F0F0F0F0F0F0703010000009E
:1045A4000000000000000000000000000000000007
:1045B40000000000000000000000000000000000F7
:1045C40000000000000000000000000000000000E7
:1045D40000000000000000000000000000000000D7
:1045E40000000000000000000000000000000000C7
:1045F40000000000000000010F07000000000000A0
:10460400000000000003070F3F7F7FFFFFFFFFFF55
:10461400FFFFFFFFFFFFFFFEFEFCFCFCFC78000039
:104624000000000000000000000000000000000086
:104634000000000000000000000000000000000076
:104644000000000000000000000000000000000066
:1046540000000000000000000000000000003FFF18
:10466400FFFFFFFFFFFF3800000000000183E1F3BC
:104674007B7F3F3F1F1F3FFFFFFF1F3F7F7FFFE702
:10468400C78702020280E0F0F8F8F8FCFEFEFFFFA4
:10469400FFFFFFFFFFFF1F0F0707030301000000D9
:1046A400000000060F1F1F1F1F3F3F3F3F3F3F3FBC
:1046B4003F1F1F0F0F070300003F3F3F3F3F3F3F98
:1046C4003F3F3F3F3F3F1F1F0F07000000003F3F9A
:1046D4003F3F3F1F0F1F1F1F1F1E1F1F1F0EFFFFE8
:1046E400FFFFFFFFFFFF030307070F1F1F1F0E043A
:1046F4008080808087CFCFDFDFDFDFE0E0E0E0E0B5
:10470400F0707030000000000000000000000000A5
:10471400008080C0C1E1E1F1F3FFFFFFFFFFFFFF75
:104724007F3F0F00FFFFFFFFFFFF1F0307070F0F70
:104734000FBFFFFFFFFEF8F0070F1F1F1F3F3F3C97
:104744003C383838FFFFFFFFFFFFFF000000FFFF8A
:10475400FFFFFFFFFF800000000000000000C0FF1B
:10476400FFFFFFFFFFFFFFFFDF8F8F0F0703010036
:104774000000003FFFFFFFFFFFF8C0000000000043
:1047840000000000000000000F7FFFFFFFFFFFFF9D
:10479400FFFFFFFFFFFFFFFEFEFEFCFCF8F8F0F05A
:1047A400E0C08000C0FFFFFFFFFFFFFFF7F0F0E075
:1047B400C0C080800000000080E0E0E0F0F0F0F095
:1047C400F0F0F0F0F0F0F0F0F0F0F0000000F0F0B5
:1047D400F0F0F0F0F000000000000000000000F035
:1047E400F0F0F0F0F0C0008080C0E0E0E0E0E00035
:1047F4000000F0F0F0F0F0F0800000000000000095
:1048040000000000000000008080808080808080A4
:104814008080000000000000000000000000000094
:10482400000000000000E0FCFCFCFCFCF8F8300098
:104834000000000000000000000000000000000074
:104844000000000000000000000000000000000064
:104854000000000000000000000000000000000054
:104864000000000000000000000000000000000044
:104874000000000000000000000000000000000034
:104884000000000000000000000000000000000024
:104894000000000000000000000000000000000014
:1048A4000000000000000000000000000000000004
:1048B40000000000000000000000000000000000F4
:1048C40000000000000000000000000000000000E4
:1048D40000000000000000000000000000000000D4
:1048E40000000000000000000000000000000000C4
:1048F40000000000000000000000000000000000B4
:104904000000000000640100E1000000000000015C
:10491400010302010007060504000000000709FC6A
:10492400080000000057102610DF0FE80FFD0F0EDF
:1049340010000000002716CA18D615F215E2154F0C
:10494400165316000000002518CA18DB17F717E7DE
:1049540017151800000000B81ECA185A1F171F0A9E
:024964001F0032
:00000001FF
