:100000000C94E7030C940F040C940F040C940F044D
:100010000C940F040C940F040C940F040C944309DB
:100020000C940F040C940F040C9432190C94B9190D
:100030000C940F040C940F040C940F040C940F04F4
:100040000C940F040C940F040C940F040C940F04E4
:100050000C940F040C940F040C940F040C94BB0F1D
:100060000C940F040C94B9120C9400130C940F040C
:100070000C940F040C940F040C940F040C940F04B4
:100080000C94B1160C9444040C940F040C940F04BB
:100090000C94010E0C940F040C9457040C940F0450
:1000A0000C940F040C940F040C940F040000000037
:1000B000007CDAF2DA7C7CD6F2D67C387C3E7C3866
:1000C000183C7E3C1838EABEEA38387AFE7A3800A6
:1000D000183C1800FFE7C3E7FF0018241800FFE7EB
:1000E000DBE7FF0C125C607064949E946402FEA0D7
:1000F000A0E002FEA0A4FC5A3CE73C5AFE7C383843
:10010000101038387CFE2844FE4428FAFA00FAFA27
:100110006090FE80FE006691A95606060606062936
:1001200045FF452910207E201008047E0408101089
:1001300054381010385410107808080808307830F7
:1001400078300C1C7C1C0C60707C7060000000001F
:10015000000000FA000000E000E00028FE28FE2871
:100160002454FE5448C4C81026466C926A040A00FF
:1001700010E0C00000384482000082443800543847
:10018000FE385410107C101000010E0C00101010DE
:100190001010000006060004081020407C8A92A27D
:1001A0007C0042FE02004E92929262848292B2CC15
:1001B000182848FE08E4A2A2A29C3C5292928C828B
:1001C000848890E06C9292926C6292929478000093
:1001D00028000000022C0000001028448228282853
:1001E0002828008244281040809A90607C82BA9A25
:1001F000723E4888483EFE9292926C7C8282824493
:10020000FE8282827CFE92929282FE909090807C0E
:1002100082828ACEFE101010FE0082FE820004024E
:1002200082FC80FE10284482FE02020202FE403858
:1002300040FEFE201008FE7C8282827CFE90909020
:10024000607C828A847AFE90989462649292924C46
:10025000C080FE80C0FC020202FCF8040204F8FC2C
:10026000021C02FCC6281028C6C0201E20C0869A88
:1002700092B2C200FE828282402010080400828274
:1002800082FE2040804020020202020200C0E010F4
:1002900000042A2A1E02FE1422221C1C22222214DE
:1002A0001C222214FE1C2A2A2A1800107E904018B4
:1002B0002525391EFE1020201E0022BE0200040249
:1002C00002BC00FE081422000082FE02003E201E36
:1002D000201E3E1020201E1C2222221C3F182424F7
:1002E00018182424183F3E10202010122A2A2A24ED
:1002F0002020FC22243C0202043E38040204383C44
:10030000020C023C2214081422320909093E22265A
:100310002A322200106C82000000EE000000826C85
:10032000100040804020403C64C4643C7885858651
:10033000485C0202045E1C2A2AAA9A84AAAA9E8207
:10034000842A2A1E8284AA2A1E02042AAA9E023015
:10035000784A4E489CAAAAAA9A9C2A2A2A9A9CAA17
:100360002A2A1A0000A23E820040A2BE420080A2B9
:100370003E020F9424940F0F14A4140F3E2AAAA235
:1003800000042A2A3E2A3E5090FE924C9292924CB1
:100390004C1212124C4C5212120C5C8282845E5C23
:1003A0004202041E00B90505BE9C2222229CBC020A
:1003B0000202BC3C24FF2424127E92C266D4F43F85
:1003C000F4D4FF90946F0403117E90C0042A2A9EF7
:1003D00082000022BE820C1212524C1C0202445EA9
:1003E000005E50504EBEB0988CBE649494F4146479
:1003F000949494640C12B202041C1010101010108B
:1004000010101CF40813355DF408142C5F0000DE96
:100410000000102854284444285428105500AA00ED
:100420005555AA55AA55AA55AA55AA000000FF007D
:10043000080808FF00282828FF000808FF00FF0818
:10044000080F080F2828283F002828EF00FF000089
:10045000FF00FF28282F203F2828E808F80808F880
:1004600008F8282828F8000808080F00000000F8FD
:1004700008080808F8080808080F08000000FF0826
:100480000808080808080808FF08000000FF2800FE
:1004900000FF00FF0000F808E800003F202F282898
:1004A000E808E828282F202F0000FF00EF28282840
:1004B00028282828EF00EF282828E8280808F80826
:1004C000F82828282F2808080F080F0000F808F837
:1004D000000000F8280000003F2800000F080F0867
:1004E00008FF08FF282828FF28080808F80000004F
:1004F000000F08FFFFFFFFFF0F0F0F0F0FFFFFFFA2
:100500000000000000FFFFF0F0F0F0F01C22221CC1
:10051000223E54547C287E40406060407E407E40B5
:10052000C6AA9282C61C22223C20027E0478046065
:10053000407E404099A5E7A5993854925438324EF0
:10054000804E320C52B2B20C0C121E120C3D465AA6
:1005500062BC7C929292007E8080807E545454547F
:10056000542222FA2222028A5222020222528A02B1
:100570000000FF80C00701FF00001010D6D6106CED
:10058000486C246C60F090F06000001818000000C7
:100590000808000C02FF808000F88080780098B87E
:1005A000E848003C3C3C3C00000000240027002AB6
:1005B000002D00300000000000250028002B002E38
:1005C000003100000000002300260029002C002F2D
:1005D00000040404040403040502020202040302EA
:1005E00002020206060606060604040202020404CB
:1005F0000802011040804010204080408008020422
:1006000001804020100201108010204040000000B6
:100610000200080E0000030401000B0000000000AF
:1006200000000000000000000000000706050401B3
:1006300000080A0B0C0D09080B0002020201000958
:10064000040000010202000005240010010524013D
:100650000101042402060524060001070581031098
:10066000004009040100020A0000000705020240E0
:10067000000007058302400000040309044172647E
:1006800075696E6F204C656F6E6172646F004172A8
:100690006475696E6F204C4C43001201000200002B
:1006A00000404123368000010102000112010002D6
:1006B000020000404123368000010102000100C118
:1006C0008081C105010902A1010901A1008501057F
:1006D000091901290315002501950375018102956A
:1006E0000175058103050109300931093815812596
:1006F0007F750895038106C0C005010906A1018523
:1007000002050719E029E715002501750195088103
:100710000295017508810395067508150025650584
:1007200007190029658100C00904020001030000C7
:100730000009210101000122650007058403400032
:100740000100000000000000002A2B28000000002B
:100750000000000000000000000000000000000099
:10076000002C9EB4A0A1A2A434A6A7A5AE362D3716
:1007700038271E1F20212223242526B333B62EB767
:10078000B89F8485868788898A8B8C8D8E8F90917F
:1007900092939495969798999A9B9C9D2F3130A30C
:1007A000AD350405060708090A0B0C0D0E0F1011D4
:1007B00012131415161718191A1B1C1DAFB1B0B55A
:1007C0000000320C780CEC113D146E18421B112401
:1007D0001FBECFEFDAE0DEBFCDBF15E0A0E0B1E095
:1007E000E6E6FDE302C005900D92A437B107D9F704
:1007F00018E0A4E7B5E001C01D92A03BB107E1F706
:1008000017E0CEECD7E004C02297FE010E94AD1E97
:10081000C23CD107C9F70E9493140C94B11E0C94EA
:100820000000FB01DC0102C001900D9241505040DC
:10083000D8F708956817790768F4FB01DC01E40F25
:10084000F51FA40FB51F02C002900E9241505040F8
:10085000D8F708950C94110421E030E00CC000009A
:10086000000000000000000000009F5F9A35B9F70B
:100870002150304011F090E0F2CF3C9A8093BB00C1
:1008800084E88093BC0008951F920F920FB60F92D8
:1008900011248F938BB180588BB9109295001092D0
:1008A00094008F910F900FBE0F901F9018951F927C
:1008B0000F920FB60F921124EF92FF920F931F9396
:1008C0002F933F934F935F936F937F938F939F9358
:1008D000AF93BF93CF93DF93EF93FF931092BF003B
:1008E0001092BE001092760610927706209179063B
:1008F00030917A0680917B0690E02817390728F41A
:1009000080917706816080937706209179063091F7
:100910007A0680917C0690E02817390728F48091A8
:1009200077068260809377062091790630917A0667
:1009300080917D0690E02817390728F4809177068A
:100940008460809377068091790690917A0601966B
:1009500090937A06809379068091790690917A0631
:100960008436910521F410927A06109279068091CE
:100970007E06882371F480917706877F80937706BF
:1009800040E050E0F8E0FF2E0FEF1FEFE7E0EE2E23
:1009900004C0809177068860F1CFFA01EE0FFF1F47
:1009A000EE0FFF1F9F012158394FE901888199817E
:1009B000AA81BB81EA01CC0FDD1F0297A105B10519
:1009C00008F443C0BE016557794FFB0180819181D6
:1009D000892BA1F5DA01AF56B94F8C91FA01EC568B
:1009E000F94F9081890F8C93F90180819181A281C7
:1009F000B3810197A109B10980839183A283B38355
:100A0000FA01E956F94F2081CA01A3E0880F991F26
:100A1000AA95E1F7C80FD91FC20FD11DC656D94FED
:100A2000888190E0DB0111969C938E9380818F5F8B
:100A3000808380818A30E8F010821BC0EB018881BE
:100A4000998101979983888314C0D9011D921D92C1
:100A50001D921C921397E854F94F10821182128252
:100A60001382FA01EF56F94FF082C557D94F198317
:100A70000883FA01EF56F94F8081883014F0108214
:100A800003C0808187FDE082FA01EE0FFF1FEE0FA9
:100A9000FF1FE854F94F80819181A281B3810097B3
:100AA000A105B10521F4FA01EF56F94FF0824F5F2D
:100AB0005F4F4330510509F070CF90917606E09179
:100AC0009206FF27E7FDF095EC53F94F8081982BB4
:100AD0009093760690917606E0919306FF27E7FDC6
:100AE000F095E353F94F8081982B9093760690917F
:100AF0007706E0919106FF27E7FDF095E353F94F64
:100B00008081982B909377065D98809177068EBDB3
:100B10000DB407FEFDCF8EB5809176068EBD0DB467
:100B200007FEFDCF8EB55D9AFF91EF91DF91CF91DA
:100B3000BF91AF919F918F917F916F915F914F91F5
:100B40003F912F911F910F91FF90EF900F900FBE4B
:100B50000F901F901895CF93DF93962F50E0BA0116
:100B60007695762F66277795679585E02802900120
:100B70001124892F675E7E4FE9012596F901E4551E
:100B8000FF4FE491DB01A80FB11DEC938F5F2F5F46
:100B90003F4F2C173D0791F7292F2B5F342F330F31
:100BA000330F330F692F665F4F5F5F4F440F440F62
:100BB000440F80917206281710F4209372068091DA
:100BC0007306861710F460937306809174063817C5
:100BD00010F43093740680917506841710F44093D6
:100BE0007506DF91CF9108950F931F93062F142F51
:100BF0003C9A84EA8093BC0020E030E08091BC0005
:100C000087FD38C02A353105A9F12F5F3F4FF6CF58
:100C10008091BC0087FD35C02A35310591F12F5FE9
:100C20003F4FF6CF8091BC0087FD31C02A3531059A
:100C300071F12F5F3F4FF6CF8091BC0087FD33C02D
:100C40002A35310581F12F5F3F4FF6CF8091BC00EF
:100C500087FD32C02A35310579F12F5F3F4FF6CF3E
:100C60008091BC0087FD2DC02A35310551F12F5FE1
:100C70003F4FF6CF812F880F0E942C0420E030E0F8
:100C8000C7CF802F0E942C0420E030E0CBCF3C9ACD
:100C900084EA8093BC00110F812F81600E942C0494
:100CA00020E030E0C9CF8091BC008F70806C8093D1
:100CB000BC0020E030E0CACF9091BB0020E030E0E3
:100CC000CFCF84E98093BC008091BC008B7F809360
:100CD000BC008091BC0084608093BC00892F1F9170
:100CE0000F9108950F931F93162F042F3C9A84EAB7
:100CF0008093BC0040E050E08091BC0087FD24C0A0
:100D00004A35510509F14F5F5F4FF6CF8091BC0026
:100D100087FD21C02A353105F1F02F5F3F4FF6CF17
:100D20008091BC0087FD1DC02A353105D1F02F5FB1
:100D30003F4FF6CF8091BC0087FD19C02A353105A1
:100D4000B1F02F5F3F4FF6CF822F880F0E942C0407
:100D500020E030E0DBCF812F0E942C0420E030E047
:100D6000DFCF802F0E942C0420E030E0E3CF84E925
:100D70008093BC001F910F910895CF93DF93EC01F6
:100D80006DE04DE10E94F4058A3219F02FEF3FEF3C
:100D900037C0CE016AE24DE10E94F405482F4E7F34
:100DA000CE016AE22DE10E947206CE016EE040E0C3
:100DB0002DE10E947206CE016AE24DE10E94F40527
:100DC000482F477CCE016AE22DE10E947206CE01D7
:100DD0006AE24DE10E94F405482FCE016AE22DE15E
:100DE0000E947206CE016AE24DE10E94F405482F8E
:100DF0004160CE016AE22DE10E94720621E030E0FE
:100E0000C901DF91CF91089510927006109271067A
:100E100080E094E0E9E1F1E0DF019C011D922150C6
:100E20003040E1F780917206882311F0109272062B
:100E3000809173068F3718F48FE780937306809143
:100E40007406882311F010927406809175068F3312
:100E500018F48FE38093750608951F93162FF89466
:100E60005D9A81E160E00E947E111EBD0DB407FE17
:100E7000FDCF81E161E00E947E1178941F91089579
:100E8000FF920F931F938C01F62E84E061E00E9485
:100E90007E11C8016F2D0E942D071F910F91FF90A9
:100EA0000895FF920F931F938C01F62E84E060E06B
:100EB0000E947E11C8016F2D0E942D071F910F9176
:100EC000FF9008958F929F92AF92BF92CF92DF9240
:100ED000EF92FF920F931F93CF93DF93EC0174E295
:100EE000872E75E0972E20E030E0AA24BB2468E02E
:100EF000C62ED12CC20ED31E8091740690E08C15A4
:100F00009D05D4F58091750690E0821793070CF447
:100F100040C0F4016081606BCE010E9451071091C6
:100F2000720600917306612F6F5F6F70CE010E9491
:100F30005107612F70E06F5F7F4F54E075956795A3
:100F40005A95E1F76F706061CE010E945107CE01A2
:100F500060EE0E94510749E1E42E41E0F42EEA0CD4
:100F6000FB1C08C0F701E10FF11DCE0160810E945A
:100F700040071F5F0117B0F70894811C911C80E89F
:100F800090E0A80EB91E90E4C916D10411F09601A4
:100F9000AECF8FE780937206109273068FE3809333
:100FA000740610927506DF91CF911F910F91FF90FB
:100FB000EF90DF90CF90BF90AF909F908F9008956B
:100FC000EF92FF921F937C01162F61E80E94510758
:100FD0001F73C701612F0E9451071F91FF90EF906F
:100FE0000895CF93DF93EC0184E061E00E94F1105B
:100FF0008CE061E00E94F11081E161E00E94F1105B
:1010000081E160E00E947E1188EE93E020E931E00A
:10101000F9013197F1F70197D9F78CE060E00E9470
:101020007E1188EE93E020E931E0F9013197F1F784
:101030000197D9F78CE061E00E947E11CE0163EA4E
:101040000E945107CE0161EA0E945107CE0160EC77
:101050000E945107CE0160E60E945107CE016CE26A
:101060000E94510784EF91E020E931E0F9013197C6
:10107000F1F70197D9F7CE016EE20E94510784EF94
:1010800091E020E931E0F9013197F1F70197D9F7C3
:10109000CE016FE20E94510780E49CE90197F1F7CD
:1010A000CE0166E20E94510780917206882311F0FA
:1010B00010927206809173068F3718F48FE7809331
:1010C000730680917406882311F010927406809143
:1010D00075068F3318F48FE380937506DF91CF91F7
:1010E00008958FE061E00E94F11080E161E00E94CC
:1010F000F11081E161E00E94F1108FE060E00E9458
:101100007E1180E160E00E947E1181E161E00E9439
:101110007E118CB580618CBD8CB580648CBD8CB526
:101120008C7F8CBD8DB581608DBD08950F931F930D
:101130008C010E947108C8010E94F107C8016FEA82
:101140000E945107C80164EA0E945107C80160E08B
:101150000E94E0071F910F91089589E191E069E9EC
:1011600071E040E853E00E941A0480E8E9E9F4E005
:10117000DF011D928A95E9F780917206882311F0AC
:1011800010927206809173068F3718F48FE7809360
:10119000730680917406882311F010927406809172
:1011A00075068F3318F48FE3809375060895CF92F8
:1011B000DF92EF92FF920F931F93CF93DF938C01F7
:1011C0006B017A01C0E0D0E034C0F601EC0FFD1FE6
:1011D00020812A3041F4809171068F5F80937106DF
:1011E0001092700619C02D30B9F0C80160917006D8
:1011F000409171060E94AB05809170068A5F8093D2
:10120000700690E08A3791053CF01092700680914C
:1012100071068F5F8093710680917106883040F06F
:10122000C8010E94AD0880917106815080937106BB
:101230002196CE15DF0548F2DF91CF911F910F91D6
:10124000FF90EF90DF90CF9008950F931F93142F8E
:10125000052F0E94D708812F902F1F910F9108957D
:10126000DF93CF930F92CDB7DEB76983BE016F5F77
:101270007F4F41E050E00E94D70881E090E00F905E
:10128000CF91DF9108951F920F920FB60F92112404
:10129000EF92FF920F931F932F933F934F935F9380
:1012A0006F937F938F939F93AF93BF93EF93FF932E
:1012B00080914506813009F469C00E9403109B01AA
:1012C000AC018CB1682F70E060747070809178050B
:1012D00090917905A0917A05B0917B0579018A01F9
:1012E000E81AF90A0A0B1B0BE0927405F0927505D7
:1012F000009376051093770580917405909175059C
:10130000A0917605B091770580529E44A040B040F0
:10131000D4F1672B19F4109244062CC0E0914406D6
:10132000F0E08091740590917505A0917605B091DB
:101330007705EE0FFF1FEE0FFF1FE458FA4F918362
:10134000808318C0E0914406F0E08091740590918C
:101350007505A0917605B0917705EE0FFF1FEE0F92
:10136000FF1FE458FA4F93838283809144068F5F76
:1013700080934406209378053093790540937A054D
:1013800050937B0503C0672BE9F2C8CFFF91EF9123
:10139000BF91AF919F918F917F916F915F914F918D
:1013A0003F912F911F910F91FF90EF900F900FBEE3
:1013B0000F901F9018958F929F92AF92BF92CF92ED
:1013C000DF92EF92FF920F931F93CF93DF938AE008
:1013D00060E00E947E1182E090E00E9429108AE085
:1013E00061E00E947E118AE090E00E9429108AE06C
:1013F00060E00E947E11E4EFF5E08491E6EDF5E017
:10140000E491CE2FD0E0CC0FDD1FCD53DA4FEE2488
:10141000FF248701FE01A591B491C82EDD240FC0E1
:1014200028E8E21623E1F20620E0020720E0120796
:1014300009F446C00894E11CF11C011D111D8C919A
:1014400090E08C219D218C159D0551F30FC088E8FB
:10145000E81683E1F80680E0080780E0180781F1CC
:101460000894E11CF11C011D111D03C0FE01A59192
:10147000B4918C9190E08C219D218C159D0539F7BC
:101480000E9403104B015C01FE01C591D49120C064
:1014900028E8E21623E1F20620E0020720E0120726
:1014A00079F08AE090E00E9429100E9403106819E8
:1014B00079098A099B096159724E8040904018F061
:1014C0006FEF7FEF22C00894E11CF11C011D111D7C
:1014D000888190E08C219D218C159D05C9F20E9488
:1014E0000310681979098A099B090E944F1D20E0A1
:1014F00030E048EE51E40E94B41C20E030E040E0CF
:101500005FE30E94031E0E941C1DCB01DF91CF915F
:101510001F910F91FF90EF90DF90CF90BF90AF9011
:101520009F908F900895EF92FF920F931F93162F25
:10153000042F80E2E82E87E0F82EC7016EE170E00C
:101540000E943E0CC701612F0E94C00CC701602F92
:101550000E94C00CC7010E94030D1F910F91FF90C4
:10156000EF900895CF93DF9380E297E06EE170E013
:101570000E943E0C80E297E063E00E94C00C80E293
:1015800097E00E94030D80E297E06EE170E00E9418
:101590003E0C80E297E06EE170E046E050E00E9491
:1015A000140D80E297E00E94480C069771F4C0E0A9
:1015B000D0E080E297E00E94510CFE01EA5BF94F17
:1015C00080832196C630D105A1F780E297E00E9482
:1015D000030DDF91CF9108950F931F938C0163E06A
:1015E00070E046E050E00E94B20A40914606209129
:1015F0004706742F60E030E0622B732B882777FD5D
:101600008095982F0E944F1D2FE135E84BE65FE350
:101610000E94031EF801648375838683978340913B
:10162000480620914906742F60E030E0622B732B4E
:10163000882777FD8095982F0E944F1D2FE135E870
:101640004BE65FE30E94031EF80160877187828783
:10165000938740914A0620914B06742F60E030E05A
:10166000622B732B882777FD8095982F0E944F1D42
:101670002FE135E84BE65FE30E94031EF801648723
:101680007587868797871F910F910895CF93DF9372
:10169000EC0183EA97E060E875E20E94B11181EF06
:1016A00097E040E855E260E070E00E9430138DE082
:1016B00061E00E94F1108DE060E00E947E118BE0FD
:1016C00061E00E94F1108BE060E00E947E1184E1F5
:1016D00060E00E94F11085E161E00E94F11086E176
:1016E00061E00E94F11087E161E00E94F11086E064
:1016F00061E00E94F1108AE061E00E94F11085E053
:1017000060E00E94F11089E061E00E94F11089ED33
:1017100096E060E070E00E94370C89ED96E060E0B2
:1017200070E00E94370C8E8F0E94290D84E00E9489
:10173000180D559A5D98809177068EBD0DB407FE01
:10174000FDCF8EB5809176068EBD0DB407FEFDCF20
:101750008EB55D9A10927E0680E18093CD0680E37F
:101760008093CE0680E28093CF0680E68093D006F9
:1017700080E48093D10680EC8093D20680E8809349
:10178000D30680E98093D4061092D50681E0809339
:10179000C40683E08093C50682E08093C60686E097
:1017A0008093C70684E08093C8068CE08093C906C6
:1017B00088E08093CA0689E08093CB061092CC061D
:1017C000CE010E949608CE010E9462078091190501
:1017D0008093D8068093D7068093D606F89410920B
:1017E000C0001092C1001092BF001092BE0080E3B2
:1017F0008093CF0086E08093C10080917200806466
:10180000809372007894F89487E060E00E94F11071
:1018100080916A008F7C806180936A00EE9A789450
:10182000CE010E94BD06CE0161E070E040E250E0D2
:101830000E94930ACE0162E070E040E050E00E9416
:10184000930ACE010E94EC0ADF91CF910895FC012A
:101850001382128280E395E091838083CF010E94FE
:10186000460B08958CE496E00E94270C0895F999A0
:10187000FECF72BD61BDF89A80B5089581E0809376
:101880001F076093FC0610921D0710921E07089513
:101890002091FB0630E08091FA06281B3109C9012E
:1018A00008954091FA068091FB06481718F02FEF33
:1018B0003FEF0AC0E42FF0E0E652F94F8081282F75
:1018C00030E04F5F4093FA06C9010895E091FA06AF
:1018D0008091FB06E81718F0EFEFFFEF06C0F0E08D
:1018E000E652F94F8081E82FF0E0CF010895089586
:1018F000109223071092220788EE93E0A0E0B0E058
:101900008093240790932507A0932607B093270779
:1019100088E395E090932107809320070895CF9264
:10192000DF92EF92FF920F931F93CF93DF937C018F
:101930006B018A0180911F078823A1F0C0E0D0E0ED
:101940000DC0D701ED91FC91D601AC0FBD1F0190E8
:10195000F081E02DC7016C9109952196C017D10740
:1019600080F304C0CB01642F0E94E60DC801DF9113
:10197000CF911F910F91FF90EF90DF90CF9008953E
:10198000DF93CF930F92CDB7DEB7FC0169838091CF
:101990001F078823C9F080911E07803238F081E04C
:1019A00090E09383828320E030E015C080911D0792
:1019B000E82FF0E0E350F94F998190838F5F809397
:1019C0001D0780931E0705C0CE01019661E00E94AD
:1019D000E60D21E030E0C9010F90CF91DF9108952D
:1019E0000F93062F8091FC066DEF76E040911E0765
:1019F00021E00E94910D10921D0710921E07109277
:101A00001F070F91089561E00E94F00C0895413284
:101A100008F040E2862F6AED76E00E94480D1092B1
:101A2000FA068093FB06089521E00E94070D0895B1
:101A30002CB5382F33702C7F322B3CBD2DB590E068
:101A4000959587959595879581702E7F822B8DBD75
:101A500008958FE061E00E94F11080E161E00E9452
:101A6000F11081E161E00E94F1108FE060E00E94DE
:101A70007E1180E160E00E947E1181E161E00E94C0
:101A80007E118CB580618CBD8CB580648CBD089551
:101A9000382F413210F040E042C080912C0788235B
:101AA000E1F791E090932C0720932E078FEF80931E
:101AB0009907109254074150409355074F5F9093F8
:101AC0002D0780912D07330F832B80932D07809155
:101AD0002F07813041F410922F0780912D078093BA
:101AE000BB0085EC01C085EE8093BC0080912C0783
:101AF0008130E1F380915407841710F4409154072A
:101B000020E030E00AC0FB01E20FF31FD901AC5C1A
:101B1000B84F8C9180832F5F3F4F2417A0F3842F01
:101B200008950F931F93582F122F413210F081E028
:101B30004AC080912C078823E1F782E080932C072C
:101B400000932E078FEF80939907109254074093CC
:101B50005507A4E3B7E0FB0102C081918D938E2F5E
:101B6000861B8417D0F310922D0780912D07550FF7
:101B7000852B80932D0780912F07813041F410929F
:101B80002F0780912D078093BB0085EC01C085EE67
:101B90008093BC00112321F080912C078230E1F367
:101BA000809199078F3F11F480E00DC080919907D3
:101BB000803211F482E007C080919907803311F0E0
:101BC00084E001C083E01F910F910895482F613296
:101BD00010F081E0089580912C07843011F082E0AC
:101BE000089560937707A6E5B7E0842F9C01F9017B
:101BF00002C081918D938E2F841B8617D0F380E0D5
:101C000008951F920F920FB60F9211242F933F93B6
:101C10004F935F936F937F938F939F93AF93BF93F4
:101C2000EF93FF938091B90090E0887F90708036A9
:101C3000910509F4F2C081369105CCF58832910501
:101C400009F47BC089329105B4F48031910509F41F
:101C50006FC0813191053CF4009709F447C10897A2
:101C600009F04FC165C08831910509F466C08097BD
:101C700009F047C182C08034910509F4A4C08134C1
:101C8000910544F48033910509F482C0C89709F0A6
:101C900038C189C08035910509F489C0883591051E
:101CA00009F496C08834910509F02BC1AEC088397B
:101CB000910509F413C189399105ECF48837910530
:101CC00009F4ABC0893791054CF48836910509F4C5
:101CD000A4C08037910509F014C19FC088389105D0
:101CE00009F4FCC08039910509F49DC08038910544
:101CF00009F007C198C0803B910509F4C6C0813B3B
:101D000091054CF4803A910509F49FC0883A9105F9
:101D100009F0F7C0BAC0803C910509F4E3C0883CE3
:101D2000910509F4DFC0883B910509F0EAC0C2C003
:101D300080912D078093BB00CFC090915407809174
:101D40005507981768F490915407E92FF0E0EC5C80
:101D5000F84F80818093BB009F5F90935407BCC075
:101D600080912E07882309F44BC085ED8093BC0039
:101D70008091BC0084FDFCCFC2C080E280939907B3
:101D800085ED8093BC008091BC0084FDFCCFB7C082
:101D900080E38093990785ED8093BC008091BC001F
:101DA00084FDFCCFACC088E3809399079BC08091F1
:101DB00054079091BB00E82FF0E0EC5CF84F908363
:101DC0008F5F80935407909154078091550782C08C
:101DD000809154079091BB00E82FF0E0EC5CF84F45
:101DE00090838F5F8093540780912E07882341F062
:101DF00085ED8093BC008091BC0084FDFCCF7FC04A
:101E000081E080932F0784EA6EC085ED8093BC004B
:101E10008091BC0084FDFCCF72C083E080932C07CE
:101E20001092980759C080919807803208F056C0E8
:101E3000809198079091BB00E82FF0E0E858F84FA8
:101E400090838F5F8093980747C080919807803276
:101E500030F4E0919807F0E0E858F84F108285EDF3
:101E60008093BC008091BC0084FDFCCF10922C07B5
:101E700060919807E0913207F091330788E797E087
:101E800070E00995109298072DC084E080932C078C
:101E90001092760710927707E0913007F0913107A2
:101EA000099580917707882329F481E0809377074B
:101EB0001092560790917607E92FF0E0EA5AF84F12
:101EC00080818093BB009F5F909376079091760707
:101ED00080917707981710F485EC01C085E880930E
:101EE000BC000FC085EC8093BC0009C0109299071C
:101EF00085ED8093BC008091BC0084FDFCCF1092E6
:101F00002C07FF91EF91BF91AF919F918F917F919E
:101F10006F915F914F913F912F910F900FBE0F9056
:101F20001F9018950895EF92FF920F931F938CE4E2
:101F300096E00E9404078CE496E00E94DB097C0195
:101F40008CE496E060E071E00E949F150027F7FCAA
:101F50000095102FC801B7010E944F1DAB01BC01B5
:101F60008CE496E022E030E00E9486168CE496E055
:101F70000E946207DCCF1F920F920FB60F921124BE
:101F80002F933F938F939F93AF93BF9380919E071F
:101F900090919F07A091A007B091A1073091A2074F
:101FA0000196A11DB11D232F2D5F2D3720F02D5738
:101FB0000196A11DB11D2093A20780939E079093C7
:101FC0009F07A093A007B093A10780919A079091D3
:101FD0009B07A0919C07B0919D070196A11DB11D83
:101FE00080939A0790939B07A0939C07B0939D07BB
:101FF000BF91AF919F918F913F912F910F900FBE05
:102000000F901F9018959FB7F89420919A073091E0
:102010009B0740919C0750919D0786B5A89B06C0E1
:102020008F3F21F02F5F3F4F4F4F5F4F9FBF542F88
:10203000432F322F2227280F311D411D511D82E0D1
:10204000220F331F441F551F8A95D1F7B901CA01CA
:102050000895019739F0880F991F880F991F0297EB
:102060000197F1F70895789484B5826084BD84B5B2
:10207000816084BD85B5826085BD85B5816085BD83
:10208000EEE6F0E0808181608083E1E8F0E010829C
:10209000808182608083808181608083E0E8F0E0DD
:1020A000808181608083E1E9F0E0808182608083CB
:1020B000808181608083E0E9F0E0808181608083BD
:1020C000E1ECF0E0808184608083808182608083A5
:1020D000808181608083E3ECF0E080818160808397
:1020E000E0ECF0E0808182608083E2ECF0E08081CF
:1020F00081608083EAE7F0E0808184608083808172
:102100008260808380818160808380818068808319
:102110000895EF92FF920F931F93CF93DF937B016C
:102120008C013FB7F89480919A0790919B07A091FA
:102130009C07B0919D0726B5A89B05C02F3F19F0BD
:102140000196A11DB11D3FBFBA2FA92F982F882737
:10215000820F911DA11DB11D52E0880F991FAA1F6A
:10216000BB1F5A95D1F7EC0130C00E94071B3FB747
:10217000F89480919A0790919B07A0919C07B09149
:102180009D0726B5A89B05C02F3F19F00196A11DFC
:10219000B11D3FBFBA2FA92F982F8827820F911DFD
:1021A000A11DB11D32E0880F991FAA1FBB1F3A95D0
:1021B000D1F78C1B9D0B885E9340B8F20894E10820
:1021C000F10801091109C851DC4FE114F1040105BE
:1021D000110559F6DF91CF911F910F91FF90EF906C
:1021E0000895CF93DF93482F50E0CA0181519A4F51
:1021F000FC0134914F525A4FFA018491882369F1BE
:1022000090E0880F991FFC01E955FA4FA591B49110
:10221000FC01EB54FA4FC591D491662351F42FB7CA
:10222000F8948C91932F909589238C93888189239E
:102230000BC0623061F42FB7F8948C91932F909576
:1022400089238C938881832B88832FBF06C09FB7F7
:10225000F8948C91832B8C939FBFDF91CF9108953D
:10226000883071F1893068F4823031F1833020F4A4
:10227000813009F042C01DC0833089F08430E9F517
:1022800012C08B3059F18C3028F48930E9F08A3053
:10229000A1F51EC08C3031F18E3079F529C08091C6
:1022A00080008F7703C0809180008F7D80938000B5
:1022B000089584B58F7702C084B58F7D84BD08955D
:1022C000809190008F7707C0809190008F7D03C030
:1022D00080919000877F8093900008958091C00046
:1022E0008F7703C08091C0008F7D8093C0000895D8
:1022F0008091C200877F8093C2000895FF920F9360
:102300001F93F62E482F50E0CA01835F994FFC01BE
:102310002491CA0181519A4FFC0114914F525A4F96
:10232000FA0104910023C9F0222319F0822F0E94A0
:102330003011E02FF0E0EE0FFF1FEB54FA4FA591A4
:10234000B4919FB7F894FF2021F48C9110958123CC
:1023500002C08C91812B8C939FBF1F910F91FF9096
:1023600008950895FC012485858530E0205C3F4F69
:10237000281B31092F733070C9010895FC01948521
:102380008585981719F42FEF3FEF06C08585E80F74
:10239000F11D8685282F30E0C9010895DC011C96C7
:1023A0009C911C971D968C911D97981719F42FEFEF
:1023B0003FEF10C01D968C911D97FD01E80FF11D98
:1023C00096851D968C911D978F5F8F731D968C93AC
:1023D000292F30E0C90108951092A6071092A50791
:1023E00088EE93E0A0E0B0E08093A7079093A80761
:1023F000A093A907B093AA0788E495E09093A40757
:102400008093A30708950F931F93DF93CF930F92A9
:10241000CDB7DEB78C01698380912105882369F0EF
:1024200083E0BE016F5F7F4F41E050E00E948D1856
:102430001816190614F49C0107C081E090E0F80119
:102440009383828320E030E0C9010F90CF91DF9128
:102450001F910F91089583E00E94641808950F93CF
:102460001F93CF93DF938C01FC010FC082E00E9489
:102470004A179C01FFEF8F3F9F0799F0F801848571
:10248000E80FF11D2687F801C4878485C82FD0E0A6
:102490002196CF73D070F801858590E0C817D907D1
:1024A00029F7DF91CF911F910F910895FC01808151
:1024B0008E5F808380E867E376E042E450E00E942C
:1024C00063170895FC0181819081913A59F481321A
:1024D00009F04CC080E06AE175E047E050E00E94FE
:1024E000631742C0913209F041C0803239F48AE169
:1024F00095E067E070E00E944C1836C0823209F027
:1025000035C082818093210580911A0590911B0529
:10251000A0911C05B0911D05805B9440A040B04087
:1025200019F58091210580FD12C087E797E7909308
:102530000108809300082BE088E190E00FB6F89442
:10254000A895809360000FBE209360000DC088E1C5
:102550000FB6F89480936000109260000FBEA895AB
:10256000109201081092000881E0089580E008951B
:1025700008951F920F920FB60F9211242F933F933D
:102580004F938F939F93EF93FF938091C80082FDA9
:1025900019C04091CE0080910F08282F30E02F5FA6
:1025A0003F4F2F7330708091100890E02817390743
:1025B00059F0E0910F08F0E0EF50F84F42A320935C
:1025C0000F0802C08091CE00FF91EF919F918F91F3
:1025D0004F913F912F910F900FBE0F901F90189524
:1025E00080910F082091100890E0805C9F4F821B23
:1025F00091098F739070892B11F00E94B812089581
:102600001F920F920FB60F9211242F938F939F93C7
:10261000EF93FF939091110880911208981731F46D
:102620008091C9008F7D8093C90010C0E09112088D
:10263000F0E0ED5AF74F20818091120890E001966A
:102640008F739070809312082093CE00FF91EF91CA
:102650009F918F912F910F900FBE0F901F90189503
:10266000AF92BF92DF92EF92FF920F931F93CF939F
:10267000DF93EC017A018B01DD24403081EE5807B5
:1026800080E0680780E0780711F0DD24D39491E0C2
:10269000A92EB12CE889F989DD2069F0C5010C8CDF
:1026A00002C0880F991F0A94E2F7808360E079E006
:1026B0008DE390E005C0108260E874E88EE190E060
:1026C000A80197010E94891E21503040404050408F
:1026D000569547953795279580E12030380720F0AB
:1026E000DD2011F0DD24D6CFEC85FD853083EE852D
:1026F000FF8520831D8EEA89FB89408121E030E03F
:10270000C901088C02C0880F991F0A94E2F7482B70
:102710004083EA89FB894081C901098C02C0880F86
:10272000991F0A94E2F7482B4083EA89FB8940818C
:10273000C9010A8C02C0880F991F0A94E2F7482B3E
:102740004083EA89FB8980810B8C02C0220F331FF2
:102750000A94E2F7209528232083DF91CF911F91DF
:102760000F91FF90EF90DF90BF90AF900895FC0124
:10277000268D878D30E0205C3F4F281B31092F7359
:102780003070C9010895FC01968D878D981719F452
:102790002FEF3FEF06C0878DE80FF11D82A1282F94
:1027A00030E0C9010895DC015E969C915E975F96CA
:1027B0008C915F97981719F42FEF3FEF10C05F9639
:1027C0008C915F97FD01E80FF11D92A15F968C91AE
:1027D0005F978F5F8F735F968C93292F30E0C901CD
:1027E0000895DC015D968C915D97882339F05096B1
:1027F000ED91FC915197808186FFF9CF5D961C92F7
:102800000895DC0190968C919097282F30E02F5FEF
:102810003F4F2F73307091968C91919790E02817CD
:102820003907C9F390968C919097FD01E80FF11D3F
:10283000EE59FF4F608390962C9390975296ED91AE
:10284000FC915397208181E090E05B960C905B9720
:1028500002C0880F991F0A94E2F7282B208381E099
:102860005D968C935D975096ED91FC915197808188
:102870008064808381E090E008951092F4071092C4
:10288000F30788EE93E0A0E0B0E08093F507909323
:10289000F607A093F707B093F8078AE595E09093C1
:1028A000F2078093F107109212088091120880932A
:1028B0001108109210088091100880930F088DEC79
:1028C00090E09093FE078093FD078CEC90E090934E
:1028D00000088093FF0788EC90E0909302088093B3
:1028E000010889EC90E090930408809303088AEC37
:1028F00090E090930608809305088EEC90E090930A
:1029000008088093070884E08093090883E0809397
:102910000A0887E080930B0885E080930C0881E02B
:1029200080930D080895CF93DF930E94331082EABD
:1029300098E00E946F180E94930FC0EFD2E10E94AE
:10294000920F2097E1F30E94F012F9CFCF92DF921D
:10295000EF92FF920F931F93CF93DF937C016B0154
:102960008A01C0E0D0E00FC0D6016D916D01D701A2
:10297000ED91FC910190F081E02DC7010995C80F00
:10298000D91F015010400115110571F7CE01DF91DB
:10299000CF911F910F91FF90EF90DF90CF9008950E
:1029A000CF93DF93EC016115710519F420E030E05D
:1029B0000FC0DB010D900020E9F71197A61BB70BA4
:1029C000E881F9810280F381E02DAD0109959C0138
:1029D000C901DF91CF9108954F925F927F928F92BC
:1029E0009F92AF92BF92CF92DF92EF92FF920F939E
:1029F0001F93DF93CF93CDB7DEB7A1970FB6F894AF
:102A0000DEBF0FBECDBF2C01742ECB01223008F4E7
:102A10002AE019A231E2C32ED12CCC0EDD1E822E6B
:102A20009924AA24BB24672D752FA50194010E9427
:102A3000891E79018A01C801B701A50194010E948C
:102A40006A1E472D461B0894C108D1084A3014F469
:102A5000405D01C0495CF6014083E114F1040105C9
:102A6000110521F07E2C5F2DC801DDCFC201B6011A
:102A70000E94D014A1960FB6F894DEBF0FBECDBF52
:102A8000CF91DF911F910F91FF90EF90DF90CF904A
:102A9000BF90AF909F908F907F905F904F900895E0
:102AA000DC012115310541F4ED91FC910190F0819B
:102AB000E02D642F099508950E94EC140895CF929B
:102AC000DF92EF92FF920F931F93CF93DF93EC016E
:102AD0006A017B012115310541F4E881F9810190FA
:102AE000F081E02D642F09951FC02A303105D1F403
:102AF00077FF17C0E881F9810190F081E02D6DE248
:102B000009958C0144275527BA014C195D096E09B6
:102B10007F09CE012AE00E94EC149801280F391F8A
:102B200004C02AE00E94EC149C01C901DF91CF91FE
:102B30001F910F91FF90EF90DF90CF9008950E942A
:102B4000D01408957F928F929F92AF92BF92CF92AE
:102B5000DF92EF92FF920F931F93CF93DF934C017D
:102B60007A018B01722ECB01BA01A80197010E9454
:102B7000661E882321F0C4016BE071E021C0C0E033
:102B8000D0E057016801E894D7F8C601B5012FEFEE
:102B90003FEF4FE75FE70E94661E882351F4C601AE
:102BA000B5012FEF3FEF4FE75FE70E94B01C18160B
:102BB00014F0C1E0D0E0219739F0C4016FE071E07A
:102BC0000E94D014EC0193C0C801B7012FEF3FEF72
:102BD0004FE75FE40E94FF1D181654F0C801B701CB
:102BE0002FEF3FEF4FE75FEC0E94B01C882324F4E7
:102BF000C40163E171E0E4CFC801B70120E030E037
:102C000040E050E00E94B01C87FD03C0C0E0D0E06F
:102C10000EC0D401ED91FC910190F081E02DC40132
:102C20006DE20995EC0117FB109517F9109520E05E
:102C300030E040E05FE3DD240BC0CA01B90120E0D1
:102C400030E040E251E40E94B41C9B01AC01D394FB
:102C5000D71498F3C801B7010E944C1C5B016C01AA
:102C60000E94211D7B018C01C401B801A7012AE04B
:102C700030E00E945015C80FD91F772039F0C401E9
:102C800067E171E00E94D014C80FD91FC801B701D5
:102C90000E944D1D9B01AC01C601B5010E944B1C59
:102CA00024C020E030E040E251E40E94031E7B019A
:102CB0008C010E941C1D5B016C01CC24B7FCC094EC
:102CC000DC2CC401B601A5012AE030E00E945F15AA
:102CD000C80FD91FC601B5010E944F1D9B01AC0151
:102CE000C801B7010E944B1C7A947720D1F6CE011F
:102CF000DF91CF911F910F91FF90EF90DF90CF90D8
:102D0000BF90AF909F908F907F9008950E94A215E2
:102D100008958230B9F0833028F4882351F081304F
:102D2000F9F40AC08430B9F0843090F08530C1F4F1
:102D300015C010926E00089580916F008D7F809372
:102D40006F000895809170008D7F809370000895CA
:102D500010927100089510927200089510927300FD
:102D600008951F920F920FB60F9211242F933F9345
:102D70004F935F936F937F938F939F93AF93BF9383
:102D8000EF93FF938091930890919408A0919508F8
:102D9000B09196080097A105B10551F1E09197080F
:102DA000F09198088081909199088927808380917B
:102DB000930890919408A0919508B09196081816E0
:102DC00019061A061B060CF5809193089091940839
:102DD000A0919508B09196080197A109B109809337
:102DE000930890939408A0939508B09396080DC00B
:102DF00083E00E948916E0919708F09198089081ED
:102E000080919908809589238083FF91EF91BF91EC
:102E1000AF919F918F917F916F915F914F913F9172
:102E20002F910F900FBE0F901F901895282F809113
:102E30009C088823C1F057FF1AC015C028989093AA
:102E40009B088091F1008193E217F307B9F74115D0
:102E5000510539F08091F200882319F48BE68093B4
:102E6000E800AFBF02C04FEF5FEFCA010895AFB7F0
:102E7000F89427702093E9008091F200282F30E029
:102E8000241735070CF4A901FB019B01240F311D08
:102E900094E6DACFDF93CF930F92CDB7DEB7BE01C2
:102EA0006F5F7F4F41E050E00E941617019719F0C5
:102EB0002FEF3FEF03C08981282F30E0C9010F9029
:102EC000CF91DF910895FF920F931F93F82E142F47
:102ED000052F40919F085091A008212F302FC90144
:102EE000DC01FB016EEF29C0F7FE02C0949101C026
:102EF000908120919D0830919E0824173507ACF4ED
:102F00008091E8008570E1F38091E80082FF03C0C2
:102F10002FEF3FEF17C09093F100C90101968F7317
:102F20009070892B11F46093E8002F5F3F4F30932E
:102F30009E0820939D08119731961097A9F6812F2E
:102F4000902F9C01C9011F910F91FF9008951F932D
:102F5000782FE92F162F20919D0830919E08A0917F
:102F60009F08B091A0082A173B07C4F48091E8009D
:102F70008570E1F38091E80082FD16C0812F90E01A
:102F80000196880F991F8093F100C90101968F73F4
:102F90009070892B19F48EEF8093E8002F5F3F4FDC
:102FA00030939E0820939D0820919D0830919E08A3
:102FB0002A173B07A4F48091E8008570E1F3809123
:102FC000E80082FD12C083E08093F100C901019600
:102FD0008F739070892B19F48EEF8093E8002F5F28
:102FE0003F4F30939E0820939D0840919D0850913B
:102FF0009E08872F9E2FFC0170E06EEF43C09491D6
:103000004A175B07A4F48091E8008570E1F3809192
:10301000E80082FF02C020E00DC09093F100CA01D9
:1030200001968F739070892B11F46093E8004F5FC5
:103030005F4F21E04A175B07A4F48091E800857098
:10304000E1F38091E80082FF02C080E00DC01092A1
:10305000F100CA0101968F739070892B11F460936F
:10306000E8004F5F5F4F81E0319690E030E08223CF
:103070009323892B31F450939E0840939D0880E060
:1030800009C07F5F711708F4BACF50939E08409330
:103090009D0881E01F9108959C018091E80082FFC6
:1030A000FCCFF901260F311D03C08091F1008193FF
:1030B000E217F307D1F7289884E680939B088BEFFB
:1030C0008093E800CB0108958093E9008091F2009D
:1030D000882319F08AE38093E800089508951092F8
:1030E0009C0881E08093D70080EA8093D80082E139
:1030F00089BD09B400FEFDCF61E070E080E090E0A2
:103100000E94891080E98093D8008CE08093E200CF
:103110001092E000559A209A08955F926F927F92E4
:103120008F929F92AF92BF92CF92DF92EF92FF92D7
:103130000F931F93CF93DF93E82E842E752E8091EB
:103140009C08882371F18B01242F352FC901EC01D4
:10315000AAEFFA2EF7E09F2E9E20E0E45E2E8E2D41
:1031600090E070E2A72EB12CA822B9226AE3662E65
:1031700050E4C52ED12CC822D92258C09FB7F8944C
:103180009092E9008091E80085FD02C020E004C033
:103190008091F200252D281B9FBF222361F4FA9411
:1031A00019F42FEF3FEF4DC061E070E080E090E058
:1031B0000E9489103BC0822F90E0C817D9070CF4F9
:1031C0002C2FC21BD1094FB7F8949092E900A1149B
:1031D000B10421F406C01092F10021502223D9F746
:1031E00019C0E7FC03C0F801922F10C0C801322FAC
:1031F00006C0FC010196E491E093F10031503323C5
:10320000C1F706C081918093F10091509923D1F7C5
:10321000020F111D8091E80085FF05C0209729F459
:10322000C114D10411F06092E8004FBF209709F05B
:10323000A5CF5D9884E680939A08282D372DC90183
:103240009C01C901DF91CF911F910F91FF90EF90E9
:10325000DF90CF90BF90AF909F908F907F906F90B6
:103260005F9008951F920F920FB60F9211242F9323
:103270003F934F935F936F937F938F939F93AF93FE
:10328000BF93EF93FF938091E1001092E100982F9C
:1032900083FF0FC01092E90081E08093EB00109251
:1032A000EC0082E38093ED0010929C0888E080930C
:1032B000F00092FF34C083E08093E9008091F20037
:1032C000882319F08AE38093E8008FB7F89492E09E
:1032D0009093E9009091F2008FBF992321F083EA47
:1032E00097E00E942F1280919A08882351F08091D4
:1032F0009A08815080939A0880919A08882309F44B
:103300005D9A80919B08882351F080919B088150A1
:1033100080939B0880919B08882309F4289AFF9149
:10332000EF91BF91AF919F918F917F916F915F913D
:103330004F913F912F910F900FBE0F901F901895B6
:103340000F931F93DF93CF930F92CDB7DEB7198200
:103350008E010F5F1F4FC8010E945612C8010E94C4
:103360003F1C898190E00F90CF91DF911F910F91C9
:1033700008951F920F920FB60F921124EF92FF92B1
:103380001F932F933F934F935F936F937F938F93ED
:103390009F93AF93BF93EF93FF93DF93CF93CDB7FB
:1033A000DEB76197DEBFCDBF1092E9008091E800E3
:1033B00083FF14C1FE0131969E01275F3F4F03C07A
:1033C0008091F1008193E217F307D1F7289884E602
:1033D00080939B0882EF8093E800998197FF05C056
:1033E0008091E80080FFFCCF03C08EEF8093E8005F
:1033F000292F30E0C90180769070892B09F0C7C071
:103400008A81882329F41092F1001092F100DBC028
:10341000813009F4D8C0833009F4D5C0853049F42F
:103420008091E80080FFFCCF8B8180688093E3006F
:10343000CAC0863009F081C01C81EF80F884123048
:10344000C1F51092E90010929E0810929D0810920A
:10345000A00810929F080E94A01999E0FE013996D9
:10346000DF01292F1D922A95E9F799871A8791E0A4
:103470009E8790E8988B9AEF998B20919D083091C8
:103480009E08275F3F4F3C872B878D871092E9006E
:1034900010929E0810929D08F092A008E0929F085A
:1034A00080E0BF0149E050E00E9463170E94A0192C
:1034B0008AC01092E90010929E0810929D08F09226
:1034C000A008E0929F08123241F482E290E00E944C
:1034D000371C892B09F47BC076C0113079F488E061
:1034E000E816F10419F481E08093A1088091A10805
:1034F000882309F070C0EAE9F6E018C0133009F03B
:1035000066C08B81882319F4E9E7F6E00FC08230AA
:1035100021F48DE796E060E106C0813009F057C0E4
:103520008EE896E06BE00E94A7174BC0449180E8BC
:10353000BF0150E00E94631746C0873009F447C0BE
:10354000883021F481E08093F1003DC08930D9F5C5
:1035500023703070232BD9F5EFEBF6E091E031E0EA
:1035600026E39093E9003093EB0084918093EC0084
:103570002093ED009F5F3196953099F78EE7809309
:10358000EA001092EA008B8180939C081CC08F8116
:1035900098851092E90010929E0810929D089093D1
:1035A000A00880939F088D81882329F4CE0101967D
:1035B0000E94621206C0823051F4CE0101960E9430
:1035C000081B882321F08EEF8093E80007C081E27A
:1035D0008093EB0003C0ECEAF6E0A8CF6196DEBF73
:1035E000CDBFCF91DF91FF91EF91BF91AF919F91AF
:1035F0008F917F916F915F914F913F912F911F918B
:10360000FF90EF900F900FBE0F901F9018950895A8
:10361000FC0191818081813A31F4913089F080E020
:10362000933089F40DC0813269F49B3021F482819A
:103630008093220505C09A3029F482818093230566
:1036400081E0089580E00895EF92FF920F931F9319
:103650008C01E62EDC01ED91FC910480F581E02DDA
:103660000995F82ED801ED91FC910680F781E02DA7
:10367000C8016E2D09958F2D90E01F910F91FF903D
:10368000EF9008951092A3081092A7081092A60830
:103690008AE695E09093A5088093A4080895EF9298
:1036A000FF920F931F93DF93CF930F92CDB7DEB7A7
:1036B00089838B017A0184E0BE016F5F7F4F41E017
:1036C00050E00E948D1884E4B801A7010E948D1873
:1036D0000F90CF91DF911F910F91FF90EF90089580
:1036E00082E048E050E00E944F1B0895FC011682E2
:1036F0001782108611861286138614823496BF01B3
:103700000E94701B0895DC01683810F0685829C0C9
:10371000E62FF0E067FF13C0E058F04081E090E052
:1037200002C0880F991FEA95E2F7809514962C91B4
:103730001497282314962C93149760E012C0EF5B23
:10374000F84F6491662319F420E030E01DC067FF54
:1037500008C014968C9114978D7F14968C931497AF
:103760006F77FD0190E0662321F08681861709F4CA
:1037700016829F5F31969630B1F7CD011496BD0148
:103780000E94701B21E030E0C9010895CF93DF93C0
:10379000DC01683810F0685825C0E62FF0E067FFBC
:1037A00012C0E058F04081E090E002C0880F991FFD
:1037B000EA95E2F714962C911497282B14962C93E3
:1037C000149760E00FC0EF5BF84F64916623D9F166
:1037D00067FF08C014968C911497826014968C939E
:1037E00014976F7716968C9116978617A9F11796EE
:1037F0008C911797861781F118968C9118978617D8
:1038000059F119968C911997861731F11A968C9166
:103810001A97861709F11B968C911B978617E1F072
:10382000ED01E0E0F0E09E2F8E81882321F4EA0F85
:10383000FB1F668306C09F5F31962196E630F10537
:1038400091F7963049F481E090E013969C938E9323
:10385000129720E030E007C0CD011496BD010E9410
:10386000701B21E030E0C901DF91CF91089580E81D
:1038700063EC76E045E650E00E9463170895FC0192
:1038800080818F5F808380E868E277E049E150E0E3
:103890000E94631708955058BB27AA270ED075C100
:1038A00066D130F06BD120F031F49F3F11F41EF45B
:1038B0005BC10EF4E095E7FB51C1E92F77D180F3AE
:1038C000BA17620773078407950718F071F49EF51D
:1038D0008FC10EF4E0950B2EBA2FA02D0B01B9016C
:1038E00090010C01CA01A0011124FF27591B99F076
:1038F000593F50F4503E68F11A16F040A22F232F82
:10390000342F4427585FF3CF469537952795A795D1
:10391000F0405395C9F77EF41F16BA0B620B730B78
:10392000840BBAF09150A1F0FF0FBB1F661F771FE9
:10393000881FC2F70EC0BA0F621F731F841F48F49E
:10394000879577956795B795F7959E3F08F0B3CF24
:103950009395880F08F09927EE0F9795879508950E
:10396000D9D008F481E008950CD00FC107D140F000
:10397000FED030F021F45F3F19F0F0C0511139C191
:10398000F3C014D198F39923C9F35523B1F3951BD0
:10399000550BBB27AA2762177307840738F09F5F70
:1039A0005F4F220F331F441FAA1FA9F333D00E2EDF
:1039B0003AF0E0E830D091505040E695001CCAF74C
:1039C00029D0FE2F27D0660F771F881FBB1F261711
:1039D00037074807AB07B0E809F0BB0B802DBF01E4
:1039E000FF2793585F4F2AF09E3F510568F0B6C0FD
:1039F00000C15F3FECF3983EDCF3869577956795C1
:103A0000B795F7959F5FC9F7880F911D9695879594
:103A100097F90895E1E0660F771F881FBB1F6217B3
:103A200073078407BA0720F0621B730B840BBA0B71
:103A3000EE1F88F7E095089504D06894B111D9C0BD
:103A40000895BCD088F09F5790F0B92F9927B751AF
:103A5000A0F0D1F0660F771F881F991F1AF0BA9552
:103A6000C9F712C0B13081F0C3D0B1E00895C0C031
:103A7000672F782F8827B85F39F0B93FCCF3869548
:103A800077956795B395D9F73EF4909580957095A5
:103A900061957F4F8F4F9F4F0895E89409C097FB22
:103AA0003EF490958095709561957F4F8F4F9F4F15
:103AB0009923A9F0F92F96E9BB279395F695879559
:103AC00077956795B795F111F8CFFAF4BB0F11F41C
:103AD00060FF1BC06F5F7F4F8F4F9F4F16C08823C3
:103AE00011F096E911C0772321F09EE8872F762FF9
:103AF00005C0662371F096E8862F70E060E02AF03A
:103B00009A95660F771F881FDAF7880F9695879525
:103B100097F90895990F0008550FAA0BE0E8FEEFFA
:103B200016161706E807F907C0F012161306E40781
:103B3000F50798F0621B730B840B950B39F40A267A
:103B400061F0232B242B252B21F408950A2609F458
:103B5000A140A6958FEF811D811D089597F99F675C
:103B600080E870E060E008959FEF80EC0895002405
:103B70000A941616170618060906089500240A94D2
:103B800012161306140605060895092E0394000C58
:103B900011F4882352F0BB0F40F4BF2B11F460FFE7
:103BA00004C06F5F7F4F8F4F9F4F089557FD905810
:103BB000440F551F59F05F3F71F04795880F97FBF1
:103BC000991F61F09F3F79F08795089512161306AB
:103BD0001406551FF2CF4695F1DF08C016161706DA
:103BE0001806991FF1CF869571056105089408950F
:103BF000E894BB2766277727CB0197F908958ADFDA
:103C000008F48FEF08950BD0C0CFB1DF28F0B6DFF6
:103C100018F0952309F0A2CFA7CF1124EACFC6DF71
:103C2000A0F3959FD1F3950F50E0551F629FF001CF
:103C3000729FBB27F00DB11D639FAA27F00DB11D28
:103C4000AA1F649F6627B00DA11D661F829F2227B1
:103C5000B00DA11D621F739FB00DA11D621F839F38
:103C6000A00D611D221F749F3327A00D611D231F0E
:103C7000849F600D211D822F762F6A2F11249F575C
:103C800050408AF0E1F088234AF0EE0FFF1FBB1F7F
:103C9000661F771F881F91505040A9F79E3F51051E
:103CA00070F05CCFA6CF5F3FECF3983EDCF38695D7
:103CB00077956795B795F795E7959F5FC1F7FE2BC9
:103CC000880F911D9695879597F9089523DF880BA6
:103CD000990B0895629FD001739FF001829FE00DC0
:103CE000F11D649FE00DF11D929FF00D839FF00D7B
:103CF000749FF00D659FF00D9927729FB00DE11D27
:103D0000F91F639FB00DE11DF91FBD01CF01112403
:103D10000895A1E21A2EAA1BBB1BFD010DC0AA1F0C
:103D2000BB1FEE1FFF1FA217B307E407F50720F024
:103D3000A21BB30BE40BF50B661F771F881F991F9F
:103D40001A9469F760957095809590959B01AC01E8
:103D5000BD01CF010895EE0FFF1F0590F491E02DF6
:063D60000994F894FFCF66
:103D660044697374616E63653A20006E616E006922
:103D76006E66006F7666002E0000000000000000F0
:103D8600000000000000000000000000000000002D
:103D9600000000000000000000000000000000001D
:103DA600000000000000000000000000000000000D
:103DB60000000000000000000000000000000000FD
:103DC60000000000000000000000000000000000ED
:103DD60000000000000000000000000000000000DD
:103DE60000000000000000000000000000000000CD
:103DF60000000000000000000000000000000000BD
:103E060000010101030307070F0F0F0F0F0F070331
:103E1600010000000000000000000000000000009B
:103E2600000000000000000000000000000000008C
:103E3600000000000000000000000000000000007C
:103E4600000000000000000000000000000000006C
:103E5600000000000000000000000000000000005C
:103E66000000000000000000000000010F07000035
:103E760000000000000000000003070F3F7F7FFFE7
:103E8600FFFFFFFFFFFFFFFFFFFFFFFEFEFCFCFC47
:103E9600FC780000000000000000000000000000A8
:103EA600000000000000000000000000000000000C
:103EB60000000000000000000000000000000000FC
:103EC60000000000000000000000000000000000EC
:103ED60000003FFFFFFFFFFFFFFF3800000000006C
:103EE6000183E1F37B7F3F3F1F1F3FFFFFFF1F3F24
:103EF6007F7FFFE7C78702020280E0F0F8F8F8FC50
:103F0600FEFEFFFFFFFFFFFFFFFF1F0F0707030375
:103F160001000000000000060F1F1F1F1F3F3F3F4C
:103F26003F3F3F3F3F1F1F0F0F070300003F3F3F2D
:103F36003F3F3F3F3F3F3F3F3F3F1F1F0F070000B1
:103F460000003F3F3F3F3F1F0F1F1F1F1F1E1F1F2A
:103F56001F0EFFFFFFFFFFFFFFFF030307070F1FF4
:103F66001F1F0E048080808087CFCFDFDFDFDFE07A
:103F7600E0E0E0E0F07070300000000000000000BB
:103F860000000000008080C0C1E1E1F1F3FFFFFF07
:103F9600FFFFFFFF7F3F0F00FFFFFFFFFFFF1F0336
:103FA60007070F0F0FBFFFFFFFFEF8F0070F1F1FDA
:103FB6001F3F3F3C3C383838FFFFFFFFFFFFFF0045
:103FC6000000FFFFFFFFFFFFFF8000000000000072
:103FD6000000C0FFFFFFFFFFFFFFFFFFDF8F8F0F18
:103FE600070301000000003FFFFFFFFFFFF8C000CE
:103FF6000000000000000000000000000F7FFFFF2F
:10400600FFFFFFFFFFFFFFFFFFFFFFFEFEFEFCFCC3
:10401600F8F8F0F0E0C08000C0FFFFFFFFFFFFFFF1
:10402600F7F0F0E0C0C080800000000080E0E0E033
:10403600F0F0F0F0F0F0F0F0F0F0F0F0F0F0F0006A
:104046000000F0F0F0F0F0F0F000000000000000DA
:10405600000000F0F0F0F0F0F0C0008080C0E0E07A
:10406600E0E0E0000000F0F0F0F0F0F0800000008A
:10407600000000000000000000000000808080803A
:10408600808080808080000000000000000000002A
:1040960000000000000000000000E0FCFCFCFCFC4E
:1040A600F8F83000000000000000000000000000EA
:1040B60000000000000000000000000000000000FA
:1040C60000000000000000000000000000000000EA
:1040D60000000000000000000000000000000000DA
:1040E60000000000000000000000000000000000CA
:1040F60000000000000000000000000000000000BA
:1041060000000000000000000000000000000000A9
:104116000000000000000000000000000000000099
:104126000000000000000000000000000000000089
:104136000000000000000000000000000000000079
:104146000000000000000000000000000000000069
:104156000000000000000000000000000000000059
:104166000000000000000000000000000000000049
:104176000000000000000000006400E100000000F4
:10418600000001010302010007060504000000000B
:104196003009250900000000C00C8F0C480C510C9A
:1041A600660C770C000000000312A614B211CE11A3
:1041B600BE112B122F12000000000114A614B71313
:1041C600D313C313F11300000000241BA614C61B4F
:0441D600831B761BB6
:00000001FF
