:100000000C94E7030C940F040C940F040C940F044D
:100010000C940F040C940F040C940F040C944309DB
:100020000C940F040C940F040C94A1180C94281930
:100030000C940F040C940F040C940F040C940F04F4
:100040000C940F040C940F040C940F040C940F04E4
:100050000C940F040C940F040C940F040C94DF0FF9
:100060000C940F040C940B130C9452130C940F0467
:100070000C940F040C940F040C940F040C940F04B4
:100080000C9420160C9444040C940F040C940F044C
:100090000C94DB0D0C940F040C9457040C940F0477
:1000A0000C940F040C940F040C940F040000000037
:1000B000007CDAF2DA7C7CD6F2D67C387C3E7C3866
:1000C000183C7E3C1838EABEEA38387AFE7A3800A6
:1000D000183C1800FFE7C3E7FF0018241800FFE7EB
:1000E000DBE7FF0C125C607064949E946402FEA0D7
:1000F000A0E002FEA0A4FC5A3CE73C5AFE7C383843
:10010000101038387CFE2844FE4428FAFA00FAFA27
:100110006090FE80FE006691A95606060606062936
:1001200045FF452910207E201008047E0408101089
:1001300054381010385410107808080808307830F7
:1001400078300C1C7C1C0C60707C7060000000001F
:10015000000000FA000000E000E00028FE28FE2871
:100160002454FE5448C4C81026466C926A040A00FF
:1001700010E0C00000384482000082443800543847
:10018000FE385410107C101000010E0C00101010DE
:100190001010000006060004081020407C8A92A27D
:1001A0007C0042FE02004E92929262848292B2CC15
:1001B000182848FE08E4A2A2A29C3C5292928C828B
:1001C000848890E06C9292926C6292929478000093
:1001D00028000000022C0000001028448228282853
:1001E0002828008244281040809A90607C82BA9A25
:1001F000723E4888483EFE9292926C7C8282824493
:10020000FE8282827CFE92929282FE909090807C0E
:1002100082828ACEFE101010FE0082FE820004024E
:1002200082FC80FE10284482FE02020202FE403858
:1002300040FEFE201008FE7C8282827CFE90909020
:10024000607C828A847AFE90989462649292924C46
:10025000C080FE80C0FC020202FCF8040204F8FC2C
:10026000021C02FCC6281028C6C0201E20C0869A88
:1002700092B2C200FE828282402010080400828274
:1002800082FE2040804020020202020200C0E010F4
:1002900000042A2A1E02FE1422221C1C22222214DE
:1002A0001C222214FE1C2A2A2A1800107E904018B4
:1002B0002525391EFE1020201E0022BE0200040249
:1002C00002BC00FE081422000082FE02003E201E36
:1002D000201E3E1020201E1C2222221C3F182424F7
:1002E00018182424183F3E10202010122A2A2A24ED
:1002F0002020FC22243C0202043E38040204383C44
:10030000020C023C2214081422320909093E22265A
:100310002A322200106C82000000EE000000826C85
:10032000100040804020403C64C4643C7885858651
:10033000485C0202045E1C2A2AAA9A84AAAA9E8207
:10034000842A2A1E8284AA2A1E02042AAA9E023015
:10035000784A4E489CAAAAAA9A9C2A2A2A9A9CAA17
:100360002A2A1A0000A23E820040A2BE420080A2B9
:100370003E020F9424940F0F14A4140F3E2AAAA235
:1003800000042A2A3E2A3E5090FE924C9292924CB1
:100390004C1212124C4C5212120C5C8282845E5C23
:1003A0004202041E00B90505BE9C2222229CBC020A
:1003B0000202BC3C24FF2424127E92C266D4F43F85
:1003C000F4D4FF90946F0403117E90C0042A2A9EF7
:1003D00082000022BE820C1212524C1C0202445EA9
:1003E000005E50504EBEB0988CBE649494F4146479
:1003F000949494640C12B202041C1010101010108B
:1004000010101CF40813355DF408142C5F0000DE96
:100410000000102854284444285428105500AA00ED
:100420005555AA55AA55AA55AA55AA000000FF007D
:10043000080808FF00282828FF000808FF00FF0818
:10044000080F080F2828283F002828EF00FF000089
:10045000FF00FF28282F203F2828E808F80808F880
:1004600008F8282828F8000808080F00000000F8FD
:1004700008080808F8080808080F08000000FF0826
:100480000808080808080808FF08000000FF2800FE
:1004900000FF00FF0000F808E800003F202F282898
:1004A000E808E828282F202F0000FF00EF28282840
:1004B00028282828EF00EF282828E8280808F80826
:1004C000F82828282F2808080F080F0000F808F837
:1004D000000000F8280000003F2800000F080F0867
:1004E00008FF08FF282828FF28080808F80000004F
:1004F000000F08FFFFFFFFFF0F0F0F0F0FFFFFFFA2
:100500000000000000FFFFF0F0F0F0F01C22221CC1
:10051000223E54547C287E40406060407E407E40B5
:10052000C6AA9282C61C22223C20027E0478046065
:10053000407E404099A5E7A5993854925438324EF0
:10054000804E320C52B2B20C0C121E120C3D465AA6
:1005500062BC7C929292007E8080807E545454547F
:10056000542222FA2222028A5222020222528A02B1
:100570000000FF80C00701FF00001010D6D6106CED
:10058000486C246C60F090F06000001818000000C7
:100590000808000C02FF808000F88080780098B87E
:1005A000E848003C3C3C3C00000000240027002AB6
:1005B000002D00300000000000250028002B002E38
:1005C000003100000000002300260029002C002F2D
:1005D00000040404040403040502020202040302EA
:1005E00002020206060606060604040202020404CB
:1005F0000802011040804010204080408008020422
:1006000001804020100201108010204040000000B6
:100610000200080E0000030401000B0000000000AF
:1006200000000000000000000000000706050401B3
:1006300000080A0B0C0D09080B0002020201000958
:10064000040000010202000005240010010524013D
:100650000101042402060524060001070581031098
:10066000004009040100020A0000000705020240E0
:10067000000007058302400000040309044172647E
:1006800075696E6F204C656F6E6172646F004172A8
:100690006475696E6F204C4C43001201000200002B
:1006A00000404123368000010102000112010002D6
:1006B000020000404123368000010102000100C118
:1006C0008081C105010902A1010901A1008501057F
:1006D000091901290315002501950375018102956A
:1006E0000175058103050109300931093815812596
:1006F0007F750895038106C0C005010906A1018523
:1007000002050719E029E715002501750195088103
:100710000295017508810395067508150025650584
:1007200007190029658100C00904020001030000C7
:100730000009210101000122650007058403400032
:100740000100000000000000002A2B28000000002B
:100750000000000000000000000000000000000099
:10076000002C9EB4A0A1A2A434A6A7A5AE362D3716
:1007700038271E1F20212223242526B333B62EB767
:10078000B89F8485868788898A8B8C8D8E8F90917F
:1007900092939495969798999A9B9C9D2F3130A30C
:1007A000AD350405060708090A0B0C0D0E0F1011D4
:1007B00012131415161718191A1B1C1DAFB1B0B55A
:1007C00000000C0C520C3E128F14DD17B11A1124CC
:1007D0001FBECFEFDAE0DEBFCDBF15E0A0E0B1E095
:1007E000E8EEF9E302C005900D92A03AB107D9F7FF
:1007F00018E0A0EAB5E001C01D92AC3DB107E1F7F9
:1008000017E0CEECD7E004C02297FE010E94EE1C58
:10081000C23CD107C9F70E94E5140C94F21C0C9459
:100820000000FB01DC0102C001900D9241505040DC
:10083000D8F708956817790768F4FB01DC01E40F25
:10084000F51FA40FB51F02C002900E9241505040F8
:10085000D8F708950C94110421E030E00CC000009A
:10086000000000000000000000009F5F9A35B9F70B
:100870002150304011F090E0F2CF3C9A8093BB00C1
:1008800084E88093BC0008951F920F920FB60F92D8
:1008900011248F938BB180588BB9109295001092D0
:1008A00094008F910F900FBE0F901F9018951F927C
:1008B0000F920FB60F921124EF92FF920F931F9396
:1008C0002F933F934F935F936F937F938F939F9358
:1008D000AF93BF93CF93DF93EF93FF931092BF003B
:1008E0001092BE001092A2061092A3062091A506B7
:1008F0003091A6068091A70690E02817390728F4C2
:100900008091A30681608093A3062091A506309173
:10091000A6068091A80690E02817390728F4809150
:10092000A30682608093A3062091A5063091A606B7
:100930008091A90690E02817390728F48091A30632
:1009400084608093A3068091A5069091A6060196E7
:100950009093A6068093A5068091A5069091A60681
:100960008436910521F41092A6061092A506809176
:10097000AA06882371F48091A306877F8093A3063B
:1009800040E050E0F8E0FF2E0FEF1FEFE7E0EE2E23
:1009900004C08091A3068860F1CFFA01EE0FFF1F1B
:1009A000EE0FFF1F9F012555394FE901888199817D
:1009B000AA81BB81EA01CC0FDD1F0297A105B10519
:1009C00008F443C0BE016954794FFB0180819181D5
:1009D000892BA1F5DA01A354B94F8C91FA01E054A7
:1009E000F94F9081890F8C93F90180819181A281C7
:1009F000B3810197A109B10980839183A283B38355
:100A0000FA01ED53F94F2081CA01A3E0880F991F25
:100A1000AA95E1F7C80FD91FC20FD11DCA53D94FEC
:100A2000888190E0DB0111969C938E9380818F5F8B
:100A3000808380818A30E8F010821BC0EB018881BE
:100A4000998101979983888314C0D9011D921D92C1
:100A50001D921C921397EC51F94F10821182128251
:100A60001382FA01E354F94FF082C954D94F198324
:100A70000883FA01E354F94F8081883014F0108222
:100A800003C0808187FDE082FA01EE0FFF1FEE0FA9
:100A9000FF1FEC51F94F80819181A281B3810097B2
:100AA000A105B10521F4FA01E354F94FF0824F5F3B
:100AB0005F4F4330510509F070CF9091A206E0914D
:100AC000BE06FF27E7FDF095E051F94F8081982B96
:100AD0009093A2069091A206E091BF06FF27E7FD42
:100AE000F095E750F94F8081982B9093A206909152
:100AF000A306E091BD06FF27E7FDF095E750F94F0B
:100B00008081982B9093A3065D988091A3068EBD5B
:100B10000DB407FEFDCF8EB58091A2068EBD0DB43B
:100B200007FEFDCF8EB55D9AFF91EF91DF91CF91DA
:100B3000BF91AF919F918F917F916F915F914F91F5
:100B40003F912F911F910F91FF90EF900F900FBE4B
:100B50000F901F901895CF93DF93962F50E0BA0116
:100B60007695762F66277795679585E02802900120
:100B70001124892F6C5B7E4FE9012596F901E4551C
:100B8000FF4FE491DB01A80FB11DEC938F5F2F5F46
:100B90003F4F2C173D0791F7292F2B5F342F330F31
:100BA000330F330F692F665F4F5F5F4F440F440F62
:100BB000440F80919E06281710F420939E06809182
:100BC0009F06861710F460939F068091A006381741
:100BD00010F43093A0068091A106841710F440937E
:100BE000A106DF91CF9108950F931F93062F142F25
:100BF0003C9A84EA8093BC0020E030E08091BC0005
:100C000087FD38C02A353105A9F12F5F3F4FF6CF58
:100C10008091BC0087FD35C02A35310591F12F5FE9
:100C20003F4FF6CF8091BC0087FD31C02A3531059A
:100C300071F12F5F3F4FF6CF8091BC0087FD33C02D
:100C40002A35310581F12F5F3F4FF6CF8091BC00EF
:100C500087FD32C02A35310579F12F5F3F4FF6CF3E
:100C60008091BC0087FD2DC02A35310551F12F5FE1
:100C70003F4FF6CF812F880F0E942C0420E030E0F8
:100C8000C7CF802F0E942C0420E030E0CBCF3C9ACD
:100C900084EA8093BC00110F812F81600E942C0494
:100CA00020E030E0C9CF8091BC008F70806C8093D1
:100CB000BC0020E030E0CACF9091BB0020E030E0E3
:100CC000CFCF84E98093BC008091BC008B7F809360
:100CD000BC008091BC0084608093BC00892F1F9170
:100CE0000F9108950F931F93162F042F3C9A84EAB7
:100CF0008093BC0040E050E08091BC0087FD24C0A0
:100D00004A35510509F14F5F5F4FF6CF8091BC0026
:100D100087FD21C02A353105F1F02F5F3F4FF6CF17
:100D20008091BC0087FD1DC02A353105D1F02F5FB1
:100D30003F4FF6CF8091BC0087FD19C02A353105A1
:100D4000B1F02F5F3F4FF6CF822F880F0E942C0407
:100D500020E030E0DBCF812F0E942C0420E030E047
:100D6000DFCF802F0E942C0420E030E0E3CF84E925
:100D70008093BC001F910F910895CF93DF93EC01F6
:100D80006DE04DE10E94F4058A3219F02FEF3FEF3C
:100D900037C0CE016AE24DE10E94F405482F4E7F34
:100DA000CE016AE22DE10E947206CE016EE040E0C3
:100DB0002DE10E947206CE016AE24DE10E94F40527
:100DC000482F477CCE016AE22DE10E947206CE01D7
:100DD0006AE24DE10E94F405482FCE016AE22DE15E
:100DE0000E947206CE016AE24DE10E94F405482F8E
:100DF0004160CE016AE22DE10E94720621E030E0FE
:100E0000C901DF91CF91089510929C0610929D0622
:100E100080E094E0E4E4F1E0DF019C011D922150C8
:100E20003040E1F780919E06882311F010929E06D3
:100E300080919F068F3718F48FE780939F068091EB
:100E4000A006882311F01092A0068091A1068F338E
:100E500018F48FE38093A10608951F93162FF8943A
:100E60005D9A81E160E00E94D0111EBD0DB407FEC5
:100E7000FDCF81E161E00E94D01178941F91089527
:100E8000FF920F931F938C01F62E84E061E00E9485
:100E9000D011C8016F2D0E942D071F910F91FF9057
:100EA0000895FF920F931F938C01F62E84E060E06B
:100EB0000E94D011C8016F2D0E942D071F910F9124
:100EC000FF9008958F929F92AF92BF92CF92DF9240
:100ED000EF92FF920F931F93CF93DF93EC0170E596
:100EE000872E75E0972E20E030E0AA24BB2468E02E
:100EF000C62ED12CC20ED31E8091A00690E08C1578
:100F00009D05D4F58091A10690E0821793070CF41B
:100F100040C0F4016081606BCE010E9451071091C6
:100F20009E0600919F06612F6F5F6F70CE010E9439
:100F30005107612F70E06F5F7F4F54E075956795A3
:100F40005A95E1F76F706061CE010E945107CE01A2
:100F500060EE0E94510744E4E42E41E0F42EEA0CD6
:100F6000FB1C08C0F701E10FF11DCE0160810E945A
:100F700040071F5F0117B0F70894811C911C80E89F
:100F800090E0A80EB91E90E4C916D10411F09601A4
:100F9000AECF8FE780939E0610929F068FE38093DB
:100FA000A0061092A106DF91CF911F910F91FF90A3
:100FB000EF90DF90CF90BF90AF909F908F9008956B
:100FC000EF92FF921F937C01162F61E80E94510758
:100FD0001F73C701612F0E9451071F91FF90EF906F
:100FE0000895CF93DF93EC0184E061E00E94431108
:100FF0008CE061E00E94431181E161E00E944311B5
:1010000081E160E00E94D01188EE93E020E931E0B8
:10101000F9013197F1F70197D9F78CE060E00E9470
:10102000D01188EE93E020E931E0F9013197F1F732
:101030000197D9F78CE061E00E94D011CE0163EAFC
:101040000E945107CE0161EA0E945107CE0160EC77
:101050000E945107CE0160E60E945107CE016CE26A
:101060000E94510784EF91E020E931E0F9013197C6
:10107000F1F70197D9F7CE016EE20E94510784EF94
:1010800091E020E931E0F9013197F1F70197D9F7C3
:10109000CE016FE20E94510780E49CE90197F1F7CD
:1010A000CE0166E20E94510780919E06882311F0CE
:1010B00010929E0680919F068F3718F48FE78093D9
:1010C0009F068091A006882311F01092A0068091BF
:1010D000A1068F3318F48FE38093A106DF91CF919F
:1010E00008958FE061E00E94431180E161E00E9479
:1010F000431181E161E00E9443118FE060E00E94B2
:10110000D01180E160E00E94D01181E161E00E9495
:10111000D0118CB580618CBD8CB580648CBD8CB5D4
:101120008C7F8CBD8DB581608DBD08950F931F930D
:101130008C010E947108C8010E94F107C8016FEA82
:101140000E945107C80164EA0E945107C80160E08B
:101150000E94E0071F910F91089584E491E064ECF0
:1011600071E040E853E00E941A0480E8E4ECF4E007
:10117000DF011D928A95E9F780919E06882311F080
:1011800010929E0680919F068F3718F48FE7809308
:101190009F068091A006882311F01092A0068091EE
:1011A000A1068F3318F48FE38093A1060895CF92A0
:1011B000DF92EF92FF920F931F93CF93DF938C01F7
:1011C0006B017A01C0E0D0E034C0F601EC0FFD1FE6
:1011D00020812A3041F480919D068F5F80939D0687
:1011E00010929C0619C02D30B9F0C80160919C0680
:1011F00040919D060E94AB0580919C068A5F80937A
:101200009C0690E08A3791053CF010929C068091F4
:101210009D068F5F80939D0680919D06883040F0EB
:10122000C8010E94AD0880919D06815080939D0663
:101230002196CE15DF0548F2DF91CF911F910F91D6
:10124000FF90EF90DF90CF9008950F931F93142F8E
:10125000052F0E94D708812F902F1F910F9108957D
:10126000DF93CF930F92CDB7DEB76983BE016F5F77
:101270007F4F41E050E00E94D70881E090E00F905E
:10128000CF91DF9108951F920F920FB60F92112404
:10129000EF92FF920F931F932F933F934F935F9380
:1012A0006F937F938F939F93AF93BF93EF93FF932E
:1012B00080917106813009F469C00E9427109B015A
:1012C000AC018CB1682F70E0607470708091A405DF
:1012D0009091A505A091A605B091A70579018A0175
:1012E000E81AF90A0A0B1B0BE092A005F092A1057F
:1012F0000093A2051093A3058091A0059091A105EC
:10130000A091A205B091A30580529E44A040B04098
:10131000D4F1672B19F4109270062CC0E09170067E
:10132000F0E08091A0059091A105A091A205B09157
:10133000A305EE0FFF1FEE0FFF1FE855FA4F918335
:10134000808318C0E0917006F0E08091A005909134
:10135000A105A091A205B091A305EE0FFF1FEE0F0E
:10136000FF1FE855FA4F93838283809170068F5F49
:10137000809370062093A4053093A5054093A6059D
:101380005093A70503C0672BE9F2C8CFFF91EF91F7
:10139000BF91AF919F918F917F916F915F914F918D
:1013A0003F912F911F910F91FF90EF900F900FBEE3
:1013B0000F901F9018951092AA0661E070E080E0EF
:1013C00090E00E94A310089581E08093AA0661E056
:1013D00070E080E090E00E94A31008950F931F93A7
:1013E000142F022F85E10E94D01186E1612F0E9407
:1013F000D01187E1602F0E94D01161E070E080E0A1
:1014000090E00E94A3101F910F910895EF92FF9218
:101410000F931F938C01F62E0E94E4098F2D0E94DA
:101420000B11F82EE92EC8010E94DB098F2D9E2D8D
:101430001F910F91FF90EF9008950F931F938C01D0
:1014400061E040E021E00E94EE09C80164E170E043
:101450000E94060A1F910F9108950F931F938C010C
:1014600061E041E020E00E94EE09C80164E170E023
:101470000E94060A1F910F9108950F931F938C01EC
:1014800060E040E020E00E94EE09C80164E170E005
:101490000E94060A1F910F9108950F931F938C01CC
:1014A00061E040E020E00E94EE09C80164E170E0E4
:1014B0000E94060A1F910F9108950F931F938C01AC
:1014C00060E041E020E00E94EE09C80164E170E0C4
:1014D0000E94060A1F910F910895EF92FF920F93B9
:1014E0001F93162F042F8CE4E82E87E0F82EC701F7
:1014F0006EE170E00E94180CC701612F0E949A0CE7
:10150000C701602F0E949A0CC7010E94DD0C1F9139
:101510000F91FF90EF900895CF93DF938CE497E0C5
:101520006EE170E00E94180C8CE497E063E00E948A
:101530009A0C8CE497E00E94DD0C8CE497E06EE15D
:1015400070E00E94180C8CE497E06EE170E046E0D9
:1015500050E00E94EE0C8CE497E00E94220C06976B
:1015600071F4C0E0D0E08CE497E00E942B0CFE0107
:10157000EE58F94F80832196C630D105A1F78CE44F
:1015800097E00E94DD0CDF91CF9108950F931F9398
:101590008C0163E070E046E050E00E948C0A4091CC
:1015A000720620917306742F60E030E0622B732B7B
:1015B000882777FD8095982F0E94BC1B2FE135E886
:1015C0004BE65FE30E94481CF801648375838683C1
:1015D00097834091740620917506742F60E030E087
:1015E000622B732B882777FD8095982F0E94BC1B58
:1015F0002FE135E84BE65FE30E94481CF801608765
:101600007187828793874091760620917706742FA1
:1016100060E030E0622B732B882777FD8095982F50
:101620000E94BC1B2FE135E84BE65FE30E94481C9B
:10163000F80164877587868797871F910F910895B2
:10164000CF93DF93EC018FEC97E060E875E20E94A6
:1016500003128DE198E040E855E260E070E00E94FE
:1016600082138DE061E00E9443118DE060E00E94F2
:10167000D0118BE061E00E9443118BE060E00E949A
:10168000D01184E160E00E94431185E161E00E9495
:10169000431186E161E00E94431187E161E00E940D
:1016A000431186E061E00E9443118AE061E00E94FC
:1016B000431185E060E00E94431189E061E00E94EF
:1016C000431185E097E060E070E00E94110C85E036
:1016D00097E060E070E00E94110C8E8F0E94030D75
:1016E00084E00E94F20C559A5D988091A3068EBD0D
:1016F0000DB407FEFDCF8EB58091A2068EBD0DB450
:1017000007FEFDCF8EB55D9A1092AA0680E1809308
:10171000F90680E38093FA0680E28093FB0680E678
:101720008093FC0680E48093FD0680EC8093FE06A7
:1017300080E88093FF0680E98093000710920107FC
:1017400081E08093F00683E08093F10682E080934D
:10175000F20686E08093F30684E08093F4068CE042
:101760008093F50688E08093F60689E08093F7067B
:101770001092F806CE010E949608CE010E946207E0
:1017800080914405809304078093030780930207A8
:10179000F8941092C0001092C1001092BF001092F5
:1017A000BE0080E38093CF0086E08093C1008091EB
:1017B00072008064809372007894F89487E060E00F
:1017C0000E94431180916A008F7C806180936A003F
:1017D000EE9A7894CE010E94BD06CE0161E070E0E1
:1017E00040E250E00E946D0ACE0162E070E040E00D
:1017F00050E00E946D0ACE010E94C60ADF91CF918F
:101800000895FC01138212828CE595E09183808318
:10181000CF010E94200B089588E796E00E94010CFA
:101820000895F999FECF72BD61BDF89A80B508950B
:1018300081E080934B07609328071092490710922C
:101840004A0708952091270730E080912607281B3A
:101850003109C9010895409126078091270748174B
:1018600018F02FEF3FEF0AC0E42FF0E0EA5FF84FE7
:101870008081282F30E04F5F40932607C9010895EB
:10188000E091260780912707E81718F0EFEFFFEFA8
:1018900006C0F0E0EA5FF84F8081E82FF0E0CF016A
:1018A0000895089510924F0710924E0788EE93E026
:1018B000A0E0B0E08093500790935107A0935207A7
:1018C000B093530784E695E090934D0780934C07BF
:1018D0000895CF92DF92EF92FF920F931F93CF93D1
:1018E000DF937C016B018A0180914B078823A1F073
:1018F000C0E0D0E00DC0D701ED91FC91D601AC0F56
:10190000BD1F0190F081E02DC7016C9109952196D2
:10191000C017D10780F304C0CB01642F0E94C00D13
:10192000C801DF91CF911F910F91FF90EF90DF9051
:10193000CF900895DF93CF930F92CDB7DEB7FC0120
:10194000698380914B078823C9F080914A078032D0
:1019500038F081E090E09383828320E030E015C08E
:1019600080914907E82FF0E0E75DF84F9981908377
:101970008F5F8093490780934A0705C0CE01019687
:1019800061E00E94C00D21E030E0C9010F90CF91CD
:10199000DF9108950F93062F8091280769E277E081
:1019A00040914A0721E00E946B0D10924907109266
:1019B0004A0710924B070F91089561E00E94CA0CEC
:1019C0000895413208F040E2862F66E077E00E94F9
:1019D000220D1092260780932707089521E00E9488
:1019E000E10C08952CB5382F33702C7F322B3CBD81
:1019F0002DB590E0959587959595879581702E7F6B
:101A0000822B8DBD08958FE061E00E94431180E13B
:101A100061E00E94431181E161E00E9443118FE087
:101A200060E00E94D01180E160E00E94D01181E16D
:101A300061E00E94D0118CB580618CBD8CB5806452
:101A40008CBD0895382F413210F040E042C08091A3
:101A500058078823E1F791E09093580720935A079D
:101A60008FEF8093C5071092800741504093810704
:101A70004F5F9093590780915907330F832B8093C1
:101A8000590780915B07813041F410925B07809188
:101A900059078093BB0085EC01C085EE8093BC00A4
:101AA000809158078130E1F380918007841710F40A
:101AB0004091800720E030E00AC0FB01E20FF31FF5
:101AC000D901A05AB84F8C9180832F5F3F4F2417C4
:101AD000A0F3842F08950F931F93582F122F413294
:101AE00010F081E04AC0809158078823E1F782E036
:101AF0008093580700935A078FEF8093C507109281
:101B0000800740938107A0E6B7E0FB0102C0819106
:101B10008D938E2F861B8417D0F3109259078091D6
:101B20005907550F852B8093590780915B078130AA
:101B300041F410925B07809159078093BB0085ECBC
:101B400001C085EE8093BC00112321F080915807DD
:101B50008230E1F38091C5078F3F11F480E00DC022
:101B60008091C507803211F482E007C08091C507DB
:101B7000803311F084E001C083E01F910F9108953C
:101B8000482F613210F081E0089580915807843029
:101B900011F082E008956093A307A2E8B7E0842FD4
:101BA0009C01F90102C081918D938E2F841B8617B1
:101BB000D0F380E008951F920F920FB60F92112478
:101BC0002F933F934F935F936F937F938F939F9345
:101BD000AF93BF93EF93FF938091B90090E0887F1C
:101BE00090708036910509F4F2C081369105CCF5EC
:101BF0008832910509F47BC089329105B4F48031B3
:101C0000910509F46FC0813191053CF4009709F406
:101C100047C1089709F04FC165C08831910509F4A3
:101C200066C0809709F047C182C08034910509F4ED
:101C3000A4C08134910544F48033910509F482C035
:101C4000C89709F038C189C08035910509F489C069
:101C50008835910509F496C08834910509F02BC1A7
:101C6000AEC08839910509F413C189399105ECF4A6
:101C70008837910509F4ABC0893791054CF4883653
:101C8000910509F4A4C08037910509F014C19FC0E3
:101C90008838910509F4FCC08039910509F49DC08C
:101CA0008038910509F007C198C0803B910509F47F
:101CB000C6C0813B91054CF4803A910509F49FC060
:101CC000883A910509F0F7C0BAC0803C910509F443
:101CD000E3C0883C910509F4DFC0883B910509F019
:101CE000EAC0C2C0809159078093BB00CFC09091D9
:101CF000800780918107981768F490918007E92FF9
:101D0000F0E0E05AF84F80818093BB009F5F909392
:101D10008007BCC080915A07882309F44BC085ED29
:101D20008093BC008091BC0084FDFCCFC2C080E2E7
:101D30008093C50785ED8093BC008091BC0084FD35
:101D4000FCCFB7C080E38093C50785ED8093BC00CE
:101D50008091BC0084FDFCCFACC088E38093C507B4
:101D60009BC0809180079091BB00E82FF0E0E05A83
:101D7000F84F90838F5F80938007909180078091C8
:101D8000810782C0809180079091BB00E82FF0E02E
:101D9000E05AF84F90838F5F8093800780915A07B5
:101DA000882341F085ED8093BC008091BC0084FDC8
:101DB000FCCF7FC081E080935B0784EA6EC085ED35
:101DC0008093BC008091BC0084FDFCCF72C083E096
:101DD000809358071092C40759C08091C40780327D
:101DE00008F056C08091C4079091BB00E82FF0E046
:101DF000EC55F84F90838F5F8093C40747C0809164
:101E0000C407803230F4E091C407F0E0EC55F84F9D
:101E1000108285ED8093BC008091BC0084FDFCCFD6
:101E2000109258076091C407E0915E07F0915F0738
:101E300084EA97E070E009951092C4072DC084E011
:101E4000809358071092A2071092A307E0915C07B5
:101E5000F0915D0709958091A307882329F481E01B
:101E60008093A307109282079091A207E92FF0E0D8
:101E7000EE57F84F80818093BB009F5F9093A2073D
:101E80009091A2078091A307981710F485EC01C0E8
:101E900085E88093BC000FC085EC8093BC0009C02E
:101EA0001092C50785ED8093BC008091BC0084FD35
:101EB000FCCF10925807FF91EF91BF91AF919F9186
:101EC0008F917F916F915F914F913F912F910F90E3
:101ED0000FBE0F901F901895089588E796E00E9416
:101EE000040788E796E00E941D0A88E796E00E94B2
:101EF0002D0A88E796E00E943D0A88E796E00E9456
:101F00004D0A88E796E00E945D0A88E796E060E067
:101F100071E00E94F51588E796E00E941D0ABC0159
:101F200088E796E04AE050E00E94E21588E796E0F4
:101F30006CE071E00E94F51588E796E00E942D0A9A
:101F4000BC0188E796E04AE050E00E94E21588E78D
:101F500096E069E171E00E94F51588E796E00E943D
:101F60003D0ABC0188E796E04AE050E00E94E21595
:101F700088E796E068E271E00E94F51588E796E050
:101F80000E944D0ABC0188E796E04AE050E00E94BA
:101F9000E21588E796E066E371E00E94F51588E7B0
:101FA00096E00E945D0ABC0188E796E04AE050E0B6
:101FB0000E94E21588E796E00E9462078ECF1F928A
:101FC0000F920FB60F9211242F933F938F939F93ED
:101FD000AF93BF938091CA079091CB07A091CC0794
:101FE000B091CD073091CE070196A11DB11D232FD1
:101FF0002D5F2D3720F02D570196A11DB11D209387
:10200000CE078093CA079093CB07A093CC07B093D9
:10201000CD078091C6079091C707A091C807B091DE
:10202000C9070196A11DB11D8093C6079093C707EC
:10203000A093C807B093C907BF91AF919F918F91AB
:102040003F912F910F900FBE0F901F9018959FB743
:10205000F8942091C6073091C7074091C807509166
:10206000C90786B5A89B06C08F3F21F02F5F3F4F61
:102070004F4F5F4F9FBF542F432F322F2227280FE0
:10208000311D411D511D82E0220F331F441F551F7A
:102090008A95D1F7B901CA010895789484B5826010
:1020A00084BD84B5816084BD85B5826085BD85B5FC
:1020B000816085BDEEE6F0E0808181608083E1E8AB
:1020C000F0E01082808182608083808181608083E3
:1020D000E0E8F0E0808181608083E1E9F0E08081E8
:1020E00082608083808181608083E0E9F0E080818C
:1020F00081608083E1ECF0E0808184608083808176
:1021000082608083808181608083E3ECF0E0808165
:1021100081608083E0ECF0E0808182608083E2EC8B
:10212000F0E0808181608083EAE7F0E08081846074
:1021300080838081826080838081816080838081D0
:10214000806880830895EF92FF920F931F93CF933F
:10215000DF937B018C013FB7F8948091C607909183
:10216000C707A091C807B091C90726B5A89B05C0AD
:102170002F3F19F00196A11DB11D3FBFBA2FA92F06
:10218000982F8827820F911DA11DB11D52E0880F45
:10219000991FAA1FBB1F5A95D1F7EC0130C00E94AE
:1021A000761A3FB7F8948091C6079091C707A0911F
:1021B000C807B091C90726B5A89B05C02F3F19F0E5
:1021C0000196A11DB11D3FBFBA2FA92F982F8827B7
:1021D000820F911DA11DB11D32E0880F991FAA1F0A
:1021E000BB1F3A95D1F78C1B9D0B885E9340B8F2CC
:1021F0000894E108F10801091109C851DC4FE11404
:10220000F1040105110559F6DF91CF911F910F914E
:10221000FF90EF900895823108F08251E82FF0E0AE
:10222000E55DF94FE49120917B008E2F8695869590
:10223000869590E08170907035E0880F991F3A95EF
:10224000E1F72F7D282B20937B00E77080914505D7
:102250008295880F880F807C8E2B80937C008091E4
:102260007A00806480937A0080917A0086FDFCCFAA
:102270002091780040917900942F80E030E0282B65
:10228000392BC9010895CF93DF93482F50E0CA013D
:1022900081519A4FFC0134914F525A4FFA01849167
:1022A000882369F190E0880F991FFC01E955FA4FE6
:1022B000A591B491FC01EB54FA4FC591D4916623DA
:1022C00051F42FB7F8948C91932F909589238C9388
:1022D000888189230BC0623061F42FB7F8948C9108
:1022E000932F909589238C938881832B88832FBF8C
:1022F00006C09FB7F8948C91832B8C939FBFDF917E
:10230000CF910895883071F1893068F4823031F1CD
:10231000833020F4813009F042C01DC0833089F041
:102320008430E9F512C08B3059F18C3028F48930B3
:10233000E9F08A30A1F51EC08C3031F18E3079F58C
:1023400029C0809180008F7703C0809180008F7DAD
:1023500080938000089584B58F7702C084B58F7D07
:1023600084BD0895809190008F7707C08091900080
:102370008F7D03C080919000877F809390000895A7
:102380008091C0008F7703C08091C0008F7D8093C3
:10239000C00008958091C200877F8093C200089595
:1023A000FF920F931F93F62E482F50E0CA01835FD0
:1023B000994FFC012491CA0181519A4FFC0114915B
:1023C0004F525A4FFA0104910023C9F0222319F009
:1023D000822F0E948211E02FF0E0EE0FFF1FEB54DE
:1023E000FA4FA591B4919FB7F894FF2021F48C91F6
:1023F0001095812302C08C91812B8C939FBF1F91DC
:102400000F91FF9008950895FC012485858530E0A3
:10241000205C3F4F281B31092F733070C90108958C
:10242000FC0194858585981719F42FEF3FEF06C0BE
:102430008585E80FF11D8685282F30E0C9010895B4
:10244000DC011C969C911C971D968C911D979817EA
:1024500019F42FEF3FEF10C01D968C911D97FD01D1
:10246000E80FF11D96851D968C911D978F5F8F73D8
:102470001D968C93292F30E0C90108951092D20740
:102480001092D10788EE93E0A0E0B0E08093D307EC
:102490009093D407A093D507B093D60784E795E02F
:1024A0009093D0078093CF0708950F931F93DF93E6
:1024B000CF930F92CDB7DEB78C01698380914D0524
:1024C000882369F083E0BE016F5F7F4F41E050E0F9
:1024D0000E94FC171816190614F49C0107C081E02D
:1024E00090E0F8019383828320E030E0C9010F90EF
:1024F000CF91DF911F910F91089583E00E94D31730
:1025000008950F931F93CF93DF938C01FC010FC0AD
:1025100082E00E94B9169C01FFEF8F3F9F0799F060
:10252000F8018485E80FF11D2687F801C4878485AA
:10253000C82FD0E02196CF73D070F801858590E048
:10254000C817D90729F7DF91CF911F910F910895EF
:10255000FC0180818E5F808380E867E376E042E45F
:1025600050E00E94D2160895FC0181819081913A39
:1025700059F4813209F04CC080E066E475E047E030
:1025800050E00E94D21642C0913209F041C0803220
:1025900039F486E495E067E070E00E94BB1736C02E
:1025A000823209F035C0828180934D0580914605C5
:1025B00090914705A0914805B0914905805B9440F2
:1025C000A040B04019F580914D0580FD12C087E70D
:1025D00097E790930108809300082BE088E190E052
:1025E0000FB6F894A895809360000FBE209360000A
:1025F0000DC088E10FB6F8948093600010926000DF
:102600000FBEA895109201081092000881E008956D
:1026100080E0089508951F920F920FB60F92112433
:102620002F933F934F938F939F93EF93FF938091BB
:10263000C80082FD19C04091CE0080913B08282F30
:1026400030E02F5F3F4F2F73307080913C0890E057
:102650002817390759F0E0913B08F0E0E35EF74FA7
:1026600042A320933B0802C08091CE00FF91EF91DE
:102670009F918F914F913F912F910F900FBE0F908F
:102680001F90189580913B0820913C0890E0805C59
:102690009F4F821B91098F739070892B11F00E94BC
:1026A0000A1308951F920F920FB60F9211242F93C1
:1026B0008F939F93EF93FF9390913D0880913E08F5
:1026C000981731F48091C9008F7D8093C90010C0A4
:1026D000E0913E08F0E0E158F74F208180913E08FC
:1026E00090E001968F73907080933E082093CE0007
:1026F000FF91EF919F918F912F910F900FBE0F90AF
:102700001F901895AF92BF92DF92EF92FF920F93B6
:102710001F93CF93DF93EC017A018B01DD244030CE
:1027200081EE580780E0680780E0780711F0DD242B
:10273000D39491E0A92EB12CE889F989DD2069F0C4
:10274000C5010C8C02C0880F991F0A94E2F78083A0
:1027500060E079E08DE390E005C0108260E874E805
:102760008EE190E0A80197010E94CA1C21503040E0
:1027700040405040569547953795279580E1203049
:10278000380720F0DD2011F0DD24D6CFEC85FD8563
:102790003083EE85FF8520831D8EEA89FB89408189
:1027A00021E030E0C901088C02C0880F991F0A940B
:1027B000E2F7482B4083EA89FB894081C901098CF3
:1027C00002C0880F991F0A94E2F7482B4083EA89D8
:1027D000FB894081C9010A8C02C0880F991F0A94A5
:1027E000E2F7482B4083EA89FB8980810B8C02C089
:1027F000220F331F0A94E2F7209528232083DF91CC
:10280000CF911F910F91FF90EF90DF90BF90AF900D
:102810000895FC01268D878D30E0205C3F4F281BFA
:1028200031092F733070C9010895FC01968D878D91
:10283000981719F42FEF3FEF06C0878DE80FF11DB1
:1028400082A1282F30E0C9010895DC015E969C9199
:102850005E975F968C915F97981719F42FEF3FEF73
:1028600010C05F968C915F97FD01E80FF11D92A15A
:102870005F968C915F978F5F8F735F968C93292FF4
:1028800030E0C9010895DC015D968C915D97882345
:1028900039F05096ED91FC915197808186FFF9CFE8
:1028A0005D961C920895DC0190968C919097282F4C
:1028B00030E02F5F3F4F2F73307091968C9191973E
:1028C00090E028173907C9F390968C919097FD01F5
:1028D000E80FF11DEE59FF4F608390962C9390976F
:1028E0005296ED91FC915397208181E090E05B96A8
:1028F0000C905B9702C0880F991F0A94E2F7282B6F
:10290000208381E05D968C935D975096ED91FC91CC
:10291000519780818064808381E090E008951092D7
:10292000200810921F0888EE93E0A0E0B0E08093AA
:10293000210890932208A0932308B093240886E8E6
:1029400095E090931E0880931D0810923E08809198
:102950003E0880933D0810923C0880913C0880938B
:102960003B088DEC90E090932A08809329088CEC2A
:1029700090E090932C0880932B0888EC90E0909343
:102980002E0880932D0889EC90E090933008809376
:102990002F088AEC90E090933208809331088EECF7
:1029A00090E0909334088093330884E08093350856
:1029B00083E08093360887E08093370885E0809332
:1029C000380881E0809339080895CF93DF930E94FF
:1029D0004D108EEC98E00E94DE170E946D0FC2E44D
:1029E000D3E10E946C0F2097E1F30E944213F9CFCC
:1029F000CF92DF92EF92FF920F931F93CF93DF93CB
:102A00007C016B018A01C0E0D0E00FC0D6016D915E
:102A10006D01D701ED91FC910190F081E02DC7018E
:102A20000995C80FD91F015010400115110571F704
:102A3000CE01DF91CF911F910F91FF90EF90DF902A
:102A4000CF900895CF93DF93EC016115710519F4D0
:102A500020E030E00FC0DB010D900020E9F7119776
:102A6000A61BB70BE881F9810280F381E02DAD014F
:102A700009959C01C901DF91CF9108954F925F9212
:102A80007F928F929F92AF92BF92CF92DF92EF92FE
:102A9000FF920F931F93DF93CF93CDB7DEB7A1972C
:102AA0000FB6F894DEBF0FBECDBF2C01742ECB0144
:102AB000223008F42AE019A231E2C32ED12CCC0E28
:102AC000DD1E822E9924AA24BB24672D752FA50113
:102AD00094010E94CA1C79018A01C801B701A501AD
:102AE00094010E94AB1C472D461B0894C108D108D5
:102AF0004A3014F4405D01C0495CF6014083E114A2
:102B0000F1040105110521F07E2C5F2DC801DDCFF8
:102B1000C201B6010E942215A1960FB6F894DEBF3D
:102B20000FBECDBFCF91DF911F910F91FF90EF901E
:102B3000DF90CF90BF90AF909F908F907F905F90ED
:102B40004F900895CF92DF92EF92FF920F931F93D1
:102B5000CF93DF93EC016A017B012115310541F42C
:102B6000E881F9810190F081E02D642F09951FC063
:102B70002A303105D1F477FF17C0E881F98101903F
:102B8000F081E02D6DE209958C0144275527BA01AB
:102B90004C195D096E097F09CE012AE00E943E159D
:102BA0009801280F391F04C02AE00E943E159C019D
:102BB000C901DF91CF911F910F91FF90EF90DF90AE
:102BC000CF900895EF92FF920F931F937B019A018C
:102BD0000027F7FC0095102FB801A7010E94A2154D
:102BE0001F910F91FF90EF9008950E942215089574
:102BF0008230B9F0833028F4882351F08130F9F421
:102C00000AC08430B9F0843090F08530C1F415C02A
:102C100010926E00089580916F008D7F80936F00F9
:102C20000895809170008D7F8093700008951092B8
:102C30007100089510927200089510927300089523
:102C40001F920F920FB60F9211242F933F934F9321
:102C50005F936F937F938F939F93AF93BF93EF9304
:102C6000FF938091BF089091C008A091C108B091D6
:102C7000C2080097A105B10551F1E091C308F09198
:102C8000C40880819091C508892780838091BF08FE
:102C90009091C008A091C108B091C20818161906F9
:102CA0001A061B060CF58091BF089091C008A091F0
:102CB000C108B091C2080197A109B1098093BF086A
:102CC0009093C008A093C108B093C2080DC083E0E0
:102CD0000E94F815E091C308F091C408908180919A
:102CE000C508809589238083FF91EF91BF91AF91B3
:102CF0009F918F917F916F915F914F913F912F9114
:102D00000F900FBE0F901F901895282F8091C80824
:102D10008823C1F057FF1AC015C028989093C708A0
:102D20008091F1008193E217F307B9F7411551053E
:102D300039F08091F200882319F48BE68093E80043
:102D4000AFBF02C04FEF5FEFCA010895AFB7F8946D
:102D500027702093E9008091F200282F30E024179B
:102D600035070CF4A901FB019B01240F311D94E6EA
:102D7000DACFDF93CF930F92CDB7DEB7BE016F5F8F
:102D80007F4F41E050E00E948516019719F02FEF28
:102D90003FEF03C08981282F30E0C9010F90CF9108
:102DA000DF910895FF920F931F93F82E142F052F94
:102DB0004091CB085091CC08212F302FC901DC0164
:102DC000FB016EEF29C0F7FE02C0949101C0908113
:102DD0002091C9083091CA0824173507ACF48091B6
:102DE000E8008570E1F38091E80082FF03C02FEFD7
:102DF0003FEF17C09093F100C90101968F73907057
:102E0000892B11F46093E8002F5F3F4F3093CA087D
:102E10002093C908119731961097A9F6812F902F0A
:102E20009C01C9011F910F91FF9008951F93782F66
:102E3000E92F162F2091C9083091CA08A091CB081C
:102E4000B091CC082A173B07C4F48091E800857044
:102E5000E1F38091E80082FD16C0812F90E0019699
:102E6000880F991F8093F100C90101968F739070AC
:102E7000892B19F48EEF8093E8002F5F3F4F30933A
:102E8000CA082093C9082091C9083091CA082A1796
:102E90003B07A4F48091E8008570E1F38091E8009D
:102EA00082FD12C083E08093F100C90101968F7307
:102EB0009070892B19F48EEF8093E8002F5F3F4FBD
:102EC0003093CA082093C9084091C9085091CA0894
:102ED000872F9E2FFC0170E06EEF43C094914A173C
:102EE0005B07A4F48091E8008570E1F38091E8002D
:102EF00082FF02C020E00DC09093F100CA0101964C
:102F00008F739070892B11F46093E8004F5F5F4FCF
:102F100021E04A175B07A4F48091E8008570E1F393
:102F20008091E80082FF02C080E00DC01092F100A5
:102F3000CA0101968F739070892B11F46093E80099
:102F40004F5F5F4F81E0319690E030E08223932322
:102F5000892B31F45093CA084093C90880E009C016
:102F60007F5F711708F4BACF5093CA084093C9081D
:102F700081E01F9108959C018091E80082FFFCCFC1
:102F8000F901260F311D03C08091F1008193E217F2
:102F9000F307D1F7289884E68093C7088BEF8093D6
:102FA000E800CB0108958093E9008091F200882326
:102FB00019F08AE38093E800089508951092C808F4
:102FC00081E08093D70080EA8093D80082E189BDB8
:102FD00009B400FEFDCF61E070E080E090E00E9467
:102FE000A31080E98093D8008CE08093E2001092D7
:102FF000E000559A209A08955F926F927F928F9287
:103000009F92AF92BF92CF92DF92EF92FF920F9377
:103010001F93CF93DF93E82E842E752E8091C808DE
:10302000882371F18B01242F352FC901EC01AAEF00
:10303000FA2EF7E09F2E9E20E0E45E2E8E2D90E08B
:1030400070E2A72EB12CA822B9226AE3662E50E4C2
:10305000C52ED12CC822D92258C09FB7F89490927F
:10306000E9008091E80085FD02C020E004C0809165
:10307000F200252D281B9FBF222361F4FA9419F436
:103080002FEF3FEF4DC061E070E080E090E00E94E4
:10309000A3103BC0822F90E0C817D9070CF42C2F47
:1030A000C21BD1094FB7F8949092E900A114B10462
:1030B00021F406C01092F10021502223D9F719C043
:1030C000E7FC03C0F801922F10C0C801322F06C0E0
:1030D000FC010196E491E093F10031503323C1F7F4
:1030E00006C081918093F10091509923D1F7020F8E
:1030F000111D8091E80085FF05C0209729F4C114B7
:10310000D10411F06092E8004FBF209709F0A5CFDD
:103110005D9884E68093C608282D372DC9019C014F
:10312000C901DF91CF911F910F91FF90EF90DF9038
:10313000CF90BF90AF909F908F907F906F905F9057
:1031400008951F920F920FB60F9211242F933F9361
:103150004F935F936F937F938F939F93AF93BF939F
:10316000EF93FF938091E1001092E100982F83FF8D
:103170000FC01092E90081E08093EB001092EC0008
:1031800082E38093ED001092C80888E08093F000FD
:1031900092FF34C083E08093E9008091F20088239D
:1031A00019F08AE38093E8008FB7F89492E0909347
:1031B000E9009091F2008FBF992321F08FEC97E006
:1031C0000E9481128091C608882351F08091C60820
:1031D00081508093C6088091C608882309F45D9ABF
:1031E0008091C708882351F08091C708815080934F
:1031F000C7088091C708882309F4289AFF91EF91A6
:10320000BF91AF919F918F917F916F915F914F91FE
:103210003F912F910F900FBE0F901F9018950F9315
:103220001F93DF93CF930F92CDB7DEB719828E0134
:103230000F5F1F4FC8010E94A812C8010E94AE1B59
:10324000898190E00F90CF91DF911F910F910895A8
:103250001F920F920FB60F921124EF92FF921F93BD
:103260002F933F934F935F936F937F938F939F938E
:10327000AF93BF93EF93FF93DF93CF93CDB7DEB7B9
:103280006197DEBFCDBF1092E9008091E80083FF17
:1032900014C1FE0131969E01275F3F4F03C080910C
:1032A000F1008193E217F307D1F7289884E6809321
:1032B000C70882EF8093E800998197FF05C080914D
:1032C000E80080FFFCCF03C08EEF8093E800292F39
:1032D00030E0C90180769070892B09F0C7C08A81DF
:1032E000882329F41092F1001092F100DBC08130A4
:1032F00009F4D8C0833009F4D5C0853049F48091F1
:10330000E80080FFFCCF8B8180688093E300CAC017
:10331000863009F081C01C81EF80F8841230C1F53D
:103320001092E9001092CA081092C9081092CC08B5
:103330001092CB080E940F1999E0FE013996DF0127
:10334000292F1D922A95E9F799871A8791E09E8780
:1033500090E8988B9AEF998B2091C9083091CA0810
:10336000275F3F4F3C872B878D871092E900109293
:10337000CA081092C908F092CC08E092CB0880E00D
:10338000BF0149E050E00E94D2160E940F198AC086
:103390001092E9001092CA081092C908F092CC0865
:1033A000E092CB08123241F482E290E00E94A61B28
:1033B000892B09F47BC076C0113079F488E0E816D7
:1033C000F10419F481E08093CD088091CD08882321
:1033D00009F070C0EAE9F6E018C0133009F066C0E1
:1033E0008B81882319F4E9E7F6E00FC0823021F4DD
:1033F0008DE796E060E106C0813009F057C08EE8A5
:1034000096E06BE00E9416174BC0449180E8BF0124
:1034100050E00E94D21646C0873009F447C0883079
:1034200021F481E08093F1003DC08930D9F523700B
:103430003070232BD9F5EFEBF6E091E031E026E395
:103440009093E9003093EB0084918093EC002093FB
:10345000ED009F5F3196953099F78EE78093EA00F3
:103460001092EA008B818093C8081CC08F819885D8
:103470001092E9001092CA081092C9089093CC08E3
:103480008093CB088D81882329F4CE0101960E9478
:10349000B41206C0823051F4CE0101960E94771A10
:1034A000882321F08EEF8093E80007C081E28093AB
:1034B000EB0003C0ECEAF6E0A8CF6196DEBFCDBF1B
:1034C000CF91DF91FF91EF91BF91AF919F918F913C
:1034D0007F916F915F914F913F912F911F91FF903D
:1034E000EF900F900FBE0F901F9018950895FC015C
:1034F00091818081813A31F4913089F080E093307C
:1035000089F40DC0813269F49B3021F4828180936B
:103510004E0505C09A3029F4828180934F0581E0E1
:10352000089580E00895EF92FF920F931F938C010E
:10353000E62EDC01ED91FC910480F581E02D0995EA
:10354000F82ED801ED91FC910680F781E02DC8019D
:103550006E2D09958F2D90E01F910F91FF90EF90A8
:1035600008951092CF081092D3081092D20886E9DD
:1035700095E09093D1088093D0080895EF92FF9240
:103580000F931F93DF93CF930F92CDB7DEB789834D
:103590008B017A0184E0BE016F5F7F4F41E050E014
:1035A0000E94FC1784E4B801A7010E94FC170F9049
:1035B000CF91DF911F910F91FF90EF90089582E0DE
:1035C00048E050E00E94BE1A0895FC01168217825E
:1035D000108611861286138614823496BF010E94CB
:1035E000DF1A0895DC01683810F0685829C0E62F0A
:1035F000F0E067FF13C0E058F04081E090E002C0C7
:10360000880F991FEA95E2F7809514962C911497EC
:10361000282314962C93149760E012C0EF5BF84FA8
:103620006491662319F420E030E01DC067FF08C0F4
:1036300014968C9114978D7F14968C9314976F77B2
:10364000FD0190E0662321F08681861709F4168239
:103650009F5F31969630B1F7CD011496BD010E945F
:10366000DF1A21E030E0C9010895CF93DF93DC0138
:10367000683810F0685825C0E62FF0E067FF12C0E8
:10368000E058F04081E090E002C0880F991FEA9571
:10369000E2F714962C911497282B14962C931497D8
:1036A00060E00FC0EF5BF84F64916623D9F167FFCC
:1036B00008C014968C911497826014968C9314977A
:1036C0006F7716968C9116978617A9F117968C919D
:1036D0001797861781F118968C911897861759F1CC
:1036E00019968C911997861731F11A968C911A9721
:1036F000861709F11B968C911B978617E1F0ED0157
:10370000E0E0F0E09E2F8E81882321F4EA0FFB1F7A
:10371000668306C09F5F31962196E630F10591F7EA
:10372000963049F481E090E013969C938E93129723
:1037300020E030E007C0CD011496BD010E94DF1AE1
:1037400021E030E0C901DF91CF91089580E863EC7A
:1037500076E045E650E00E94D2160895FC01808193
:103760008F5F808380E868E277E049E150E00E9463
:10377000D2160895E89409C097FB3EF49095809581
:10378000709561957F4F8F4F9F4F9923A9F0F92F27
:1037900096E9BB279395F695879577956795B795A5
:1037A000F111F8CFFAF4BB0F11F460FF1BC06F5F8B
:1037B0007F4F8F4F9F4F16C0882311F096E911C09D
:1037C000772321F09EE8872F762F05C0662371F0BE
:1037D00096E8862F70E060E02AF09A95660F771FD2
:1037E000881FDAF7880F9695879597F9089597F9C6
:1037F0009F6780E870E060E008959FEF80EC089597
:1038000000240A94161617061806090608950024BF
:103810000A9412161306140605060895092E039439
:10382000000C11F4882352F0BB0F40F4BF2B11F4AD
:1038300060FF04C06F5F7F4F8F4F9F4F089557FD0C
:103840009058440F551F59F05F3F71F04795880F0E
:1038500097FB991F61F09F3F79F0879508951216A5
:1038600013061406551FF2CF4695F1DF08C0161651
:1038700017061806991FF1CF869571056105089402
:103880000895E894BB2766277727CB0197F9089519
:103890000BD0C4CFB5DF28F0BADF18F0952309F0BC
:1038A000A6CFABCF1124EECFCADFA0F3959FD1F303
:1038B000950F50E0551F629FF001729FBB27F00DDE
:1038C000B11D639FAA27F00DB11DAA1F649F662733
:1038D000B00DA11D661F829F2227B00DA11D621F82
:1038E000739FB00DA11D621F839FA00D611D221F3C
:1038F000749F3327A00D611D231F849F600D211D20
:10390000822F762F6A2F11249F5750408AF0E1F0C2
:1039100088234AF0EE0FFF1FBB1F661F771F881F0B
:1039200091505040A9F79E3F510570F060CFAACF4B
:103930005F3FECF3983EDCF3869577956795B795F6
:10394000F795E7959F5FC1F7FE2B880F911D969520
:10395000879597F90895629FD001739FF001829F28
:10396000E00DF11D649FE00DF11D929FF00D839F0E
:10397000F00D749FF00D659FF00D9927729FB00DAB
:10398000E11DF91F639FB00DE11DF91FBD01CF01BE
:1039900011240895A1E21A2EAA1BBB1BFD010DC024
:1039A000AA1FBB1FEE1FFF1FA217B307E407F507EF
:1039B00020F0A21BB30BE40BF50B661F771F881FCB
:1039C000991F1A9469F760957095809590959B0161
:1039D000AC01BD01CF010895EE0FFF1F0590F491DA
:0839E000E02D0994F894FFCFDB
:1039E80045646765206C6566743A20000A4C696E08
:1039F80065206C6566743A20000A4C696E65206320
:103A0800656E7465723A20000A4C696E65207269A9
:103A18006768743A20000A456467652072696768B8
:103A2800743A2000000000000000000000000000C0
:103A3800000000000000000000000000000000007E
:103A4800000000000000000000000000000000006E
:103A5800000000000000000000000000000000005E
:103A6800000000000000000000000000000000004E
:103A7800000000000000000000000000000000003E
:103A8800000000000000000000000000000000002E
:103A9800000000000000000000000000000000001E
:103AA8000000000000000000000000000101010308
:103AB8000307070F0F0F0F0F0F0703010000000088
:103AC80000000000000000000000000000000000EE
:103AD80000000000000000000000000000000000DE
:103AE80000000000000000000000000000000000CE
:103AF80000000000000000000000000000000000BE
:103B080000000000000000000000000000000000AD
:103B1800000000000000010F070000000000000086
:103B28000000000003070F3F7F7FFFFFFFFFFFFF3D
:103B3800FFFFFFFFFFFFFEFEFCFCFCFC780000001F
:103B4800000000000000000000000000000000006D
:103B5800000000000000000000000000000000005D
:103B6800000000000000000000000000000000004D
:103B7800000000000000000000000000003FFFFF00
:103B8800FFFFFFFFFF3800000000000183E1F37B27
:103B98007F3F3F1F1F3FFFFFFF1F3F7F7FFFE7C79D
:103BA8008702020280E0F0F8F8F8FCFEFEFFFFFF53
:103BB800FFFFFFFFFF1F0F070703030100000000BF
:103BC8000000060F1F1F1F1F3F3F3F3F3F3F3F3F64
:103BD8001F1F0F0F070300003F3F3F3F3F3F3F3F7F
:103BE8003F3F3F3F3F1F1F0F07000000003F3F3F81
:103BF8003F3F1F0F1F1F1F1F1E1F1F1F0EFFFFFF0F
:103C0800FFFFFFFFFF030307070F1F1F1F0E04809F
:103C180080808087CFCFDFDFDFDFE0E0E0E0E0F02B
:103C2800707030000000000000000000000000007C
:103C38008080C0C1E1E1F1F3FFFFFFFFFFFFFF7FDD
:103C48003F0F00FFFFFFFFFFFF1F0307070F0F0FC7
:103C5800BFFFFFFFFEF8F0070F1F1F1F3F3F3C3C51
:103C6800383838FFFFFFFFFFFFFF000000FFFFFFAE
:103C7800FFFFFFFF800000000000000000C0FFFF02
:103C8800FFFFFFFFFFFFFFDF8F8F0F07030100001C
:103C980000003FFFFFFFFFFFF8C00000000000002A
:103CA800000000000000000F7FFFFFFFFFFFFFFF85
:103CB800FFFFFFFFFFFFFEFEFEFCFCF8F8F0F0E060
:103CC800C08000C0FFFFFFFFFFFFFFF7F0F0E0C07C
:103CD800C080800000000080E0E0E0F0F0F0F0F04C
:103CE800F0F0F0F0F0F0F0F0F0F0000000F0F0F09C
:103CF800F0F0F0F000000000000000000000F0F01C
:103D0800F0F0F0F0C0008080C0E0E0E0E0E000000B
:103D180000F0F0F0F0F0F08000000000000000007B
:103D2800000000000000008080808080808080800B
:103D380080000000000000000000000000000000FB
:103D48000000000000E0FCFCFCFCFCF8F83000007F
:103D5800000000000000000000000000000000005B
:103D6800000000000000000000000000000000004B
:103D7800000000000000000000000000000000003B
:103D8800000000000000000000000000000000002B
:103D9800000000000000000000000000000000001B
:103DA800000000000000000000000000000000000B
:103DB80000000000000000000000000000000000FB
:103DC80000000000000000000000000000000000EB
:103DD80000000000000000000000000000000000DB
:103DE80000000000000000000000000000000000CB
:103DF80000000000000000000000000000000000BB
:103E080000000000000000000000000000000000AA
:103E1800000000000000000000000000000000009A
:103E280000000000640100E1000000000000010142
:103E380003020100070605040000000030092509F7
:103E4800000000009A0C690C220C2B0C400C510C41
:103E5800000000005512F8140412201210127D12EE
:103E68008112000000005314F814091425141514C5
:103E7800431400000000931AF814351BF21AE51ACF
:00000001FF
